{
  "address": "0xF55F09964992a86089822E5c0382277011b6F9d6",
  "abi": [
    {
      "inputs": [
        {
          "internalType": "address",
          "name": "_defaultProtocolFeeDestination",
          "type": "address"
        },
        {
          "internalType": "uint256",
          "name": "_defaultProtocolFeePercent",
          "type": "uint256"
        },
        {
          "internalType": "uint256",
          "name": "_defaultStreamerFeePercent",
          "type": "uint256"
        }
      ],
      "stateMutability": "nonpayable",
      "type": "constructor"
    },
    {
      "anonymous": false,
      "inputs": [
        {
          "indexed": false,
          "internalType": "address[]",
          "name": "tokenAddresses",
          "type": "address[]"
        }
      ],
      "name": "AlwaysTradeableSetForTokens",
      "type": "event"
    },
    {
      "anonymous": false,
      "inputs": [
        {
          "indexed": false,
          "internalType": "uint256",
          "name": "additionalDuration",
          "type": "uint256"
        },
        {
          "indexed": false,
          "internalType": "address[]",
          "name": "tokenAddresses",
          "type": "address[]"
        }
      ],
      "name": "EndTimestampIncreasedForTokens",
      "type": "event"
    },
    {
      "anonymous": false,
      "inputs": [
        {
          "indexed": true,
          "internalType": "address",
          "name": "sender",
          "type": "address"
        },
        {
          "indexed": false,
          "internalType": "uint256",
          "name": "amount",
          "type": "uint256"
        }
      ],
      "name": "EtherReceived",
      "type": "event"
    },
    {
      "anonymous": false,
      "inputs": [
        {
          "indexed": false,
          "internalType": "address",
          "name": "winnerTokenAddress",
          "type": "address"
        },
        {
          "indexed": false,
          "internalType": "uint256",
          "name": "amount",
          "type": "uint256"
        }
      ],
      "name": "FactoryMintedWinnerTokens",
      "type": "event"
    },
    {
      "anonymous": false,
      "inputs": [
        {
          "indexed": false,
          "internalType": "uint256",
          "name": "maxDuration",
          "type": "uint256"
        }
      ],
      "name": "MaxDurationSet",
      "type": "event"
    },
    {
      "anonymous": false,
      "inputs": [
        {
          "indexed": false,
          "internalType": "address[]",
          "name": "tokenAddresses",
          "type": "address[]"
        },
        {
          "indexed": true,
          "internalType": "address",
          "name": "owner",
          "type": "address"
        },
        {
          "indexed": false,
          "internalType": "string[]",
          "name": "names",
          "type": "string[]"
        },
        {
          "indexed": false,
          "internalType": "string[]",
          "name": "symbols",
          "type": "string[]"
        },
        {
          "indexed": false,
          "internalType": "uint256",
          "name": "endTimestamp",
          "type": "uint256"
        },
        {
          "indexed": false,
          "internalType": "address",
          "name": "protocolFeeDestination",
          "type": "address"
        },
        {
          "indexed": false,
          "internalType": "uint256",
          "name": "protocolFeePercent",
          "type": "uint256"
        },
        {
          "indexed": false,
          "internalType": "uint256",
          "name": "streamerFeePercent",
          "type": "uint256"
        },
        {
          "indexed": false,
          "internalType": "uint256",
          "name": "totalSupplyThreshold",
          "type": "uint256"
        },
        {
          "indexed": false,
          "internalType": "uint256",
          "name": "creationBlockNumber",
          "type": "uint256"
        },
        {
          "indexed": false,
          "internalType": "uint256",
          "name": "preSaleEndTimestamp",
          "type": "uint256"
        }
      ],
      "name": "MultipleTempTokensCreated",
      "type": "event"
    },
    {
      "anonymous": false,
      "inputs": [
        {
          "indexed": true,
          "internalType": "address",
          "name": "previousOwner",
          "type": "address"
        },
        {
          "indexed": true,
          "internalType": "address",
          "name": "newOwner",
          "type": "address"
        }
      ],
      "name": "OwnershipTransferred",
      "type": "event"
    },
    {
      "anonymous": false,
      "inputs": [
        {
          "indexed": false,
          "internalType": "bool",
          "name": "isPaused",
          "type": "bool"
        },
        {
          "indexed": false,
          "internalType": "uint256",
          "name": "numDeployedTokens",
          "type": "uint256"
        }
      ],
      "name": "PauseFactorySet",
      "type": "event"
    },
    {
      "anonymous": false,
      "inputs": [
        {
          "indexed": true,
          "internalType": "address",
          "name": "protocolFeeDestination",
          "type": "address"
        }
      ],
      "name": "ProtocolFeeDestinationSet",
      "type": "event"
    },
    {
      "anonymous": false,
      "inputs": [
        {
          "indexed": false,
          "internalType": "uint256",
          "name": "feePercent",
          "type": "uint256"
        }
      ],
      "name": "ProtocolFeePercentSet",
      "type": "event"
    },
    {
      "anonymous": false,
      "inputs": [
        {
          "indexed": false,
          "internalType": "address",
          "name": "winnerTokenAddress",
          "type": "address"
        },
        {
          "indexed": false,
          "internalType": "address",
          "name": "loserTokenAddress",
          "type": "address"
        },
        {
          "indexed": false,
          "internalType": "uint256",
          "name": "winnerTotalSupply",
          "type": "uint256"
        },
        {
          "indexed": false,
          "internalType": "uint256",
          "name": "loserTotalSupply",
          "type": "uint256"
        },
        {
          "indexed": false,
          "internalType": "uint256",
          "name": "transferredLiquidity",
          "type": "uint256"
        }
      ],
      "name": "SetWinningTokenTradeableAndTransferredLiquidity",
      "type": "event"
    },
    {
      "anonymous": false,
      "inputs": [
        {
          "indexed": false,
          "internalType": "uint256",
          "name": "feePercent",
          "type": "uint256"
        }
      ],
      "name": "StreamerFeePercentSet",
      "type": "event"
    },
    {
      "anonymous": false,
      "inputs": [
        {
          "indexed": true,
          "internalType": "address",
          "name": "tokenAddress",
          "type": "address"
        },
        {
          "indexed": true,
          "internalType": "address",
          "name": "owner",
          "type": "address"
        },
        {
          "indexed": false,
          "internalType": "string",
          "name": "name",
          "type": "string"
        },
        {
          "indexed": false,
          "internalType": "string",
          "name": "symbol",
          "type": "string"
        },
        {
          "indexed": false,
          "internalType": "uint256",
          "name": "endTimestamp",
          "type": "uint256"
        },
        {
          "indexed": false,
          "internalType": "uint256",
          "name": "protocolFeePercent",
          "type": "uint256"
        },
        {
          "indexed": false,
          "internalType": "uint256",
          "name": "streamerFeePercent",
          "type": "uint256"
        },
        {
          "indexed": false,
          "internalType": "uint256",
          "name": "totalSupplyThreshold",
          "type": "uint256"
        },
        {
          "indexed": false,
          "internalType": "uint256",
          "name": "creationBlockNumber",
          "type": "uint256"
        },
        {
          "indexed": false,
          "internalType": "uint256",
          "name": "preSaleEndTimestamp",
          "type": "uint256"
        }
      ],
      "name": "TempTokenCreated",
      "type": "event"
    },
    {
      "anonymous": false,
      "inputs": [
        {
          "indexed": false,
          "internalType": "uint256",
          "name": "totalSupplyThreshold",
          "type": "uint256"
        },
        {
          "indexed": false,
          "internalType": "address[]",
          "name": "tokenAddresses",
          "type": "address[]"
        }
      ],
      "name": "TotalSupplyThresholdSetForTokens",
      "type": "event"
    },
    {
      "stateMutability": "payable",
      "type": "fallback"
    },
    {
      "inputs": [
        {
          "internalType": "address",
          "name": "",
          "type": "address"
        }
      ],
      "name": "admins",
      "outputs": [
        {
          "internalType": "bool",
          "name": "",
          "type": "bool"
        }
      ],
      "stateMutability": "view",
      "type": "function"
    },
    {
      "inputs": [
        {
          "internalType": "string[]",
          "name": "names",
          "type": "string[]"
        },
        {
          "internalType": "string[]",
          "name": "symbols",
          "type": "string[]"
        },
        {
          "internalType": "uint256",
          "name": "duration",
          "type": "uint256"
        },
        {
          "internalType": "uint256",
          "name": "totalSupplyThreshold",
          "type": "uint256"
        },
        {
          "internalType": "uint256",
          "name": "preSaleDuration",
          "type": "uint256"
        }
      ],
      "name": "createMultipleTempTokens",
      "outputs": [
        {
          "internalType": "address[]",
          "name": "",
          "type": "address[]"
        }
      ],
      "stateMutability": "nonpayable",
      "type": "function"
    },
    {
      "inputs": [
        {
          "internalType": "string",
          "name": "name",
          "type": "string"
        },
        {
          "internalType": "string",
          "name": "symbol",
          "type": "string"
        },
        {
          "internalType": "uint256",
          "name": "duration",
          "type": "uint256"
        },
        {
          "internalType": "uint256",
          "name": "totalSupplyThreshold",
          "type": "uint256"
        },
        {
          "internalType": "uint256",
          "name": "preSaleDuration",
          "type": "uint256"
        }
      ],
      "name": "createTempToken",
      "outputs": [
        {
          "internalType": "address",
          "name": "",
          "type": "address"
        }
      ],
      "stateMutability": "nonpayable",
      "type": "function"
    },
    {
      "inputs": [],
      "name": "defaultProtocolFeeDestination",
      "outputs": [
        {
          "internalType": "address",
          "name": "",
          "type": "address"
        }
      ],
      "stateMutability": "view",
      "type": "function"
    },
    {
      "inputs": [],
      "name": "defaultProtocolFeePercent",
      "outputs": [
        {
          "internalType": "uint256",
          "name": "",
          "type": "uint256"
        }
      ],
      "stateMutability": "view",
      "type": "function"
    },
    {
      "inputs": [],
      "name": "defaultStreamerFeePercent",
      "outputs": [
        {
          "internalType": "uint256",
          "name": "",
          "type": "uint256"
        }
      ],
      "stateMutability": "view",
      "type": "function"
    },
    {
      "inputs": [
        {
          "internalType": "address",
          "name": "",
          "type": "address"
        }
      ],
      "name": "deployedTokenIndices",
      "outputs": [
        {
          "internalType": "uint256",
          "name": "",
          "type": "uint256"
        }
      ],
      "stateMutability": "view",
      "type": "function"
    },
    {
      "inputs": [
        {
          "internalType": "uint256",
          "name": "",
          "type": "uint256"
        }
      ],
      "name": "deployedTokens",
      "outputs": [
        {
          "internalType": "address",
          "name": "tokenAddress",
          "type": "address"
        },
        {
          "internalType": "address",
          "name": "ownerAddress",
          "type": "address"
        },
        {
          "internalType": "string",
          "name": "name",
          "type": "string"
        },
        {
          "internalType": "string",
          "name": "symbol",
          "type": "string"
        },
        {
          "internalType": "uint256",
          "name": "endTimestamp",
          "type": "uint256"
        },
        {
          "internalType": "address",
          "name": "protocolFeeDestination",
          "type": "address"
        },
        {
          "internalType": "uint256",
          "name": "protocolFeePercent",
          "type": "uint256"
        },
        {
          "internalType": "uint256",
          "name": "streamerFeePercent",
          "type": "uint256"
        },
        {
          "internalType": "uint256",
          "name": "creationBlockNumber",
          "type": "uint256"
        },
        {
          "internalType": "uint256",
          "name": "preSaleEndTimestamp",
          "type": "uint256"
        }
      ],
      "stateMutability": "view",
      "type": "function"
    },
    {
      "inputs": [],
      "name": "getBalance",
      "outputs": [
        {
          "internalType": "uint256",
          "name": "",
          "type": "uint256"
        }
      ],
      "stateMutability": "view",
      "type": "function"
    },
    {
      "inputs": [
        {
          "internalType": "address",
          "name": "tokenAddress",
          "type": "address"
        }
      ],
      "name": "getTokenInfo",
      "outputs": [
        {
          "components": [
            {
              "internalType": "address",
              "name": "tokenAddress",
              "type": "address"
            },
            {
              "internalType": "address",
              "name": "ownerAddress",
              "type": "address"
            },
            {
              "internalType": "string",
              "name": "name",
              "type": "string"
            },
            {
              "internalType": "string",
              "name": "symbol",
              "type": "string"
            },
            {
              "internalType": "uint256",
              "name": "endTimestamp",
              "type": "uint256"
            },
            {
              "internalType": "address",
              "name": "protocolFeeDestination",
              "type": "address"
            },
            {
              "internalType": "uint256",
              "name": "protocolFeePercent",
              "type": "uint256"
            },
            {
              "internalType": "uint256",
              "name": "streamerFeePercent",
              "type": "uint256"
            },
            {
              "internalType": "uint256",
              "name": "creationBlockNumber",
              "type": "uint256"
            },
            {
              "internalType": "uint256",
              "name": "preSaleEndTimestamp",
              "type": "uint256"
            }
          ],
          "internalType": "struct TempTokenFactoryV1.TokenInfo",
          "name": "",
          "type": "tuple"
        }
      ],
      "stateMutability": "view",
      "type": "function"
    },
    {
      "inputs": [
        {
          "internalType": "uint256",
          "name": "_additionalDurationInSeconds",
          "type": "uint256"
        },
        {
          "internalType": "address[]",
          "name": "_tokenAddresses",
          "type": "address[]"
        }
      ],
      "name": "increaseEndTimestampForTokens",
      "outputs": [],
      "stateMutability": "nonpayable",
      "type": "function"
    },
    {
      "inputs": [],
      "name": "isPaused",
      "outputs": [
        {
          "internalType": "bool",
          "name": "",
          "type": "bool"
        }
      ],
      "stateMutability": "view",
      "type": "function"
    },
    {
      "inputs": [],
      "name": "maxDuration",
      "outputs": [
        {
          "internalType": "uint256",
          "name": "",
          "type": "uint256"
        }
      ],
      "stateMutability": "view",
      "type": "function"
    },
    {
      "inputs": [
        {
          "internalType": "address",
          "name": "_winnerTokenAddress",
          "type": "address"
        },
        {
          "internalType": "uint256",
          "name": "_amount",
          "type": "uint256"
        }
      ],
      "name": "mintWinnerTokens",
      "outputs": [],
      "stateMutability": "nonpayable",
      "type": "function"
    },
    {
      "inputs": [],
      "name": "numDeployedTokens",
      "outputs": [
        {
          "internalType": "uint256",
          "name": "",
          "type": "uint256"
        }
      ],
      "stateMutability": "view",
      "type": "function"
    },
    {
      "inputs": [],
      "name": "owner",
      "outputs": [
        {
          "internalType": "address",
          "name": "",
          "type": "address"
        }
      ],
      "stateMutability": "view",
      "type": "function"
    },
    {
      "inputs": [],
      "name": "renounceOwnership",
      "outputs": [],
      "stateMutability": "nonpayable",
      "type": "function"
    },
    {
      "inputs": [
        {
          "internalType": "address",
          "name": "_address",
          "type": "address"
        },
        {
          "internalType": "bool",
          "name": "_onlyAdmin",
          "type": "bool"
        }
      ],
      "name": "setAdmin",
      "outputs": [],
      "stateMutability": "nonpayable",
      "type": "function"
    },
    {
      "inputs": [
        {
          "internalType": "address[]",
          "name": "_tokenAddresses",
          "type": "address[]"
        }
      ],
      "name": "setAlwaysTradeableForTokens",
      "outputs": [],
      "stateMutability": "nonpayable",
      "type": "function"
    },
    {
      "inputs": [
        {
          "internalType": "address",
          "name": "protocolFeeDestination",
          "type": "address"
        }
      ],
      "name": "setFeeDestination",
      "outputs": [],
      "stateMutability": "nonpayable",
      "type": "function"
    },
    {
      "inputs": [
        {
          "internalType": "uint256",
          "name": "_maxDuration",
          "type": "uint256"
        }
      ],
      "name": "setMaxDuration",
      "outputs": [],
      "stateMutability": "nonpayable",
      "type": "function"
    },
    {
      "inputs": [
        {
          "internalType": "bool",
          "name": "_isPaused",
          "type": "bool"
        }
      ],
      "name": "setPauseFactory",
      "outputs": [],
      "stateMutability": "nonpayable",
      "type": "function"
    },
    {
      "inputs": [
        {
          "internalType": "uint256",
          "name": "_feePercent",
          "type": "uint256"
        }
      ],
      "name": "setProtocolFeePercent",
      "outputs": [],
      "stateMutability": "nonpayable",
      "type": "function"
    },
    {
      "inputs": [
        {
          "internalType": "uint256",
          "name": "_feePercent",
          "type": "uint256"
        }
      ],
      "name": "setStreamerFeePercent",
      "outputs": [],
      "stateMutability": "nonpayable",
      "type": "function"
    },
    {
      "inputs": [
        {
          "internalType": "uint256",
          "name": "_totalSupplyThreshold",
          "type": "uint256"
        },
        {
          "internalType": "address[]",
          "name": "_tokenAddresses",
          "type": "address[]"
        }
      ],
      "name": "setTotalSupplyThresholdForTokens",
      "outputs": [],
      "stateMutability": "nonpayable",
      "type": "function"
    },
    {
      "inputs": [
        {
          "internalType": "address",
          "name": "_winningTokenAddress",
          "type": "address"
        },
        {
          "internalType": "address",
          "name": "_losingTokenAddress",
          "type": "address"
        }
      ],
      "name": "setWinningTokenTradeableAndTransferLiquidity",
      "outputs": [],
      "stateMutability": "nonpayable",
      "type": "function"
    },
    {
      "inputs": [
        {
          "internalType": "address",
          "name": "newOwner",
          "type": "address"
        }
      ],
      "name": "transferOwnership",
      "outputs": [],
      "stateMutability": "nonpayable",
      "type": "function"
    },
    {
      "stateMutability": "payable",
      "type": "receive"
    }
  ],
  "transactionHash": "0x7df66981b43455f860791ce842463d4fc6f8405e0570dabff3a19408e7f7a1d4",
  "args": [
    "0x53D6D64945A67658C66730Ff4a038eb298eC8902",
    "70000000000000000",
    "70000000000000000"
  ],
  "numDeployments": 31,
  "solcInputHash": "69da0fde662361103cef4e5e868aa1a4",
  "bytecode": "0x60806040523480156200001157600080fd5b5060405162005e4138038062005e4183398101604081905262000034916200012e565b6200003f33620000de565b6001600160a01b038316620000a95760405162461bcd60e51b815260206004820152602660248201527f44656661756c74206665652064657374696e6174696f6e2063616e6e6f74206260448201526565207a65726f60d01b606482015260840160405180910390fd5b600591909155600655600780546001600160a01b0319166001600160a01b0392909216919091179055610e1060085562000173565b600080546001600160a01b038381166001600160a01b0319831681178455604051919092169283917f8be0079c531659141344cd1fd0a4f28419497f9722a3daafe3b4186f6b6457e09190a35050565b6000806000606084860312156200014457600080fd5b83516001600160a01b03811681146200015c57600080fd5b602085015160409095015190969495509392505050565b615cbe80620001836000396000f3fe608060405260043610620001c95760003560e01c80638a44e58a1162000103578063bb5dfe191162000097578063ec81aadb116200006d578063ec81aadb14620005a8578063edb4044714620005e5578063f2fde38b1462000607578063fbe53234146200062c5762000207565b8063bb5dfe191462000553578063cf0f34c4146200056b578063d7f2054914620005905762000207565b806396266d9c11620000d957806396266d9c14620004b5578063a498342114620004e6578063b187bd26146200050b578063b946933b146200052e5762000207565b80638a44e58a146200043c5780638a8d90c614620004615780638da5cb5b14620004955762000207565b8063429b62e5116200017b5780636db5c8fd11620001515780636db5c8fd14620003c25780636e3eb6f414620003da578063715018a614620003ff5780637a31c18514620004175762000207565b8063429b62e514620003405780634416178314620003855780634b0bddd2146200039d5762000207565b80630491b60e146200023a57806312065fe0146200027c578063160cbba2146200029b5780631f69565f14620002c257806320b1f08d14620002f657806329449981146200031b5762000207565b36620002075760405134815233907f1e57e3bb474320be3d2c77138f75b7c3941292d647f5f9634e33a8e94e0e069b906020015b60405180910390a2005b60405134815233907f1e57e3bb474320be3d2c77138f75b7c3941292d647f5f9634e33a8e94e0e069b90602001620001fd565b3480156200024757600080fd5b506200025f6200025936600462002a98565b62000651565b6040516001600160a01b0390911681526020015b60405180910390f35b3480156200028957600080fd5b50475b60405190815260200162000273565b348015620002a857600080fd5b50620002c0620002ba36600462002b34565b62000a16565b005b348015620002cf57600080fd5b50620002e7620002e136600462002b72565b6200113d565b60405162000273919062002bfa565b3480156200030357600080fd5b50620002c06200031536600462002d21565b62001377565b3480156200032857600080fd5b50620002c06200033a36600462002d21565b620014d7565b3480156200034d57600080fd5b50620003746200035f36600462002b72565b60046020526000908152604090205460ff1681565b604051901515815260200162000273565b3480156200039257600080fd5b506200028c60055481565b348015620003aa57600080fd5b50620002c0620003bc36600462002d80565b6200167c565b348015620003cf57600080fd5b506200028c60085481565b348015620003e757600080fd5b50620002c0620003f936600462002db3565b62001700565b3480156200040c57600080fd5b50620002c0620017b1565b3480156200042457600080fd5b50620002c06200043636600462002dd3565b620017c9565b3480156200044957600080fd5b50620002c06200045b36600462002ded565b6200184c565b3480156200046e57600080fd5b50620004866200048036600462002ede565b6200199b565b60405162000273919062002f8a565b348015620004a257600080fd5b506000546001600160a01b03166200025f565b348015620004c257600080fd5b506200028c620004d436600462002b72565b60026020526000908152604090205481565b348015620004f357600080fd5b50620002c06200050536600462002dd3565b62001f0c565b3480156200051857600080fd5b506007546200037490600160a01b900460ff1681565b3480156200053b57600080fd5b50620002c06200054d36600462002f9f565b62001f8f565b3480156200056057600080fd5b506200028c60015481565b3480156200057857600080fd5b50620002c06200058a36600462002dd3565b6200249a565b3480156200059d57600080fd5b506200028c60065481565b348015620005b557600080fd5b50620005cd620005c736600462002dd3565b6200256f565b604051620002739a9998979695949392919062002fce565b348015620005f257600080fd5b506007546200025f906001600160a01b031681565b3480156200061457600080fd5b50620002c06200062636600462002b72565b620026f6565b3480156200063957600080fd5b50620002c06200064b36600462002b72565b62002775565b600754600090600160a01b900460ff1615620006a85760405162461bcd60e51b8152602060048201526011602482015270119858dd1bdc9e481a5cc81c185d5cd959607a1b60448201526064015b60405180910390fd5b600854841115620006cd5760405162461bcd60e51b81526004016200069f906200304c565b60008411620007165760405162461bcd60e51b815260206004820152601460248201527304475726174696f6e2063616e6e6f7420626520360641b60448201526064016200069f565b6000620007248542620030a6565b90506000620007348442620030a6565b905060004390506000898985600760009054906101000a90046001600160a01b03166005546006548c30898b6040516200076e9062002923565b620007839a99989796959493929190620030c1565b604051809103906000f080158015620007a0573d6000803e3d6000fd5b5090506000600160008154620007b6906200313b565b9190508190559050604051806101400160405280836001600160a01b03168152602001336001600160a01b031681526020018c81526020018b8152602001868152602001600760009054906101000a90046001600160a01b03166001600160a01b0316815260200160055481526020016006548152602001848152602001858152506003600083815260200190815260200160002060008201518160000160006101000a8154816001600160a01b0302191690836001600160a01b0316021790555060208201518160010160006101000a8154816001600160a01b0302191690836001600160a01b031602179055506040820151816002019080519060200190620008c392919062002931565b5060608201518051620008e191600384019160209091019062002931565b50608082015160048281019190915560a08301516005830180546001600160a01b0319166001600160a01b0392831617905560c0840151600684015560e08401516007840155610100840151600884015561012090930151600990920191909155908316600081815260026020526040908190208490555163f2fde38b60e01b815233928101929092529063f2fde38b90602401600060405180830381600087803b1580156200099057600080fd5b505af1158015620009a5573d6000803e3d6000fd5b50505050336001600160a01b0316826001600160a01b03167f89a79c6c5196c3d5f4b28d7aa2b5c61a94d8499b341cb69cd134bac9db58a8798d8d896005546006548f8b8d60405162000a0098979695949392919062003159565b60405180910390a3509998505050505050505050565b6001600160a01b0382161580159062000a3757506001600160a01b03811615155b62000a935760405162461bcd60e51b815260206004820152602560248201527f4f6e65206f7220626f746820746f6b656e2061646472657373657320617265206044820152643d32b9379760d91b60648201526084016200069f565b60008290506000829050336001600160a01b0316826001600160a01b0316638da5cb5b6040518163ffffffff1660e01b815260040160206040518083038186803b15801562000ae157600080fd5b505afa15801562000af6573d6000803e3d6000fd5b505050506040513d601f19601f8201168201806040525081019062000b1c9190620031b8565b6001600160a01b031614801562000bb85750336001600160a01b0316816001600160a01b0316638da5cb5b6040518163ffffffff1660e01b815260040160206040518083038186803b15801562000b7257600080fd5b505afa15801562000b87573d6000803e3d6000fd5b505050506040513d601f19601f8201168201806040525081019062000bad9190620031b8565b6001600160a01b0316145b62000c155760405162461bcd60e51b815260206004820152602660248201527f43616c6c6572206973206e6f7420746865206f776e6572206f6620626f746820604482015265746f6b656e7360d01b60648201526084016200069f565b806001600160a01b0316631bf309296040518163ffffffff1660e01b815260040160206040518083038186803b15801562000c4f57600080fd5b505afa15801562000c64573d6000803e3d6000fd5b505050506040513d601f19601f8201168201806040525081019062000c8a9190620031d8565b826001600160a01b0316631bf309296040518163ffffffff1660e01b815260040160206040518083038186803b15801562000cc457600080fd5b505afa15801562000cd9573d6000803e3d6000fd5b505050506040513d601f19601f8201168201806040525081019062000cff9190620031d8565b1462000d605760405162461bcd60e51b815260206004820152602960248201527f546f6b656e732077657265206e6f74206372656174656420696e207468652073604482015268616d6520626c6f636b60b81b60648201526084016200069f565b42826001600160a01b031663a85adeab6040518163ffffffff1660e01b815260040160206040518083038186803b15801562000d9b57600080fd5b505afa15801562000db0573d6000803e3d6000fd5b505050506040513d601f19601f8201168201806040525081019062000dd69190620031d8565b10801562000e57575042816001600160a01b031663a85adeab6040518163ffffffff1660e01b815260040160206040518083038186803b15801562000e1a57600080fd5b505afa15801562000e2f573d6000803e3d6000fd5b505050506040513d601f19601f8201168201806040525081019062000e559190620031d8565b105b62000ea55760405162461bcd60e51b815260206004820152601d60248201527f426f746820746f6b656e73206d7573742065787069726520666972737400000060448201526064016200069f565b816001600160a01b031663bd95ff136040518163ffffffff1660e01b8152600401600060405180830381600087803b15801562000ee157600080fd5b505af115801562000ef6573d6000803e3d6000fd5b50505050600080826001600160a01b03166312065fe06040518163ffffffff1660e01b815260040160206040518083038186803b15801562000f3757600080fd5b505afa15801562000f4c573d6000803e3d6000fd5b505050506040513d601f19601f8201168201806040525081019062000f729190620031d8565b111562000ff357816001600160a01b0316630b00e8f46040518163ffffffff1660e01b8152600401602060405180830381600087803b15801562000fb557600080fd5b505af115801562000fca573d6000803e3d6000fd5b505050506040513d601f19601f8201168201806040525081019062000ff09190620031d8565b90505b7f930e3af5285b593d687f5fab3ba175eb7f96c736deda3bb2c696f1f0df7e4f818585856001600160a01b03166318160ddd6040518163ffffffff1660e01b815260040160206040518083038186803b1580156200105057600080fd5b505afa15801562001065573d6000803e3d6000fd5b505050506040513d601f19601f820116820180604052508101906200108b9190620031d8565b856001600160a01b03166318160ddd6040518163ffffffff1660e01b815260040160206040518083038186803b158015620010c557600080fd5b505afa158015620010da573d6000803e3d6000fd5b505050506040513d601f19601f82011682018060405250810190620011009190620031d8565b604080516001600160a01b0395861681529490931660208501529183015260608201526080810183905260a0015b60405180910390a15050505050565b620011af60405180610140016040528060006001600160a01b0316815260200160006001600160a01b0316815260200160608152602001606081526020016000815260200160006001600160a01b03168152602001600081526020016000815260200160008152602001600081525090565b6001600160a01b0380831660009081526002602081815260408084205484526003825292839020835161014081018552815486168152600182015490951691850191909152908101805491928401916200120990620031f2565b80601f01602080910402602001604051908101604052809291908181526020018280546200123790620031f2565b8015620012885780601f106200125c5761010080835404028352916020019162001288565b820191906000526020600020905b8154815290600101906020018083116200126a57829003601f168201915b50505050508152602001600382018054620012a390620031f2565b80601f0160208091040260200160405190810160405280929190818152602001828054620012d190620031f2565b8015620013225780601f10620012f65761010080835404028352916020019162001322565b820191906000526020600020905b8154815290600101906020018083116200130457829003601f168201915b50505091835250506004820154602082015260058201546001600160a01b031660408201526006820154606082015260078201546080820152600882015460a082015260099091015460c09091015292915050565b6000546001600160a01b0316331480620013a557503360009081526004602052604090205460ff1615156001145b620013c45760405162461bcd60e51b81526004016200069f906200322f565b80620013e45760405162461bcd60e51b81526004016200069f9062003270565b60005b818110156200149457828282818110620014055762001405620032a7565b90506020020160208101906200141c919062002b72565b6001600160a01b0316637714671b856040518263ffffffff1660e01b81526004016200144a91815260200190565b600060405180830381600087803b1580156200146557600080fd5b505af11580156200147a573d6000803e3d6000fd5b5050505080806200148b906200313b565b915050620013e7565b507f7d71de3016694b4b987abe9daa72dbbf8b23f45a5d8e8f8af0c20d4759727f51838383604051620014ca93929190620032ff565b60405180910390a1505050565b6000546001600160a01b03163314806200150557503360009081526004602052604090205460ff1615156001145b620015245760405162461bcd60e51b81526004016200069f906200322f565b60008311620015765760405162461bcd60e51b815260206004820152601f60248201527f4164646974696f6e616c206475726174696f6e2063616e6e6f7420626520300060448201526064016200069f565b80620015965760405162461bcd60e51b81526004016200069f9062003270565b60005b818110156200164657828282818110620015b757620015b7620032a7565b9050602002016020810190620015ce919062002b72565b6001600160a01b031663291d2ffd856040518263ffffffff1660e01b8152600401620015fc91815260200190565b600060405180830381600087803b1580156200161757600080fd5b505af11580156200162c573d6000803e3d6000fd5b5050505080806200163d906200313b565b91505062001599565b507fa2538f90e81ed5058ad53a8549c0adb17119fbd7be5a5d6c638f543836c68100838383604051620014ca93929190620032ff565b6200168662002877565b6001600160a01b038216620016d55760405162461bcd60e51b815260206004820152601460248201527341646d696e2063616e6e6f74206265207a65726f60601b60448201526064016200069f565b6001600160a01b03919091166000908152600460205260409020805460ff1916911515919091179055565b6000546001600160a01b03163314806200172e57503360009081526004602052604090205460ff1615156001145b6200174d5760405162461bcd60e51b81526004016200069f906200322f565b60078054821515600160a01b0260ff60a01b199091161790556001546040517fd119587be04d80080c64717a0dc158c674898c4fe140498ffd144e1f6645d8b991620017a6918491909115158252602082015260400190565b60405180910390a150565b620017bb62002877565b620017c76000620028d3565b565b6000546001600160a01b0316331480620017f757503360009081526004602052604090205460ff1615156001145b620018165760405162461bcd60e51b81526004016200069f906200322f565b60068190556040518181527f444c2ee6a42985e86e4d1c21435989ae523bae8ee02a11e8579bc4ac18b1d4ae90602001620017a6565b6000546001600160a01b03163314806200187a57503360009081526004602052604090205460ff1615156001145b620018995760405162461bcd60e51b81526004016200069f906200322f565b80620018b95760405162461bcd60e51b81526004016200069f9062003270565b60005b818110156200195b57828282818110620018da57620018da620032a7565b9050602002016020810190620018f1919062002b72565b6001600160a01b031663bd95ff136040518163ffffffff1660e01b8152600401600060405180830381600087803b1580156200192c57600080fd5b505af115801562001941573d6000803e3d6000fd5b50505050808062001952906200313b565b915050620018bc565b507f3c3bf9b3ca7eb42afe7cc26bab63bbb5b0c2542714bb57d0e28eda616e4f4d2f82826040516200198f92919062003324565b60405180910390a15050565b600754606090600160a01b900460ff1615620019ee5760405162461bcd60e51b8152602060048201526011602482015270119858dd1bdc9e481a5cc81c185d5cd959607a1b60448201526064016200069f565b60085484111562001a135760405162461bcd60e51b81526004016200069f906200304c565b6000841162001a5c5760405162461bcd60e51b815260206004820152601460248201527304475726174696f6e2063616e6e6f7420626520360641b60448201526064016200069f565b600186511162001ac15760405162461bcd60e51b815260206004820152602960248201527f4e616d6573206172726179206d7573742068617665206d6f7265207468616e206044820152680c48195b195b595b9d60ba1b60648201526084016200069f565b845186511462001b2d5760405162461bcd60e51b815260206004820152603060248201527f4e616d657320616e642073796d626f6c732061727261797320617265206e6f7460448201526f040e8d0ca40e6c2daca40d8cadccee8d60831b60648201526084016200069f565b6000865167ffffffffffffffff81111562001b4c5762001b4c620029d7565b60405190808252806020026020018201604052801562001b76578160200160208202803683370190505b509050600062001b878642620030a6565b9050600062001b978542620030a6565b90504360005b8a5181101562001e8f5760008b828151811062001bbe5762001bbe620032a7565b60200260200101518b838151811062001bdb5762001bdb620032a7565b602002602001015186600760009054906101000a90046001600160a01b03166005546006548e308a8c60405162001c129062002923565b62001c279a99989796959493929190620030c1565b604051809103906000f08015801562001c44573d6000803e3d6000fd5b509050600060016000815462001c5a906200313b565b9190508190559050604051806101400160405280836001600160a01b03168152602001336001600160a01b031681526020018e858151811062001ca15762001ca1620032a7565b602002602001015181526020018d858151811062001cc35762001cc3620032a7565b60209081029190910181015182528181018990526007546001600160a01b039081166040808501919091526005546060850152600654608085015260a0840189905260c0909301899052600085815260038352839020845181549083166001600160a01b0319918216178255858401516001830180549190941691161790915591830151805162001d5b926002850192019062002931565b506060820151805162001d7991600384019160209091019062002931565b50608082015160048281019190915560a08301516005830180546001600160a01b0319166001600160a01b0392831617905560c0840151600684015560e08401516007840155610100840151600884015561012090930151600990920191909155908316600081815260026020526040908190208490555163f2fde38b60e01b815233928101929092529063f2fde38b90602401600060405180830381600087803b15801562001e2857600080fd5b505af115801562001e3d573d6000803e3d6000fd5b505050508187848151811062001e575762001e57620032a7565b60200260200101906001600160a01b031690816001600160a01b0316815250505050808062001e86906200313b565b91505062001b9d565b50336001600160a01b03167f8d44f15e3df78e0debfc202b991b7a872d37ecf01c2648a4ff94e931ee0ee44f858c8c87600760009054906101000a90046001600160a01b03166005546006548f8a8c60405162001ef69a9998979695949392919062003398565b60405180910390a2509198975050505050505050565b6000546001600160a01b031633148062001f3a57503360009081526004602052604090205460ff1615156001145b62001f595760405162461bcd60e51b81526004016200069f906200322f565b60058190556040518181527fa318485d4b7a387f0695a0179248931f1d023e08844d98b4e9e34775324bceb590602001620017a6565b6001600160a01b03821662001ff35760405162461bcd60e51b8152602060048201526024808201527f57696e6e657220746f6b656e20616464726573732063616e6e6f74206265207a60448201526332b9379760e11b60648201526084016200069f565b6000829050336001600160a01b0316816001600160a01b0316638da5cb5b6040518163ffffffff1660e01b815260040160206040518083038186803b1580156200203c57600080fd5b505afa15801562002051573d6000803e3d6000fd5b505050506040513d601f19601f82011682018060405250810190620020779190620031b8565b6001600160a01b031614620020dd5760405162461bcd60e51b815260206004820152602560248201527f43616c6c6572206973206e6f7420746865206f776e6572206f662074686973206044820152643a37b5b2b760d91b60648201526084016200069f565b806001600160a01b031663bf548dcb6040518163ffffffff1660e01b815260040160206040518083038186803b1580156200211757600080fd5b505afa1580156200212c573d6000803e3d6000fd5b505050506040513d601f19601f820116820180604052508101906200215291906200341e565b620021b45760405162461bcd60e51b815260206004820152602b60248201527f57696e6e657220746f6b656e206973206e6f742073657420746f20616c77617960448201526a7320747261646561626c6560a81b60648201526084016200069f565b6040516370a0823160e01b81523060048201526001600160a01b038216906370a082319060240160206040518083038186803b158015620021f457600080fd5b505afa15801562002209573d6000803e3d6000fd5b505050506040513d601f19601f820116820180604052508101906200222f9190620031d8565b15620022895760405162461bcd60e51b815260206004820152602260248201527f466163746f727920616c7265616479206f776e732077696e6e657220746f6b656044820152616e7360f01b60648201526084016200069f565b604051631c6581bd60e11b8152600481018390526000906001600160a01b038316906338cb037a9060240160206040518083038186803b158015620022cd57600080fd5b505afa158015620022e2573d6000803e3d6000fd5b505050506040513d601f19601f82011682018060405250810190620023089190620031d8565b90504781106200237a5760405162461bcd60e51b815260206004820152603660248201527f466163746f727920646f6573206e6f74206861766520656e6f7567682045544860448201527520746f206d696e742077696e6e657220746f6b656e7360501b60648201526084016200069f565b6000826001600160a01b031682856040516024016200239b91815260200190565b60408051601f198184030181529181526020820180516001600160e01b031663140e25ad60e31b17905251620023d291906200343e565b60006040518083038185875af1925050503d806000811462002411576040519150601f19603f3d011682016040523d82523d6000602084013e62002416565b606091505b50509050806200245a5760405162461bcd60e51b815260206004820152600e60248201526d135a5b9d1a5b99c819985a5b195960921b60448201526064016200069f565b604080516001600160a01b0387168152602081018690527f719156b0c976eddf969dc14198efacae73081cc9fdfc866275f4097d8758e72391016200112e565b6000546001600160a01b0316331480620024c857503360009081526004602052604090205460ff1615156001145b620024e75760405162461bcd60e51b81526004016200069f906200322f565b60008111620025395760405162461bcd60e51b815260206004820152601860248201527f4d6178206475726174696f6e2063616e6e6f742062652030000000000000000060448201526064016200069f565b60088190556040518181527fba0716ba1ee2ea8ecc4c64119b4537cdb42a99d82acf92af5b87607b8b52355290602001620017a6565b6003602052600090815260409020805460018201546002830180546001600160a01b03938416949290931692620025a690620031f2565b80601f0160208091040260200160405190810160405280929190818152602001828054620025d490620031f2565b8015620026255780601f10620025f95761010080835404028352916020019162002625565b820191906000526020600020905b8154815290600101906020018083116200260757829003601f168201915b5050505050908060030180546200263c90620031f2565b80601f01602080910402602001604051908101604052809291908181526020018280546200266a90620031f2565b8015620026bb5780601f106200268f57610100808354040283529160200191620026bb565b820191906000526020600020905b8154815290600101906020018083116200269d57829003601f168201915b50505060048401546005850154600686015460078701546008880154600990980154969793966001600160a01b03909316955090935091908a565b6200270062002877565b6001600160a01b038116620027675760405162461bcd60e51b815260206004820152602660248201527f4f776e61626c653a206e6577206f776e657220697320746865207a65726f206160448201526564647265737360d01b60648201526084016200069f565b6200277281620028d3565b50565b6000546001600160a01b0316331480620027a357503360009081526004602052604090205460ff1615156001145b620027c25760405162461bcd60e51b81526004016200069f906200322f565b6001600160a01b0381166200282d5760405162461bcd60e51b815260206004820152602a60248201527f4665652064657374696e6174696f6e2063616e6e6f7420626520746865207a65604482015269726f206164647265737360b01b60648201526084016200069f565b600780546001600160a01b0319166001600160a01b0383169081179091556040517f262538484f9e0f43acdcef80a543c1aecfc0b210b993fd3d09bd77ee95b9d34490600090a250565b6000546001600160a01b03163314620017c75760405162461bcd60e51b815260206004820181905260248201527f4f776e61626c653a2063616c6c6572206973206e6f7420746865206f776e657260448201526064016200069f565b600080546001600160a01b038381166001600160a01b0319831681178455604051919092169283917f8be0079c531659141344cd1fd0a4f28419497f9722a3daafe3b4186f6b6457e09190a35050565b61282c806200345d83390190565b8280546200293f90620031f2565b90600052602060002090601f016020900481019282620029635760008555620029ae565b82601f106200297e57805160ff1916838001178555620029ae565b82800160010185558215620029ae579182015b82811115620029ae57825182559160200191906001019062002991565b50620029bc929150620029c0565b5090565b5b80821115620029bc5760008155600101620029c1565b634e487b7160e01b600052604160045260246000fd5b604051601f8201601f1916810167ffffffffffffffff8111828210171562002a195762002a19620029d7565b604052919050565b600082601f83011262002a3357600080fd5b813567ffffffffffffffff81111562002a505762002a50620029d7565b62002a65601f8201601f1916602001620029ed565b81815284602083860101111562002a7b57600080fd5b816020850160208301376000918101602001919091529392505050565b600080600080600060a0868803121562002ab157600080fd5b853567ffffffffffffffff8082111562002aca57600080fd5b62002ad889838a0162002a21565b9650602088013591508082111562002aef57600080fd5b5062002afe8882890162002a21565b959895975050505060408401359360608101359360809091013592509050565b6001600160a01b03811681146200277257600080fd5b6000806040838503121562002b4857600080fd5b823562002b558162002b1e565b9150602083013562002b678162002b1e565b809150509250929050565b60006020828403121562002b8557600080fd5b813562002b928162002b1e565b9392505050565b60005b8381101562002bb657818101518382015260200162002b9c565b8381111562002bc6576000848401525b50505050565b6000815180845262002be681602086016020860162002b99565b601f01601f19169290920160200192915050565b6020815262002c156020820183516001600160a01b03169052565b6000602083015162002c3260408401826001600160a01b03169052565b50604083015161014080606085015262002c5161016085018362002bcc565b91506060850151601f1985840301608086015262002c70838262002bcc565b925050608085015160a085015260a085015162002c9860c08601826001600160a01b03169052565b5060c085015160e0858101919091528501516101008086019190915285015161012080860191909152909401519390920192909252919050565b60008083601f84011262002ce557600080fd5b50813567ffffffffffffffff81111562002cfe57600080fd5b6020830191508360208260051b850101111562002d1a57600080fd5b9250929050565b60008060006040848603121562002d3757600080fd5b83359250602084013567ffffffffffffffff81111562002d5657600080fd5b62002d648682870162002cd2565b9497909650939450505050565b80151581146200277257600080fd5b6000806040838503121562002d9457600080fd5b823562002da18162002b1e565b9150602083013562002b678162002d71565b60006020828403121562002dc657600080fd5b813562002b928162002d71565b60006020828403121562002de657600080fd5b5035919050565b6000806020838503121562002e0157600080fd5b823567ffffffffffffffff81111562002e1957600080fd5b62002e278582860162002cd2565b90969095509350505050565b600082601f83011262002e4557600080fd5b8135602067ffffffffffffffff8083111562002e655762002e65620029d7565b8260051b62002e76838201620029ed565b938452858101830193838101908886111562002e9157600080fd5b84880192505b8583101562002ed25782358481111562002eb15760008081fd5b62002ec18a87838c010162002a21565b835250918401919084019062002e97565b98975050505050505050565b600080600080600060a0868803121562002ef757600080fd5b853567ffffffffffffffff8082111562002f1057600080fd5b62002f1e89838a0162002e33565b9650602088013591508082111562002f3557600080fd5b5062002afe8882890162002e33565b600081518084526020808501945080840160005b8381101562002f7f5781516001600160a01b03168752958201959082019060010162002f58565b509495945050505050565b60208152600062002b92602083018462002f44565b6000806040838503121562002fb357600080fd5b823562002fc08162002b1e565b946020939093013593505050565b6001600160a01b038b811682528a811660208301526101406040830181905260009162002ffe8483018d62002bcc565b9150838203606085015262003014828c62002bcc565b608085019a909a529790971660a08301525060c081019490945260e08401929092526101008301526101209091015250949350505050565b60208082526024908201527f4475726174696f6e206973206c6f6e676572207468616e206d617820647572616040820152633a34b7b760e11b606082015260800190565b634e487b7160e01b600052601160045260246000fd5b60008219821115620030bc57620030bc62003090565b500190565b6000610140808352620030d78184018e62002bcc565b90508281036020840152620030ed818d62002bcc565b604084019b909b5250506001600160a01b039788166060820152608081019690965260a086019490945260c085019290925290931660e0830152610100820192909252610120015292915050565b600060001982141562003152576200315262003090565b5060010190565b60006101008083526200316f8184018c62002bcc565b9050828103602084015262003185818b62002bcc565b604084019990995250506060810195909552608085019390935260a084019190915260c083015260e09091015292915050565b600060208284031215620031cb57600080fd5b815162002b928162002b1e565b600060208284031215620031eb57600080fd5b5051919050565b600181811c908216806200320757607f821691505b602082108114156200322957634e487b7160e01b600052602260045260246000fd5b50919050565b60208082526021908201527f43616c6c6572206973206e656974686572206f776e6572206e6f722061646d696040820152603760f91b606082015260800190565b6020808252601e908201527f546f6b656e2061646472657373657320617272617920697320656d7074790000604082015260600190565b634e487b7160e01b600052603260045260246000fd5b8183526000602080850194508260005b8581101562002f7f578135620032e38162002b1e565b6001600160a01b031687529582019590820190600101620032cd565b8381526040602082015260006200331b604083018486620032bd565b95945050505050565b6020815260006200333a602083018486620032bd565b949350505050565b6000815180845260208085019450848260051b860182860160005b858110156200338b5783830389526200337883835162002bcc565b988501989250908401906001016200335d565b5090979650505050505050565b6000610140808352620033ae8184018e62002f44565b90508281036020840152620033c4818d62003342565b90508281036040840152620033da818c62003342565b606084019a909a5250506001600160a01b0396909616608087015260a086019490945260c085019290925260e0840152610100830152610120909101529392505050565b6000602082840312156200343157600080fd5b815162002b928162002d71565b600082516200345281846020870162002b99565b919091019291505056fe60806040523480156200001157600080fd5b506040516200282c3803806200282c833981016040819052620000349162000346565b89518a908a906200004d906003906020850190620001b6565b50805162000063906004906020840190620001b6565b505050620000806200007a6200016060201b60201c565b62000164565b60016006556001600160a01b038716620000f35760405162461bcd60e51b815260206004820152602a60248201527f4665652064657374696e6174696f6e2063616e6e6f7420626520746865207a65604482015269726f206164647265737360b01b606482015260840160405180910390fd5b600b97909755600994909455600a92909255600880546001600160a01b039586166001600160a01b0319909116179055600c5560078054600f805461ffff19169055600e9390935592166101000260ff19166001600160a81b0319909116179055601055506200044e9050565b3390565b600580546001600160a01b038381166001600160a01b0319831681179093556040519116919082907f8be0079c531659141344cd1fd0a4f28419497f9722a3daafe3b4186f6b6457e090600090a35050565b828054620001c49062000411565b90600052602060002090601f016020900481019282620001e8576000855562000233565b82601f106200020357805160ff191683800117855562000233565b8280016001018555821562000233579182015b828111156200023357825182559160200191906001019062000216565b506200024192915062000245565b5090565b5b8082111562000241576000815560010162000246565b634e487b7160e01b600052604160045260246000fd5b600082601f8301126200028457600080fd5b81516001600160401b0380821115620002a157620002a16200025c565b604051601f8301601f19908116603f01168101908282118183101715620002cc57620002cc6200025c565b81604052838152602092508683858801011115620002e957600080fd5b600091505b838210156200030d5785820183015181830184015290820190620002ee565b838211156200031f5760008385830101525b9695505050505050565b80516001600160a01b03811681146200034157600080fd5b919050565b6000806000806000806000806000806101408b8d0312156200036757600080fd5b8a516001600160401b03808211156200037f57600080fd5b6200038d8e838f0162000272565b9b5060208d0151915080821115620003a457600080fd5b50620003b38d828e0162000272565b99505060408b01519750620003cb60608c0162000329565b965060808b0151955060a08b0151945060c08b01519350620003f060e08c0162000329565b92506101008b015191506101208b015190509295989b9194979a5092959850565b600181811c908216806200042657607f821691505b602082108114156200044857634e487b7160e01b600052602260045260246000fd5b50919050565b6123ce806200045e6000396000f3fe6080604052600436106102725760003560e01c8063715018a61161014f578063a9059cbb116100c1578063d7e894661161007a578063d7e89466146106ff578063dd62ed3e1461071f578063f2fde38b1461073f578063f46d93241461075f578063f9a948d714610775578063fba7cc791461078f57600080fd5b8063a9059cbb1461065f578063b434b9971461067f578063bd95ff1314610695578063bf548dcb146106aa578063c5a1d5e2146106c9578063d6e6eb9f146106e957600080fd5b806395d89b411161011357806395d89b41146105bc578063966dae0e146105d157806398aaeec1146105f6578063a0712d6814610616578063a457c2d714610629578063a85adeab1461064957600080fd5b8063715018a61461053b5780637443ae86146105505780637714671b146105685780638da5cb5b1461058857806391d30d56146105a657600080fd5b806338cb037a116101e85780635076ebb8116101ac5780635076ebb8146104835780635a24070d146104985780635ee0104c146104ae578063603f4d52146104c857806368379225146104ef57806370a082311461050557600080fd5b806338cb037a146103cb57806339509351146103eb57806342966c681461040b5780634768e8851461042b5780634ce7957c1461044b57600080fd5b80631bf309291161023a5780631bf309291461031d57806323b872dd1461033357806327de8f2714610353578063291d2ffd146103735780632a2dd1ee14610395578063313ce567146103af57600080fd5b806306fdde0314610277578063095ea7b3146102a25780630b00e8f4146102d257806312065fe0146102f557806318160ddd14610308575b600080fd5b34801561028357600080fd5b5061028c6107a6565b60405161029991906120ef565b60405180910390f35b3480156102ae57600080fd5b506102c26102bd366004612159565b610838565b6040519015158152602001610299565b3480156102de57600080fd5b506102e7610850565b604051908152602001610299565b34801561030157600080fd5b50476102e7565b34801561031457600080fd5b506002546102e7565b34801561032957600080fd5b506102e7600e5481565b34801561033f57600080fd5b506102c261034e366004612185565b6109de565b34801561035f57600080fd5b506102e761036e3660046121c6565b610a02565b34801561037f57600080fd5b5061039361038e3660046121c6565b610a5f565b005b3480156103a157600080fd5b506102e76514eb1ad4700081565b3480156103bb57600080fd5b5060405160008152602001610299565b3480156103d757600080fd5b506102e76103e63660046121c6565b610b1f565b3480156103f757600080fd5b506102c2610406366004612159565b610bdb565b34801561041757600080fd5b506103936104263660046121c6565b610bfd565b34801561043757600080fd5b506102e76104463660046121c6565b610f3f565b34801561045757600080fd5b5060085461046b906001600160a01b031681565b6040516001600160a01b039091168152602001610299565b34801561048f57600080fd5b506102e7600a81565b3480156104a457600080fd5b506102e76103e881565b3480156104ba57600080fd5b506102e76512309ce5400081565b3480156104d457600080fd5b506007546104e29060ff1681565b60405161029991906121f5565b3480156104fb57600080fd5b506102e7600c5481565b34801561051157600080fd5b506102e761052036600461221d565b6001600160a01b031660009081526020819052604090205490565b34801561054757600080fd5b50610393610f88565b34801561055c57600080fd5b506010544210156102c2565b34801561057457600080fd5b506103936105833660046121c6565b610f9c565b34801561059457600080fd5b506005546001600160a01b031661046b565b3480156105b257600080fd5b506102e760105481565b3480156105c857600080fd5b5061028c6110f0565b3480156105dd57600080fd5b5060075461046b9061010090046001600160a01b031681565b34801561060257600080fd5b5061039361061136600461221d565b6110ff565b6103936106243660046121c6565b611361565b34801561063557600080fd5b506102c2610644366004612159565b61177d565b34801561065557600080fd5b506102e7600b5481565b34801561066b57600080fd5b506102c261067a366004612159565b6117f8565b34801561068b57600080fd5b506102e7600d5481565b3480156106a157600080fd5b50610393611806565b3480156106b657600080fd5b50600f546102c290610100900460ff1681565b3480156106d557600080fd5b506102e76106e43660046121c6565b6118ad565b3480156106f557600080fd5b506102e760095481565b34801561070b57600080fd5b506102e761071a3660046121c6565b61199e565b34801561072b57600080fd5b506102e761073a366004612241565b6119cc565b34801561074b57600080fd5b5061039361075a36600461221d565b6119f7565b34801561076b57600080fd5b506102e7600a5481565b34801561078157600080fd5b50600f546102c29060ff1681565b34801561079b57600080fd5b50600b5442106102c2565b6060600380546107b59061227a565b80601f01602080910402602001604051908101604052809291908181526020018280546107e19061227a565b801561082e5780601f106108035761010080835404028352916020019161082e565b820191906000526020600020905b81548152906001019060200180831161081157829003601f168201915b5050505050905090565b600033610846818585611a6d565b5060019392505050565b600061085a611b92565b60075461010090046001600160a01b031633146108cf5760405162461bcd60e51b815260206004820152602860248201527f4f6e6c792074686520666163746f72792063616e207472616e73666572206c6960448201526738bab4b234ba3c9760c11b60648201526084015b60405180910390fd5b6000471161092b5760405162461bcd60e51b815260206004820152602360248201527f4e6f206c697175696469747920617661696c61626c6520746f207472616e736660448201526232b91760e91b60648201526084016108c6565b60075460405147916000916101009091046001600160a01b031690839060006040518083038185875af1925050503d8060008114610985576040519150601f19603f3d011682016040523d82523d6000602084013e61098a565b606091505b50509050806109ce5760405162461bcd60e51b815260206004820152601060248201526f2a3930b739b332b9103330b4b632b21760811b60448201526064016108c6565b5090506109db6001600655565b90565b6000336109ec858285611bec565b6109f7858585611c66565b506001949350505050565b600080610a1161044660025490565b90506000610a2c84610a2260025490565b61044691906122cb565b90506000610a3a83836122e3565b9050610a4c6512309ce54000866122fa565b610a5690826122cb565b95945050505050565b60075461010090046001600160a01b03163314610ad65760405162461bcd60e51b815260206004820152602f60248201527f4f6e6c792074686520666163746f72792063616e20696e63726561736520746860448201526e06520656e642074696d657374616d7608c1b60648201526084016108c6565b80600b6000828254610ae891906122cb565b9091555050600b546040513091907faeed863ef6927b5b0db604d19eae13d8517de3c69c67d848a9cac7e591ba3ebc90600090a350565b600080610b2e61044660025490565b90506000610b3f84610a2260025490565b90506000610b4d83836122e3565b90506000610b616512309ce54000876122fa565b610b6b90836122cb565b90506000670de0b6b3a764000060095483610b8691906122fa565b610b909190612319565b90506000670de0b6b3a7640000600a5484610bab91906122fa565b610bb59190612319565b9050600081610bc484866122cb565b610bce91906122cb565b9998505050505050505050565b600033610846818585610bee83836119cc565b610bf891906122cb565b611a6d565b600b5442111580610c155750600f54610100900460ff165b610c315760405162461bcd60e51b81526004016108c69061233b565b610c39611e0a565b33600090815260208190526040902054811115610c8457336000908152602081905260409020546040516302cf7de960e51b81526004810191909152602481018290526044016108c6565b600080808060075460ff166001811115610ca057610ca06121df565b1415610cbd57610cb66514eb1ad47000856122fa565b9250610d0f565b610cc68461199e565b9250670de0b6b3a764000060095484610cdf91906122fa565b610ce99190612319565b9150670de0b6b3a7640000600a5484610d0291906122fa565b610d0c9190612319565b90505b610d193385611e5a565b60003382610d2785876122e3565b610d3191906122e3565b604051600081818185875af1925050503d8060008114610d6d576040519150601f19603f3d011682016040523d82523d6000602084013e610d72565b606091505b5050905080610dbb573382610d8785876122e3565b610d9191906122e3565b60405163163528f160e11b81526001600160a01b03909216600483015260248201526044016108c6565b6008546040516000916001600160a01b03169085908381818185875af1925050503d8060008114610e08576040519150601f19603f3d011682016040523d82523d6000602084013e610e0d565b606091505b505090506000610e256005546001600160a01b031690565b6001600160a01b03168460405160006040518083038185875af1925050503d8060008114610e6f576040519150601f19603f3d011682016040523d82523d6000602084013e610e74565b606091505b50509050818015610e825750805b610ec55760405162461bcd60e51b8152602060048201526014602482015273556e61626c6520746f2073656e642066756e647360601b60448201526064016108c6565b30610ed86005546001600160a01b031690565b6001600160a01b0316337fce895f9022611c377bd008e8200117dd0b50bfbace728d659258dd9a6013d0128a610f0d60025490565b600954600a5460408051948552602085019390935291830152606082015260800160405180910390a450505050505050565b60006006610f4e8360026122fa565b610f599060016122cb565b610f648460016122cb565b610f6e90856122fa565b610f7891906122fa565b610f829190612319565b92915050565b610f90611f84565b610f9a6000611fde565b565b60075461010090046001600160a01b0316331480610fc457506005546001600160a01b031633145b61102f5760405162461bcd60e51b815260206004820152603660248201527f4f6e6c792074686520666163746f7279206f7220746865206f776e65722063616044820152751b881d5c19185d19481d1a19481d1a1c995cda1bdb1960521b60648201526084016108c6565b600c5481116110a65760405162461bcd60e51b815260206004820152603860248201527f4e6577207468726573686f6c64206d757374206265206772656174657220746860448201527f616e207468652063757272656e74207468726573686f6c64000000000000000060648201526084016108c6565b600f805460ff19169055600c81905560405160008152309082907fe2101cb638a06a54be2736bd09858f73a7a0ee4e0c447278a57605b00949f7679060200160405180910390a350565b6060600480546107b59061227a565b611107611f84565b600b54421180156111205750600f54610100900460ff16155b61118b5760405162461bcd60e51b815260206004820152603660248201527f41637469766520706861736520686173206e6f7420656e646564206f7220746f6044820152756b656e206973207374696c6c20747261646561626c6560501b60648201526084016108c6565b611193611b92565b47806111e15760405162461bcd60e51b815260206004820152601a60248201527f4e6f2066756e647320617661696c61626c6520746f2073656e6400000000000060448201526064016108c6565b6000670de0b6b3a7640000600954836111fa91906122fa565b6112049190612319565b905060006001600160a01b03841661121c83856122e3565b604051600081818185875af1925050503d8060008114611258576040519150601f19603f3d011682016040523d82523d6000602084013e61125d565b606091505b50506008546040519192506000916001600160a01b039091169084908381818185875af1925050503d80600081146112b1576040519150601f19603f3d011682016040523d82523d6000602084013e6112b6565b606091505b505090508180156112c45750805b6113105760405162461bcd60e51b815260206004820152601860248201527f4661696c656420746f207472616e736665722066756e6473000000000000000060448201526064016108c6565b6040518481526001600160a01b0386169033907fbd64a7339a20ec918731255da9a658675eeb91e9c4d3138a1d3f0989903166ff9060200160405180910390a35050505061135e6001600655565b50565b600b54421115806113795750600f54610100900460ff165b6113955760405162461bcd60e51b81526004016108c69061233b565b61139d611e0a565b600080808060075460ff1660018111156113b9576113b96121df565b141561143357600a84111561141c5760405162461bcd60e51b8152602060048201526024808201527f45786365656473206d6178206d696e7420616d6f756e7420666f72205052455f60448201526353414c4560e01b60648201526084016108c6565b61142c6514eb1ad47000856122fa565b925061149f565b600061143e85610a02565b9050670de0b6b3a76400006009548261145791906122fa565b6114619190612319565b9250670de0b6b3a7640000600a548261147a91906122fa565b6114849190612319565b91508161149184836122cb565b61149b91906122cb565b9350505b823410156114c957604051631c102d6360e21b8152600481018490523460248201526044016108c6565b6114d33385612030565b600d5460025411156114e657600254600d555b600c54600254101580156114fd5750600f5460ff16155b801561150b57506000600c54115b1561156b5762015180600b600082825461152591906122cb565b9091555050600f805460ff19166001179055600c54600b54604051309291907f9d714703c18ca96215bcef19b6ff93fa22fed971bf55d30439252e129ed1636c90600090a45b823411156115d75760003361158085346122e3565b604051600081818185875af1925050503d80600081146115bc576040519150601f19603f3d011682016040523d82523d6000602084013e6115c1565b606091505b50509050806115d55733610d9185346122e3565b505b6008546040516000916001600160a01b03169084908381818185875af1925050503d8060008114611624576040519150601f19603f3d011682016040523d82523d6000602084013e611629565b606091505b5050905060006116416005546001600160a01b031690565b6001600160a01b03168360405160006040518083038185875af1925050503d806000811461168b576040519150601f19603f3d011682016040523d82523d6000602084013e611690565b606091505b5050905081801561169e5750805b6116e15760405162461bcd60e51b8152602060048201526014602482015273556e61626c6520746f2073656e642066756e647360601b60448201526064016108c6565b306116f46005546001600160a01b031690565b6001600160a01b0316337fbb850871da8879d5c7053c36697bf401a909d0ab9b5eeebb336bec17dc405ded8961172960025490565b600954600a54600b54600f54600d54604080519788526020880196909652948601939093526060850191909152608084015260ff16151560a083015260c082015260e00160405180910390a4505050505050565b6000338161178b82866119cc565b9050838110156117eb5760405162461bcd60e51b815260206004820152602560248201527f45524332303a2064656372656173656420616c6c6f77616e63652062656c6f77604482015264207a65726f60d81b60648201526084016108c6565b6109f78286868403611a6d565b600033610846818585611c66565b60075461010090046001600160a01b031633146118715760405162461bcd60e51b815260206004820152602360248201527f4f6e6c792074686520666163746f72792063616e2073657420746869732076616044820152626c756560e81b60648201526084016108c6565b600f805461ff00191661010017905560405130907f10317c7e70860b246d2a18496eaf094f8a43095653d300e4528c5774c542936690600090a2565b60006118b860025490565b8211156118c757506000919050565b60006118d561044660025490565b905060006118f0846118e660025490565b61044691906122e3565b905060006118fe82846122e3565b905060006119126512309ce54000876122fa565b61191c90836122cb565b90506000670de0b6b3a76400006009548361193791906122fa565b6119419190612319565b90506000670de0b6b3a7640000600a548461195c91906122fa565b6119669190612319565b905061197281836122cb565b83101561198757506000979650505050505050565b60008161199484866122e3565b610bce91906122e3565b6000806119ad61044660025490565b905060006119be846118e660025490565b90506000610a3a82846122e3565b6001600160a01b03918216600090815260016020908152604080832093909416825291909152205490565b6119ff611f84565b6001600160a01b038116611a645760405162461bcd60e51b815260206004820152602660248201527f4f776e61626c653a206e6577206f776e657220697320746865207a65726f206160448201526564647265737360d01b60648201526084016108c6565b61135e81611fde565b6001600160a01b038316611acf5760405162461bcd60e51b8152602060048201526024808201527f45524332303a20617070726f76652066726f6d20746865207a65726f206164646044820152637265737360e01b60648201526084016108c6565b6001600160a01b038216611b305760405162461bcd60e51b815260206004820152602260248201527f45524332303a20617070726f766520746f20746865207a65726f206164647265604482015261737360f01b60648201526084016108c6565b6001600160a01b0383811660008181526001602090815260408083209487168084529482529182902085905590518481527f8c5be1e5ebec7d5bd14f71427d1e84f3dd0314c0f7b2291e5b200ac8c7c3b92591015b60405180910390a3505050565b60026006541415611be55760405162461bcd60e51b815260206004820152601f60248201527f5265656e7472616e637947756172643a207265656e7472616e742063616c6c0060448201526064016108c6565b6002600655565b6000611bf884846119cc565b90506000198114611c605781811015611c535760405162461bcd60e51b815260206004820152601d60248201527f45524332303a20696e73756666696369656e7420616c6c6f77616e636500000060448201526064016108c6565b611c608484848403611a6d565b50505050565b6001600160a01b038316611cca5760405162461bcd60e51b815260206004820152602560248201527f45524332303a207472616e736665722066726f6d20746865207a65726f206164604482015264647265737360d81b60648201526084016108c6565b6001600160a01b038216611d2c5760405162461bcd60e51b815260206004820152602360248201527f45524332303a207472616e7366657220746f20746865207a65726f206164647260448201526265737360e81b60648201526084016108c6565b6001600160a01b03831660009081526020819052604090205481811015611da45760405162461bcd60e51b815260206004820152602660248201527f45524332303a207472616e7366657220616d6f756e7420657863656564732062604482015265616c616e636560d01b60648201526084016108c6565b6001600160a01b03848116600081815260208181526040808320878703905593871680835291849020805487019055925185815290927fddf252ad1be2c89b69c2b068fc378daa952ba7f163c4a11628f55a4df523b3ef910160405180910390a3611c60565b600060075460ff166001811115611e2357611e236121df565b148015611e4657506103e8611e3760025490565b101580611e4657506010544210155b15610f9a576007805460ff19166001179055565b6001600160a01b038216611eba5760405162461bcd60e51b815260206004820152602160248201527f45524332303a206275726e2066726f6d20746865207a65726f206164647265736044820152607360f81b60648201526084016108c6565b6001600160a01b03821660009081526020819052604090205481811015611f2e5760405162461bcd60e51b815260206004820152602260248201527f45524332303a206275726e20616d6f756e7420657863656564732062616c616e604482015261636560f01b60648201526084016108c6565b6001600160a01b0383166000818152602081815260408083208686039055600280548790039055518581529192917fddf252ad1be2c89b69c2b068fc378daa952ba7f163c4a11628f55a4df523b3ef9101611b85565b6005546001600160a01b03163314610f9a5760405162461bcd60e51b815260206004820181905260248201527f4f776e61626c653a2063616c6c6572206973206e6f7420746865206f776e657260448201526064016108c6565b600580546001600160a01b038381166001600160a01b0319831681179093556040519116919082907f8be0079c531659141344cd1fd0a4f28419497f9722a3daafe3b4186f6b6457e090600090a35050565b6001600160a01b0382166120865760405162461bcd60e51b815260206004820152601f60248201527f45524332303a206d696e7420746f20746865207a65726f20616464726573730060448201526064016108c6565b806002600082825461209891906122cb565b90915550506001600160a01b038216600081815260208181526040808320805486019055518481527fddf252ad1be2c89b69c2b068fc378daa952ba7f163c4a11628f55a4df523b3ef910160405180910390a35050565b600060208083528351808285015260005b8181101561211c57858101830151858201604001528201612100565b8181111561212e576000604083870101525b50601f01601f1916929092016040019392505050565b6001600160a01b038116811461135e57600080fd5b6000806040838503121561216c57600080fd5b823561217781612144565b946020939093013593505050565b60008060006060848603121561219a57600080fd5b83356121a581612144565b925060208401356121b581612144565b929592945050506040919091013590565b6000602082840312156121d857600080fd5b5035919050565b634e487b7160e01b600052602160045260246000fd5b602081016002831061221757634e487b7160e01b600052602160045260246000fd5b91905290565b60006020828403121561222f57600080fd5b813561223a81612144565b9392505050565b6000806040838503121561225457600080fd5b823561225f81612144565b9150602083013561226f81612144565b809150509250929050565b600181811c9082168061228e57607f821691505b602082108114156122af57634e487b7160e01b600052602260045260246000fd5b50919050565b634e487b7160e01b600052601160045260246000fd5b600082198211156122de576122de6122b5565b500190565b6000828210156122f5576122f56122b5565b500390565b6000816000190483118215151615612314576123146122b5565b500290565b60008261233657634e487b7160e01b600052601260045260246000fd5b500490565b60208082526037908201527f4163746976652070686173652068617320656e64656420616e6420746f6b656e60408201527f206973206e6f206c6f6e67657220747261646561626c6500000000000000000060608201526080019056fea26469706673582212206dff538dd1b0733b3fe319f54d8016cd941fe6006a85496264e5166d4817b61c64736f6c63430008080033a26469706673582212200c5aac6560cf8953a11953dad62f1f9b111a186f8686bbe3f09bd6575ee77e7f64736f6c63430008080033",
  "devdoc": {
    "kind": "dev",
    "methods": {
      "createMultipleTempTokens(string[],string[],uint256,uint256,uint256)": {
        "details": "createMultipleTempTokens is a function to create multiple TempTokens.names is the array of names for the tokenssymbols is the array of symbols for the tokensduration is the duration in seconds for the lifespan of the TempTokens.totalSupplyThreshold is the total supply needed for the token to convert from a TempToken into a normal, permanent token. Enter 0 if you don't want to set a threshold.preSaleDuration is the duration in seconds for the pre-sale period of the TempTokens.The function returns the addresses of the new TempTokens."
      },
      "createTempToken(string,string,uint256,uint256,uint256)": {
        "details": "createTempToken is a function to create a new TempToken.name is the name of the token.symbol is the symbol of the token.duration is the duration in seconds for the lifespan of the TempToken.totalSupplyThreshold is the total supply needed for the token to convert from a TempToken into a normal, permanent token. Enter 0 if you don't want to set a threshold.preSaleDuration is the duration in seconds for the pre-sale period of the TempToken.The function returns the address of the new TempToken."
      },
      "getTokenInfo(address)": {
        "details": "getTokenInfo is a function to get the TokenInfo struct of a deployed token.tokenAddress is the address of the deployed token.The function returns the TokenInfo struct of the deployed token."
      },
      "increaseEndTimestampForTokens(uint256,address[])": {
        "details": "This function is used to increase the end timestamp for tokens, only callable by owner, _tokenAddressses array must be defined"
      },
      "mintWinnerTokens(address,uint256)": {
        "details": "mintWinnerTokens is a function that mints the winner tokens.  This factory does not have a burn function to bring the price down,  this ensures the token's supply has a fixed offset."
      },
      "owner()": {
        "details": "Returns the address of the current owner."
      },
      "renounceOwnership()": {
        "details": "Leaves the contract without owner. It will not be possible to call `onlyOwner` functions anymore. Can only be called by the current owner. NOTE: Renouncing ownership will leave the contract without an owner, thereby removing any functionality that is only available to the owner."
      },
      "setAlwaysTradeableForTokens(address[])": {
        "details": "This function is used to set the always tradeable flag for tokens, only callable by owner, _tokenAddressses array must be defined"
      },
      "setFeeDestination(address)": {
        "details": "The following functions are used to set the default protocol fee destination,  protocol fee percentage, streamer fee percentage, pause the factory, set total supply threshold, and set the max duration.These functions are only callable by the owner of the factory."
      },
      "setTotalSupplyThresholdForTokens(uint256,address[])": {
        "details": "The following functions are used to set the total supply threshold for tokens,  increase the end timestamp for tokens, set the max duration, and pause the factory.These functions are only callable by the owner or an admin of the factory.This function is used to set the total supply threshold for this factory and tokens, only callable by owner, _tokenAddressses array does not need to be defined"
      },
      "setWinningTokenTradeableAndTransferLiquidity(address,address)": {
        "details": "setWinningTokenTradeableAndTransferLiquidity is a function to set the winning token as tradeable and transfer all liquidity (if any)  from the losing token to the factory."
      },
      "transferOwnership(address)": {
        "details": "Transfers ownership of the contract to a new account (`newOwner`). Can only be called by the current owner."
      }
    },
    "stateVariables": {
      "admins": {
        "details": "admins is a mapping of addresses to a boolean value. If the boolean value is true, the address is an admin. If the boolean value is false, the address is not an admin."
      },
      "defaultProtocolFeePercent": {
        "details": "defaultProtocolFeePercent is the default protocol fee percentage. ex: 2% = 2 * 10**16 = 20000000000000000.defaultStreamerFeePercent is the default streamer fee percentage. ex: 2% = 2 * 10**16 = 20000000000000000.defaultProtocolFeeDestination is the default protocol fee destination address.isPaused is a boolean to pause the token creation function.maxDuration is the max duration in seconds for the lifespan of the TempToken.totalSupplyThreshold is the total supply needed for the token to increase its lifespan by 24 hours.  This total supply will be adjusted by us depending on various factors. The goal of each TempToken is to have hit this threshold by the time the duration has expired. IT'S A GAME."
      },
      "numDeployedTokens": {
        "details": "numDeployedTokens is the number of deployed tokens.deployedTokenIndices is a mapping of token addresses to their assigned index.deployedTokens is a mapping of token indices to TokenInfo structs."
      }
    },
    "version": 1
  },
  "userdoc": {
    "kind": "user",
    "methods": {
      "mintWinnerTokens(address,uint256)": {
        "notice": "VERSUS mode only (these functions are called on tokens that compete against each other instead of trying to reach a threshold)"
      },
      "setWinningTokenTradeableAndTransferLiquidity(address,address)": {
        "notice": "VERSUS mode only (these functions are called on tokens that compete against each other instead of trying to reach a threshold)"
      }
    },
    "version": 1
  },
  "storageLayout": {
    "storage": [
      {
        "astId": 7,
        "contract": "contracts/TempTokenFactoryV1.sol:TempTokenFactoryV1",
        "label": "_owner",
        "offset": 0,
        "slot": "0",
        "type": "t_address"
      },
      {
        "astId": 908,
        "contract": "contracts/TempTokenFactoryV1.sol:TempTokenFactoryV1",
        "label": "numDeployedTokens",
        "offset": 0,
        "slot": "1",
        "type": "t_uint256"
      },
      {
        "astId": 912,
        "contract": "contracts/TempTokenFactoryV1.sol:TempTokenFactoryV1",
        "label": "deployedTokenIndices",
        "offset": 0,
        "slot": "2",
        "type": "t_mapping(t_address,t_uint256)"
      },
      {
        "astId": 917,
        "contract": "contracts/TempTokenFactoryV1.sol:TempTokenFactoryV1",
        "label": "deployedTokens",
        "offset": 0,
        "slot": "3",
        "type": "t_mapping(t_uint256,t_struct(TokenInfo)905_storage)"
      },
      {
        "astId": 922,
        "contract": "contracts/TempTokenFactoryV1.sol:TempTokenFactoryV1",
        "label": "admins",
        "offset": 0,
        "slot": "4",
        "type": "t_mapping(t_address,t_bool)"
      },
      {
        "astId": 925,
        "contract": "contracts/TempTokenFactoryV1.sol:TempTokenFactoryV1",
        "label": "defaultProtocolFeePercent",
        "offset": 0,
        "slot": "5",
        "type": "t_uint256"
      },
      {
        "astId": 927,
        "contract": "contracts/TempTokenFactoryV1.sol:TempTokenFactoryV1",
        "label": "defaultStreamerFeePercent",
        "offset": 0,
        "slot": "6",
        "type": "t_uint256"
      },
      {
        "astId": 929,
        "contract": "contracts/TempTokenFactoryV1.sol:TempTokenFactoryV1",
        "label": "defaultProtocolFeeDestination",
        "offset": 0,
        "slot": "7",
        "type": "t_address"
      },
      {
        "astId": 931,
        "contract": "contracts/TempTokenFactoryV1.sol:TempTokenFactoryV1",
        "label": "isPaused",
        "offset": 20,
        "slot": "7",
        "type": "t_bool"
      },
      {
        "astId": 933,
        "contract": "contracts/TempTokenFactoryV1.sol:TempTokenFactoryV1",
        "label": "maxDuration",
        "offset": 0,
        "slot": "8",
        "type": "t_uint256"
      }
    ],
    "types": {
      "t_address": {
        "encoding": "inplace",
        "label": "address",
        "numberOfBytes": "20"
      },
      "t_bool": {
        "encoding": "inplace",
        "label": "bool",
        "numberOfBytes": "1"
      },
      "t_mapping(t_address,t_bool)": {
        "encoding": "mapping",
        "key": "t_address",
        "label": "mapping(address => bool)",
        "numberOfBytes": "32",
        "value": "t_bool"
      },
      "t_mapping(t_address,t_uint256)": {
        "encoding": "mapping",
        "key": "t_address",
        "label": "mapping(address => uint256)",
        "numberOfBytes": "32",
        "value": "t_uint256"
      },
      "t_mapping(t_uint256,t_struct(TokenInfo)905_storage)": {
        "encoding": "mapping",
        "key": "t_uint256",
        "label": "mapping(uint256 => struct TempTokenFactoryV1.TokenInfo)",
        "numberOfBytes": "32",
        "value": "t_struct(TokenInfo)905_storage"
      },
      "t_string_storage": {
        "encoding": "bytes",
        "label": "string",
        "numberOfBytes": "32"
      },
      "t_struct(TokenInfo)905_storage": {
        "encoding": "inplace",
        "label": "struct TempTokenFactoryV1.TokenInfo",
        "members": [
          {
            "astId": 886,
            "contract": "contracts/TempTokenFactoryV1.sol:TempTokenFactoryV1",
            "label": "tokenAddress",
            "offset": 0,
            "slot": "0",
            "type": "t_address"
          },
          {
            "astId": 888,
            "contract": "contracts/TempTokenFactoryV1.sol:TempTokenFactoryV1",
            "label": "ownerAddress",
            "offset": 0,
            "slot": "1",
            "type": "t_address"
          },
          {
            "astId": 890,
            "contract": "contracts/TempTokenFactoryV1.sol:TempTokenFactoryV1",
            "label": "name",
            "offset": 0,
            "slot": "2",
            "type": "t_string_storage"
          },
          {
            "astId": 892,
            "contract": "contracts/TempTokenFactoryV1.sol:TempTokenFactoryV1",
            "label": "symbol",
            "offset": 0,
            "slot": "3",
            "type": "t_string_storage"
          },
          {
            "astId": 894,
            "contract": "contracts/TempTokenFactoryV1.sol:TempTokenFactoryV1",
            "label": "endTimestamp",
            "offset": 0,
            "slot": "4",
            "type": "t_uint256"
          },
          {
            "astId": 896,
            "contract": "contracts/TempTokenFactoryV1.sol:TempTokenFactoryV1",
            "label": "protocolFeeDestination",
            "offset": 0,
            "slot": "5",
            "type": "t_address"
          },
          {
            "astId": 898,
            "contract": "contracts/TempTokenFactoryV1.sol:TempTokenFactoryV1",
            "label": "protocolFeePercent",
            "offset": 0,
            "slot": "6",
            "type": "t_uint256"
          },
          {
            "astId": 900,
            "contract": "contracts/TempTokenFactoryV1.sol:TempTokenFactoryV1",
            "label": "streamerFeePercent",
            "offset": 0,
            "slot": "7",
            "type": "t_uint256"
          },
          {
            "astId": 902,
            "contract": "contracts/TempTokenFactoryV1.sol:TempTokenFactoryV1",
            "label": "creationBlockNumber",
            "offset": 0,
            "slot": "8",
            "type": "t_uint256"
          },
          {
            "astId": 904,
            "contract": "contracts/TempTokenFactoryV1.sol:TempTokenFactoryV1",
            "label": "preSaleEndTimestamp",
            "offset": 0,
            "slot": "9",
            "type": "t_uint256"
          }
        ],
        "numberOfBytes": "320"
      },
      "t_uint256": {
        "encoding": "inplace",
        "label": "uint256",
        "numberOfBytes": "32"
      }
    }
  }
}