{
  "address": "0x7A1FC55bcC17240d2FA6419eaDeCfABeDf2dfcd0",
  "abi": [
    {
      "inputs": [
        {
          "internalType": "address",
          "name": "_defaultProtocolFeeDestination",
          "type": "address"
        },
        {
          "internalType": "uint256",
          "name": "_defaultProtocolFeePercent",
          "type": "uint256"
        },
        {
          "internalType": "uint256",
          "name": "_defaultStreamerFeePercent",
          "type": "uint256"
        },
        {
          "internalType": "uint256",
          "name": "_totalSupplyThreshold",
          "type": "uint256"
        }
      ],
      "stateMutability": "nonpayable",
      "type": "constructor"
    },
    {
      "anonymous": false,
      "inputs": [
        {
          "indexed": false,
          "internalType": "bool",
          "name": "isAlwaysTradeable",
          "type": "bool"
        },
        {
          "indexed": false,
          "internalType": "address[]",
          "name": "tokenAddresses",
          "type": "address[]"
        }
      ],
      "name": "AlwaysTradeableSetForTokens",
      "type": "event"
    },
    {
      "anonymous": false,
      "inputs": [
        {
          "indexed": false,
          "internalType": "uint256",
          "name": "additionalDuration",
          "type": "uint256"
        },
        {
          "indexed": false,
          "internalType": "address[]",
          "name": "tokenAddresses",
          "type": "address[]"
        }
      ],
      "name": "EndTimestampIncreasedForTokens",
      "type": "event"
    },
    {
      "anonymous": false,
      "inputs": [
        {
          "indexed": false,
          "internalType": "uint256",
          "name": "maxDuration",
          "type": "uint256"
        }
      ],
      "name": "MaxDurationSet",
      "type": "event"
    },
    {
      "anonymous": false,
      "inputs": [
        {
          "indexed": true,
          "internalType": "address",
          "name": "previousOwner",
          "type": "address"
        },
        {
          "indexed": true,
          "internalType": "address",
          "name": "newOwner",
          "type": "address"
        }
      ],
      "name": "OwnershipTransferred",
      "type": "event"
    },
    {
      "anonymous": false,
      "inputs": [
        {
          "indexed": false,
          "internalType": "bool",
          "name": "isPaused",
          "type": "bool"
        },
        {
          "indexed": false,
          "internalType": "uint256",
          "name": "numDeployedTokens",
          "type": "uint256"
        }
      ],
      "name": "PauseFactorySet",
      "type": "event"
    },
    {
      "anonymous": false,
      "inputs": [
        {
          "indexed": true,
          "internalType": "address",
          "name": "protocolFeeDestination",
          "type": "address"
        }
      ],
      "name": "ProtocolFeeDestinationSet",
      "type": "event"
    },
    {
      "anonymous": false,
      "inputs": [
        {
          "indexed": false,
          "internalType": "uint256",
          "name": "feePercent",
          "type": "uint256"
        }
      ],
      "name": "ProtocolFeePercentSet",
      "type": "event"
    },
    {
      "anonymous": false,
      "inputs": [
        {
          "indexed": false,
          "internalType": "uint256",
          "name": "feePercent",
          "type": "uint256"
        }
      ],
      "name": "StreamerFeePercentSet",
      "type": "event"
    },
    {
      "anonymous": false,
      "inputs": [
        {
          "indexed": true,
          "internalType": "address",
          "name": "tokenAddress",
          "type": "address"
        },
        {
          "indexed": true,
          "internalType": "address",
          "name": "owner",
          "type": "address"
        },
        {
          "indexed": false,
          "internalType": "string",
          "name": "name",
          "type": "string"
        },
        {
          "indexed": false,
          "internalType": "string",
          "name": "symbol",
          "type": "string"
        },
        {
          "indexed": false,
          "internalType": "uint256",
          "name": "endTimestamp",
          "type": "uint256"
        },
        {
          "indexed": false,
          "internalType": "address",
          "name": "protocolFeeDestination",
          "type": "address"
        },
        {
          "indexed": false,
          "internalType": "uint256",
          "name": "protocolFeePercent",
          "type": "uint256"
        },
        {
          "indexed": false,
          "internalType": "uint256",
          "name": "streamerFeePercent",
          "type": "uint256"
        },
        {
          "indexed": false,
          "internalType": "uint256",
          "name": "totalSupplyThreshold",
          "type": "uint256"
        }
      ],
      "name": "TempTokenCreated",
      "type": "event"
    },
    {
      "anonymous": false,
      "inputs": [
        {
          "indexed": false,
          "internalType": "uint256",
          "name": "totalSupplyThreshold",
          "type": "uint256"
        },
        {
          "indexed": false,
          "internalType": "address[]",
          "name": "tokenAddresses",
          "type": "address[]"
        }
      ],
      "name": "TotalSupplyThresholdSetForTokens",
      "type": "event"
    },
    {
      "inputs": [
        {
          "internalType": "address",
          "name": "",
          "type": "address"
        }
      ],
      "name": "admins",
      "outputs": [
        {
          "internalType": "bool",
          "name": "",
          "type": "bool"
        }
      ],
      "stateMutability": "view",
      "type": "function"
    },
    {
      "inputs": [
        {
          "internalType": "string",
          "name": "name",
          "type": "string"
        },
        {
          "internalType": "string",
          "name": "symbol",
          "type": "string"
        },
        {
          "internalType": "uint256",
          "name": "duration",
          "type": "uint256"
        }
      ],
      "name": "createTempToken",
      "outputs": [
        {
          "internalType": "address",
          "name": "",
          "type": "address"
        }
      ],
      "stateMutability": "nonpayable",
      "type": "function"
    },
    {
      "inputs": [],
      "name": "defaultProtocolFeeDestination",
      "outputs": [
        {
          "internalType": "address",
          "name": "",
          "type": "address"
        }
      ],
      "stateMutability": "view",
      "type": "function"
    },
    {
      "inputs": [],
      "name": "defaultProtocolFeePercent",
      "outputs": [
        {
          "internalType": "uint256",
          "name": "",
          "type": "uint256"
        }
      ],
      "stateMutability": "view",
      "type": "function"
    },
    {
      "inputs": [],
      "name": "defaultStreamerFeePercent",
      "outputs": [
        {
          "internalType": "uint256",
          "name": "",
          "type": "uint256"
        }
      ],
      "stateMutability": "view",
      "type": "function"
    },
    {
      "inputs": [
        {
          "internalType": "address",
          "name": "",
          "type": "address"
        }
      ],
      "name": "deployedTokenIndices",
      "outputs": [
        {
          "internalType": "uint256",
          "name": "",
          "type": "uint256"
        }
      ],
      "stateMutability": "view",
      "type": "function"
    },
    {
      "inputs": [
        {
          "internalType": "uint256",
          "name": "",
          "type": "uint256"
        }
      ],
      "name": "deployedTokens",
      "outputs": [
        {
          "internalType": "address",
          "name": "tokenAddress",
          "type": "address"
        },
        {
          "internalType": "address",
          "name": "ownerAddress",
          "type": "address"
        },
        {
          "internalType": "string",
          "name": "name",
          "type": "string"
        },
        {
          "internalType": "string",
          "name": "symbol",
          "type": "string"
        },
        {
          "internalType": "uint256",
          "name": "endTimestamp",
          "type": "uint256"
        },
        {
          "internalType": "address",
          "name": "protocolFeeDestination",
          "type": "address"
        },
        {
          "internalType": "uint256",
          "name": "protocolFeePercent",
          "type": "uint256"
        },
        {
          "internalType": "uint256",
          "name": "streamerFeePercent",
          "type": "uint256"
        }
      ],
      "stateMutability": "view",
      "type": "function"
    },
    {
      "inputs": [
        {
          "internalType": "address",
          "name": "tokenAddress",
          "type": "address"
        }
      ],
      "name": "getTokenInfo",
      "outputs": [
        {
          "components": [
            {
              "internalType": "address",
              "name": "tokenAddress",
              "type": "address"
            },
            {
              "internalType": "address",
              "name": "ownerAddress",
              "type": "address"
            },
            {
              "internalType": "string",
              "name": "name",
              "type": "string"
            },
            {
              "internalType": "string",
              "name": "symbol",
              "type": "string"
            },
            {
              "internalType": "uint256",
              "name": "endTimestamp",
              "type": "uint256"
            },
            {
              "internalType": "address",
              "name": "protocolFeeDestination",
              "type": "address"
            },
            {
              "internalType": "uint256",
              "name": "protocolFeePercent",
              "type": "uint256"
            },
            {
              "internalType": "uint256",
              "name": "streamerFeePercent",
              "type": "uint256"
            }
          ],
          "internalType": "struct TempTokenFactoryV1.TokenInfo",
          "name": "",
          "type": "tuple"
        }
      ],
      "stateMutability": "view",
      "type": "function"
    },
    {
      "inputs": [
        {
          "internalType": "uint256",
          "name": "_additionalDurationInSeconds",
          "type": "uint256"
        },
        {
          "internalType": "address[]",
          "name": "_tokenAddresses",
          "type": "address[]"
        }
      ],
      "name": "increaseEndTimestampForTokens",
      "outputs": [],
      "stateMutability": "nonpayable",
      "type": "function"
    },
    {
      "inputs": [],
      "name": "isPaused",
      "outputs": [
        {
          "internalType": "bool",
          "name": "",
          "type": "bool"
        }
      ],
      "stateMutability": "view",
      "type": "function"
    },
    {
      "inputs": [],
      "name": "maxDuration",
      "outputs": [
        {
          "internalType": "uint256",
          "name": "",
          "type": "uint256"
        }
      ],
      "stateMutability": "view",
      "type": "function"
    },
    {
      "inputs": [],
      "name": "numDeployedTokens",
      "outputs": [
        {
          "internalType": "uint256",
          "name": "",
          "type": "uint256"
        }
      ],
      "stateMutability": "view",
      "type": "function"
    },
    {
      "inputs": [],
      "name": "owner",
      "outputs": [
        {
          "internalType": "address",
          "name": "",
          "type": "address"
        }
      ],
      "stateMutability": "view",
      "type": "function"
    },
    {
      "inputs": [],
      "name": "renounceOwnership",
      "outputs": [],
      "stateMutability": "nonpayable",
      "type": "function"
    },
    {
      "inputs": [
        {
          "internalType": "address",
          "name": "_address",
          "type": "address"
        },
        {
          "internalType": "bool",
          "name": "_onlyAdmin",
          "type": "bool"
        }
      ],
      "name": "setAdmin",
      "outputs": [],
      "stateMutability": "nonpayable",
      "type": "function"
    },
    {
      "inputs": [
        {
          "internalType": "bool",
          "name": "_alwaysTradeable",
          "type": "bool"
        },
        {
          "internalType": "address[]",
          "name": "_tokenAddresses",
          "type": "address[]"
        }
      ],
      "name": "setAlwaysTradeableForTokens",
      "outputs": [],
      "stateMutability": "nonpayable",
      "type": "function"
    },
    {
      "inputs": [
        {
          "internalType": "address",
          "name": "protocolFeeDestination",
          "type": "address"
        }
      ],
      "name": "setFeeDestination",
      "outputs": [],
      "stateMutability": "nonpayable",
      "type": "function"
    },
    {
      "inputs": [
        {
          "internalType": "uint256",
          "name": "_maxDuration",
          "type": "uint256"
        }
      ],
      "name": "setMaxDuration",
      "outputs": [],
      "stateMutability": "nonpayable",
      "type": "function"
    },
    {
      "inputs": [
        {
          "internalType": "bool",
          "name": "_isPaused",
          "type": "bool"
        }
      ],
      "name": "setPauseFactory",
      "outputs": [],
      "stateMutability": "nonpayable",
      "type": "function"
    },
    {
      "inputs": [
        {
          "internalType": "uint256",
          "name": "_feePercent",
          "type": "uint256"
        }
      ],
      "name": "setProtocolFeePercent",
      "outputs": [],
      "stateMutability": "nonpayable",
      "type": "function"
    },
    {
      "inputs": [
        {
          "internalType": "uint256",
          "name": "_feePercent",
          "type": "uint256"
        }
      ],
      "name": "setStreamerFeePercent",
      "outputs": [],
      "stateMutability": "nonpayable",
      "type": "function"
    },
    {
      "inputs": [
        {
          "internalType": "uint256",
          "name": "_totalSupplyThreshold",
          "type": "uint256"
        },
        {
          "internalType": "address[]",
          "name": "_tokenAddresses",
          "type": "address[]"
        }
      ],
      "name": "setTotalSupplyThresholdForTokens",
      "outputs": [],
      "stateMutability": "nonpayable",
      "type": "function"
    },
    {
      "inputs": [],
      "name": "totalSupplyThreshold",
      "outputs": [
        {
          "internalType": "uint256",
          "name": "",
          "type": "uint256"
        }
      ],
      "stateMutability": "view",
      "type": "function"
    },
    {
      "inputs": [
        {
          "internalType": "address",
          "name": "newOwner",
          "type": "address"
        }
      ],
      "name": "transferOwnership",
      "outputs": [],
      "stateMutability": "nonpayable",
      "type": "function"
    }
  ],
  "transactionHash": "0x7ab1163900f6b4ca5d7b73a30fc1855508b1d4af925e25a7f607313dc45454be",
  "args": [
    "0x4F3d3f2F895Db524AC3944BDd17fE632473bCa4a",
    "20000000000000000",
    "20000000000000000",
    20000000
  ],
  "numDeployments": 5,
  "solcInputHash": "5541146c708524ce7b97a2b7cf1c9e20",
  "bytecode": "0x60806040523480156200001157600080fd5b506040516200400338038062004003833981016040819052620000349162000132565b6200003f33620000e2565b6001600160a01b038416620000a95760405162461bcd60e51b815260206004820152602660248201527f44656661756c74206665652064657374696e6174696f6e2063616e6e6f74206260448201526565207a65726f60d01b606482015260840160405180910390fd5b600592909255600655600780546001600160a01b0319166001600160a01b039390931692909217909155600955610e106008556200017f565b600080546001600160a01b038381166001600160a01b0319831681178455604051919092169283917f8be0079c531659141344cd1fd0a4f28419497f9722a3daafe3b4186f6b6457e09190a35050565b600080600080608085870312156200014957600080fd5b84516001600160a01b03811681146200016157600080fd5b60208601516040870151606090970151919890975090945092505050565b613e74806200018f6000396000f3fe60806040523480156200001157600080fd5b5060043610620001755760003560e01c8063804e6f2311620000d3578063cf0f34c41162000086578063cf0f34c4146200033e578063d7f205491462000355578063ec81aadb146200035f578063edb40447146200038c578063f2fde38b14620003a0578063fbe5323414620003b757600080fd5b8063804e6f2314620002a35780638da5cb5b14620002d357806396266d9c14620002e5578063a49834211462000308578063b187bd26146200031f578063bb5dfe19146200033457600080fd5b806368379225116200012c5780636837922514620002405780636db5c8fd146200024a5780636e3eb6f41462000254578063715018a6146200026b5780637a31c18514620002755780637a899767146200028c57600080fd5b80631f69565f146200017a57806320b1f08d14620001a95780632944998114620001c2578063429b62e514620001d95780634416178314620002105780634b0bddd21462000229575b600080fd5b620001916200018b366004620014b1565b620003ce565b604051620001a0919062001526565b60405180910390f35b620001c0620001ba3660046200162a565b620005e6565b005b620001c0620001d33660046200162a565b62000735565b620001ff620001ea366004620014b1565b60046020526000908152604090205460ff1681565b6040519015158152602001620001a0565b6200021a60055481565b604051908152602001620001a0565b620001c06200023a3660046200168b565b62000868565b6200021a60095481565b6200021a60085481565b620001c062000265366004620016c3565b620008ec565b620001c06200099d565b620001c062000286366004620016e1565b620009b5565b620001c06200029d366004620016fb565b62000a38565b620002ba620002b4366004620017e4565b62000b68565b6040516001600160a01b039091168152602001620001a0565b6000546001600160a01b0316620002ba565b6200021a620002f6366004620014b1565b60026020526000908152604090205481565b620001c062000319366004620016e1565b62000ee2565b600754620001ff90600160a01b900460ff1681565b6200021a60015481565b620001c06200034f366004620016e1565b62000f65565b6200021a60065481565b6200037662000370366004620016e1565b6200103a565b604051620001a098979695949392919062001858565b600754620002ba906001600160a01b031681565b620001c0620003b1366004620014b1565b620011b3565b620001c0620003c8366004620014b1565b62001232565b6200043260405180610100016040528060006001600160a01b0316815260200160006001600160a01b0316815260200160608152602001606081526020016000815260200160006001600160a01b0316815260200160008152602001600081525090565b6001600160a01b0380831660009081526002602081815260408084205484526003825292839020835161010081018552815486168152600182015490951691850191909152908101805491928401916200048c90620018c7565b80601f0160208091040260200160405190810160405280929190818152602001828054620004ba90620018c7565b80156200050b5780601f10620004df576101008083540402835291602001916200050b565b820191906000526020600020905b815481529060010190602001808311620004ed57829003601f168201915b505050505081526020016003820180546200052690620018c7565b80601f01602080910402602001604051908101604052809291908181526020018280546200055490620018c7565b8015620005a55780601f106200057957610100808354040283529160200191620005a5565b820191906000526020600020905b8154815290600101906020018083116200058757829003601f168201915b50505091835250506004820154602082015260058201546001600160a01b031660408201526006820154606082015260079091015460809091015292915050565b6000546001600160a01b03163314806200061457503360009081526004602052604090205460ff1615156001145b6200063c5760405162461bcd60e51b8152600401620006339062001904565b60405180910390fd5b60005b81811015620006ec578282828181106200065d576200065d62001945565b9050602002016020810190620006749190620014b1565b6001600160a01b0316637714671b856040518263ffffffff1660e01b8152600401620006a291815260200190565b600060405180830381600087803b158015620006bd57600080fd5b505af1158015620006d2573d6000803e3d6000fd5b505050508080620006e39062001971565b9150506200063f565b5060098390556040517f7d71de3016694b4b987abe9daa72dbbf8b23f45a5d8e8f8af0c20d4759727f51906200072890859085908590620019da565b60405180910390a1505050565b6000546001600160a01b03163314806200076357503360009081526004602052604090205460ff1615156001145b620007825760405162461bcd60e51b8152600401620006339062001904565b60005b818110156200083257828282818110620007a357620007a362001945565b9050602002016020810190620007ba9190620014b1565b6001600160a01b031663291d2ffd856040518263ffffffff1660e01b8152600401620007e891815260200190565b600060405180830381600087803b1580156200080357600080fd5b505af115801562000818573d6000803e3d6000fd5b505050508080620008299062001971565b91505062000785565b507fa2538f90e81ed5058ad53a8549c0adb17119fbd7be5a5d6c638f543836c681008383836040516200072893929190620019da565b6200087262001334565b6001600160a01b038216620008c15760405162461bcd60e51b815260206004820152601460248201527341646d696e2063616e6e6f74206265207a65726f60601b604482015260640162000633565b6001600160a01b03919091166000908152600460205260409020805460ff1916911515919091179055565b6000546001600160a01b03163314806200091a57503360009081526004602052604090205460ff1615156001145b620009395760405162461bcd60e51b8152600401620006339062001904565b60078054821515600160a01b0260ff60a01b199091161790556001546040517fd119587be04d80080c64717a0dc158c674898c4fe140498ffd144e1f6645d8b99162000992918491909115158252602082015260400190565b60405180910390a150565b620009a762001334565b620009b3600062001390565b565b6000546001600160a01b0316331480620009e357503360009081526004602052604090205460ff1615156001145b62000a025760405162461bcd60e51b8152600401620006339062001904565b60068190556040518181527f444c2ee6a42985e86e4d1c21435989ae523bae8ee02a11e8579bc4ac18b1d4ae9060200162000992565b6000546001600160a01b031633148062000a6657503360009081526004602052604090205460ff1615156001145b62000a855760405162461bcd60e51b8152600401620006339062001904565b60005b8181101562000b325782828281811062000aa65762000aa662001945565b905060200201602081019062000abd9190620014b1565b604051631277aad160e21b815285151560048201526001600160a01b0391909116906349deab4490602401600060405180830381600087803b15801562000b0357600080fd5b505af115801562000b18573d6000803e3d6000fd5b50505050808062000b299062001971565b91505062000a88565b507f97cadab72d319c69339c36ea663325df79f1ff05451e58aa16e9309e0af1f8778383836040516200072893929190620019ff565b600754600090600160a01b900460ff161562000bbb5760405162461bcd60e51b8152602060048201526011602482015270119858dd1bdc9e481a5cc81c185d5cd959607a1b604482015260640162000633565b60085482111562000c1b5760405162461bcd60e51b8152602060048201526024808201527f4475726174696f6e206973206c6f6e676572207468616e206d617820647572616044820152633a34b7b760e11b606482015260840162000633565b6000821162000c645760405162461bcd60e51b815260206004820152601460248201527304475726174696f6e2063616e6e6f7420626520360641b604482015260640162000633565b600062000c72834262001a1d565b90506000858583600760009054906101000a90046001600160a01b03166005546006546009543060405162000ca790620013e0565b62000cba98979695949392919062001a38565b604051809103906000f08015801562000cd7573d6000803e3d6000fd5b509050600060016000815462000ced9062001971565b918290555060408051610100810182526001600160a01b0380861682523360208084019182528385018d8152606085018d9052608085018a9052600754841660a086015260055460c086015260065460e086015260008781526003835295909520845181549085166001600160a01b031991821617825592516001820180549190951693169290921790925592518051949550919362000d949260028501920190620013ee565b506060820151805162000db2916003840191602090910190620013ee565b50608082015160048281019190915560a08301516005830180546001600160a01b0319166001600160a01b0392831617905560c0840151600684015560e090930151600790920191909155908316600081815260026020526040908190208490555163f2fde38b60e01b815233928101929092529063f2fde38b90602401600060405180830381600087803b15801562000e4b57600080fd5b505af115801562000e60573d6000803e3d6000fd5b50505050336001600160a01b0316826001600160a01b03167fb88d78963e0fd27cafe2a8eb5b1a1ec5160ba4eba112e93e585a94101108beed898987600760009054906101000a90046001600160a01b031660055460065460095460405162000ed0979695949392919062001aa2565b60405180910390a35095945050505050565b6000546001600160a01b031633148062000f1057503360009081526004602052604090205460ff1615156001145b62000f2f5760405162461bcd60e51b8152600401620006339062001904565b60058190556040518181527fa318485d4b7a387f0695a0179248931f1d023e08844d98b4e9e34775324bceb59060200162000992565b6000546001600160a01b031633148062000f9357503360009081526004602052604090205460ff1615156001145b62000fb25760405162461bcd60e51b8152600401620006339062001904565b60008111620010045760405162461bcd60e51b815260206004820152601860248201527f4d6178206475726174696f6e2063616e6e6f7420626520300000000000000000604482015260640162000633565b60088190556040518181527fba0716ba1ee2ea8ecc4c64119b4537cdb42a99d82acf92af5b87607b8b5235529060200162000992565b6003602052600090815260409020805460018201546002830180546001600160a01b039384169492909316926200107190620018c7565b80601f01602080910402602001604051908101604052809291908181526020018280546200109f90620018c7565b8015620010f05780601f10620010c457610100808354040283529160200191620010f0565b820191906000526020600020905b815481529060010190602001808311620010d257829003601f168201915b5050505050908060030180546200110790620018c7565b80601f01602080910402602001604051908101604052809291908181526020018280546200113590620018c7565b8015620011865780601f106200115a5761010080835404028352916020019162001186565b820191906000526020600020905b8154815290600101906020018083116200116857829003601f168201915b50505050600483015460058401546006850154600790950154939491936001600160a01b03909116925088565b620011bd62001334565b6001600160a01b038116620012245760405162461bcd60e51b815260206004820152602660248201527f4f776e61626c653a206e6577206f776e657220697320746865207a65726f206160448201526564647265737360d01b606482015260840162000633565b6200122f8162001390565b50565b6000546001600160a01b03163314806200126057503360009081526004602052604090205460ff1615156001145b6200127f5760405162461bcd60e51b8152600401620006339062001904565b6001600160a01b038116620012ea5760405162461bcd60e51b815260206004820152602a60248201527f4665652064657374696e6174696f6e2063616e6e6f7420626520746865207a65604482015269726f206164647265737360b01b606482015260840162000633565b600780546001600160a01b0319166001600160a01b0383169081179091556040517f262538484f9e0f43acdcef80a543c1aecfc0b210b993fd3d09bd77ee95b9d34490600090a250565b6000546001600160a01b03163314620009b35760405162461bcd60e51b815260206004820181905260248201527f4f776e61626c653a2063616c6c6572206973206e6f7420746865206f776e6572604482015260640162000633565b600080546001600160a01b038381166001600160a01b0319831681178455604051919092169283917f8be0079c531659141344cd1fd0a4f28419497f9722a3daafe3b4186f6b6457e09190a35050565b61233f8062001b0083390190565b828054620013fc90620018c7565b90600052602060002090601f0160209004810192826200142057600085556200146b565b82601f106200143b57805160ff19168380011785556200146b565b828001600101855582156200146b579182015b828111156200146b5782518255916020019190600101906200144e565b50620014799291506200147d565b5090565b5b808211156200147957600081556001016200147e565b80356001600160a01b0381168114620014ac57600080fd5b919050565b600060208284031215620014c457600080fd5b620014cf8262001494565b9392505050565b6000815180845260005b81811015620014fe57602081850181015186830182015201620014e0565b8181111562001511576000602083870101525b50601f01601f19169290920160200192915050565b602080825282516001600160a01b0316828201528201516000906200155660408401826001600160a01b03169052565b50604083015161010080606085015262001575610120850183620014d6565b91506060850151601f19858403016080860152620015948382620014d6565b925050608085015160a085015260a0850151620015bc60c08601826001600160a01b03169052565b5060c085015160e085015260e085015181850152508091505092915050565b60008083601f840112620015ee57600080fd5b50813567ffffffffffffffff8111156200160757600080fd5b6020830191508360208260051b85010111156200162357600080fd5b9250929050565b6000806000604084860312156200164057600080fd5b83359250602084013567ffffffffffffffff8111156200165f57600080fd5b6200166d86828701620015db565b9497909650939450505050565b80358015158114620014ac57600080fd5b600080604083850312156200169f57600080fd5b620016aa8362001494565b9150620016ba602084016200167a565b90509250929050565b600060208284031215620016d657600080fd5b620014cf826200167a565b600060208284031215620016f457600080fd5b5035919050565b6000806000604084860312156200171157600080fd5b6200171c846200167a565b9250602084013567ffffffffffffffff8111156200165f57600080fd5b634e487b7160e01b600052604160045260246000fd5b600082601f8301126200176157600080fd5b813567ffffffffffffffff808211156200177f576200177f62001739565b604051601f8301601f19908116603f01168101908282118183101715620017aa57620017aa62001739565b81604052838152866020858801011115620017c457600080fd5b836020870160208301376000602085830101528094505050505092915050565b600080600060608486031215620017fa57600080fd5b833567ffffffffffffffff808211156200181357600080fd5b62001821878388016200174f565b945060208601359150808211156200183857600080fd5b5062001847868287016200174f565b925050604084013590509250925092565b6001600160a01b038981168252888116602083015261010060408301819052600091620018888483018b620014d6565b915083820360608501526200189e828a620014d6565b60808501989098529590951660a08301525060c081019290925260e09091015250949350505050565b600181811c90821680620018dc57607f821691505b60208210811415620018fe57634e487b7160e01b600052602260045260246000fd5b50919050565b60208082526021908201527f43616c6c6572206973206e656974686572206f776e6572206e6f722061646d696040820152603760f91b606082015260800190565b634e487b7160e01b600052603260045260246000fd5b634e487b7160e01b600052601160045260246000fd5b60006000198214156200198857620019886200195b565b5060010190565b8183526000602080850194508260005b85811015620019cf576001600160a01b03620019bb8362001494565b16875295820195908201906001016200199f565b509495945050505050565b838152604060208201526000620019f66040830184866200198f565b95945050505050565b8315158152604060208201526000620019f66040830184866200198f565b6000821982111562001a335762001a336200195b565b500190565b600061010080835262001a4e8184018c620014d6565b9050828103602084015262001a64818b620014d6565b604084019990995250506001600160a01b039586166060820152608081019490945260a084019290925260c083015290911660e09091015292915050565b60e08152600062001ab760e083018a620014d6565b828103602084015262001acb818a620014d6565b604084019890985250506001600160a01b03949094166060850152608084019290925260a083015260c0909101529291505056fe60806040523480156200001157600080fd5b506040516200233f3803806200233f83398101604081905262000034916200032d565b8751889088906200004d9060039060208501906200019d565b508051620000639060049060208401906200019d565b505050620000806200007a6200014760201b60201c565b6200014b565b60016006556001600160a01b038516620000f35760405162461bcd60e51b815260206004820152602a60248201527f4665652064657374696e6174696f6e2063616e6e6f7420626520746865207a65604482015269726f206164647265737360b01b606482015260840160405180910390fd5b600b95909555600992909255600a55600880546001600160a01b039384166001600160a01b031991821617909155600c91909155600780549290931691161790555050600e805461ffff1916905562000420565b3390565b600580546001600160a01b038381166001600160a01b0319831681179093556040519116919082907f8be0079c531659141344cd1fd0a4f28419497f9722a3daafe3b4186f6b6457e090600090a35050565b828054620001ab90620003e3565b90600052602060002090601f016020900481019282620001cf57600085556200021a565b82601f10620001ea57805160ff19168380011785556200021a565b828001600101855582156200021a579182015b828111156200021a578251825591602001919060010190620001fd565b50620002289291506200022c565b5090565b5b808211156200022857600081556001016200022d565b634e487b7160e01b600052604160045260246000fd5b600082601f8301126200026b57600080fd5b81516001600160401b038082111562000288576200028862000243565b604051601f8301601f19908116603f01168101908282118183101715620002b357620002b362000243565b81604052838152602092508683858801011115620002d057600080fd5b600091505b83821015620002f45785820183015181830184015290820190620002d5565b83821115620003065760008385830101525b9695505050505050565b80516001600160a01b03811681146200032857600080fd5b919050565b600080600080600080600080610100898b0312156200034b57600080fd5b88516001600160401b03808211156200036357600080fd5b620003718c838d0162000259565b995060208b01519150808211156200038857600080fd5b50620003978b828c0162000259565b97505060408901519550620003af60608a0162000310565b94506080890151935060a0890151925060c08901519150620003d460e08a0162000310565b90509295985092959890939650565b600181811c90821680620003f857607f821691505b602082108114156200041a57634e487b7160e01b600052602260045260246000fd5b50919050565b611f0f80620004306000396000f3fe60806040526004361061020f5760003560e01c80638da5cb5b11610118578063c5a1d5e2116100a0578063df6113041161006f578063df611304146105df578063f2fde38b146105f4578063f46d932414610614578063f9a948d71461062a578063fba7cc791461064457600080fd5b8063c5a1d5e214610569578063d6e6eb9f14610589578063d7e894661461059f578063dd62ed3e146105bf57600080fd5b8063a457c2d7116100e7578063a457c2d7146104de578063a85adeab146104fe578063a9059cbb14610514578063b434b99714610534578063bf548dcb1461054a57600080fd5b80638da5cb5b1461047857806395d89b4114610496578063966dae0e146104ab578063a0712d68146104cb57600080fd5b8063395093511161019b5780634ce7957c1161016a5780634ce7957c146103bf57806368379225146103f757806370a082311461040d578063715018a6146104435780637714671b1461045857600080fd5b8063395093511461033f57806342966c681461035f5780634768e8851461037f57806349deab441461039f57600080fd5b806323b872dd116101e257806323b872dd146102a157806327de8f27146102c1578063291d2ffd146102e1578063313ce5671461030357806338cb037a1461031f57600080fd5b806306fdde0314610214578063095ea7b31461023f57806312065fe01461026f57806318160ddd1461028c575b600080fd5b34801561022057600080fd5b5061022961065b565b6040516102369190611c54565b60405180910390f35b34801561024b57600080fd5b5061025f61025a366004611cc5565b6106ed565b6040519015158152602001610236565b34801561027b57600080fd5b50475b604051908152602001610236565b34801561029857600080fd5b5060025461027e565b3480156102ad57600080fd5b5061025f6102bc366004611cef565b610705565b3480156102cd57600080fd5b5061027e6102dc366004611d2b565b610729565b3480156102ed57600080fd5b506103016102fc366004611d2b565b610767565b005b34801561030f57600080fd5b5060405160008152602001610236565b34801561032b57600080fd5b5061027e61033a366004611d2b565b610827565b34801561034b57600080fd5b5061025f61035a366004611cc5565b6108c4565b34801561036b57600080fd5b5061030161037a366004611d2b565b6108e6565b34801561038b57600080fd5b5061027e61039a366004611d2b565b610bed565b3480156103ab57600080fd5b506103016103ba366004611d44565b610c36565b3480156103cb57600080fd5b506008546103df906001600160a01b031681565b6040516001600160a01b039091168152602001610236565b34801561040357600080fd5b5061027e600c5481565b34801561041957600080fd5b5061027e610428366004611d6d565b6001600160a01b031660009081526020819052604090205490565b34801561044f57600080fd5b50610301610ce4565b34801561046457600080fd5b50610301610473366004611d2b565b610cf8565b34801561048457600080fd5b506005546001600160a01b03166103df565b3480156104a257600080fd5b50610229610e25565b3480156104b757600080fd5b506007546103df906001600160a01b031681565b6103016104d9366004611d2b565b610e34565b3480156104ea57600080fd5b5061025f6104f9366004611cc5565b611192565b34801561050a57600080fd5b5061027e600b5481565b34801561052057600080fd5b5061025f61052f366004611cc5565b61120d565b34801561054057600080fd5b5061027e600d5481565b34801561055657600080fd5b50600e5461025f90610100900460ff1681565b34801561057557600080fd5b5061027e610584366004611d2b565b61121b565b34801561059557600080fd5b5061027e60095481565b3480156105ab57600080fd5b5061027e6105ba366004611d2b565b6112ed565b3480156105cb57600080fd5b5061027e6105da366004611d88565b611319565b3480156105eb57600080fd5b50610301611344565b34801561060057600080fd5b5061030161060f366004611d6d565b6115a9565b34801561062057600080fd5b5061027e600a5481565b34801561063657600080fd5b50600e5461025f9060ff1681565b34801561065057600080fd5b50600b54421061025f565b60606003805461066a90611dbb565b80601f016020809104026020016040519081016040528092919081815260200182805461069690611dbb565b80156106e35780601f106106b8576101008083540402835291602001916106e3565b820191906000526020600020905b8154815290600101906020018083116106c657829003601f168201915b5050505050905090565b6000336106fb818585611622565b5060019392505050565b600033610713858285611747565b61071e8585856117c1565b506001949350505050565b60008061073861039a60025490565b905060006107538461074960025490565b61039a9190611e0c565b905061075f8282611e24565b949350505050565b6007546001600160a01b031633146107de5760405162461bcd60e51b815260206004820152602f60248201527f4f6e6c792074686520666163746f72792063616e20696e63726561736520746860448201526e06520656e642074696d657374616d7608c1b60648201526084015b60405180910390fd5b80600b60008282546107f09190611e0c565b9091555050600b546040513091907faeed863ef6927b5b0db604d19eae13d8517de3c69c67d848a9cac7e591ba3ebc90600090a350565b60008061083661039a60025490565b905060006108478461074960025490565b905060006108558383611e24565b90506000670de0b6b3a7640000600954836108709190611e3b565b61087a9190611e5a565b90506000670de0b6b3a7640000600a54846108959190611e3b565b61089f9190611e5a565b90506000816108ae8486611e0c565b6108b89190611e0c565b98975050505050505050565b6000336106fb8185856108d78383611319565b6108e19190611e0c565b611622565b600b54421115806108fe5750600e54610100900460ff165b61091a5760405162461bcd60e51b81526004016107d590611e7c565b3360009081526020819052604090205481111561096557336000908152602081905260409020546040516302cf7de960e51b81526004810191909152602481018290526044016107d5565b6000610970826112ed565b90506000670de0b6b3a76400006009548361098b9190611e3b565b6109959190611e5a565b90506000670de0b6b3a7640000600a54846109b09190611e3b565b6109ba9190611e5a565b90506109c63385611965565b600033826109d48587611e24565b6109de9190611e24565b604051600081818185875af1925050503d8060008114610a1a576040519150601f19603f3d011682016040523d82523d6000602084013e610a1f565b606091505b5050905080610a68573382610a348587611e24565b610a3e9190611e24565b60405163163528f160e11b81526001600160a01b03909216600483015260248201526044016107d5565b6008546040516000916001600160a01b03169085908381818185875af1925050503d8060008114610ab5576040519150601f19603f3d011682016040523d82523d6000602084013e610aba565b606091505b505090506000610ad26005546001600160a01b031690565b6001600160a01b03168460405160006040518083038185875af1925050503d8060008114610b1c576040519150601f19603f3d011682016040523d82523d6000602084013e610b21565b606091505b50509050818015610b2f5750805b610b725760405162461bcd60e51b8152602060048201526014602482015273556e61626c6520746f2073656e642066756e647360601b60448201526064016107d5565b30610b856005546001600160a01b031690565b6001600160a01b0316337fce895f9022611c377bd008e8200117dd0b50bfbace728d659258dd9a6013d0128a610bba60025490565b600954600a546040805194855260208501939093529183015260608201526080015b60405180910390a450505050505050565b60006006610bfc836002611e3b565b610c07906001611e0c565b610c12846001611e0c565b610c1c9085611e3b565b610c269190611e3b565b610c309190611e5a565b92915050565b6007546001600160a01b03163314610c9c5760405162461bcd60e51b815260206004820152602360248201527f4f6e6c792074686520666163746f72792063616e2073657420746869732076616044820152626c756560e81b60648201526084016107d5565b600e805461ff001916610100831515908102919091179091556040513091907f2833b691c1c627066cf7e8f641f612a38858c414d0734cf4808806023d77d42890600090a350565b610cec611a8f565b610cf66000611ae9565b565b6007546001600160a01b03163314610d645760405162461bcd60e51b815260206004820152602960248201527f4f6e6c792074686520666163746f72792063616e2075706461746520746865206044820152681d1a1c995cda1bdb1960ba1b60648201526084016107d5565b600c548111610ddb5760405162461bcd60e51b815260206004820152603860248201527f4e6577207468726573686f6c64206d757374206265206772656174657220746860448201527f616e207468652063757272656e74207468726573686f6c64000000000000000060648201526084016107d5565b600e805460ff19169055600c81905560405160008152309082907fe2101cb638a06a54be2736bd09858f73a7a0ee4e0c447278a57605b00949f7679060200160405180910390a350565b60606004805461066a90611dbb565b600b5442111580610e4c5750600e54610100900460ff165b610e685760405162461bcd60e51b81526004016107d590611e7c565b6000610e7382610729565b90506000670de0b6b3a764000060095483610e8e9190611e3b565b610e989190611e5a565b90506000670de0b6b3a7640000600a5484610eb39190611e3b565b610ebd9190611e5a565b9050600081610ecc8486611e0c565b610ed69190611e0c565b905080341015610f0257604051631c102d6360e21b8152600481018290523460248201526044016107d5565b610f0c3386611b3b565b600d546002541115610f1f57600254600d555b600c5460025410158015610f365750600e5460ff16155b15610f965762015f90600b6000828254610f509190611e0c565b9091555050600e805460ff19166001179055600c54600b54604051309291907fddc65827b2a21fe05396e6301dd555e8cc2e499cb721c885ced661c12448b17290600090a45b8034111561100257600033610fab8334611e24565b604051600081818185875af1925050503d8060008114610fe7576040519150601f19603f3d011682016040523d82523d6000602084013e610fec565b606091505b50509050806110005733610a3e8334611e24565b505b6008546040516000916001600160a01b03169085908381818185875af1925050503d806000811461104f576040519150601f19603f3d011682016040523d82523d6000602084013e611054565b606091505b50509050600061106c6005546001600160a01b031690565b6001600160a01b03168460405160006040518083038185875af1925050503d80600081146110b6576040519150601f19603f3d011682016040523d82523d6000602084013e6110bb565b606091505b505090508180156110c95750805b61110c5760405162461bcd60e51b8152602060048201526014602482015273556e61626c6520746f2073656e642066756e647360601b60448201526064016107d5565b3061111f6005546001600160a01b031690565b6001600160a01b0316337f783022cad86f5e000cd20d32f24eb30f0d50e6a1794075a2d434e4c8ad59cbb78a61115460025490565b600954600a54600b54600e54604080519687526020870195909552938501929092526060840152608083015260ff16151560a082015260c001610bdc565b600033816111a08286611319565b9050838110156112005760405162461bcd60e51b815260206004820152602560248201527f45524332303a2064656372656173656420616c6c6f77616e63652062656c6f77604482015264207a65726f60d81b60648201526084016107d5565b61071e8286868403611622565b6000336106fb8185856117c1565b600061122660025490565b82111561123557506000919050565b600061124361039a60025490565b9050600061125e8461125460025490565b61039a9190611e24565b9050600061126c8284611e24565b90506000670de0b6b3a7640000600954836112879190611e3b565b6112919190611e5a565b90506000670de0b6b3a7640000600a54846112ac9190611e3b565b6112b69190611e5a565b90506112c28183611e0c565b8310156112d6575060009695505050505050565b6000816112e38486611e24565b6108b89190611e24565b6000806112fc61039a60025490565b9050600061130d8461125460025490565b905061075f8183611e24565b6001600160a01b03918216600090815260016020908152604080832093909416825291909152205490565b61134c611a8f565b600b54421180156113655750600e54610100900460ff16155b6113d05760405162461bcd60e51b815260206004820152603660248201527f41637469766520706861736520686173206e6f7420656e646564206f7220746f6044820152756b656e206973207374696c6c20747261646561626c6560501b60648201526084016107d5565b6113d8611bfa565b47806114265760405162461bcd60e51b815260206004820152601a60248201527f4e6f2066756e647320617661696c61626c6520746f2073656e6400000000000060448201526064016107d5565b6000670de0b6b3a76400006009548361143f9190611e3b565b6114499190611e5a565b9050600061145f6005546001600160a01b031690565b6001600160a01b03166114728385611e24565b604051600081818185875af1925050503d80600081146114ae576040519150601f19603f3d011682016040523d82523d6000602084013e6114b3565b606091505b50506008546040519192506000916001600160a01b039091169084908381818185875af1925050503d8060008114611507576040519150601f19603f3d011682016040523d82523d6000602084013e61150c565b606091505b5050905081801561151a5750805b6115665760405162461bcd60e51b815260206004820152601860248201527f4661696c656420746f207472616e736665722066756e6473000000000000000060448201526064016107d5565b60405184815233907fad3973620ba61efcb8e56f7f58d8e27b342ede7c4b73456e6cf23f9870f04ae19060200160405180910390a250505050610cf66001600655565b6115b1611a8f565b6001600160a01b0381166116165760405162461bcd60e51b815260206004820152602660248201527f4f776e61626c653a206e6577206f776e657220697320746865207a65726f206160448201526564647265737360d01b60648201526084016107d5565b61161f81611ae9565b50565b6001600160a01b0383166116845760405162461bcd60e51b8152602060048201526024808201527f45524332303a20617070726f76652066726f6d20746865207a65726f206164646044820152637265737360e01b60648201526084016107d5565b6001600160a01b0382166116e55760405162461bcd60e51b815260206004820152602260248201527f45524332303a20617070726f766520746f20746865207a65726f206164647265604482015261737360f01b60648201526084016107d5565b6001600160a01b0383811660008181526001602090815260408083209487168084529482529182902085905590518481527f8c5be1e5ebec7d5bd14f71427d1e84f3dd0314c0f7b2291e5b200ac8c7c3b92591015b60405180910390a3505050565b60006117538484611319565b905060001981146117bb57818110156117ae5760405162461bcd60e51b815260206004820152601d60248201527f45524332303a20696e73756666696369656e7420616c6c6f77616e636500000060448201526064016107d5565b6117bb8484848403611622565b50505050565b6001600160a01b0383166118255760405162461bcd60e51b815260206004820152602560248201527f45524332303a207472616e736665722066726f6d20746865207a65726f206164604482015264647265737360d81b60648201526084016107d5565b6001600160a01b0382166118875760405162461bcd60e51b815260206004820152602360248201527f45524332303a207472616e7366657220746f20746865207a65726f206164647260448201526265737360e81b60648201526084016107d5565b6001600160a01b038316600090815260208190526040902054818110156118ff5760405162461bcd60e51b815260206004820152602660248201527f45524332303a207472616e7366657220616d6f756e7420657863656564732062604482015265616c616e636560d01b60648201526084016107d5565b6001600160a01b03848116600081815260208181526040808320878703905593871680835291849020805487019055925185815290927fddf252ad1be2c89b69c2b068fc378daa952ba7f163c4a11628f55a4df523b3ef910160405180910390a36117bb565b6001600160a01b0382166119c55760405162461bcd60e51b815260206004820152602160248201527f45524332303a206275726e2066726f6d20746865207a65726f206164647265736044820152607360f81b60648201526084016107d5565b6001600160a01b03821660009081526020819052604090205481811015611a395760405162461bcd60e51b815260206004820152602260248201527f45524332303a206275726e20616d6f756e7420657863656564732062616c616e604482015261636560f01b60648201526084016107d5565b6001600160a01b0383166000818152602081815260408083208686039055600280548790039055518581529192917fddf252ad1be2c89b69c2b068fc378daa952ba7f163c4a11628f55a4df523b3ef910161173a565b6005546001600160a01b03163314610cf65760405162461bcd60e51b815260206004820181905260248201527f4f776e61626c653a2063616c6c6572206973206e6f7420746865206f776e657260448201526064016107d5565b600580546001600160a01b038381166001600160a01b0319831681179093556040519116919082907f8be0079c531659141344cd1fd0a4f28419497f9722a3daafe3b4186f6b6457e090600090a35050565b6001600160a01b038216611b915760405162461bcd60e51b815260206004820152601f60248201527f45524332303a206d696e7420746f20746865207a65726f20616464726573730060448201526064016107d5565b8060026000828254611ba39190611e0c565b90915550506001600160a01b038216600081815260208181526040808320805486019055518481527fddf252ad1be2c89b69c2b068fc378daa952ba7f163c4a11628f55a4df523b3ef910160405180910390a35050565b60026006541415611c4d5760405162461bcd60e51b815260206004820152601f60248201527f5265656e7472616e637947756172643a207265656e7472616e742063616c6c0060448201526064016107d5565b6002600655565b600060208083528351808285015260005b81811015611c8157858101830151858201604001528201611c65565b81811115611c93576000604083870101525b50601f01601f1916929092016040019392505050565b80356001600160a01b0381168114611cc057600080fd5b919050565b60008060408385031215611cd857600080fd5b611ce183611ca9565b946020939093013593505050565b600080600060608486031215611d0457600080fd5b611d0d84611ca9565b9250611d1b60208501611ca9565b9150604084013590509250925092565b600060208284031215611d3d57600080fd5b5035919050565b600060208284031215611d5657600080fd5b81358015158114611d6657600080fd5b9392505050565b600060208284031215611d7f57600080fd5b611d6682611ca9565b60008060408385031215611d9b57600080fd5b611da483611ca9565b9150611db260208401611ca9565b90509250929050565b600181811c90821680611dcf57607f821691505b60208210811415611df057634e487b7160e01b600052602260045260246000fd5b50919050565b634e487b7160e01b600052601160045260246000fd5b60008219821115611e1f57611e1f611df6565b500190565b600082821015611e3657611e36611df6565b500390565b6000816000190483118215151615611e5557611e55611df6565b500290565b600082611e7757634e487b7160e01b600052601260045260246000fd5b500490565b60208082526037908201527f4163746976652070686173652068617320656e64656420616e6420746f6b656e60408201527f206973206e6f206c6f6e67657220747261646561626c6500000000000000000060608201526080019056fea26469706673582212204b3e9fb6944f6c9b6601892ba443eab8961865c5fad6a04e41c8acdf9d6e8caa64736f6c63430008080033a26469706673582212206b9daa6c56c3b7f07da4db2bd18e678aea59af62971473dbaccdf7af69b0b48d64736f6c63430008080033",
  "devdoc": {
    "kind": "dev",
    "methods": {
      "createTempToken(string,string,uint256)": {
        "details": "createTempToken is a function to create a new TempToken.name is the name of the token.symbol is the symbol of the token.duration is the duration in seconds for the lifespan of the TempToken.The function returns the address of the new TempToken."
      },
      "getTokenInfo(address)": {
        "details": "getTokenInfo is a function to get the TokenInfo struct of a deployed token.tokenAddress is the address of the deployed token.The function returns the TokenInfo struct of the deployed token."
      },
      "owner()": {
        "details": "Returns the address of the current owner."
      },
      "renounceOwnership()": {
        "details": "Leaves the contract without owner. It will not be possible to call `onlyOwner` functions anymore. Can only be called by the current owner. NOTE: Renouncing ownership will leave the contract without an owner, thereby removing any functionality that is only available to the owner."
      },
      "setFeeDestination(address)": {
        "details": "The following functions are used to set the default protocol fee destination,  protocol fee percentage, streamer fee percentage, pause the factory, set total supply threshold, and set the max duration.These functions are only callable by the owner of the factory."
      },
      "setTotalSupplyThresholdForTokens(uint256,address[])": {
        "details": "The following functions are used to set the total supply threshold for tokens,  increase the end timestamp for tokens, set the max duration, and pause the factory.These functions are only callable by the owner or an admin of the factory."
      },
      "transferOwnership(address)": {
        "details": "Transfers ownership of the contract to a new account (`newOwner`). Can only be called by the current owner."
      }
    },
    "stateVariables": {
      "admins": {
        "details": "admins is a mapping of addresses to a boolean value. If the boolean value is true, the address is an admin. If the boolean value is false, the address is not an admin."
      },
      "defaultProtocolFeePercent": {
        "details": "defaultProtocolFeePercent is the default protocol fee percentage. ex: 2% = 2 * 10**16 = 20000000000000000.defaultStreamerFeePercent is the default streamer fee percentage. ex: 2% = 2 * 10**16 = 20000000000000000.defaultProtocolFeeDestination is the default protocol fee destination address.isPaused is a boolean to pause the token creation function.maxDuration is the max duration in seconds for the lifespan of the TempToken.totalSupplyThreshold is the total supply needed for the token to convert from a TempToken into a normal, permanent token.  This total supply will be adjusted by us depending on various factors. The goal of each TempToken is to have hit this threshold by the time the duration has expired. IT'S A GAME."
      },
      "numDeployedTokens": {
        "details": "numDeployedTokens is the number of deployed tokens.deployedTokenIndices is a mapping of token addresses to their assigned index.deployedTokens is a mapping of token indices to TokenInfo structs."
      }
    },
    "version": 1
  },
  "userdoc": {
    "kind": "user",
    "methods": {},
    "version": 1
  },
  "storageLayout": {
    "storage": [
      {
        "astId": 7,
        "contract": "contracts/TempTokenFactoryV1.sol:TempTokenFactoryV1",
        "label": "_owner",
        "offset": 0,
        "slot": "0",
        "type": "t_address"
      },
      {
        "astId": 903,
        "contract": "contracts/TempTokenFactoryV1.sol:TempTokenFactoryV1",
        "label": "numDeployedTokens",
        "offset": 0,
        "slot": "1",
        "type": "t_uint256"
      },
      {
        "astId": 907,
        "contract": "contracts/TempTokenFactoryV1.sol:TempTokenFactoryV1",
        "label": "deployedTokenIndices",
        "offset": 0,
        "slot": "2",
        "type": "t_mapping(t_address,t_uint256)"
      },
      {
        "astId": 912,
        "contract": "contracts/TempTokenFactoryV1.sol:TempTokenFactoryV1",
        "label": "deployedTokens",
        "offset": 0,
        "slot": "3",
        "type": "t_mapping(t_uint256,t_struct(TokenInfo)900_storage)"
      },
      {
        "astId": 917,
        "contract": "contracts/TempTokenFactoryV1.sol:TempTokenFactoryV1",
        "label": "admins",
        "offset": 0,
        "slot": "4",
        "type": "t_mapping(t_address,t_bool)"
      },
      {
        "astId": 920,
        "contract": "contracts/TempTokenFactoryV1.sol:TempTokenFactoryV1",
        "label": "defaultProtocolFeePercent",
        "offset": 0,
        "slot": "5",
        "type": "t_uint256"
      },
      {
        "astId": 922,
        "contract": "contracts/TempTokenFactoryV1.sol:TempTokenFactoryV1",
        "label": "defaultStreamerFeePercent",
        "offset": 0,
        "slot": "6",
        "type": "t_uint256"
      },
      {
        "astId": 924,
        "contract": "contracts/TempTokenFactoryV1.sol:TempTokenFactoryV1",
        "label": "defaultProtocolFeeDestination",
        "offset": 0,
        "slot": "7",
        "type": "t_address"
      },
      {
        "astId": 926,
        "contract": "contracts/TempTokenFactoryV1.sol:TempTokenFactoryV1",
        "label": "isPaused",
        "offset": 20,
        "slot": "7",
        "type": "t_bool"
      },
      {
        "astId": 928,
        "contract": "contracts/TempTokenFactoryV1.sol:TempTokenFactoryV1",
        "label": "maxDuration",
        "offset": 0,
        "slot": "8",
        "type": "t_uint256"
      },
      {
        "astId": 930,
        "contract": "contracts/TempTokenFactoryV1.sol:TempTokenFactoryV1",
        "label": "totalSupplyThreshold",
        "offset": 0,
        "slot": "9",
        "type": "t_uint256"
      }
    ],
    "types": {
      "t_address": {
        "encoding": "inplace",
        "label": "address",
        "numberOfBytes": "20"
      },
      "t_bool": {
        "encoding": "inplace",
        "label": "bool",
        "numberOfBytes": "1"
      },
      "t_mapping(t_address,t_bool)": {
        "encoding": "mapping",
        "key": "t_address",
        "label": "mapping(address => bool)",
        "numberOfBytes": "32",
        "value": "t_bool"
      },
      "t_mapping(t_address,t_uint256)": {
        "encoding": "mapping",
        "key": "t_address",
        "label": "mapping(address => uint256)",
        "numberOfBytes": "32",
        "value": "t_uint256"
      },
      "t_mapping(t_uint256,t_struct(TokenInfo)900_storage)": {
        "encoding": "mapping",
        "key": "t_uint256",
        "label": "mapping(uint256 => struct TempTokenFactoryV1.TokenInfo)",
        "numberOfBytes": "32",
        "value": "t_struct(TokenInfo)900_storage"
      },
      "t_string_storage": {
        "encoding": "bytes",
        "label": "string",
        "numberOfBytes": "32"
      },
      "t_struct(TokenInfo)900_storage": {
        "encoding": "inplace",
        "label": "struct TempTokenFactoryV1.TokenInfo",
        "members": [
          {
            "astId": 885,
            "contract": "contracts/TempTokenFactoryV1.sol:TempTokenFactoryV1",
            "label": "tokenAddress",
            "offset": 0,
            "slot": "0",
            "type": "t_address"
          },
          {
            "astId": 887,
            "contract": "contracts/TempTokenFactoryV1.sol:TempTokenFactoryV1",
            "label": "ownerAddress",
            "offset": 0,
            "slot": "1",
            "type": "t_address"
          },
          {
            "astId": 889,
            "contract": "contracts/TempTokenFactoryV1.sol:TempTokenFactoryV1",
            "label": "name",
            "offset": 0,
            "slot": "2",
            "type": "t_string_storage"
          },
          {
            "astId": 891,
            "contract": "contracts/TempTokenFactoryV1.sol:TempTokenFactoryV1",
            "label": "symbol",
            "offset": 0,
            "slot": "3",
            "type": "t_string_storage"
          },
          {
            "astId": 893,
            "contract": "contracts/TempTokenFactoryV1.sol:TempTokenFactoryV1",
            "label": "endTimestamp",
            "offset": 0,
            "slot": "4",
            "type": "t_uint256"
          },
          {
            "astId": 895,
            "contract": "contracts/TempTokenFactoryV1.sol:TempTokenFactoryV1",
            "label": "protocolFeeDestination",
            "offset": 0,
            "slot": "5",
            "type": "t_address"
          },
          {
            "astId": 897,
            "contract": "contracts/TempTokenFactoryV1.sol:TempTokenFactoryV1",
            "label": "protocolFeePercent",
            "offset": 0,
            "slot": "6",
            "type": "t_uint256"
          },
          {
            "astId": 899,
            "contract": "contracts/TempTokenFactoryV1.sol:TempTokenFactoryV1",
            "label": "streamerFeePercent",
            "offset": 0,
            "slot": "7",
            "type": "t_uint256"
          }
        ],
        "numberOfBytes": "256"
      },
      "t_uint256": {
        "encoding": "inplace",
        "label": "uint256",
        "numberOfBytes": "32"
      }
    }
  }
}