{
  "address": "0x8eAF306D98D7C704062c9Fe0C937AAf40D8D477F",
  "abi": [
    {
      "inputs": [
        {
          "internalType": "address",
          "name": "_defaultProtocolFeeDestination",
          "type": "address"
        },
        {
          "internalType": "uint256",
          "name": "_defaultProtocolFeePercent",
          "type": "uint256"
        },
        {
          "internalType": "uint256",
          "name": "_defaultStreamerFeePercent",
          "type": "uint256"
        },
        {
          "internalType": "uint256",
          "name": "_totalSupplyThreshold",
          "type": "uint256"
        }
      ],
      "stateMutability": "nonpayable",
      "type": "constructor"
    },
    {
      "anonymous": false,
      "inputs": [
        {
          "indexed": false,
          "internalType": "address[]",
          "name": "tokenAddresses",
          "type": "address[]"
        }
      ],
      "name": "AlwaysTradeableSetForTokens",
      "type": "event"
    },
    {
      "anonymous": false,
      "inputs": [
        {
          "indexed": false,
          "internalType": "uint256",
          "name": "additionalDuration",
          "type": "uint256"
        },
        {
          "indexed": false,
          "internalType": "address[]",
          "name": "tokenAddresses",
          "type": "address[]"
        }
      ],
      "name": "EndTimestampIncreasedForTokens",
      "type": "event"
    },
    {
      "anonymous": false,
      "inputs": [
        {
          "indexed": false,
          "internalType": "uint256",
          "name": "maxDuration",
          "type": "uint256"
        }
      ],
      "name": "MaxDurationSet",
      "type": "event"
    },
    {
      "anonymous": false,
      "inputs": [
        {
          "indexed": true,
          "internalType": "address",
          "name": "previousOwner",
          "type": "address"
        },
        {
          "indexed": true,
          "internalType": "address",
          "name": "newOwner",
          "type": "address"
        }
      ],
      "name": "OwnershipTransferred",
      "type": "event"
    },
    {
      "anonymous": false,
      "inputs": [
        {
          "indexed": false,
          "internalType": "bool",
          "name": "isPaused",
          "type": "bool"
        },
        {
          "indexed": false,
          "internalType": "uint256",
          "name": "numDeployedTokens",
          "type": "uint256"
        }
      ],
      "name": "PauseFactorySet",
      "type": "event"
    },
    {
      "anonymous": false,
      "inputs": [
        {
          "indexed": true,
          "internalType": "address",
          "name": "protocolFeeDestination",
          "type": "address"
        }
      ],
      "name": "ProtocolFeeDestinationSet",
      "type": "event"
    },
    {
      "anonymous": false,
      "inputs": [
        {
          "indexed": false,
          "internalType": "uint256",
          "name": "feePercent",
          "type": "uint256"
        }
      ],
      "name": "ProtocolFeePercentSet",
      "type": "event"
    },
    {
      "anonymous": false,
      "inputs": [
        {
          "indexed": false,
          "internalType": "uint256",
          "name": "feePercent",
          "type": "uint256"
        }
      ],
      "name": "StreamerFeePercentSet",
      "type": "event"
    },
    {
      "anonymous": false,
      "inputs": [
        {
          "indexed": true,
          "internalType": "address",
          "name": "tokenAddress",
          "type": "address"
        },
        {
          "indexed": true,
          "internalType": "address",
          "name": "owner",
          "type": "address"
        },
        {
          "indexed": false,
          "internalType": "string",
          "name": "name",
          "type": "string"
        },
        {
          "indexed": false,
          "internalType": "string",
          "name": "symbol",
          "type": "string"
        },
        {
          "indexed": false,
          "internalType": "uint256",
          "name": "endTimestamp",
          "type": "uint256"
        },
        {
          "indexed": false,
          "internalType": "address",
          "name": "protocolFeeDestination",
          "type": "address"
        },
        {
          "indexed": false,
          "internalType": "uint256",
          "name": "protocolFeePercent",
          "type": "uint256"
        },
        {
          "indexed": false,
          "internalType": "uint256",
          "name": "streamerFeePercent",
          "type": "uint256"
        },
        {
          "indexed": false,
          "internalType": "uint256",
          "name": "totalSupplyThreshold",
          "type": "uint256"
        },
        {
          "indexed": false,
          "internalType": "uint256",
          "name": "creationBlockNumber",
          "type": "uint256"
        }
      ],
      "name": "TempTokenCreated",
      "type": "event"
    },
    {
      "anonymous": false,
      "inputs": [
        {
          "indexed": false,
          "internalType": "uint256",
          "name": "totalSupplyThreshold",
          "type": "uint256"
        },
        {
          "indexed": false,
          "internalType": "address[]",
          "name": "tokenAddresses",
          "type": "address[]"
        }
      ],
      "name": "TotalSupplyThresholdSetForTokens",
      "type": "event"
    },
    {
      "inputs": [
        {
          "internalType": "address",
          "name": "",
          "type": "address"
        }
      ],
      "name": "admins",
      "outputs": [
        {
          "internalType": "bool",
          "name": "",
          "type": "bool"
        }
      ],
      "stateMutability": "view",
      "type": "function"
    },
    {
      "inputs": [
        {
          "internalType": "string",
          "name": "name",
          "type": "string"
        },
        {
          "internalType": "string",
          "name": "symbol",
          "type": "string"
        },
        {
          "internalType": "uint256",
          "name": "duration",
          "type": "uint256"
        }
      ],
      "name": "createTempToken",
      "outputs": [
        {
          "internalType": "address",
          "name": "",
          "type": "address"
        }
      ],
      "stateMutability": "nonpayable",
      "type": "function"
    },
    {
      "inputs": [],
      "name": "defaultProtocolFeeDestination",
      "outputs": [
        {
          "internalType": "address",
          "name": "",
          "type": "address"
        }
      ],
      "stateMutability": "view",
      "type": "function"
    },
    {
      "inputs": [],
      "name": "defaultProtocolFeePercent",
      "outputs": [
        {
          "internalType": "uint256",
          "name": "",
          "type": "uint256"
        }
      ],
      "stateMutability": "view",
      "type": "function"
    },
    {
      "inputs": [],
      "name": "defaultStreamerFeePercent",
      "outputs": [
        {
          "internalType": "uint256",
          "name": "",
          "type": "uint256"
        }
      ],
      "stateMutability": "view",
      "type": "function"
    },
    {
      "inputs": [
        {
          "internalType": "address",
          "name": "",
          "type": "address"
        }
      ],
      "name": "deployedTokenIndices",
      "outputs": [
        {
          "internalType": "uint256",
          "name": "",
          "type": "uint256"
        }
      ],
      "stateMutability": "view",
      "type": "function"
    },
    {
      "inputs": [
        {
          "internalType": "uint256",
          "name": "",
          "type": "uint256"
        }
      ],
      "name": "deployedTokens",
      "outputs": [
        {
          "internalType": "address",
          "name": "tokenAddress",
          "type": "address"
        },
        {
          "internalType": "address",
          "name": "ownerAddress",
          "type": "address"
        },
        {
          "internalType": "string",
          "name": "name",
          "type": "string"
        },
        {
          "internalType": "string",
          "name": "symbol",
          "type": "string"
        },
        {
          "internalType": "uint256",
          "name": "endTimestamp",
          "type": "uint256"
        },
        {
          "internalType": "address",
          "name": "protocolFeeDestination",
          "type": "address"
        },
        {
          "internalType": "uint256",
          "name": "protocolFeePercent",
          "type": "uint256"
        },
        {
          "internalType": "uint256",
          "name": "streamerFeePercent",
          "type": "uint256"
        },
        {
          "internalType": "uint256",
          "name": "creationBlockNumber",
          "type": "uint256"
        }
      ],
      "stateMutability": "view",
      "type": "function"
    },
    {
      "inputs": [
        {
          "internalType": "address",
          "name": "tokenAddress",
          "type": "address"
        }
      ],
      "name": "getTokenInfo",
      "outputs": [
        {
          "components": [
            {
              "internalType": "address",
              "name": "tokenAddress",
              "type": "address"
            },
            {
              "internalType": "address",
              "name": "ownerAddress",
              "type": "address"
            },
            {
              "internalType": "string",
              "name": "name",
              "type": "string"
            },
            {
              "internalType": "string",
              "name": "symbol",
              "type": "string"
            },
            {
              "internalType": "uint256",
              "name": "endTimestamp",
              "type": "uint256"
            },
            {
              "internalType": "address",
              "name": "protocolFeeDestination",
              "type": "address"
            },
            {
              "internalType": "uint256",
              "name": "protocolFeePercent",
              "type": "uint256"
            },
            {
              "internalType": "uint256",
              "name": "streamerFeePercent",
              "type": "uint256"
            },
            {
              "internalType": "uint256",
              "name": "creationBlockNumber",
              "type": "uint256"
            }
          ],
          "internalType": "struct TempTokenFactoryV1.TokenInfo",
          "name": "",
          "type": "tuple"
        }
      ],
      "stateMutability": "view",
      "type": "function"
    },
    {
      "inputs": [
        {
          "internalType": "uint256",
          "name": "_additionalDurationInSeconds",
          "type": "uint256"
        },
        {
          "internalType": "address[]",
          "name": "_tokenAddresses",
          "type": "address[]"
        }
      ],
      "name": "increaseEndTimestampForTokens",
      "outputs": [],
      "stateMutability": "nonpayable",
      "type": "function"
    },
    {
      "inputs": [],
      "name": "isPaused",
      "outputs": [
        {
          "internalType": "bool",
          "name": "",
          "type": "bool"
        }
      ],
      "stateMutability": "view",
      "type": "function"
    },
    {
      "inputs": [],
      "name": "maxDuration",
      "outputs": [
        {
          "internalType": "uint256",
          "name": "",
          "type": "uint256"
        }
      ],
      "stateMutability": "view",
      "type": "function"
    },
    {
      "inputs": [],
      "name": "numDeployedTokens",
      "outputs": [
        {
          "internalType": "uint256",
          "name": "",
          "type": "uint256"
        }
      ],
      "stateMutability": "view",
      "type": "function"
    },
    {
      "inputs": [],
      "name": "owner",
      "outputs": [
        {
          "internalType": "address",
          "name": "",
          "type": "address"
        }
      ],
      "stateMutability": "view",
      "type": "function"
    },
    {
      "inputs": [],
      "name": "renounceOwnership",
      "outputs": [],
      "stateMutability": "nonpayable",
      "type": "function"
    },
    {
      "inputs": [
        {
          "internalType": "address",
          "name": "_address",
          "type": "address"
        },
        {
          "internalType": "bool",
          "name": "_onlyAdmin",
          "type": "bool"
        }
      ],
      "name": "setAdmin",
      "outputs": [],
      "stateMutability": "nonpayable",
      "type": "function"
    },
    {
      "inputs": [
        {
          "internalType": "address[]",
          "name": "_tokenAddresses",
          "type": "address[]"
        }
      ],
      "name": "setAlwaysTradeableForTokens",
      "outputs": [],
      "stateMutability": "nonpayable",
      "type": "function"
    },
    {
      "inputs": [
        {
          "internalType": "address",
          "name": "protocolFeeDestination",
          "type": "address"
        }
      ],
      "name": "setFeeDestination",
      "outputs": [],
      "stateMutability": "nonpayable",
      "type": "function"
    },
    {
      "inputs": [
        {
          "internalType": "uint256",
          "name": "_maxDuration",
          "type": "uint256"
        }
      ],
      "name": "setMaxDuration",
      "outputs": [],
      "stateMutability": "nonpayable",
      "type": "function"
    },
    {
      "inputs": [
        {
          "internalType": "bool",
          "name": "_isPaused",
          "type": "bool"
        }
      ],
      "name": "setPauseFactory",
      "outputs": [],
      "stateMutability": "nonpayable",
      "type": "function"
    },
    {
      "inputs": [
        {
          "internalType": "uint256",
          "name": "_feePercent",
          "type": "uint256"
        }
      ],
      "name": "setProtocolFeePercent",
      "outputs": [],
      "stateMutability": "nonpayable",
      "type": "function"
    },
    {
      "inputs": [
        {
          "internalType": "uint256",
          "name": "_feePercent",
          "type": "uint256"
        }
      ],
      "name": "setStreamerFeePercent",
      "outputs": [],
      "stateMutability": "nonpayable",
      "type": "function"
    },
    {
      "inputs": [
        {
          "internalType": "uint256",
          "name": "_totalSupplyThreshold",
          "type": "uint256"
        },
        {
          "internalType": "address[]",
          "name": "_tokenAddresses",
          "type": "address[]"
        }
      ],
      "name": "setTotalSupplyThresholdForTokens",
      "outputs": [],
      "stateMutability": "nonpayable",
      "type": "function"
    },
    {
      "inputs": [],
      "name": "totalSupplyThreshold",
      "outputs": [
        {
          "internalType": "uint256",
          "name": "",
          "type": "uint256"
        }
      ],
      "stateMutability": "view",
      "type": "function"
    },
    {
      "inputs": [
        {
          "internalType": "address",
          "name": "newOwner",
          "type": "address"
        }
      ],
      "name": "transferOwnership",
      "outputs": [],
      "stateMutability": "nonpayable",
      "type": "function"
    }
  ],
  "transactionHash": "0xf2b636ddb69d1bbe704ee67f45c9e3ff4a92ef8a2170f8c9b1dddabb0cc43821",
  "args": [
    "0x4F3d3f2F895Db524AC3944BDd17fE632473bCa4a",
    "20000000000000000",
    "20000000000000000",
    20000000
  ],
  "numDeployments": 10,
  "solcInputHash": "37d8e94cfb345b3a1d540ab8eefd54ef",
  "bytecode": "0x60806040523480156200001157600080fd5b506040516200417138038062004171833981016040819052620000349162000132565b6200003f33620000e2565b6001600160a01b038416620000a95760405162461bcd60e51b815260206004820152602660248201527f44656661756c74206665652064657374696e6174696f6e2063616e6e6f74206260448201526565207a65726f60d01b606482015260840160405180910390fd5b600592909255600655600780546001600160a01b0319166001600160a01b039390931692909217909155600955610e106008556200017f565b600080546001600160a01b038381166001600160a01b0319831681178455604051919092169283917f8be0079c531659141344cd1fd0a4f28419497f9722a3daafe3b4186f6b6457e09190a35050565b600080600080608085870312156200014957600080fd5b84516001600160a01b03811681146200016157600080fd5b60208601516040870151606090970151919890975090945092505050565b613fe2806200018f6000396000f3fe60806040523480156200001157600080fd5b5060043610620001755760003560e01c80638a44e58a11620000d3578063cf0f34c41162000086578063cf0f34c4146200033e578063d7f205491462000355578063ec81aadb146200035f578063edb40447146200038d578063f2fde38b14620003a1578063fbe5323414620003b857600080fd5b80638a44e58a14620002bc5780638da5cb5b14620002d357806396266d9c14620002e5578063a49834211462000308578063b187bd26146200031f578063bb5dfe19146200033457600080fd5b806368379225116200012c5780636837922514620002405780636db5c8fd146200024a5780636e3eb6f41462000254578063715018a6146200026b5780637a31c1851462000275578063804e6f23146200028c57600080fd5b80631f69565f146200017a57806320b1f08d14620001a95780632944998114620001c2578063429b62e514620001d95780634416178314620002105780634b0bddd21462000229575b600080fd5b620001916200018b366004620015d5565b620003cf565b604051620001a091906200164a565b60405180910390f35b620001c0620001ba36600462001764565b620005f8565b005b620001c0620001d336600462001764565b62000747565b620001ff620001ea366004620015d5565b60046020526000908152604090205460ff1681565b6040519015158152602001620001a0565b6200021a60055481565b604051908152602001620001a0565b620001c06200023a366004620017c5565b6200091b565b6200021a60095481565b6200021a60085481565b620001c062000265366004620017fd565b6200099f565b620001c062000a50565b620001c0620002863660046200181b565b62000a68565b620002a36200029d366004620018e0565b62000aeb565b6040516001600160a01b039091168152602001620001a0565b620001c0620002cd36600462001954565b62000e82565b6000546001600160a01b0316620002a3565b6200021a620002f6366004620015d5565b60026020526000908152604090205481565b620001c0620003193660046200181b565b62001000565b600754620001ff90600160a01b900460ff1681565b6200021a60015481565b620001c06200034f3660046200181b565b62001083565b6200021a60065481565b62000376620003703660046200181b565b62001158565b604051620001a0999897969594939291906200199a565b600754620002a3906001600160a01b031681565b620001c0620003b2366004620015d5565b620012d7565b620001c0620003c9366004620015d5565b62001356565b6200043a60405180610120016040528060006001600160a01b0316815260200160006001600160a01b0316815260200160608152602001606081526020016000815260200160006001600160a01b031681526020016000815260200160008152602001600081525090565b6001600160a01b038083166000908152600260208181526040808420548452600382529283902083516101208101855281548616815260018201549095169185019190915290810180549192840191620004949062001a12565b80601f0160208091040260200160405190810160405280929190818152602001828054620004c29062001a12565b8015620005135780601f10620004e75761010080835404028352916020019162000513565b820191906000526020600020905b815481529060010190602001808311620004f557829003601f168201915b505050505081526020016003820180546200052e9062001a12565b80601f01602080910402602001604051908101604052809291908181526020018280546200055c9062001a12565b8015620005ad5780601f106200058157610100808354040283529160200191620005ad565b820191906000526020600020905b8154815290600101906020018083116200058f57829003601f168201915b50505091835250506004820154602082015260058201546001600160a01b03166040820152600682015460608201526007820154608082015260089091015460a09091015292915050565b6000546001600160a01b03163314806200062657503360009081526004602052604090205460ff1615156001145b6200064e5760405162461bcd60e51b8152600401620006459062001a4f565b60405180910390fd5b60005b81811015620006fe578282828181106200066f576200066f62001a90565b9050602002016020810190620006869190620015d5565b6001600160a01b0316637714671b856040518263ffffffff1660e01b8152600401620006b491815260200190565b600060405180830381600087803b158015620006cf57600080fd5b505af1158015620006e4573d6000803e3d6000fd5b505050508080620006f59062001abc565b91505062000651565b5060098390556040517f7d71de3016694b4b987abe9daa72dbbf8b23f45a5d8e8f8af0c20d4759727f51906200073a9085908590859062001b25565b60405180910390a1505050565b6000546001600160a01b03163314806200077557503360009081526004602052604090205460ff1615156001145b620007945760405162461bcd60e51b8152600401620006459062001a4f565b60008311620007e65760405162461bcd60e51b815260206004820152601f60248201527f4164646974696f6e616c206475726174696f6e2063616e6e6f74206265203000604482015260640162000645565b80620008355760405162461bcd60e51b815260206004820152601e60248201527f546f6b656e2061646472657373657320617272617920697320656d7074790000604482015260640162000645565b60005b81811015620008e55782828281811062000856576200085662001a90565b90506020020160208101906200086d9190620015d5565b6001600160a01b031663291d2ffd856040518263ffffffff1660e01b81526004016200089b91815260200190565b600060405180830381600087803b158015620008b657600080fd5b505af1158015620008cb573d6000803e3d6000fd5b505050508080620008dc9062001abc565b91505062000838565b507fa2538f90e81ed5058ad53a8549c0adb17119fbd7be5a5d6c638f543836c681008383836040516200073a9392919062001b25565b6200092562001458565b6001600160a01b038216620009745760405162461bcd60e51b815260206004820152601460248201527341646d696e2063616e6e6f74206265207a65726f60601b604482015260640162000645565b6001600160a01b03919091166000908152600460205260409020805460ff1916911515919091179055565b6000546001600160a01b0316331480620009cd57503360009081526004602052604090205460ff1615156001145b620009ec5760405162461bcd60e51b8152600401620006459062001a4f565b60078054821515600160a01b0260ff60a01b199091161790556001546040517fd119587be04d80080c64717a0dc158c674898c4fe140498ffd144e1f6645d8b99162000a45918491909115158252602082015260400190565b60405180910390a150565b62000a5a62001458565b62000a666000620014b4565b565b6000546001600160a01b031633148062000a9657503360009081526004602052604090205460ff1615156001145b62000ab55760405162461bcd60e51b8152600401620006459062001a4f565b60068190556040518181527f444c2ee6a42985e86e4d1c21435989ae523bae8ee02a11e8579bc4ac18b1d4ae9060200162000a45565b600754600090600160a01b900460ff161562000b3e5760405162461bcd60e51b8152602060048201526011602482015270119858dd1bdc9e481a5cc81c185d5cd959607a1b604482015260640162000645565b60085482111562000b9e5760405162461bcd60e51b8152602060048201526024808201527f4475726174696f6e206973206c6f6e676572207468616e206d617820647572616044820152633a34b7b760e11b606482015260840162000645565b6000821162000be75760405162461bcd60e51b815260206004820152601460248201527304475726174696f6e2063616e6e6f7420626520360641b604482015260640162000645565b600062000bf5834262001b4a565b905060004390506000868684600760009054906101000a90046001600160a01b0316600554600654600954308960405162000c309062001504565b62000c449998979695949392919062001b65565b604051809103906000f08015801562000c61573d6000803e3d6000fd5b509050600060016000815462000c779062001abc565b918290555060408051610120810182526001600160a01b0380861682523360208084019182528385018e8152606085018e9052608085018b9052600754841660a086015260055460c086015260065460e086015261010085018a905260008781526003835295909520845181549085166001600160a01b031991821617825592516001820180549190951693169290921790925592518051949550919362000d26926002850192019062001512565b506060820151805162000d4491600384019160209091019062001512565b50608082015160048281019190915560a08301516005830180546001600160a01b0319166001600160a01b0392831617905560c0840151600684015560e0840151600784015561010090930151600890920191909155908316600081815260026020526040908190208490555163f2fde38b60e01b815233928101929092529063f2fde38b90602401600060405180830381600087803b15801562000de857600080fd5b505af115801562000dfd573d6000803e3d6000fd5b50505050336001600160a01b0316826001600160a01b03167fbc106d5ded04754edc9f5b84d2346c4dc37d5c4fddeed96fd5eb1286aa0732f48a8a88600760009054906101000a90046001600160a01b03166005546006546009548c60405162000e6f98979695949392919062001bd6565b60405180910390a3509695505050505050565b6000546001600160a01b031633148062000eb057503360009081526004602052604090205460ff1615156001145b62000ecf5760405162461bcd60e51b8152600401620006459062001a4f565b8062000f1e5760405162461bcd60e51b815260206004820152601e60248201527f546f6b656e2061646472657373657320617272617920697320656d7074790000604482015260640162000645565b60005b8181101562000fc05782828281811062000f3f5762000f3f62001a90565b905060200201602081019062000f569190620015d5565b6001600160a01b031663bd95ff136040518163ffffffff1660e01b8152600401600060405180830381600087803b15801562000f9157600080fd5b505af115801562000fa6573d6000803e3d6000fd5b50505050808062000fb79062001abc565b91505062000f21565b507f3c3bf9b3ca7eb42afe7cc26bab63bbb5b0c2542714bb57d0e28eda616e4f4d2f828260405162000ff492919062001c3e565b60405180910390a15050565b6000546001600160a01b03163314806200102e57503360009081526004602052604090205460ff1615156001145b6200104d5760405162461bcd60e51b8152600401620006459062001a4f565b60058190556040518181527fa318485d4b7a387f0695a0179248931f1d023e08844d98b4e9e34775324bceb59060200162000a45565b6000546001600160a01b0316331480620010b157503360009081526004602052604090205460ff1615156001145b620010d05760405162461bcd60e51b8152600401620006459062001a4f565b60008111620011225760405162461bcd60e51b815260206004820152601860248201527f4d6178206475726174696f6e2063616e6e6f7420626520300000000000000000604482015260640162000645565b60088190556040518181527fba0716ba1ee2ea8ecc4c64119b4537cdb42a99d82acf92af5b87607b8b5235529060200162000a45565b6003602052600090815260409020805460018201546002830180546001600160a01b039384169492909316926200118f9062001a12565b80601f0160208091040260200160405190810160405280929190818152602001828054620011bd9062001a12565b80156200120e5780601f10620011e2576101008083540402835291602001916200120e565b820191906000526020600020905b815481529060010190602001808311620011f057829003601f168201915b505050505090806003018054620012259062001a12565b80601f0160208091040260200160405190810160405280929190818152602001828054620012539062001a12565b8015620012a45780601f106200127857610100808354040283529160200191620012a4565b820191906000526020600020905b8154815290600101906020018083116200128657829003601f168201915b5050506004840154600585015460068601546007870154600890970154959692956001600160a01b039092169450925089565b620012e162001458565b6001600160a01b038116620013485760405162461bcd60e51b815260206004820152602660248201527f4f776e61626c653a206e6577206f776e657220697320746865207a65726f206160448201526564647265737360d01b606482015260840162000645565b6200135381620014b4565b50565b6000546001600160a01b03163314806200138457503360009081526004602052604090205460ff1615156001145b620013a35760405162461bcd60e51b8152600401620006459062001a4f565b6001600160a01b0381166200140e5760405162461bcd60e51b815260206004820152602a60248201527f4665652064657374696e6174696f6e2063616e6e6f7420626520746865207a65604482015269726f206164647265737360b01b606482015260840162000645565b600780546001600160a01b0319166001600160a01b0383169081179091556040517f262538484f9e0f43acdcef80a543c1aecfc0b210b993fd3d09bd77ee95b9d34490600090a250565b6000546001600160a01b0316331462000a665760405162461bcd60e51b815260206004820181905260248201527f4f776e61626c653a2063616c6c6572206973206e6f7420746865206f776e6572604482015260640162000645565b600080546001600160a01b038381166001600160a01b0319831681178455604051919092169283917f8be0079c531659141344cd1fd0a4f28419497f9722a3daafe3b4186f6b6457e09190a35050565b6123508062001c5d83390190565b828054620015209062001a12565b90600052602060002090601f0160209004810192826200154457600085556200158f565b82601f106200155f57805160ff19168380011785556200158f565b828001600101855582156200158f579182015b828111156200158f57825182559160200191906001019062001572565b506200159d929150620015a1565b5090565b5b808211156200159d5760008155600101620015a2565b80356001600160a01b0381168114620015d057600080fd5b919050565b600060208284031215620015e857600080fd5b620015f382620015b8565b9392505050565b6000815180845260005b81811015620016225760208185018101518683018201520162001604565b8181111562001635576000602083870101525b50601f01601f19169290920160200192915050565b60208152620016656020820183516001600160a01b03169052565b600060208301516200168260408401826001600160a01b03169052565b506040830151610120806060850152620016a1610140850183620015fa565b91506060850151601f19858403016080860152620016c08382620015fa565b925050608085015160a085015260a0850151620016e860c08601826001600160a01b03169052565b5060c085015160e085015260e0850151610100818187015280870151838701525050508091505092915050565b60008083601f8401126200172857600080fd5b50813567ffffffffffffffff8111156200174157600080fd5b6020830191508360208260051b85010111156200175d57600080fd5b9250929050565b6000806000604084860312156200177a57600080fd5b83359250602084013567ffffffffffffffff8111156200179957600080fd5b620017a78682870162001715565b9497909650939450505050565b80358015158114620015d057600080fd5b60008060408385031215620017d957600080fd5b620017e483620015b8565b9150620017f460208401620017b4565b90509250929050565b6000602082840312156200181057600080fd5b620015f382620017b4565b6000602082840312156200182e57600080fd5b5035919050565b634e487b7160e01b600052604160045260246000fd5b600082601f8301126200185d57600080fd5b813567ffffffffffffffff808211156200187b576200187b62001835565b604051601f8301601f19908116603f01168101908282118183101715620018a657620018a662001835565b81604052838152866020858801011115620018c057600080fd5b836020870160208301376000602085830101528094505050505092915050565b600080600060608486031215620018f657600080fd5b833567ffffffffffffffff808211156200190f57600080fd5b6200191d878388016200184b565b945060208601359150808211156200193457600080fd5b5062001943868287016200184b565b925050604084013590509250925092565b600080602083850312156200196857600080fd5b823567ffffffffffffffff8111156200198057600080fd5b6200198e8582860162001715565b90969095509350505050565b6001600160a01b038a81168252898116602083015261012060408301819052600091620019ca8483018c620015fa565b91508382036060850152620019e0828b620015fa565b60808501999099529690961660a08301525060c081019390935260e08301919091526101009091015250949350505050565b600181811c9082168062001a2757607f821691505b6020821081141562001a4957634e487b7160e01b600052602260045260246000fd5b50919050565b60208082526021908201527f43616c6c6572206973206e656974686572206f776e6572206e6f722061646d696040820152603760f91b606082015260800190565b634e487b7160e01b600052603260045260246000fd5b634e487b7160e01b600052601160045260246000fd5b600060001982141562001ad35762001ad362001aa6565b5060010190565b8183526000602080850194508260005b8581101562001b1a576001600160a01b0362001b0683620015b8565b168752958201959082019060010162001aea565b509495945050505050565b83815260406020820152600062001b4160408301848662001ada565b95945050505050565b6000821982111562001b605762001b6062001aa6565b500190565b600061012080835262001b7b8184018d620015fa565b9050828103602084015262001b91818c620015fa565b604084019a909a5250506001600160a01b039687166060820152608081019590955260a085019390935260c084019190915290921660e0820152610100015292915050565b600061010080835262001bec8184018c620015fa565b9050828103602084015262001c02818b620015fa565b604084019990995250506001600160a01b03959095166060860152608085019390935260a084019190915260c083015260e09091015292915050565b60208152600062001c5460208301848662001ada565b94935050505056fe60806040523480156200001157600080fd5b506040516200235038038062002350833981016040819052620000349162000334565b8851899089906200004d906003906020850190620001a4565b50805162000063906004906020840190620001a4565b505050620000806200007a6200014e60201b60201c565b62000152565b60016006556001600160a01b038616620000f35760405162461bcd60e51b815260206004820152602a60248201527f4665652064657374696e6174696f6e2063616e6e6f7420626520746865207a65604482015269726f206164647265737360b01b606482015260840160405180910390fd5b600b96909655600993909355600a91909155600880546001600160a01b039485166001600160a01b031991821617909155600c9190915560078054929093169116179055600f805461ffff19169055600e5550620004319050565b3390565b600580546001600160a01b038381166001600160a01b0319831681179093556040519116919082907f8be0079c531659141344cd1fd0a4f28419497f9722a3daafe3b4186f6b6457e090600090a35050565b828054620001b290620003f4565b90600052602060002090601f016020900481019282620001d6576000855562000221565b82601f10620001f157805160ff191683800117855562000221565b8280016001018555821562000221579182015b828111156200022157825182559160200191906001019062000204565b506200022f92915062000233565b5090565b5b808211156200022f576000815560010162000234565b634e487b7160e01b600052604160045260246000fd5b600082601f8301126200027257600080fd5b81516001600160401b03808211156200028f576200028f6200024a565b604051601f8301601f19908116603f01168101908282118183101715620002ba57620002ba6200024a565b81604052838152602092508683858801011115620002d757600080fd5b600091505b83821015620002fb5785820183015181830184015290820190620002dc565b838211156200030d5760008385830101525b9695505050505050565b80516001600160a01b03811681146200032f57600080fd5b919050565b60008060008060008060008060006101208a8c0312156200035457600080fd5b89516001600160401b03808211156200036c57600080fd5b6200037a8d838e0162000260565b9a5060208c01519150808211156200039157600080fd5b50620003a08c828d0162000260565b98505060408a01519650620003b860608b0162000317565b955060808a0151945060a08a0151935060c08a01519250620003dd60e08b0162000317565b91506101008a015190509295985092959850929598565b600181811c908216806200040957607f821691505b602082108114156200042b57634e487b7160e01b600052602260045260246000fd5b50919050565b611f0f80620004416000396000f3fe60806040526004361061021a5760003560e01c80638da5cb5b11610123578063bd95ff13116100ab578063dd62ed3e1161006f578063dd62ed3e146105f5578063f2fde38b14610615578063f46d932414610635578063f9a948d71461064b578063fba7cc791461066557600080fd5b8063bd95ff131461056b578063bf548dcb14610580578063c5a1d5e21461059f578063d6e6eb9f146105bf578063d7e89466146105d557600080fd5b8063a0712d68116100f2578063a0712d68146104ec578063a457c2d7146104ff578063a85adeab1461051f578063a9059cbb14610535578063b434b9971461055557600080fd5b80638da5cb5b1461047957806395d89b4114610497578063966dae0e146104ac57806398aaeec1146104cc57600080fd5b806338cb037a116101a65780634ce7957c116101755780634ce7957c146103c057806368379225146103f857806370a082311461040e578063715018a6146104445780637714671b1461045957600080fd5b806338cb037a14610340578063395093511461036057806342966c68146103805780634768e885146103a057600080fd5b80631bf30929116101ed5780631bf30929146102ac57806323b872dd146102c257806327de8f27146102e2578063291d2ffd14610302578063313ce5671461032457600080fd5b806306fdde031461021f578063095ea7b31461024a57806312065fe01461027a57806318160ddd14610297575b600080fd5b34801561022b57600080fd5b5061023461067c565b6040516102419190611c6e565b60405180910390f35b34801561025657600080fd5b5061026a610265366004611cd8565b61070e565b6040519015158152602001610241565b34801561028657600080fd5b50475b604051908152602001610241565b3480156102a357600080fd5b50600254610289565b3480156102b857600080fd5b50610289600e5481565b3480156102ce57600080fd5b5061026a6102dd366004611d04565b610726565b3480156102ee57600080fd5b506102896102fd366004611d45565b61074a565b34801561030e57600080fd5b5061032261031d366004611d45565b610788565b005b34801561033057600080fd5b5060405160008152602001610241565b34801561034c57600080fd5b5061028961035b366004611d45565b610848565b34801561036c57600080fd5b5061026a61037b366004611cd8565b6108e5565b34801561038c57600080fd5b5061032261039b366004611d45565b610907565b3480156103ac57600080fd5b506102896103bb366004611d45565b610c0e565b3480156103cc57600080fd5b506008546103e0906001600160a01b031681565b6040516001600160a01b039091168152602001610241565b34801561040457600080fd5b50610289600c5481565b34801561041a57600080fd5b50610289610429366004611d5e565b6001600160a01b031660009081526020819052604090205490565b34801561045057600080fd5b50610322610c57565b34801561046557600080fd5b50610322610474366004611d45565b610c6b565b34801561048557600080fd5b506005546001600160a01b03166103e0565b3480156104a357600080fd5b50610234610d98565b3480156104b857600080fd5b506007546103e0906001600160a01b031681565b3480156104d857600080fd5b506103226104e7366004611d5e565b610da7565b6103226104fa366004611d45565b611009565b34801561050b57600080fd5b5061026a61051a366004611cd8565b611372565b34801561052b57600080fd5b50610289600b5481565b34801561054157600080fd5b5061026a610550366004611cd8565b6113ed565b34801561056157600080fd5b50610289600d5481565b34801561057757600080fd5b506103226113fb565b34801561058c57600080fd5b50600f5461026a90610100900460ff1681565b3480156105ab57600080fd5b506102896105ba366004611d45565b61149d565b3480156105cb57600080fd5b5061028960095481565b3480156105e157600080fd5b506102896105f0366004611d45565b61156f565b34801561060157600080fd5b50610289610610366004611d82565b61159b565b34801561062157600080fd5b50610322610630366004611d5e565b6115c6565b34801561064157600080fd5b50610289600a5481565b34801561065757600080fd5b50600f5461026a9060ff1681565b34801561067157600080fd5b50600b54421061026a565b60606003805461068b90611dbb565b80601f01602080910402602001604051908101604052809291908181526020018280546106b790611dbb565b80156107045780601f106106d957610100808354040283529160200191610704565b820191906000526020600020905b8154815290600101906020018083116106e757829003601f168201915b5050505050905090565b60003361071c81858561163c565b5060019392505050565b600033610734858285611761565b61073f8585856117db565b506001949350505050565b6000806107596103bb60025490565b905060006107748461076a60025490565b6103bb9190611e0c565b90506107808282611e24565b949350505050565b6007546001600160a01b031633146107ff5760405162461bcd60e51b815260206004820152602f60248201527f4f6e6c792074686520666163746f72792063616e20696e63726561736520746860448201526e06520656e642074696d657374616d7608c1b60648201526084015b60405180910390fd5b80600b60008282546108119190611e0c565b9091555050600b546040513091907faeed863ef6927b5b0db604d19eae13d8517de3c69c67d848a9cac7e591ba3ebc90600090a350565b6000806108576103bb60025490565b905060006108688461076a60025490565b905060006108768383611e24565b90506000670de0b6b3a7640000600954836108919190611e3b565b61089b9190611e5a565b90506000670de0b6b3a7640000600a54846108b69190611e3b565b6108c09190611e5a565b90506000816108cf8486611e0c565b6108d99190611e0c565b98975050505050505050565b60003361071c8185856108f8838361159b565b6109029190611e0c565b61163c565b600b544211158061091f5750600f54610100900460ff165b61093b5760405162461bcd60e51b81526004016107f690611e7c565b3360009081526020819052604090205481111561098657336000908152602081905260409020546040516302cf7de960e51b81526004810191909152602481018290526044016107f6565b60006109918261156f565b90506000670de0b6b3a7640000600954836109ac9190611e3b565b6109b69190611e5a565b90506000670de0b6b3a7640000600a54846109d19190611e3b565b6109db9190611e5a565b90506109e7338561197f565b600033826109f58587611e24565b6109ff9190611e24565b604051600081818185875af1925050503d8060008114610a3b576040519150601f19603f3d011682016040523d82523d6000602084013e610a40565b606091505b5050905080610a89573382610a558587611e24565b610a5f9190611e24565b60405163163528f160e11b81526001600160a01b03909216600483015260248201526044016107f6565b6008546040516000916001600160a01b03169085908381818185875af1925050503d8060008114610ad6576040519150601f19603f3d011682016040523d82523d6000602084013e610adb565b606091505b505090506000610af36005546001600160a01b031690565b6001600160a01b03168460405160006040518083038185875af1925050503d8060008114610b3d576040519150601f19603f3d011682016040523d82523d6000602084013e610b42565b606091505b50509050818015610b505750805b610b935760405162461bcd60e51b8152602060048201526014602482015273556e61626c6520746f2073656e642066756e647360601b60448201526064016107f6565b30610ba66005546001600160a01b031690565b6001600160a01b0316337fce895f9022611c377bd008e8200117dd0b50bfbace728d659258dd9a6013d0128a610bdb60025490565b600954600a546040805194855260208501939093529183015260608201526080015b60405180910390a450505050505050565b60006006610c1d836002611e3b565b610c28906001611e0c565b610c33846001611e0c565b610c3d9085611e3b565b610c479190611e3b565b610c519190611e5a565b92915050565b610c5f611aa9565b610c696000611b03565b565b6007546001600160a01b03163314610cd75760405162461bcd60e51b815260206004820152602960248201527f4f6e6c792074686520666163746f72792063616e2075706461746520746865206044820152681d1a1c995cda1bdb1960ba1b60648201526084016107f6565b600c548111610d4e5760405162461bcd60e51b815260206004820152603860248201527f4e6577207468726573686f6c64206d757374206265206772656174657220746860448201527f616e207468652063757272656e74207468726573686f6c64000000000000000060648201526084016107f6565b600f805460ff19169055600c81905560405160008152309082907fe2101cb638a06a54be2736bd09858f73a7a0ee4e0c447278a57605b00949f7679060200160405180910390a350565b60606004805461068b90611dbb565b610daf611aa9565b600b5442118015610dc85750600f54610100900460ff16155b610e335760405162461bcd60e51b815260206004820152603660248201527f41637469766520706861736520686173206e6f7420656e646564206f7220746f6044820152756b656e206973207374696c6c20747261646561626c6560501b60648201526084016107f6565b610e3b611b55565b4780610e895760405162461bcd60e51b815260206004820152601a60248201527f4e6f2066756e647320617661696c61626c6520746f2073656e6400000000000060448201526064016107f6565b6000670de0b6b3a764000060095483610ea29190611e3b565b610eac9190611e5a565b905060006001600160a01b038416610ec48385611e24565b604051600081818185875af1925050503d8060008114610f00576040519150601f19603f3d011682016040523d82523d6000602084013e610f05565b606091505b50506008546040519192506000916001600160a01b039091169084908381818185875af1925050503d8060008114610f59576040519150601f19603f3d011682016040523d82523d6000602084013e610f5e565b606091505b50509050818015610f6c5750805b610fb85760405162461bcd60e51b815260206004820152601860248201527f4661696c656420746f207472616e736665722066756e6473000000000000000060448201526064016107f6565b6040518481526001600160a01b0386169033907fbd64a7339a20ec918731255da9a658675eeb91e9c4d3138a1d3f0989903166ff9060200160405180910390a3505050506110066001600655565b50565b600b54421115806110215750600f54610100900460ff165b61103d5760405162461bcd60e51b81526004016107f690611e7c565b60006110488261074a565b90506000670de0b6b3a7640000600954836110639190611e3b565b61106d9190611e5a565b90506000670de0b6b3a7640000600a54846110889190611e3b565b6110929190611e5a565b90506000816110a18486611e0c565b6110ab9190611e0c565b9050803410156110d757604051631c102d6360e21b8152600481018290523460248201526044016107f6565b6110e13386611baf565b600d5460025411156110f457600254600d555b600c546002541015801561110b5750600f5460ff16155b1561116b5762015180600b60008282546111259190611e0c565b9091555050600f805460ff19166001179055600c54600b54604051309291907f9d714703c18ca96215bcef19b6ff93fa22fed971bf55d30439252e129ed1636c90600090a45b803411156111d7576000336111808334611e24565b604051600081818185875af1925050503d80600081146111bc576040519150601f19603f3d011682016040523d82523d6000602084013e6111c1565b606091505b50509050806111d55733610a5f8334611e24565b505b6008546040516000916001600160a01b03169085908381818185875af1925050503d8060008114611224576040519150601f19603f3d011682016040523d82523d6000602084013e611229565b606091505b5050905060006112416005546001600160a01b031690565b6001600160a01b03168460405160006040518083038185875af1925050503d806000811461128b576040519150601f19603f3d011682016040523d82523d6000602084013e611290565b606091505b5050905081801561129e5750805b6112e15760405162461bcd60e51b8152602060048201526014602482015273556e61626c6520746f2073656e642066756e647360601b60448201526064016107f6565b306112f46005546001600160a01b031690565b6001600160a01b0316337fbb850871da8879d5c7053c36697bf401a909d0ab9b5eeebb336bec17dc405ded8a61132960025490565b600954600a54600b54600f54600d54604080519788526020880196909652948601939093526060850191909152608084015260ff16151560a083015260c082015260e001610bfd565b60003381611380828661159b565b9050838110156113e05760405162461bcd60e51b815260206004820152602560248201527f45524332303a2064656372656173656420616c6c6f77616e63652062656c6f77604482015264207a65726f60d81b60648201526084016107f6565b61073f828686840361163c565b60003361071c8185856117db565b6007546001600160a01b031633146114615760405162461bcd60e51b815260206004820152602360248201527f4f6e6c792074686520666163746f72792063616e2073657420746869732076616044820152626c756560e81b60648201526084016107f6565b600f805461ff00191661010017905560405130907f10317c7e70860b246d2a18496eaf094f8a43095653d300e4528c5774c542936690600090a2565b60006114a860025490565b8211156114b757506000919050565b60006114c56103bb60025490565b905060006114e0846114d660025490565b6103bb9190611e24565b905060006114ee8284611e24565b90506000670de0b6b3a7640000600954836115099190611e3b565b6115139190611e5a565b90506000670de0b6b3a7640000600a548461152e9190611e3b565b6115389190611e5a565b90506115448183611e0c565b831015611558575060009695505050505050565b6000816115658486611e24565b6108d99190611e24565b60008061157e6103bb60025490565b9050600061158f846114d660025490565b90506107808183611e24565b6001600160a01b03918216600090815260016020908152604080832093909416825291909152205490565b6115ce611aa9565b6001600160a01b0381166116335760405162461bcd60e51b815260206004820152602660248201527f4f776e61626c653a206e6577206f776e657220697320746865207a65726f206160448201526564647265737360d01b60648201526084016107f6565b61100681611b03565b6001600160a01b03831661169e5760405162461bcd60e51b8152602060048201526024808201527f45524332303a20617070726f76652066726f6d20746865207a65726f206164646044820152637265737360e01b60648201526084016107f6565b6001600160a01b0382166116ff5760405162461bcd60e51b815260206004820152602260248201527f45524332303a20617070726f766520746f20746865207a65726f206164647265604482015261737360f01b60648201526084016107f6565b6001600160a01b0383811660008181526001602090815260408083209487168084529482529182902085905590518481527f8c5be1e5ebec7d5bd14f71427d1e84f3dd0314c0f7b2291e5b200ac8c7c3b92591015b60405180910390a3505050565b600061176d848461159b565b905060001981146117d557818110156117c85760405162461bcd60e51b815260206004820152601d60248201527f45524332303a20696e73756666696369656e7420616c6c6f77616e636500000060448201526064016107f6565b6117d5848484840361163c565b50505050565b6001600160a01b03831661183f5760405162461bcd60e51b815260206004820152602560248201527f45524332303a207472616e736665722066726f6d20746865207a65726f206164604482015264647265737360d81b60648201526084016107f6565b6001600160a01b0382166118a15760405162461bcd60e51b815260206004820152602360248201527f45524332303a207472616e7366657220746f20746865207a65726f206164647260448201526265737360e81b60648201526084016107f6565b6001600160a01b038316600090815260208190526040902054818110156119195760405162461bcd60e51b815260206004820152602660248201527f45524332303a207472616e7366657220616d6f756e7420657863656564732062604482015265616c616e636560d01b60648201526084016107f6565b6001600160a01b03848116600081815260208181526040808320878703905593871680835291849020805487019055925185815290927fddf252ad1be2c89b69c2b068fc378daa952ba7f163c4a11628f55a4df523b3ef910160405180910390a36117d5565b6001600160a01b0382166119df5760405162461bcd60e51b815260206004820152602160248201527f45524332303a206275726e2066726f6d20746865207a65726f206164647265736044820152607360f81b60648201526084016107f6565b6001600160a01b03821660009081526020819052604090205481811015611a535760405162461bcd60e51b815260206004820152602260248201527f45524332303a206275726e20616d6f756e7420657863656564732062616c616e604482015261636560f01b60648201526084016107f6565b6001600160a01b0383166000818152602081815260408083208686039055600280548790039055518581529192917fddf252ad1be2c89b69c2b068fc378daa952ba7f163c4a11628f55a4df523b3ef9101611754565b6005546001600160a01b03163314610c695760405162461bcd60e51b815260206004820181905260248201527f4f776e61626c653a2063616c6c6572206973206e6f7420746865206f776e657260448201526064016107f6565b600580546001600160a01b038381166001600160a01b0319831681179093556040519116919082907f8be0079c531659141344cd1fd0a4f28419497f9722a3daafe3b4186f6b6457e090600090a35050565b60026006541415611ba85760405162461bcd60e51b815260206004820152601f60248201527f5265656e7472616e637947756172643a207265656e7472616e742063616c6c0060448201526064016107f6565b6002600655565b6001600160a01b038216611c055760405162461bcd60e51b815260206004820152601f60248201527f45524332303a206d696e7420746f20746865207a65726f20616464726573730060448201526064016107f6565b8060026000828254611c179190611e0c565b90915550506001600160a01b038216600081815260208181526040808320805486019055518481527fddf252ad1be2c89b69c2b068fc378daa952ba7f163c4a11628f55a4df523b3ef910160405180910390a35050565b600060208083528351808285015260005b81811015611c9b57858101830151858201604001528201611c7f565b81811115611cad576000604083870101525b50601f01601f1916929092016040019392505050565b6001600160a01b038116811461100657600080fd5b60008060408385031215611ceb57600080fd5b8235611cf681611cc3565b946020939093013593505050565b600080600060608486031215611d1957600080fd5b8335611d2481611cc3565b92506020840135611d3481611cc3565b929592945050506040919091013590565b600060208284031215611d5757600080fd5b5035919050565b600060208284031215611d7057600080fd5b8135611d7b81611cc3565b9392505050565b60008060408385031215611d9557600080fd5b8235611da081611cc3565b91506020830135611db081611cc3565b809150509250929050565b600181811c90821680611dcf57607f821691505b60208210811415611df057634e487b7160e01b600052602260045260246000fd5b50919050565b634e487b7160e01b600052601160045260246000fd5b60008219821115611e1f57611e1f611df6565b500190565b600082821015611e3657611e36611df6565b500390565b6000816000190483118215151615611e5557611e55611df6565b500290565b600082611e7757634e487b7160e01b600052601260045260246000fd5b500490565b60208082526037908201527f4163746976652070686173652068617320656e64656420616e6420746f6b656e60408201527f206973206e6f206c6f6e67657220747261646561626c6500000000000000000060608201526080019056fea26469706673582212209db57dc9b12a9fb6fc5a88fa51b499c06972637f9a5754552628c4a8c9fe09a764736f6c63430008080033a26469706673582212203910e647a99d48e5beeeed1e6e7761c2f5114f4b7d1ef4494c2b50fb16f8bdda64736f6c63430008080033",
  "devdoc": {
    "kind": "dev",
    "methods": {
      "createTempToken(string,string,uint256)": {
        "details": "createTempToken is a function to create a new TempToken.name is the name of the token.symbol is the symbol of the token.duration is the duration in seconds for the lifespan of the TempToken.The function returns the address of the new TempToken."
      },
      "getTokenInfo(address)": {
        "details": "getTokenInfo is a function to get the TokenInfo struct of a deployed token.tokenAddress is the address of the deployed token.The function returns the TokenInfo struct of the deployed token."
      },
      "owner()": {
        "details": "Returns the address of the current owner."
      },
      "renounceOwnership()": {
        "details": "Leaves the contract without owner. It will not be possible to call `onlyOwner` functions anymore. Can only be called by the current owner. NOTE: Renouncing ownership will leave the contract without an owner, thereby removing any functionality that is only available to the owner."
      },
      "setFeeDestination(address)": {
        "details": "The following functions are used to set the default protocol fee destination,  protocol fee percentage, streamer fee percentage, pause the factory, set total supply threshold, and set the max duration.These functions are only callable by the owner of the factory."
      },
      "setTotalSupplyThresholdForTokens(uint256,address[])": {
        "details": "The following functions are used to set the total supply threshold for tokens,  increase the end timestamp for tokens, set the max duration, and pause the factory.These functions are only callable by the owner or an admin of the factory."
      },
      "transferOwnership(address)": {
        "details": "Transfers ownership of the contract to a new account (`newOwner`). Can only be called by the current owner."
      }
    },
    "stateVariables": {
      "admins": {
        "details": "admins is a mapping of addresses to a boolean value. If the boolean value is true, the address is an admin. If the boolean value is false, the address is not an admin."
      },
      "defaultProtocolFeePercent": {
        "details": "defaultProtocolFeePercent is the default protocol fee percentage. ex: 2% = 2 * 10**16 = 20000000000000000.defaultStreamerFeePercent is the default streamer fee percentage. ex: 2% = 2 * 10**16 = 20000000000000000.defaultProtocolFeeDestination is the default protocol fee destination address.isPaused is a boolean to pause the token creation function.maxDuration is the max duration in seconds for the lifespan of the TempToken.totalSupplyThreshold is the total supply needed for the token to convert from a TempToken into a normal, permanent token.  This total supply will be adjusted by us depending on various factors. The goal of each TempToken is to have hit this threshold by the time the duration has expired. IT'S A GAME."
      },
      "numDeployedTokens": {
        "details": "numDeployedTokens is the number of deployed tokens.deployedTokenIndices is a mapping of token addresses to their assigned index.deployedTokens is a mapping of token indices to TokenInfo structs."
      }
    },
    "version": 1
  },
  "userdoc": {
    "kind": "user",
    "methods": {},
    "version": 1
  },
  "storageLayout": {
    "storage": [
      {
        "astId": 7,
        "contract": "contracts/TempTokenFactoryV1.sol:TempTokenFactoryV1",
        "label": "_owner",
        "offset": 0,
        "slot": "0",
        "type": "t_address"
      },
      {
        "astId": 905,
        "contract": "contracts/TempTokenFactoryV1.sol:TempTokenFactoryV1",
        "label": "numDeployedTokens",
        "offset": 0,
        "slot": "1",
        "type": "t_uint256"
      },
      {
        "astId": 909,
        "contract": "contracts/TempTokenFactoryV1.sol:TempTokenFactoryV1",
        "label": "deployedTokenIndices",
        "offset": 0,
        "slot": "2",
        "type": "t_mapping(t_address,t_uint256)"
      },
      {
        "astId": 914,
        "contract": "contracts/TempTokenFactoryV1.sol:TempTokenFactoryV1",
        "label": "deployedTokens",
        "offset": 0,
        "slot": "3",
        "type": "t_mapping(t_uint256,t_struct(TokenInfo)902_storage)"
      },
      {
        "astId": 919,
        "contract": "contracts/TempTokenFactoryV1.sol:TempTokenFactoryV1",
        "label": "admins",
        "offset": 0,
        "slot": "4",
        "type": "t_mapping(t_address,t_bool)"
      },
      {
        "astId": 922,
        "contract": "contracts/TempTokenFactoryV1.sol:TempTokenFactoryV1",
        "label": "defaultProtocolFeePercent",
        "offset": 0,
        "slot": "5",
        "type": "t_uint256"
      },
      {
        "astId": 924,
        "contract": "contracts/TempTokenFactoryV1.sol:TempTokenFactoryV1",
        "label": "defaultStreamerFeePercent",
        "offset": 0,
        "slot": "6",
        "type": "t_uint256"
      },
      {
        "astId": 926,
        "contract": "contracts/TempTokenFactoryV1.sol:TempTokenFactoryV1",
        "label": "defaultProtocolFeeDestination",
        "offset": 0,
        "slot": "7",
        "type": "t_address"
      },
      {
        "astId": 928,
        "contract": "contracts/TempTokenFactoryV1.sol:TempTokenFactoryV1",
        "label": "isPaused",
        "offset": 20,
        "slot": "7",
        "type": "t_bool"
      },
      {
        "astId": 930,
        "contract": "contracts/TempTokenFactoryV1.sol:TempTokenFactoryV1",
        "label": "maxDuration",
        "offset": 0,
        "slot": "8",
        "type": "t_uint256"
      },
      {
        "astId": 932,
        "contract": "contracts/TempTokenFactoryV1.sol:TempTokenFactoryV1",
        "label": "totalSupplyThreshold",
        "offset": 0,
        "slot": "9",
        "type": "t_uint256"
      }
    ],
    "types": {
      "t_address": {
        "encoding": "inplace",
        "label": "address",
        "numberOfBytes": "20"
      },
      "t_bool": {
        "encoding": "inplace",
        "label": "bool",
        "numberOfBytes": "1"
      },
      "t_mapping(t_address,t_bool)": {
        "encoding": "mapping",
        "key": "t_address",
        "label": "mapping(address => bool)",
        "numberOfBytes": "32",
        "value": "t_bool"
      },
      "t_mapping(t_address,t_uint256)": {
        "encoding": "mapping",
        "key": "t_address",
        "label": "mapping(address => uint256)",
        "numberOfBytes": "32",
        "value": "t_uint256"
      },
      "t_mapping(t_uint256,t_struct(TokenInfo)902_storage)": {
        "encoding": "mapping",
        "key": "t_uint256",
        "label": "mapping(uint256 => struct TempTokenFactoryV1.TokenInfo)",
        "numberOfBytes": "32",
        "value": "t_struct(TokenInfo)902_storage"
      },
      "t_string_storage": {
        "encoding": "bytes",
        "label": "string",
        "numberOfBytes": "32"
      },
      "t_struct(TokenInfo)902_storage": {
        "encoding": "inplace",
        "label": "struct TempTokenFactoryV1.TokenInfo",
        "members": [
          {
            "astId": 885,
            "contract": "contracts/TempTokenFactoryV1.sol:TempTokenFactoryV1",
            "label": "tokenAddress",
            "offset": 0,
            "slot": "0",
            "type": "t_address"
          },
          {
            "astId": 887,
            "contract": "contracts/TempTokenFactoryV1.sol:TempTokenFactoryV1",
            "label": "ownerAddress",
            "offset": 0,
            "slot": "1",
            "type": "t_address"
          },
          {
            "astId": 889,
            "contract": "contracts/TempTokenFactoryV1.sol:TempTokenFactoryV1",
            "label": "name",
            "offset": 0,
            "slot": "2",
            "type": "t_string_storage"
          },
          {
            "astId": 891,
            "contract": "contracts/TempTokenFactoryV1.sol:TempTokenFactoryV1",
            "label": "symbol",
            "offset": 0,
            "slot": "3",
            "type": "t_string_storage"
          },
          {
            "astId": 893,
            "contract": "contracts/TempTokenFactoryV1.sol:TempTokenFactoryV1",
            "label": "endTimestamp",
            "offset": 0,
            "slot": "4",
            "type": "t_uint256"
          },
          {
            "astId": 895,
            "contract": "contracts/TempTokenFactoryV1.sol:TempTokenFactoryV1",
            "label": "protocolFeeDestination",
            "offset": 0,
            "slot": "5",
            "type": "t_address"
          },
          {
            "astId": 897,
            "contract": "contracts/TempTokenFactoryV1.sol:TempTokenFactoryV1",
            "label": "protocolFeePercent",
            "offset": 0,
            "slot": "6",
            "type": "t_uint256"
          },
          {
            "astId": 899,
            "contract": "contracts/TempTokenFactoryV1.sol:TempTokenFactoryV1",
            "label": "streamerFeePercent",
            "offset": 0,
            "slot": "7",
            "type": "t_uint256"
          },
          {
            "astId": 901,
            "contract": "contracts/TempTokenFactoryV1.sol:TempTokenFactoryV1",
            "label": "creationBlockNumber",
            "offset": 0,
            "slot": "8",
            "type": "t_uint256"
          }
        ],
        "numberOfBytes": "288"
      },
      "t_uint256": {
        "encoding": "inplace",
        "label": "uint256",
        "numberOfBytes": "32"
      }
    }
  }
}