{
  "address": "0xf55d932acde3A3B2acEEFAb01565727ecca11167",
  "abi": [
    {
      "inputs": [
        {
          "internalType": "address",
          "name": "_defaultProtocolFeeDestination",
          "type": "address"
        },
        {
          "internalType": "uint256",
          "name": "_defaultProtocolFeePercent",
          "type": "uint256"
        },
        {
          "internalType": "uint256",
          "name": "_defaultStreamerFeePercent",
          "type": "uint256"
        }
      ],
      "stateMutability": "nonpayable",
      "type": "constructor"
    },
    {
      "anonymous": false,
      "inputs": [
        {
          "indexed": false,
          "internalType": "address[]",
          "name": "tokenAddresses",
          "type": "address[]"
        }
      ],
      "name": "AlwaysTradeableSetForTokens",
      "type": "event"
    },
    {
      "anonymous": false,
      "inputs": [
        {
          "indexed": false,
          "internalType": "uint256",
          "name": "additionalDuration",
          "type": "uint256"
        },
        {
          "indexed": false,
          "internalType": "address[]",
          "name": "tokenAddresses",
          "type": "address[]"
        }
      ],
      "name": "EndTimestampIncreasedForTokens",
      "type": "event"
    },
    {
      "anonymous": false,
      "inputs": [
        {
          "indexed": true,
          "internalType": "address",
          "name": "sender",
          "type": "address"
        },
        {
          "indexed": false,
          "internalType": "uint256",
          "name": "amount",
          "type": "uint256"
        }
      ],
      "name": "EtherReceived",
      "type": "event"
    },
    {
      "anonymous": false,
      "inputs": [
        {
          "indexed": false,
          "internalType": "address",
          "name": "winnerTokenAddress",
          "type": "address"
        },
        {
          "indexed": false,
          "internalType": "uint256",
          "name": "amount",
          "type": "uint256"
        }
      ],
      "name": "FactoryMintedWinnerTokens",
      "type": "event"
    },
    {
      "anonymous": false,
      "inputs": [
        {
          "indexed": false,
          "internalType": "uint256",
          "name": "maxDuration",
          "type": "uint256"
        }
      ],
      "name": "MaxDurationSet",
      "type": "event"
    },
    {
      "anonymous": false,
      "inputs": [
        {
          "indexed": false,
          "internalType": "address[]",
          "name": "tokenAddresses",
          "type": "address[]"
        },
        {
          "indexed": true,
          "internalType": "address",
          "name": "owner",
          "type": "address"
        },
        {
          "indexed": false,
          "internalType": "string[]",
          "name": "names",
          "type": "string[]"
        },
        {
          "indexed": false,
          "internalType": "string[]",
          "name": "symbols",
          "type": "string[]"
        },
        {
          "indexed": false,
          "internalType": "uint256",
          "name": "endTimestamp",
          "type": "uint256"
        },
        {
          "indexed": false,
          "internalType": "address",
          "name": "protocolFeeDestination",
          "type": "address"
        },
        {
          "indexed": false,
          "internalType": "uint256",
          "name": "protocolFeePercent",
          "type": "uint256"
        },
        {
          "indexed": false,
          "internalType": "uint256",
          "name": "streamerFeePercent",
          "type": "uint256"
        },
        {
          "indexed": false,
          "internalType": "uint256",
          "name": "totalSupplyThreshold",
          "type": "uint256"
        },
        {
          "indexed": false,
          "internalType": "uint256",
          "name": "creationBlockNumber",
          "type": "uint256"
        }
      ],
      "name": "MultipleTempTokensCreated",
      "type": "event"
    },
    {
      "anonymous": false,
      "inputs": [
        {
          "indexed": true,
          "internalType": "address",
          "name": "previousOwner",
          "type": "address"
        },
        {
          "indexed": true,
          "internalType": "address",
          "name": "newOwner",
          "type": "address"
        }
      ],
      "name": "OwnershipTransferred",
      "type": "event"
    },
    {
      "anonymous": false,
      "inputs": [
        {
          "indexed": false,
          "internalType": "bool",
          "name": "isPaused",
          "type": "bool"
        },
        {
          "indexed": false,
          "internalType": "uint256",
          "name": "numDeployedTokens",
          "type": "uint256"
        }
      ],
      "name": "PauseFactorySet",
      "type": "event"
    },
    {
      "anonymous": false,
      "inputs": [
        {
          "indexed": true,
          "internalType": "address",
          "name": "protocolFeeDestination",
          "type": "address"
        }
      ],
      "name": "ProtocolFeeDestinationSet",
      "type": "event"
    },
    {
      "anonymous": false,
      "inputs": [
        {
          "indexed": false,
          "internalType": "uint256",
          "name": "feePercent",
          "type": "uint256"
        }
      ],
      "name": "ProtocolFeePercentSet",
      "type": "event"
    },
    {
      "anonymous": false,
      "inputs": [
        {
          "indexed": false,
          "internalType": "address",
          "name": "winnerTokenAddress",
          "type": "address"
        },
        {
          "indexed": false,
          "internalType": "address",
          "name": "loserTokenAddress",
          "type": "address"
        },
        {
          "indexed": false,
          "internalType": "uint256",
          "name": "transferredLiquidity",
          "type": "uint256"
        }
      ],
      "name": "SetWinningTokenTradeableAndTransferredLiquidity",
      "type": "event"
    },
    {
      "anonymous": false,
      "inputs": [
        {
          "indexed": false,
          "internalType": "uint256",
          "name": "feePercent",
          "type": "uint256"
        }
      ],
      "name": "StreamerFeePercentSet",
      "type": "event"
    },
    {
      "anonymous": false,
      "inputs": [
        {
          "indexed": true,
          "internalType": "address",
          "name": "tokenAddress",
          "type": "address"
        },
        {
          "indexed": true,
          "internalType": "address",
          "name": "owner",
          "type": "address"
        },
        {
          "indexed": false,
          "internalType": "string",
          "name": "name",
          "type": "string"
        },
        {
          "indexed": false,
          "internalType": "string",
          "name": "symbol",
          "type": "string"
        },
        {
          "indexed": false,
          "internalType": "uint256",
          "name": "endTimestamp",
          "type": "uint256"
        },
        {
          "indexed": false,
          "internalType": "address",
          "name": "protocolFeeDestination",
          "type": "address"
        },
        {
          "indexed": false,
          "internalType": "uint256",
          "name": "protocolFeePercent",
          "type": "uint256"
        },
        {
          "indexed": false,
          "internalType": "uint256",
          "name": "streamerFeePercent",
          "type": "uint256"
        },
        {
          "indexed": false,
          "internalType": "uint256",
          "name": "totalSupplyThreshold",
          "type": "uint256"
        },
        {
          "indexed": false,
          "internalType": "uint256",
          "name": "creationBlockNumber",
          "type": "uint256"
        }
      ],
      "name": "TempTokenCreated",
      "type": "event"
    },
    {
      "anonymous": false,
      "inputs": [
        {
          "indexed": false,
          "internalType": "uint256",
          "name": "totalSupplyThreshold",
          "type": "uint256"
        },
        {
          "indexed": false,
          "internalType": "address[]",
          "name": "tokenAddresses",
          "type": "address[]"
        }
      ],
      "name": "TotalSupplyThresholdSetForTokens",
      "type": "event"
    },
    {
      "stateMutability": "payable",
      "type": "fallback"
    },
    {
      "inputs": [
        {
          "internalType": "address",
          "name": "",
          "type": "address"
        }
      ],
      "name": "admins",
      "outputs": [
        {
          "internalType": "bool",
          "name": "",
          "type": "bool"
        }
      ],
      "stateMutability": "view",
      "type": "function"
    },
    {
      "inputs": [
        {
          "internalType": "string[]",
          "name": "names",
          "type": "string[]"
        },
        {
          "internalType": "string[]",
          "name": "symbols",
          "type": "string[]"
        },
        {
          "internalType": "uint256",
          "name": "duration",
          "type": "uint256"
        },
        {
          "internalType": "uint256",
          "name": "totalSupplyThreshold",
          "type": "uint256"
        }
      ],
      "name": "createMultipleTempTokens",
      "outputs": [
        {
          "internalType": "address[]",
          "name": "",
          "type": "address[]"
        }
      ],
      "stateMutability": "nonpayable",
      "type": "function"
    },
    {
      "inputs": [
        {
          "internalType": "string",
          "name": "name",
          "type": "string"
        },
        {
          "internalType": "string",
          "name": "symbol",
          "type": "string"
        },
        {
          "internalType": "uint256",
          "name": "duration",
          "type": "uint256"
        },
        {
          "internalType": "uint256",
          "name": "totalSupplyThreshold",
          "type": "uint256"
        }
      ],
      "name": "createTempToken",
      "outputs": [
        {
          "internalType": "address",
          "name": "",
          "type": "address"
        }
      ],
      "stateMutability": "nonpayable",
      "type": "function"
    },
    {
      "inputs": [],
      "name": "defaultProtocolFeeDestination",
      "outputs": [
        {
          "internalType": "address",
          "name": "",
          "type": "address"
        }
      ],
      "stateMutability": "view",
      "type": "function"
    },
    {
      "inputs": [],
      "name": "defaultProtocolFeePercent",
      "outputs": [
        {
          "internalType": "uint256",
          "name": "",
          "type": "uint256"
        }
      ],
      "stateMutability": "view",
      "type": "function"
    },
    {
      "inputs": [],
      "name": "defaultStreamerFeePercent",
      "outputs": [
        {
          "internalType": "uint256",
          "name": "",
          "type": "uint256"
        }
      ],
      "stateMutability": "view",
      "type": "function"
    },
    {
      "inputs": [
        {
          "internalType": "address",
          "name": "",
          "type": "address"
        }
      ],
      "name": "deployedTokenIndices",
      "outputs": [
        {
          "internalType": "uint256",
          "name": "",
          "type": "uint256"
        }
      ],
      "stateMutability": "view",
      "type": "function"
    },
    {
      "inputs": [
        {
          "internalType": "uint256",
          "name": "",
          "type": "uint256"
        }
      ],
      "name": "deployedTokens",
      "outputs": [
        {
          "internalType": "address",
          "name": "tokenAddress",
          "type": "address"
        },
        {
          "internalType": "address",
          "name": "ownerAddress",
          "type": "address"
        },
        {
          "internalType": "string",
          "name": "name",
          "type": "string"
        },
        {
          "internalType": "string",
          "name": "symbol",
          "type": "string"
        },
        {
          "internalType": "uint256",
          "name": "endTimestamp",
          "type": "uint256"
        },
        {
          "internalType": "address",
          "name": "protocolFeeDestination",
          "type": "address"
        },
        {
          "internalType": "uint256",
          "name": "protocolFeePercent",
          "type": "uint256"
        },
        {
          "internalType": "uint256",
          "name": "streamerFeePercent",
          "type": "uint256"
        },
        {
          "internalType": "uint256",
          "name": "creationBlockNumber",
          "type": "uint256"
        }
      ],
      "stateMutability": "view",
      "type": "function"
    },
    {
      "inputs": [],
      "name": "getBalance",
      "outputs": [
        {
          "internalType": "uint256",
          "name": "",
          "type": "uint256"
        }
      ],
      "stateMutability": "view",
      "type": "function"
    },
    {
      "inputs": [
        {
          "internalType": "address",
          "name": "tokenAddress",
          "type": "address"
        }
      ],
      "name": "getTokenInfo",
      "outputs": [
        {
          "components": [
            {
              "internalType": "address",
              "name": "tokenAddress",
              "type": "address"
            },
            {
              "internalType": "address",
              "name": "ownerAddress",
              "type": "address"
            },
            {
              "internalType": "string",
              "name": "name",
              "type": "string"
            },
            {
              "internalType": "string",
              "name": "symbol",
              "type": "string"
            },
            {
              "internalType": "uint256",
              "name": "endTimestamp",
              "type": "uint256"
            },
            {
              "internalType": "address",
              "name": "protocolFeeDestination",
              "type": "address"
            },
            {
              "internalType": "uint256",
              "name": "protocolFeePercent",
              "type": "uint256"
            },
            {
              "internalType": "uint256",
              "name": "streamerFeePercent",
              "type": "uint256"
            },
            {
              "internalType": "uint256",
              "name": "creationBlockNumber",
              "type": "uint256"
            }
          ],
          "internalType": "struct TempTokenFactoryV1.TokenInfo",
          "name": "",
          "type": "tuple"
        }
      ],
      "stateMutability": "view",
      "type": "function"
    },
    {
      "inputs": [
        {
          "internalType": "uint256",
          "name": "_additionalDurationInSeconds",
          "type": "uint256"
        },
        {
          "internalType": "address[]",
          "name": "_tokenAddresses",
          "type": "address[]"
        }
      ],
      "name": "increaseEndTimestampForTokens",
      "outputs": [],
      "stateMutability": "nonpayable",
      "type": "function"
    },
    {
      "inputs": [],
      "name": "isPaused",
      "outputs": [
        {
          "internalType": "bool",
          "name": "",
          "type": "bool"
        }
      ],
      "stateMutability": "view",
      "type": "function"
    },
    {
      "inputs": [],
      "name": "maxDuration",
      "outputs": [
        {
          "internalType": "uint256",
          "name": "",
          "type": "uint256"
        }
      ],
      "stateMutability": "view",
      "type": "function"
    },
    {
      "inputs": [
        {
          "internalType": "address",
          "name": "_winnerTokenAddress",
          "type": "address"
        },
        {
          "internalType": "uint256",
          "name": "_amount",
          "type": "uint256"
        }
      ],
      "name": "mintWinnerTokens",
      "outputs": [],
      "stateMutability": "nonpayable",
      "type": "function"
    },
    {
      "inputs": [],
      "name": "numDeployedTokens",
      "outputs": [
        {
          "internalType": "uint256",
          "name": "",
          "type": "uint256"
        }
      ],
      "stateMutability": "view",
      "type": "function"
    },
    {
      "inputs": [],
      "name": "owner",
      "outputs": [
        {
          "internalType": "address",
          "name": "",
          "type": "address"
        }
      ],
      "stateMutability": "view",
      "type": "function"
    },
    {
      "inputs": [],
      "name": "renounceOwnership",
      "outputs": [],
      "stateMutability": "nonpayable",
      "type": "function"
    },
    {
      "inputs": [
        {
          "internalType": "address",
          "name": "_address",
          "type": "address"
        },
        {
          "internalType": "bool",
          "name": "_onlyAdmin",
          "type": "bool"
        }
      ],
      "name": "setAdmin",
      "outputs": [],
      "stateMutability": "nonpayable",
      "type": "function"
    },
    {
      "inputs": [
        {
          "internalType": "address[]",
          "name": "_tokenAddresses",
          "type": "address[]"
        }
      ],
      "name": "setAlwaysTradeableForTokens",
      "outputs": [],
      "stateMutability": "nonpayable",
      "type": "function"
    },
    {
      "inputs": [
        {
          "internalType": "address",
          "name": "protocolFeeDestination",
          "type": "address"
        }
      ],
      "name": "setFeeDestination",
      "outputs": [],
      "stateMutability": "nonpayable",
      "type": "function"
    },
    {
      "inputs": [
        {
          "internalType": "uint256",
          "name": "_maxDuration",
          "type": "uint256"
        }
      ],
      "name": "setMaxDuration",
      "outputs": [],
      "stateMutability": "nonpayable",
      "type": "function"
    },
    {
      "inputs": [
        {
          "internalType": "bool",
          "name": "_isPaused",
          "type": "bool"
        }
      ],
      "name": "setPauseFactory",
      "outputs": [],
      "stateMutability": "nonpayable",
      "type": "function"
    },
    {
      "inputs": [
        {
          "internalType": "uint256",
          "name": "_feePercent",
          "type": "uint256"
        }
      ],
      "name": "setProtocolFeePercent",
      "outputs": [],
      "stateMutability": "nonpayable",
      "type": "function"
    },
    {
      "inputs": [
        {
          "internalType": "uint256",
          "name": "_feePercent",
          "type": "uint256"
        }
      ],
      "name": "setStreamerFeePercent",
      "outputs": [],
      "stateMutability": "nonpayable",
      "type": "function"
    },
    {
      "inputs": [
        {
          "internalType": "uint256",
          "name": "_totalSupplyThreshold",
          "type": "uint256"
        },
        {
          "internalType": "address[]",
          "name": "_tokenAddresses",
          "type": "address[]"
        }
      ],
      "name": "setTotalSupplyThresholdForTokens",
      "outputs": [],
      "stateMutability": "nonpayable",
      "type": "function"
    },
    {
      "inputs": [
        {
          "internalType": "address[]",
          "name": "_tokenAddresses",
          "type": "address[]"
        }
      ],
      "name": "setWinningTokenTradeableAndTransferLiquidity",
      "outputs": [],
      "stateMutability": "nonpayable",
      "type": "function"
    },
    {
      "inputs": [
        {
          "internalType": "address",
          "name": "newOwner",
          "type": "address"
        }
      ],
      "name": "transferOwnership",
      "outputs": [],
      "stateMutability": "nonpayable",
      "type": "function"
    },
    {
      "stateMutability": "payable",
      "type": "receive"
    }
  ],
  "transactionHash": "0x38b3b725afd27fe43cbddb13ffe1194db69ab11a67e88095b14479ba2339c403",
  "args": [
    "0x4F3d3f2F895Db524AC3944BDd17fE632473bCa4a",
    "50000000000000000",
    "50000000000000000"
  ],
  "numDeployments": 23,
  "solcInputHash": "abea291b48d4871ae27ffb0d2390c285",
  "bytecode": "0x60806040523480156200001157600080fd5b5060405162005d8938038062005d8983398101604081905262000034916200012e565b6200003f33620000de565b6001600160a01b038316620000a95760405162461bcd60e51b815260206004820152602660248201527f44656661756c74206665652064657374696e6174696f6e2063616e6e6f74206260448201526565207a65726f60d01b606482015260840160405180910390fd5b600591909155600655600780546001600160a01b0319166001600160a01b0392909216919091179055610e1060085562000173565b600080546001600160a01b038381166001600160a01b0319831681178455604051919092169283917f8be0079c531659141344cd1fd0a4f28419497f9722a3daafe3b4186f6b6457e09190a35050565b6000806000606084860312156200014457600080fd5b83516001600160a01b03811681146200015c57600080fd5b602085015160409095015190969495509392505050565b615c0680620001836000396000f3fe608060405260043610620001c95760003560e01c80638da5cb5b1162000103578063c6b8d01a1162000097578063ec81aadb116200006d578063ec81aadb14620005a3578063edb4044714620005df578063f2fde38b1462000601578063fbe5323414620006265762000207565b8063c6b8d01a1462000532578063cf0f34c41462000566578063d7f20549146200058b5762000207565b8063b187bd2611620000d9578063b187bd2614620004ad578063b946933b14620004d0578063bb5dfe1914620004f5578063bdaf4e13146200050d5762000207565b80638da5cb5b146200042357806396266d9c1462000457578063a498342114620004885762000207565b806344161783116200017b5780636e3eb6f411620001515780636e3eb6f4146200039c578063715018a614620003c15780637a31c18514620003d95780638a44e58a14620003fe5762000207565b80634416178314620003475780634b0bddd2146200035f5780636db5c8fd14620003845762000207565b806312065fe0146200023a5780631f69565f146200025d57806320b1f08d14620002915780632944998114620002b85780633080d29114620002dd578063429b62e514620003025762000207565b36620002075760405134815233907f1e57e3bb474320be3d2c77138f75b7c3941292d647f5f9634e33a8e94e0e069b906020015b60405180910390a2005b60405134815233907f1e57e3bb474320be3d2c77138f75b7c3941292d647f5f9634e33a8e94e0e069b90602001620001fd565b3480156200024757600080fd5b50475b6040519081526020015b60405180910390f35b3480156200026a57600080fd5b50620002826200027c36600462002c98565b6200064b565b60405162000254919062002d20565b3480156200029e57600080fd5b50620002b6620002b036600462002e3a565b62000874565b005b348015620002c557600080fd5b50620002b6620002d736600462002e3a565b620009dd565b348015620002ea57600080fd5b50620002b6620002fc36600462002e8a565b62000b82565b3480156200030f57600080fd5b50620003366200032136600462002c98565b60046020526000908152604090205460ff1681565b604051901515815260200162000254565b3480156200035457600080fd5b506200024a60055481565b3480156200036c57600080fd5b50620002b66200037e36600462002edf565b6200160c565b3480156200039157600080fd5b506200024a60085481565b348015620003a957600080fd5b50620002b6620003bb36600462002f1d565b62001690565b348015620003ce57600080fd5b50620002b662001741565b348015620003e657600080fd5b50620002b6620003f836600462002f3d565b62001759565b3480156200040b57600080fd5b50620002b66200041d36600462002e8a565b620017dc565b3480156200043057600080fd5b506000546001600160a01b03165b6040516001600160a01b03909116815260200162000254565b3480156200046457600080fd5b506200024a6200047636600462002c98565b60026020526000908152604090205481565b3480156200049557600080fd5b50620002b6620004a736600462002f3d565b6200192b565b348015620004ba57600080fd5b506007546200033690600160a01b900460ff1681565b348015620004dd57600080fd5b50620002b6620004ef36600462002f57565b620019ae565b3480156200050257600080fd5b506200024a60015481565b3480156200051a57600080fd5b506200043e6200052c36600462003047565b62001eb9565b3480156200053f57600080fd5b5062000557620005513660046200316d565b62002212565b60405162000254919062003217565b3480156200057357600080fd5b50620002b66200058536600462002f3d565b6200274d565b3480156200059857600080fd5b506200024a60065481565b348015620005b057600080fd5b50620005c8620005c236600462002f3d565b62002822565b60405162000254999897969594939291906200322c565b348015620005ec57600080fd5b506007546200043e906001600160a01b031681565b3480156200060e57600080fd5b50620002b66200062036600462002c98565b620029a1565b3480156200063357600080fd5b50620002b66200064536600462002c98565b62002a20565b620006b660405180610120016040528060006001600160a01b0316815260200160006001600160a01b0316815260200160608152602001606081526020016000815260200160006001600160a01b031681526020016000815260200160008152602001600081525090565b6001600160a01b0380831660009081526002602081815260408084205484526003825292839020835161012081018552815486168152600182015490951691850191909152908101805491928401916200071090620032a4565b80601f01602080910402602001604051908101604052809291908181526020018280546200073e90620032a4565b80156200078f5780601f1062000763576101008083540402835291602001916200078f565b820191906000526020600020905b8154815290600101906020018083116200077157829003601f168201915b50505050508152602001600382018054620007aa90620032a4565b80601f0160208091040260200160405190810160405280929190818152602001828054620007d890620032a4565b8015620008295780601f10620007fd5761010080835404028352916020019162000829565b820191906000526020600020905b8154815290600101906020018083116200080b57829003601f168201915b50505091835250506004820154602082015260058201546001600160a01b03166040820152600682015460608201526007820154608082015260089091015460a09091015292915050565b6000546001600160a01b0316331480620008a257503360009081526004602052604090205460ff1615156001145b620008ca5760405162461bcd60e51b8152600401620008c190620032e1565b60405180910390fd5b80620008ea5760405162461bcd60e51b8152600401620008c19062003322565b60005b818110156200099a578282828181106200090b576200090b62003359565b905060200201602081019062000922919062002c98565b6001600160a01b0316637714671b856040518263ffffffff1660e01b81526004016200095091815260200190565b600060405180830381600087803b1580156200096b57600080fd5b505af115801562000980573d6000803e3d6000fd5b505050508080620009919062003385565b915050620008ed565b507f7d71de3016694b4b987abe9daa72dbbf8b23f45a5d8e8f8af0c20d4759727f51838383604051620009d093929190620033e5565b60405180910390a1505050565b6000546001600160a01b031633148062000a0b57503360009081526004602052604090205460ff1615156001145b62000a2a5760405162461bcd60e51b8152600401620008c190620032e1565b6000831162000a7c5760405162461bcd60e51b815260206004820152601f60248201527f4164646974696f6e616c206475726174696f6e2063616e6e6f742062652030006044820152606401620008c1565b8062000a9c5760405162461bcd60e51b8152600401620008c19062003322565b60005b8181101562000b4c5782828281811062000abd5762000abd62003359565b905060200201602081019062000ad4919062002c98565b6001600160a01b031663291d2ffd856040518263ffffffff1660e01b815260040162000b0291815260200190565b600060405180830381600087803b15801562000b1d57600080fd5b505af115801562000b32573d6000803e3d6000fd5b50505050808062000b439062003385565b91505062000a9f565b507fa2538f90e81ed5058ad53a8549c0adb17119fbd7be5a5d6c638f543836c68100838383604051620009d093929190620033e5565b6002811462000be75760405162461bcd60e51b815260206004820152602a60248201527f546f6b656e20616464726573736573206172726179206d7573742068617665206044820152693220656c656d656e747360b01b6064820152608401620008c1565b60008282828162000bfc5762000bfc62003359565b905060200201602081019062000c13919062002c98565b6001600160a01b03161415801562000c61575060008282600181811062000c3e5762000c3e62003359565b905060200201602081019062000c55919062002c98565b6001600160a01b031614155b62000cbd5760405162461bcd60e51b815260206004820152602560248201527f4f6e65206f7220626f746820746f6b656e2061646472657373657320617265206044820152643d32b9379760d91b6064820152608401620008c1565b60008282600081811062000cd55762000cd562003359565b905060200201602081019062000cec919062002c98565b905060008383600181811062000d065762000d0662003359565b905060200201602081019062000d1d919062002c98565b9050336001600160a01b0316826001600160a01b0316638da5cb5b6040518163ffffffff1660e01b815260040160206040518083038186803b15801562000d6357600080fd5b505afa15801562000d78573d6000803e3d6000fd5b505050506040513d601f19601f8201168201806040525081019062000d9e91906200340a565b6001600160a01b031614801562000e3a5750336001600160a01b0316816001600160a01b0316638da5cb5b6040518163ffffffff1660e01b815260040160206040518083038186803b15801562000df457600080fd5b505afa15801562000e09573d6000803e3d6000fd5b505050506040513d601f19601f8201168201806040525081019062000e2f91906200340a565b6001600160a01b0316145b62000e975760405162461bcd60e51b815260206004820152602660248201527f43616c6c6572206973206e6f7420746865206f776e6572206f6620626f746820604482015265746f6b656e7360d01b6064820152608401620008c1565b806001600160a01b0316631bf309296040518163ffffffff1660e01b815260040160206040518083038186803b15801562000ed157600080fd5b505afa15801562000ee6573d6000803e3d6000fd5b505050506040513d601f19601f8201168201806040525081019062000f0c91906200342a565b826001600160a01b0316631bf309296040518163ffffffff1660e01b815260040160206040518083038186803b15801562000f4657600080fd5b505afa15801562000f5b573d6000803e3d6000fd5b505050506040513d601f19601f8201168201806040525081019062000f8191906200342a565b1462000fe25760405162461bcd60e51b815260206004820152602960248201527f546f6b656e732077657265206e6f74206372656174656420696e207468652073604482015268616d6520626c6f636b60b81b6064820152608401620008c1565b42826001600160a01b031663a85adeab6040518163ffffffff1660e01b815260040160206040518083038186803b1580156200101d57600080fd5b505afa15801562001032573d6000803e3d6000fd5b505050506040513d601f19601f820116820180604052508101906200105891906200342a565b108015620010d9575042816001600160a01b031663a85adeab6040518163ffffffff1660e01b815260040160206040518083038186803b1580156200109c57600080fd5b505afa158015620010b1573d6000803e3d6000fd5b505050506040513d601f19601f82011682018060405250810190620010d791906200342a565b105b620011275760405162461bcd60e51b815260206004820152601d60248201527f426f746820746f6b656e73206d757374206578706972652066697273740000006044820152606401620008c1565b6000816001600160a01b03166318160ddd6040518163ffffffff1660e01b815260040160206040518083038186803b1580156200116357600080fd5b505afa15801562001178573d6000803e3d6000fd5b505050506040513d601f19601f820116820180604052508101906200119e91906200342a565b836001600160a01b03166318160ddd6040518163ffffffff1660e01b815260040160206040518083038186803b158015620011d857600080fd5b505afa158015620011ed573d6000803e3d6000fd5b505050506040513d601f19601f820116820180604052508101906200121391906200342a565b106200141157826001600160a01b031663bd95ff136040518163ffffffff1660e01b8152600401600060405180830381600087803b1580156200125557600080fd5b505af11580156200126a573d6000803e3d6000fd5b505050506000826001600160a01b03166312065fe06040518163ffffffff1660e01b815260040160206040518083038186803b158015620012aa57600080fd5b505afa158015620012bf573d6000803e3d6000fd5b505050506040513d601f19601f82011682018060405250810190620012e591906200342a565b11156200136657816001600160a01b0316630b00e8f46040518163ffffffff1660e01b8152600401602060405180830381600087803b1580156200132857600080fd5b505af11580156200133d573d6000803e3d6000fd5b505050506040513d601f19601f820116820180604052508101906200136391906200342a565b90505b7f0f75c212379b39f20a1ebfcd08baf9e7d4dbb20d3bb2ca17ab6e7f3a2467bdb5858560008181106200139d576200139d62003359565b9050602002016020810190620013b4919062002c98565b86866001818110620013ca57620013ca62003359565b9050602002016020810190620013e1919062002c98565b604080516001600160a01b039384168152929091166020830152810183905260600160405180910390a162001605565b816001600160a01b031663bd95ff136040518163ffffffff1660e01b8152600401600060405180830381600087803b1580156200144d57600080fd5b505af115801562001462573d6000803e3d6000fd5b505050506000836001600160a01b03166312065fe06040518163ffffffff1660e01b815260040160206040518083038186803b158015620014a257600080fd5b505afa158015620014b7573d6000803e3d6000fd5b505050506040513d601f19601f82011682018060405250810190620014dd91906200342a565b11156200155e57826001600160a01b0316630b00e8f46040518163ffffffff1660e01b8152600401602060405180830381600087803b1580156200152057600080fd5b505af115801562001535573d6000803e3d6000fd5b505050506040513d601f19601f820116820180604052508101906200155b91906200342a565b90505b7f0f75c212379b39f20a1ebfcd08baf9e7d4dbb20d3bb2ca17ab6e7f3a2467bdb58585600181811062001595576200159562003359565b9050602002016020810190620015ac919062002c98565b86866000818110620015c257620015c262003359565b9050602002016020810190620015d9919062002c98565b604080516001600160a01b03938416815292909116602083015281018390526060015b60405180910390a15b5050505050565b6200161662002b22565b6001600160a01b038216620016655760405162461bcd60e51b815260206004820152601460248201527341646d696e2063616e6e6f74206265207a65726f60601b6044820152606401620008c1565b6001600160a01b03919091166000908152600460205260409020805460ff1916911515919091179055565b6000546001600160a01b0316331480620016be57503360009081526004602052604090205460ff1615156001145b620016dd5760405162461bcd60e51b8152600401620008c190620032e1565b60078054821515600160a01b0260ff60a01b199091161790556001546040517fd119587be04d80080c64717a0dc158c674898c4fe140498ffd144e1f6645d8b99162001736918491909115158252602082015260400190565b60405180910390a150565b6200174b62002b22565b62001757600062002b7e565b565b6000546001600160a01b03163314806200178757503360009081526004602052604090205460ff1615156001145b620017a65760405162461bcd60e51b8152600401620008c190620032e1565b60068190556040518181527f444c2ee6a42985e86e4d1c21435989ae523bae8ee02a11e8579bc4ac18b1d4ae9060200162001736565b6000546001600160a01b03163314806200180a57503360009081526004602052604090205460ff1615156001145b620018295760405162461bcd60e51b8152600401620008c190620032e1565b80620018495760405162461bcd60e51b8152600401620008c19062003322565b60005b81811015620018eb578282828181106200186a576200186a62003359565b905060200201602081019062001881919062002c98565b6001600160a01b031663bd95ff136040518163ffffffff1660e01b8152600401600060405180830381600087803b158015620018bc57600080fd5b505af1158015620018d1573d6000803e3d6000fd5b505050508080620018e29062003385565b9150506200184c565b507f3c3bf9b3ca7eb42afe7cc26bab63bbb5b0c2542714bb57d0e28eda616e4f4d2f82826040516200191f92919062003444565b60405180910390a15050565b6000546001600160a01b03163314806200195957503360009081526004602052604090205460ff1615156001145b620019785760405162461bcd60e51b8152600401620008c190620032e1565b60058190556040518181527fa318485d4b7a387f0695a0179248931f1d023e08844d98b4e9e34775324bceb59060200162001736565b6001600160a01b03821662001a125760405162461bcd60e51b8152602060048201526024808201527f57696e6e657220746f6b656e20616464726573732063616e6e6f74206265207a60448201526332b9379760e11b6064820152608401620008c1565b6000829050336001600160a01b0316816001600160a01b0316638da5cb5b6040518163ffffffff1660e01b815260040160206040518083038186803b15801562001a5b57600080fd5b505afa15801562001a70573d6000803e3d6000fd5b505050506040513d601f19601f8201168201806040525081019062001a9691906200340a565b6001600160a01b03161462001afc5760405162461bcd60e51b815260206004820152602560248201527f43616c6c6572206973206e6f7420746865206f776e6572206f662074686973206044820152643a37b5b2b760d91b6064820152608401620008c1565b806001600160a01b031663bf548dcb6040518163ffffffff1660e01b815260040160206040518083038186803b15801562001b3657600080fd5b505afa15801562001b4b573d6000803e3d6000fd5b505050506040513d601f19601f8201168201806040525081019062001b71919062003462565b62001bd35760405162461bcd60e51b815260206004820152602b60248201527f57696e6e657220746f6b656e206973206e6f742073657420746f20616c77617960448201526a7320747261646561626c6560a81b6064820152608401620008c1565b6040516370a0823160e01b81523060048201526001600160a01b038216906370a082319060240160206040518083038186803b15801562001c1357600080fd5b505afa15801562001c28573d6000803e3d6000fd5b505050506040513d601f19601f8201168201806040525081019062001c4e91906200342a565b1562001ca85760405162461bcd60e51b815260206004820152602260248201527f466163746f727920616c7265616479206f776e732077696e6e657220746f6b656044820152616e7360f01b6064820152608401620008c1565b604051631c6581bd60e11b8152600481018390526000906001600160a01b038316906338cb037a9060240160206040518083038186803b15801562001cec57600080fd5b505afa15801562001d01573d6000803e3d6000fd5b505050506040513d601f19601f8201168201806040525081019062001d2791906200342a565b905047811062001d995760405162461bcd60e51b815260206004820152603660248201527f466163746f727920646f6573206e6f74206861766520656e6f7567682045544860448201527520746f206d696e742077696e6e657220746f6b656e7360501b6064820152608401620008c1565b6000826001600160a01b0316828560405160240162001dba91815260200190565b60408051601f198184030181529181526020820180516001600160e01b031663140e25ad60e31b1790525162001df1919062003482565b60006040518083038185875af1925050503d806000811462001e30576040519150601f19603f3d011682016040523d82523d6000602084013e62001e35565b606091505b505090508062001e795760405162461bcd60e51b815260206004820152600e60248201526d135a5b9d1a5b99c819985a5b195960921b6044820152606401620008c1565b604080516001600160a01b0387168152602081018690527f719156b0c976eddf969dc14198efacae73081cc9fdfc866275f4097d8758e7239101620015fc565b600754600090600160a01b900460ff161562001f0c5760405162461bcd60e51b8152602060048201526011602482015270119858dd1bdc9e481a5cc81c185d5cd959607a1b6044820152606401620008c1565b60085483111562001f315760405162461bcd60e51b8152600401620008c190620034a0565b6000831162001f7a5760405162461bcd60e51b815260206004820152601460248201527304475726174696f6e2063616e6e6f7420626520360641b6044820152606401620008c1565b600062001f888442620034e4565b905060004390506000878784600760009054906101000a90046001600160a01b03166005546006548a308960405162001fc19062002bce565b62001fd599989796959493929190620034ff565b604051809103906000f08015801562001ff2573d6000803e3d6000fd5b5090506000600160008154620020089062003385565b918290555060408051610120810182526001600160a01b0380861682523360208084019182528385018f8152606085018f9052608085018b9052600754841660a086015260055460c086015260065460e086015261010085018a905260008781526003835295909520845181549085166001600160a01b0319918216178255925160018201805491909516931692909217909255925180519495509193620020b7926002850192019062002bdc565b5060608201518051620020d591600384019160209091019062002bdc565b50608082015160048281019190915560a08301516005830180546001600160a01b0319166001600160a01b0392831617905560c0840151600684015560e0840151600784015561010090930151600890920191909155908316600081815260026020526040908190208490555163f2fde38b60e01b815233928101929092529063f2fde38b90602401600060405180830381600087803b1580156200217957600080fd5b505af11580156200218e573d6000803e3d6000fd5b50505050336001600160a01b0316826001600160a01b03167fbc106d5ded04754edc9f5b84d2346c4dc37d5c4fddeed96fd5eb1286aa0732f48b8b88600760009054906101000a90046001600160a01b03166005546006548e8c604051620021fe98979695949392919062003570565b60405180910390a350979650505050505050565b600754606090600160a01b900460ff1615620022655760405162461bcd60e51b8152602060048201526011602482015270119858dd1bdc9e481a5cc81c185d5cd959607a1b6044820152606401620008c1565b6008548311156200228a5760405162461bcd60e51b8152600401620008c190620034a0565b60008311620022d35760405162461bcd60e51b815260206004820152601460248201527304475726174696f6e2063616e6e6f7420626520360641b6044820152606401620008c1565b6001855111620023385760405162461bcd60e51b815260206004820152602960248201527f4e616d6573206172726179206d7573742068617665206d6f7265207468616e206044820152680c48195b195b595b9d60ba1b6064820152608401620008c1565b8351855114620023a45760405162461bcd60e51b815260206004820152603060248201527f4e616d657320616e642073796d626f6c732061727261797320617265206e6f7460448201526f040e8d0ca40e6c2daca40d8cadccee8d60831b6064820152608401620008c1565b6000855167ffffffffffffffff811115620023c357620023c362002f86565b604051908082528060200260200182016040528015620023ed578160200160208202803683370190505b5090506000620023fe8542620034e4565b90504360005b8851811015620026e257600089828151811062002425576200242562003359565b602002602001015189838151811062002442576200244262003359565b602002602001015185600760009054906101000a90046001600160a01b03166005546006548c308a604051620024789062002bce565b6200248c99989796959493929190620034ff565b604051809103906000f080158015620024a9573d6000803e3d6000fd5b5090506000600160008154620024bf9062003385565b9190508190559050604051806101200160405280836001600160a01b03168152602001336001600160a01b031681526020018c858151811062002506576200250662003359565b602002602001015181526020018b858151811062002528576200252862003359565b60209081029190910181015182528181018890526007546001600160a01b039081166040808501919091526005546060850152600654608085015260a0909301889052600085815260038352839020845181549083166001600160a01b03199182161782558584015160018301805491909416911617909155918301518051620025b9926002850192019062002bdc565b5060608201518051620025d791600384019160209091019062002bdc565b50608082015160048281019190915560a08301516005830180546001600160a01b0319166001600160a01b0392831617905560c0840151600684015560e0840151600784015561010090930151600890920191909155908316600081815260026020526040908190208490555163f2fde38b60e01b815233928101929092529063f2fde38b90602401600060405180830381600087803b1580156200267b57600080fd5b505af115801562002690573d6000803e3d6000fd5b5050505081868481518110620026aa57620026aa62003359565b60200260200101906001600160a01b031690816001600160a01b03168152505050508080620026d99062003385565b91505062002404565b5060075460055460065460405133937f390c409004dec21850751d2f320954a8c2de04dfcc7c0ca863dea42de7376d4793620027399389938f938f938b936001600160a01b03909216929091908f908c9062003631565b60405180910390a250909695505050505050565b6000546001600160a01b03163314806200277b57503360009081526004602052604090205460ff1615156001145b6200279a5760405162461bcd60e51b8152600401620008c190620032e1565b60008111620027ec5760405162461bcd60e51b815260206004820152601860248201527f4d6178206475726174696f6e2063616e6e6f74206265203000000000000000006044820152606401620008c1565b60088190556040518181527fba0716ba1ee2ea8ecc4c64119b4537cdb42a99d82acf92af5b87607b8b5235529060200162001736565b6003602052600090815260409020805460018201546002830180546001600160a01b039384169492909316926200285990620032a4565b80601f01602080910402602001604051908101604052809291908181526020018280546200288790620032a4565b8015620028d85780601f10620028ac57610100808354040283529160200191620028d8565b820191906000526020600020905b815481529060010190602001808311620028ba57829003601f168201915b505050505090806003018054620028ef90620032a4565b80601f01602080910402602001604051908101604052809291908181526020018280546200291d90620032a4565b80156200296e5780601f1062002942576101008083540402835291602001916200296e565b820191906000526020600020905b8154815290600101906020018083116200295057829003601f168201915b5050506004840154600585015460068601546007870154600890970154959692956001600160a01b039092169450925089565b620029ab62002b22565b6001600160a01b03811662002a125760405162461bcd60e51b815260206004820152602660248201527f4f776e61626c653a206e6577206f776e657220697320746865207a65726f206160448201526564647265737360d01b6064820152608401620008c1565b62002a1d8162002b7e565b50565b6000546001600160a01b031633148062002a4e57503360009081526004602052604090205460ff1615156001145b62002a6d5760405162461bcd60e51b8152600401620008c190620032e1565b6001600160a01b03811662002ad85760405162461bcd60e51b815260206004820152602a60248201527f4665652064657374696e6174696f6e2063616e6e6f7420626520746865207a65604482015269726f206164647265737360b01b6064820152608401620008c1565b600780546001600160a01b0319166001600160a01b0383169081179091556040517f262538484f9e0f43acdcef80a543c1aecfc0b210b993fd3d09bd77ee95b9d34490600090a250565b6000546001600160a01b03163314620017575760405162461bcd60e51b815260206004820181905260248201527f4f776e61626c653a2063616c6c6572206973206e6f7420746865206f776e65726044820152606401620008c1565b600080546001600160a01b038381166001600160a01b0319831681178455604051919092169283917f8be0079c531659141344cd1fd0a4f28419497f9722a3daafe3b4186f6b6457e09190a35050565b61251f80620036b283390190565b82805462002bea90620032a4565b90600052602060002090601f01602090048101928262002c0e576000855562002c59565b82601f1062002c2957805160ff191683800117855562002c59565b8280016001018555821562002c59579182015b8281111562002c5957825182559160200191906001019062002c3c565b5062002c6792915062002c6b565b5090565b5b8082111562002c67576000815560010162002c6c565b6001600160a01b038116811462002a1d57600080fd5b60006020828403121562002cab57600080fd5b813562002cb88162002c82565b9392505050565b60005b8381101562002cdc57818101518382015260200162002cc2565b8381111562002cec576000848401525b50505050565b6000815180845262002d0c81602086016020860162002cbf565b601f01601f19169290920160200192915050565b6020815262002d3b6020820183516001600160a01b03169052565b6000602083015162002d5860408401826001600160a01b03169052565b50604083015161012080606085015262002d7761014085018362002cf2565b91506060850151601f1985840301608086015262002d96838262002cf2565b925050608085015160a085015260a085015162002dbe60c08601826001600160a01b03169052565b5060c085015160e085015260e0850151610100818187015280870151838701525050508091505092915050565b60008083601f84011262002dfe57600080fd5b50813567ffffffffffffffff81111562002e1757600080fd5b6020830191508360208260051b850101111562002e3357600080fd5b9250929050565b60008060006040848603121562002e5057600080fd5b83359250602084013567ffffffffffffffff81111562002e6f57600080fd5b62002e7d8682870162002deb565b9497909650939450505050565b6000806020838503121562002e9e57600080fd5b823567ffffffffffffffff81111562002eb657600080fd5b62002ec48582860162002deb565b90969095509350505050565b801515811462002a1d57600080fd5b6000806040838503121562002ef357600080fd5b823562002f008162002c82565b9150602083013562002f128162002ed0565b809150509250929050565b60006020828403121562002f3057600080fd5b813562002cb88162002ed0565b60006020828403121562002f5057600080fd5b5035919050565b6000806040838503121562002f6b57600080fd5b823562002f788162002c82565b946020939093013593505050565b634e487b7160e01b600052604160045260246000fd5b604051601f8201601f1916810167ffffffffffffffff8111828210171562002fc85762002fc862002f86565b604052919050565b600082601f83011262002fe257600080fd5b813567ffffffffffffffff81111562002fff5762002fff62002f86565b62003014601f8201601f191660200162002f9c565b8181528460208386010111156200302a57600080fd5b816020850160208301376000918101602001919091529392505050565b600080600080608085870312156200305e57600080fd5b843567ffffffffffffffff808211156200307757600080fd5b620030858883890162002fd0565b955060208701359150808211156200309c57600080fd5b50620030ab8782880162002fd0565b949794965050505060408301359260600135919050565b600082601f830112620030d457600080fd5b8135602067ffffffffffffffff80831115620030f457620030f462002f86565b8260051b6200310583820162002f9c565b93845285810183019383810190888611156200312057600080fd5b84880192505b858310156200316157823584811115620031405760008081fd5b620031508a87838c010162002fd0565b835250918401919084019062003126565b98975050505050505050565b600080600080608085870312156200318457600080fd5b843567ffffffffffffffff808211156200319d57600080fd5b620031ab88838901620030c2565b95506020870135915080821115620031c257600080fd5b50620030ab87828801620030c2565b600081518084526020808501945080840160005b838110156200320c5781516001600160a01b031687529582019590820190600101620031e5565b509495945050505050565b60208152600062002cb86020830184620031d1565b6001600160a01b038a811682528981166020830152610120604083018190526000916200325c8483018c62002cf2565b9150838203606085015262003272828b62002cf2565b60808501999099529690961660a08301525060c081019390935260e08301919091526101009091015250949350505050565b600181811c90821680620032b957607f821691505b60208210811415620032db57634e487b7160e01b600052602260045260246000fd5b50919050565b60208082526021908201527f43616c6c6572206973206e656974686572206f776e6572206e6f722061646d696040820152603760f91b606082015260800190565b6020808252601e908201527f546f6b656e2061646472657373657320617272617920697320656d7074790000604082015260600190565b634e487b7160e01b600052603260045260246000fd5b634e487b7160e01b600052601160045260246000fd5b60006000198214156200339c576200339c6200336f565b5060010190565b8183526000602080850194508260005b858110156200320c578135620033c98162002c82565b6001600160a01b031687529582019590820190600101620033b3565b83815260406020820152600062003401604083018486620033a3565b95945050505050565b6000602082840312156200341d57600080fd5b815162002cb88162002c82565b6000602082840312156200343d57600080fd5b5051919050565b6020815260006200345a602083018486620033a3565b949350505050565b6000602082840312156200347557600080fd5b815162002cb88162002ed0565b600082516200349681846020870162002cbf565b9190910192915050565b60208082526024908201527f4475726174696f6e206973206c6f6e676572207468616e206d617820647572616040820152633a34b7b760e11b606082015260800190565b60008219821115620034fa57620034fa6200336f565b500190565b6000610120808352620035158184018d62002cf2565b905082810360208401526200352b818c62002cf2565b604084019a909a5250506001600160a01b039687166060820152608081019590955260a085019390935260c084019190915290921660e0820152610100015292915050565b6000610100808352620035868184018c62002cf2565b905082810360208401526200359c818b62002cf2565b604084019990995250506001600160a01b03959095166060860152608085019390935260a084019190915260c083015260e09091015292915050565b600081518084526020808501808196508360051b8101915082860160005b85811015620036245782840389526200361184835162002cf2565b98850198935090840190600101620035f6565b5091979650505050505050565b6000610120808352620036478184018d620031d1565b905082810360208401526200365d818c620035d8565b9050828103604084015262003673818b620035d8565b606084019990995250506001600160a01b0395909516608086015260a085019390935260c084019190915260e083015261010090910152939250505056fe60806040523480156200001157600080fd5b506040516200251f3803806200251f833981016040819052620000349162000334565b8851899089906200004d906003906020850190620001a4565b50805162000063906004906020840190620001a4565b505050620000806200007a6200014e60201b60201c565b62000152565b60016006556001600160a01b038616620000f35760405162461bcd60e51b815260206004820152602a60248201527f4665652064657374696e6174696f6e2063616e6e6f7420626520746865207a65604482015269726f206164647265737360b01b606482015260840160405180910390fd5b600b96909655600993909355600a91909155600880546001600160a01b039485166001600160a01b031991821617909155600c9190915560078054929093169116179055600f805461ffff19169055600e5550620004319050565b3390565b600580546001600160a01b038381166001600160a01b0319831681179093556040519116919082907f8be0079c531659141344cd1fd0a4f28419497f9722a3daafe3b4186f6b6457e090600090a35050565b828054620001b290620003f4565b90600052602060002090601f016020900481019282620001d6576000855562000221565b82601f10620001f157805160ff191683800117855562000221565b8280016001018555821562000221579182015b828111156200022157825182559160200191906001019062000204565b506200022f92915062000233565b5090565b5b808211156200022f576000815560010162000234565b634e487b7160e01b600052604160045260246000fd5b600082601f8301126200027257600080fd5b81516001600160401b03808211156200028f576200028f6200024a565b604051601f8301601f19908116603f01168101908282118183101715620002ba57620002ba6200024a565b81604052838152602092508683858801011115620002d757600080fd5b600091505b83821015620002fb5785820183015181830184015290820190620002dc565b838211156200030d5760008385830101525b9695505050505050565b80516001600160a01b03811681146200032f57600080fd5b919050565b60008060008060008060008060006101208a8c0312156200035457600080fd5b89516001600160401b03808211156200036c57600080fd5b6200037a8d838e0162000260565b9a5060208c01519150808211156200039157600080fd5b50620003a08c828d0162000260565b98505060408a01519650620003b860608b0162000317565b955060808a0151945060a08a0151935060c08a01519250620003dd60e08b0162000317565b91506101008a015190509295985092959850929598565b600181811c908216806200040957607f821691505b602082108114156200042b57634e487b7160e01b600052602260045260246000fd5b50919050565b6120de80620004416000396000f3fe6080604052600436106102255760003560e01c80638da5cb5b11610123578063bd95ff13116100ab578063dd62ed3e1161006f578063dd62ed3e14610619578063f2fde38b14610639578063f46d932414610659578063f9a948d71461066f578063fba7cc791461068957600080fd5b8063bd95ff131461058f578063bf548dcb146105a4578063c5a1d5e2146105c3578063d6e6eb9f146105e3578063d7e89466146105f957600080fd5b8063a0712d68116100f2578063a0712d6814610510578063a457c2d714610523578063a85adeab14610543578063a9059cbb14610559578063b434b9971461057957600080fd5b80638da5cb5b1461049d57806395d89b41146104bb578063966dae0e146104d057806398aaeec1146104f057600080fd5b8063313ce567116101b15780634ce7957c116101755780634ce7957c146103e4578063683792251461041c57806370a0823114610432578063715018a6146104685780637714671b1461047d57600080fd5b8063313ce5671461034857806338cb037a14610364578063395093511461038457806342966c68146103a45780634768e885146103c457600080fd5b806318160ddd116101f857806318160ddd146102bb5780631bf30929146102d057806323b872dd146102e657806327de8f2714610306578063291d2ffd1461032657600080fd5b806306fdde031461022a578063095ea7b3146102555780630b00e8f41461028557806312065fe0146102a8575b600080fd5b34801561023657600080fd5b5061023f6106a0565b60405161024c9190611e3d565b60405180910390f35b34801561026157600080fd5b50610275610270366004611ea7565b610732565b604051901515815260200161024c565b34801561029157600080fd5b5061029a61074a565b60405190815260200161024c565b3480156102b457600080fd5b504761029a565b3480156102c757600080fd5b5060025461029a565b3480156102dc57600080fd5b5061029a600e5481565b3480156102f257600080fd5b50610275610301366004611ed3565b6108ca565b34801561031257600080fd5b5061029a610321366004611f14565b6108ee565b34801561033257600080fd5b50610346610341366004611f14565b61092c565b005b34801561035457600080fd5b506040516000815260200161024c565b34801561037057600080fd5b5061029a61037f366004611f14565b6109e7565b34801561039057600080fd5b5061027561039f366004611ea7565b610a84565b3480156103b057600080fd5b506103466103bf366004611f14565b610aa6565b3480156103d057600080fd5b5061029a6103df366004611f14565b610dad565b3480156103f057600080fd5b50600854610404906001600160a01b031681565b6040516001600160a01b03909116815260200161024c565b34801561042857600080fd5b5061029a600c5481565b34801561043e57600080fd5b5061029a61044d366004611f2d565b6001600160a01b031660009081526020819052604090205490565b34801561047457600080fd5b50610346610df6565b34801561048957600080fd5b50610346610498366004611f14565b610e0a565b3480156104a957600080fd5b506005546001600160a01b0316610404565b3480156104c757600080fd5b5061023f610f59565b3480156104dc57600080fd5b50600754610404906001600160a01b031681565b3480156104fc57600080fd5b5061034661050b366004611f2d565b610f68565b61034661051e366004611f14565b6111ca565b34801561052f57600080fd5b5061027561053e366004611ea7565b611541565b34801561054f57600080fd5b5061029a600b5481565b34801561056557600080fd5b50610275610574366004611ea7565b6115bc565b34801561058557600080fd5b5061029a600d5481565b34801561059b57600080fd5b506103466115ca565b3480156105b057600080fd5b50600f5461027590610100900460ff1681565b3480156105cf57600080fd5b5061029a6105de366004611f14565b61166c565b3480156105ef57600080fd5b5061029a60095481565b34801561060557600080fd5b5061029a610614366004611f14565b61173e565b34801561062557600080fd5b5061029a610634366004611f51565b61176a565b34801561064557600080fd5b50610346610654366004611f2d565b611795565b34801561066557600080fd5b5061029a600a5481565b34801561067b57600080fd5b50600f546102759060ff1681565b34801561069557600080fd5b50600b544210610275565b6060600380546106af90611f8a565b80601f01602080910402602001604051908101604052809291908181526020018280546106db90611f8a565b80156107285780601f106106fd57610100808354040283529160200191610728565b820191906000526020600020905b81548152906001019060200180831161070b57829003601f168201915b5050505050905090565b60003361074081858561180b565b5060019392505050565b6000610754611930565b6007546001600160a01b031633146107c45760405162461bcd60e51b815260206004820152602860248201527f4f6e6c792074686520666163746f72792063616e207472616e73666572206c6960448201526738bab4b234ba3c9760c11b60648201526084015b60405180910390fd5b600047116108205760405162461bcd60e51b815260206004820152602360248201527f4e6f206c697175696469747920617661696c61626c6520746f207472616e736660448201526232b91760e91b60648201526084016107bb565b60075460405147916000916001600160a01b039091169083908381818185875af1925050503d8060008114610871576040519150601f19603f3d011682016040523d82523d6000602084013e610876565b606091505b50509050806108ba5760405162461bcd60e51b815260206004820152601060248201526f2a3930b739b332b9103330b4b632b21760811b60448201526064016107bb565b5090506108c76001600655565b90565b6000336108d885828561198a565b6108e3858585611a04565b506001949350505050565b6000806108fd6103df60025490565b905060006109188461090e60025490565b6103df9190611fdb565b90506109248282611ff3565b949350505050565b6007546001600160a01b0316331461099e5760405162461bcd60e51b815260206004820152602f60248201527f4f6e6c792074686520666163746f72792063616e20696e63726561736520746860448201526e06520656e642074696d657374616d7608c1b60648201526084016107bb565b80600b60008282546109b09190611fdb565b9091555050600b546040513091907faeed863ef6927b5b0db604d19eae13d8517de3c69c67d848a9cac7e591ba3ebc90600090a350565b6000806109f66103df60025490565b90506000610a078461090e60025490565b90506000610a158383611ff3565b90506000670de0b6b3a764000060095483610a30919061200a565b610a3a9190612029565b90506000670de0b6b3a7640000600a5484610a55919061200a565b610a5f9190612029565b9050600081610a6e8486611fdb565b610a789190611fdb565b98975050505050505050565b600033610740818585610a97838361176a565b610aa19190611fdb565b61180b565b600b5442111580610abe5750600f54610100900460ff165b610ada5760405162461bcd60e51b81526004016107bb9061204b565b33600090815260208190526040902054811115610b2557336000908152602081905260409020546040516302cf7de960e51b81526004810191909152602481018290526044016107bb565b6000610b308261173e565b90506000670de0b6b3a764000060095483610b4b919061200a565b610b559190612029565b90506000670de0b6b3a7640000600a5484610b70919061200a565b610b7a9190612029565b9050610b863385611ba8565b60003382610b948587611ff3565b610b9e9190611ff3565b604051600081818185875af1925050503d8060008114610bda576040519150601f19603f3d011682016040523d82523d6000602084013e610bdf565b606091505b5050905080610c28573382610bf48587611ff3565b610bfe9190611ff3565b60405163163528f160e11b81526001600160a01b03909216600483015260248201526044016107bb565b6008546040516000916001600160a01b03169085908381818185875af1925050503d8060008114610c75576040519150601f19603f3d011682016040523d82523d6000602084013e610c7a565b606091505b505090506000610c926005546001600160a01b031690565b6001600160a01b03168460405160006040518083038185875af1925050503d8060008114610cdc576040519150601f19603f3d011682016040523d82523d6000602084013e610ce1565b606091505b50509050818015610cef5750805b610d325760405162461bcd60e51b8152602060048201526014602482015273556e61626c6520746f2073656e642066756e647360601b60448201526064016107bb565b30610d456005546001600160a01b031690565b6001600160a01b0316337fce895f9022611c377bd008e8200117dd0b50bfbace728d659258dd9a6013d0128a610d7a60025490565b600954600a546040805194855260208501939093529183015260608201526080015b60405180910390a450505050505050565b60006006610dbc83600261200a565b610dc7906001611fdb565b610dd2846001611fdb565b610ddc908561200a565b610de6919061200a565b610df09190612029565b92915050565b610dfe611cd2565b610e086000611d2c565b565b6007546001600160a01b0316331480610e2d57506005546001600160a01b031633145b610e985760405162461bcd60e51b815260206004820152603660248201527f4f6e6c792074686520666163746f7279206f7220746865206f776e65722063616044820152751b881d5c19185d19481d1a19481d1a1c995cda1bdb1960521b60648201526084016107bb565b600c548111610f0f5760405162461bcd60e51b815260206004820152603860248201527f4e6577207468726573686f6c64206d757374206265206772656174657220746860448201527f616e207468652063757272656e74207468726573686f6c64000000000000000060648201526084016107bb565b600f805460ff19169055600c81905560405160008152309082907fe2101cb638a06a54be2736bd09858f73a7a0ee4e0c447278a57605b00949f7679060200160405180910390a350565b6060600480546106af90611f8a565b610f70611cd2565b600b5442118015610f895750600f54610100900460ff16155b610ff45760405162461bcd60e51b815260206004820152603660248201527f41637469766520706861736520686173206e6f7420656e646564206f7220746f6044820152756b656e206973207374696c6c20747261646561626c6560501b60648201526084016107bb565b610ffc611930565b478061104a5760405162461bcd60e51b815260206004820152601a60248201527f4e6f2066756e647320617661696c61626c6520746f2073656e6400000000000060448201526064016107bb565b6000670de0b6b3a764000060095483611063919061200a565b61106d9190612029565b905060006001600160a01b0384166110858385611ff3565b604051600081818185875af1925050503d80600081146110c1576040519150601f19603f3d011682016040523d82523d6000602084013e6110c6565b606091505b50506008546040519192506000916001600160a01b039091169084908381818185875af1925050503d806000811461111a576040519150601f19603f3d011682016040523d82523d6000602084013e61111f565b606091505b5050905081801561112d5750805b6111795760405162461bcd60e51b815260206004820152601860248201527f4661696c656420746f207472616e736665722066756e6473000000000000000060448201526064016107bb565b6040518481526001600160a01b0386169033907fbd64a7339a20ec918731255da9a658675eeb91e9c4d3138a1d3f0989903166ff9060200160405180910390a3505050506111c76001600655565b50565b600b54421115806111e25750600f54610100900460ff165b6111fe5760405162461bcd60e51b81526004016107bb9061204b565b6000611209826108ee565b90506000670de0b6b3a764000060095483611224919061200a565b61122e9190612029565b90506000670de0b6b3a7640000600a5484611249919061200a565b6112539190612029565b90506000816112628486611fdb565b61126c9190611fdb565b90508034101561129857604051631c102d6360e21b8152600481018290523460248201526044016107bb565b6112a23386611d7e565b600d5460025411156112b557600254600d555b600c54600254101580156112cc5750600f5460ff16155b80156112da57506000600c54115b1561133a5762015180600b60008282546112f49190611fdb565b9091555050600f805460ff19166001179055600c54600b54604051309291907f9d714703c18ca96215bcef19b6ff93fa22fed971bf55d30439252e129ed1636c90600090a45b803411156113a65760003361134f8334611ff3565b604051600081818185875af1925050503d806000811461138b576040519150601f19603f3d011682016040523d82523d6000602084013e611390565b606091505b50509050806113a45733610bfe8334611ff3565b505b6008546040516000916001600160a01b03169085908381818185875af1925050503d80600081146113f3576040519150601f19603f3d011682016040523d82523d6000602084013e6113f8565b606091505b5050905060006114106005546001600160a01b031690565b6001600160a01b03168460405160006040518083038185875af1925050503d806000811461145a576040519150601f19603f3d011682016040523d82523d6000602084013e61145f565b606091505b5050905081801561146d5750805b6114b05760405162461bcd60e51b8152602060048201526014602482015273556e61626c6520746f2073656e642066756e647360601b60448201526064016107bb565b306114c36005546001600160a01b031690565b6001600160a01b0316337fbb850871da8879d5c7053c36697bf401a909d0ab9b5eeebb336bec17dc405ded8a6114f860025490565b600954600a54600b54600f54600d54604080519788526020880196909652948601939093526060850191909152608084015260ff16151560a083015260c082015260e001610d9c565b6000338161154f828661176a565b9050838110156115af5760405162461bcd60e51b815260206004820152602560248201527f45524332303a2064656372656173656420616c6c6f77616e63652062656c6f77604482015264207a65726f60d81b60648201526084016107bb565b6108e3828686840361180b565b600033610740818585611a04565b6007546001600160a01b031633146116305760405162461bcd60e51b815260206004820152602360248201527f4f6e6c792074686520666163746f72792063616e2073657420746869732076616044820152626c756560e81b60648201526084016107bb565b600f805461ff00191661010017905560405130907f10317c7e70860b246d2a18496eaf094f8a43095653d300e4528c5774c542936690600090a2565b600061167760025490565b82111561168657506000919050565b60006116946103df60025490565b905060006116af846116a560025490565b6103df9190611ff3565b905060006116bd8284611ff3565b90506000670de0b6b3a7640000600954836116d8919061200a565b6116e29190612029565b90506000670de0b6b3a7640000600a54846116fd919061200a565b6117079190612029565b90506117138183611fdb565b831015611727575060009695505050505050565b6000816117348486611ff3565b610a789190611ff3565b60008061174d6103df60025490565b9050600061175e846116a560025490565b90506109248183611ff3565b6001600160a01b03918216600090815260016020908152604080832093909416825291909152205490565b61179d611cd2565b6001600160a01b0381166118025760405162461bcd60e51b815260206004820152602660248201527f4f776e61626c653a206e6577206f776e657220697320746865207a65726f206160448201526564647265737360d01b60648201526084016107bb565b6111c781611d2c565b6001600160a01b03831661186d5760405162461bcd60e51b8152602060048201526024808201527f45524332303a20617070726f76652066726f6d20746865207a65726f206164646044820152637265737360e01b60648201526084016107bb565b6001600160a01b0382166118ce5760405162461bcd60e51b815260206004820152602260248201527f45524332303a20617070726f766520746f20746865207a65726f206164647265604482015261737360f01b60648201526084016107bb565b6001600160a01b0383811660008181526001602090815260408083209487168084529482529182902085905590518481527f8c5be1e5ebec7d5bd14f71427d1e84f3dd0314c0f7b2291e5b200ac8c7c3b92591015b60405180910390a3505050565b600260065414156119835760405162461bcd60e51b815260206004820152601f60248201527f5265656e7472616e637947756172643a207265656e7472616e742063616c6c0060448201526064016107bb565b6002600655565b6000611996848461176a565b905060001981146119fe57818110156119f15760405162461bcd60e51b815260206004820152601d60248201527f45524332303a20696e73756666696369656e7420616c6c6f77616e636500000060448201526064016107bb565b6119fe848484840361180b565b50505050565b6001600160a01b038316611a685760405162461bcd60e51b815260206004820152602560248201527f45524332303a207472616e736665722066726f6d20746865207a65726f206164604482015264647265737360d81b60648201526084016107bb565b6001600160a01b038216611aca5760405162461bcd60e51b815260206004820152602360248201527f45524332303a207472616e7366657220746f20746865207a65726f206164647260448201526265737360e81b60648201526084016107bb565b6001600160a01b03831660009081526020819052604090205481811015611b425760405162461bcd60e51b815260206004820152602660248201527f45524332303a207472616e7366657220616d6f756e7420657863656564732062604482015265616c616e636560d01b60648201526084016107bb565b6001600160a01b03848116600081815260208181526040808320878703905593871680835291849020805487019055925185815290927fddf252ad1be2c89b69c2b068fc378daa952ba7f163c4a11628f55a4df523b3ef910160405180910390a36119fe565b6001600160a01b038216611c085760405162461bcd60e51b815260206004820152602160248201527f45524332303a206275726e2066726f6d20746865207a65726f206164647265736044820152607360f81b60648201526084016107bb565b6001600160a01b03821660009081526020819052604090205481811015611c7c5760405162461bcd60e51b815260206004820152602260248201527f45524332303a206275726e20616d6f756e7420657863656564732062616c616e604482015261636560f01b60648201526084016107bb565b6001600160a01b0383166000818152602081815260408083208686039055600280548790039055518581529192917fddf252ad1be2c89b69c2b068fc378daa952ba7f163c4a11628f55a4df523b3ef9101611923565b6005546001600160a01b03163314610e085760405162461bcd60e51b815260206004820181905260248201527f4f776e61626c653a2063616c6c6572206973206e6f7420746865206f776e657260448201526064016107bb565b600580546001600160a01b038381166001600160a01b0319831681179093556040519116919082907f8be0079c531659141344cd1fd0a4f28419497f9722a3daafe3b4186f6b6457e090600090a35050565b6001600160a01b038216611dd45760405162461bcd60e51b815260206004820152601f60248201527f45524332303a206d696e7420746f20746865207a65726f20616464726573730060448201526064016107bb565b8060026000828254611de69190611fdb565b90915550506001600160a01b038216600081815260208181526040808320805486019055518481527fddf252ad1be2c89b69c2b068fc378daa952ba7f163c4a11628f55a4df523b3ef910160405180910390a35050565b600060208083528351808285015260005b81811015611e6a57858101830151858201604001528201611e4e565b81811115611e7c576000604083870101525b50601f01601f1916929092016040019392505050565b6001600160a01b03811681146111c757600080fd5b60008060408385031215611eba57600080fd5b8235611ec581611e92565b946020939093013593505050565b600080600060608486031215611ee857600080fd5b8335611ef381611e92565b92506020840135611f0381611e92565b929592945050506040919091013590565b600060208284031215611f2657600080fd5b5035919050565b600060208284031215611f3f57600080fd5b8135611f4a81611e92565b9392505050565b60008060408385031215611f6457600080fd5b8235611f6f81611e92565b91506020830135611f7f81611e92565b809150509250929050565b600181811c90821680611f9e57607f821691505b60208210811415611fbf57634e487b7160e01b600052602260045260246000fd5b50919050565b634e487b7160e01b600052601160045260246000fd5b60008219821115611fee57611fee611fc5565b500190565b60008282101561200557612005611fc5565b500390565b600081600019048311821515161561202457612024611fc5565b500290565b60008261204657634e487b7160e01b600052601260045260246000fd5b500490565b60208082526037908201527f4163746976652070686173652068617320656e64656420616e6420746f6b656e60408201527f206973206e6f206c6f6e67657220747261646561626c6500000000000000000060608201526080019056fea264697066735822122093883baa7078e4b87b438bcf9c4e8c2cc50582142f77a7a2f14732a48726889764736f6c63430008080033a2646970667358221220842c2b94dbe6334f8349c6ef6603821ec4fade02dfaad9f1ab9c23c43905ec9264736f6c63430008080033",
  "devdoc": {
    "kind": "dev",
    "methods": {
      "createMultipleTempTokens(string[],string[],uint256,uint256)": {
        "details": "createMultipleTempTokens is a function to create multiple TempTokens.names is the array of names for the tokenssymbols is the array of symbols for the tokensduration is the duration in seconds for the lifespan of the TempTokens.totalSupplyThreshold is the total supply needed for the token to convert from a TempToken into a normal, permanent token. Enter 0 if you don't want to set a threshold.The function returns the addresses of the new TempTokens."
      },
      "createTempToken(string,string,uint256,uint256)": {
        "details": "createTempToken is a function to create a new TempToken.name is the name of the token.symbol is the symbol of the token.duration is the duration in seconds for the lifespan of the TempToken.The function returns the address of the new TempToken."
      },
      "getTokenInfo(address)": {
        "details": "getTokenInfo is a function to get the TokenInfo struct of a deployed token.tokenAddress is the address of the deployed token.The function returns the TokenInfo struct of the deployed token."
      },
      "increaseEndTimestampForTokens(uint256,address[])": {
        "details": "This function is used to increase the end timestamp for tokens, only callable by owner, _tokenAddressses array must be defined"
      },
      "mintWinnerTokens(address,uint256)": {
        "details": "mintWinnerTokens is a function that mints the winner tokens.  This factory does not have a burn function to bring the price down,  this ensures the token's supply has a fixed offset."
      },
      "owner()": {
        "details": "Returns the address of the current owner."
      },
      "renounceOwnership()": {
        "details": "Leaves the contract without owner. It will not be possible to call `onlyOwner` functions anymore. Can only be called by the current owner. NOTE: Renouncing ownership will leave the contract without an owner, thereby removing any functionality that is only available to the owner."
      },
      "setAlwaysTradeableForTokens(address[])": {
        "details": "This function is used to set the always tradeable flag for tokens, only callable by owner, _tokenAddressses array must be defined"
      },
      "setFeeDestination(address)": {
        "details": "The following functions are used to set the default protocol fee destination,  protocol fee percentage, streamer fee percentage, pause the factory, set total supply threshold, and set the max duration.These functions are only callable by the owner of the factory."
      },
      "setTotalSupplyThresholdForTokens(uint256,address[])": {
        "details": "The following functions are used to set the total supply threshold for tokens,  increase the end timestamp for tokens, set the max duration, and pause the factory.These functions are only callable by the owner or an admin of the factory.This function is used to set the total supply threshold for this factory and tokens, only callable by owner, _tokenAddressses array does not need to be defined"
      },
      "setWinningTokenTradeableAndTransferLiquidity(address[])": {
        "details": "setWinningTokenTradeableAndTransferLiquidity is a function to set the winning token as tradeable and transfer all liquidity (if any)  from the losing token to the factory."
      },
      "transferOwnership(address)": {
        "details": "Transfers ownership of the contract to a new account (`newOwner`). Can only be called by the current owner."
      }
    },
    "stateVariables": {
      "admins": {
        "details": "admins is a mapping of addresses to a boolean value. If the boolean value is true, the address is an admin. If the boolean value is false, the address is not an admin."
      },
      "defaultProtocolFeePercent": {
        "details": "defaultProtocolFeePercent is the default protocol fee percentage. ex: 2% = 2 * 10**16 = 20000000000000000.defaultStreamerFeePercent is the default streamer fee percentage. ex: 2% = 2 * 10**16 = 20000000000000000.defaultProtocolFeeDestination is the default protocol fee destination address.isPaused is a boolean to pause the token creation function.maxDuration is the max duration in seconds for the lifespan of the TempToken.totalSupplyThreshold is the total supply needed for the token to increase its lifespan by 24 hours.  This total supply will be adjusted by us depending on various factors. The goal of each TempToken is to have hit this threshold by the time the duration has expired. IT'S A GAME."
      },
      "numDeployedTokens": {
        "details": "numDeployedTokens is the number of deployed tokens.deployedTokenIndices is a mapping of token addresses to their assigned index.deployedTokens is a mapping of token indices to TokenInfo structs."
      }
    },
    "version": 1
  },
  "userdoc": {
    "kind": "user",
    "methods": {
      "mintWinnerTokens(address,uint256)": {
        "notice": "VERSUS mode only (these functions are called on tokens that compete against each other instead of trying to reach a threshold)"
      },
      "setWinningTokenTradeableAndTransferLiquidity(address[])": {
        "notice": "VERSUS mode only (these functions are called on tokens that compete against each other instead of trying to reach a threshold)"
      }
    },
    "version": 1
  },
  "storageLayout": {
    "storage": [
      {
        "astId": 7,
        "contract": "contracts/TempTokenFactoryV1.sol:TempTokenFactoryV1",
        "label": "_owner",
        "offset": 0,
        "slot": "0",
        "type": "t_address"
      },
      {
        "astId": 906,
        "contract": "contracts/TempTokenFactoryV1.sol:TempTokenFactoryV1",
        "label": "numDeployedTokens",
        "offset": 0,
        "slot": "1",
        "type": "t_uint256"
      },
      {
        "astId": 910,
        "contract": "contracts/TempTokenFactoryV1.sol:TempTokenFactoryV1",
        "label": "deployedTokenIndices",
        "offset": 0,
        "slot": "2",
        "type": "t_mapping(t_address,t_uint256)"
      },
      {
        "astId": 915,
        "contract": "contracts/TempTokenFactoryV1.sol:TempTokenFactoryV1",
        "label": "deployedTokens",
        "offset": 0,
        "slot": "3",
        "type": "t_mapping(t_uint256,t_struct(TokenInfo)903_storage)"
      },
      {
        "astId": 920,
        "contract": "contracts/TempTokenFactoryV1.sol:TempTokenFactoryV1",
        "label": "admins",
        "offset": 0,
        "slot": "4",
        "type": "t_mapping(t_address,t_bool)"
      },
      {
        "astId": 923,
        "contract": "contracts/TempTokenFactoryV1.sol:TempTokenFactoryV1",
        "label": "defaultProtocolFeePercent",
        "offset": 0,
        "slot": "5",
        "type": "t_uint256"
      },
      {
        "astId": 925,
        "contract": "contracts/TempTokenFactoryV1.sol:TempTokenFactoryV1",
        "label": "defaultStreamerFeePercent",
        "offset": 0,
        "slot": "6",
        "type": "t_uint256"
      },
      {
        "astId": 927,
        "contract": "contracts/TempTokenFactoryV1.sol:TempTokenFactoryV1",
        "label": "defaultProtocolFeeDestination",
        "offset": 0,
        "slot": "7",
        "type": "t_address"
      },
      {
        "astId": 929,
        "contract": "contracts/TempTokenFactoryV1.sol:TempTokenFactoryV1",
        "label": "isPaused",
        "offset": 20,
        "slot": "7",
        "type": "t_bool"
      },
      {
        "astId": 931,
        "contract": "contracts/TempTokenFactoryV1.sol:TempTokenFactoryV1",
        "label": "maxDuration",
        "offset": 0,
        "slot": "8",
        "type": "t_uint256"
      }
    ],
    "types": {
      "t_address": {
        "encoding": "inplace",
        "label": "address",
        "numberOfBytes": "20"
      },
      "t_bool": {
        "encoding": "inplace",
        "label": "bool",
        "numberOfBytes": "1"
      },
      "t_mapping(t_address,t_bool)": {
        "encoding": "mapping",
        "key": "t_address",
        "label": "mapping(address => bool)",
        "numberOfBytes": "32",
        "value": "t_bool"
      },
      "t_mapping(t_address,t_uint256)": {
        "encoding": "mapping",
        "key": "t_address",
        "label": "mapping(address => uint256)",
        "numberOfBytes": "32",
        "value": "t_uint256"
      },
      "t_mapping(t_uint256,t_struct(TokenInfo)903_storage)": {
        "encoding": "mapping",
        "key": "t_uint256",
        "label": "mapping(uint256 => struct TempTokenFactoryV1.TokenInfo)",
        "numberOfBytes": "32",
        "value": "t_struct(TokenInfo)903_storage"
      },
      "t_string_storage": {
        "encoding": "bytes",
        "label": "string",
        "numberOfBytes": "32"
      },
      "t_struct(TokenInfo)903_storage": {
        "encoding": "inplace",
        "label": "struct TempTokenFactoryV1.TokenInfo",
        "members": [
          {
            "astId": 886,
            "contract": "contracts/TempTokenFactoryV1.sol:TempTokenFactoryV1",
            "label": "tokenAddress",
            "offset": 0,
            "slot": "0",
            "type": "t_address"
          },
          {
            "astId": 888,
            "contract": "contracts/TempTokenFactoryV1.sol:TempTokenFactoryV1",
            "label": "ownerAddress",
            "offset": 0,
            "slot": "1",
            "type": "t_address"
          },
          {
            "astId": 890,
            "contract": "contracts/TempTokenFactoryV1.sol:TempTokenFactoryV1",
            "label": "name",
            "offset": 0,
            "slot": "2",
            "type": "t_string_storage"
          },
          {
            "astId": 892,
            "contract": "contracts/TempTokenFactoryV1.sol:TempTokenFactoryV1",
            "label": "symbol",
            "offset": 0,
            "slot": "3",
            "type": "t_string_storage"
          },
          {
            "astId": 894,
            "contract": "contracts/TempTokenFactoryV1.sol:TempTokenFactoryV1",
            "label": "endTimestamp",
            "offset": 0,
            "slot": "4",
            "type": "t_uint256"
          },
          {
            "astId": 896,
            "contract": "contracts/TempTokenFactoryV1.sol:TempTokenFactoryV1",
            "label": "protocolFeeDestination",
            "offset": 0,
            "slot": "5",
            "type": "t_address"
          },
          {
            "astId": 898,
            "contract": "contracts/TempTokenFactoryV1.sol:TempTokenFactoryV1",
            "label": "protocolFeePercent",
            "offset": 0,
            "slot": "6",
            "type": "t_uint256"
          },
          {
            "astId": 900,
            "contract": "contracts/TempTokenFactoryV1.sol:TempTokenFactoryV1",
            "label": "streamerFeePercent",
            "offset": 0,
            "slot": "7",
            "type": "t_uint256"
          },
          {
            "astId": 902,
            "contract": "contracts/TempTokenFactoryV1.sol:TempTokenFactoryV1",
            "label": "creationBlockNumber",
            "offset": 0,
            "slot": "8",
            "type": "t_uint256"
          }
        ],
        "numberOfBytes": "288"
      },
      "t_uint256": {
        "encoding": "inplace",
        "label": "uint256",
        "numberOfBytes": "32"
      }
    }
  }
}