{
  "address": "0xd941e9634De4ED1cF5250ee17606d69DE052197b",
  "abi": [
    {
      "inputs": [
        {
          "internalType": "address",
          "name": "_defaultFeeDestination",
          "type": "address"
        },
        {
          "internalType": "uint256",
          "name": "_defaultProtocolFeePercent",
          "type": "uint256"
        },
        {
          "internalType": "uint256",
          "name": "_defaultStreamerFeePercent",
          "type": "uint256"
        }
      ],
      "stateMutability": "nonpayable",
      "type": "constructor"
    },
    {
      "anonymous": false,
      "inputs": [
        {
          "indexed": false,
          "internalType": "uint256",
          "name": "duration",
          "type": "uint256"
        }
      ],
      "name": "DurationSet",
      "type": "event"
    },
    {
      "anonymous": false,
      "inputs": [
        {
          "indexed": true,
          "internalType": "address",
          "name": "feeDestination",
          "type": "address"
        }
      ],
      "name": "FeeDestinationSet",
      "type": "event"
    },
    {
      "anonymous": false,
      "inputs": [
        {
          "indexed": true,
          "internalType": "address",
          "name": "previousOwner",
          "type": "address"
        },
        {
          "indexed": true,
          "internalType": "address",
          "name": "newOwner",
          "type": "address"
        }
      ],
      "name": "OwnershipTransferred",
      "type": "event"
    },
    {
      "anonymous": false,
      "inputs": [
        {
          "indexed": false,
          "internalType": "bool",
          "name": "isPaused",
          "type": "bool"
        },
        {
          "indexed": false,
          "internalType": "uint256",
          "name": "numDeployedTokens",
          "type": "uint256"
        }
      ],
      "name": "PauseFactorySet",
      "type": "event"
    },
    {
      "anonymous": false,
      "inputs": [
        {
          "indexed": false,
          "internalType": "uint256",
          "name": "feePercent",
          "type": "uint256"
        }
      ],
      "name": "ProtocolFeePercentSet",
      "type": "event"
    },
    {
      "anonymous": false,
      "inputs": [
        {
          "indexed": false,
          "internalType": "uint256",
          "name": "feePercent",
          "type": "uint256"
        }
      ],
      "name": "StreamerFeePercentSet",
      "type": "event"
    },
    {
      "anonymous": false,
      "inputs": [
        {
          "indexed": true,
          "internalType": "address",
          "name": "tokenAddress",
          "type": "address"
        },
        {
          "indexed": true,
          "internalType": "address",
          "name": "owner",
          "type": "address"
        },
        {
          "indexed": false,
          "internalType": "string",
          "name": "name",
          "type": "string"
        },
        {
          "indexed": false,
          "internalType": "string",
          "name": "symbol",
          "type": "string"
        },
        {
          "indexed": false,
          "internalType": "uint256",
          "name": "endTimestamp",
          "type": "uint256"
        },
        {
          "indexed": false,
          "internalType": "address",
          "name": "feeDestination",
          "type": "address"
        },
        {
          "indexed": false,
          "internalType": "uint256",
          "name": "protocolFeePercent",
          "type": "uint256"
        },
        {
          "indexed": false,
          "internalType": "uint256",
          "name": "streamerFeePercent",
          "type": "uint256"
        }
      ],
      "name": "TempTokenCreated",
      "type": "event"
    },
    {
      "inputs": [
        {
          "internalType": "string",
          "name": "name",
          "type": "string"
        },
        {
          "internalType": "string",
          "name": "symbol",
          "type": "string"
        }
      ],
      "name": "createTempToken",
      "outputs": [
        {
          "internalType": "address",
          "name": "",
          "type": "address"
        }
      ],
      "stateMutability": "nonpayable",
      "type": "function"
    },
    {
      "inputs": [],
      "name": "defaultFeeDestination",
      "outputs": [
        {
          "internalType": "address",
          "name": "",
          "type": "address"
        }
      ],
      "stateMutability": "view",
      "type": "function"
    },
    {
      "inputs": [],
      "name": "defaultProtocolFeePercent",
      "outputs": [
        {
          "internalType": "uint256",
          "name": "",
          "type": "uint256"
        }
      ],
      "stateMutability": "view",
      "type": "function"
    },
    {
      "inputs": [],
      "name": "defaultStreamerFeePercent",
      "outputs": [
        {
          "internalType": "uint256",
          "name": "",
          "type": "uint256"
        }
      ],
      "stateMutability": "view",
      "type": "function"
    },
    {
      "inputs": [
        {
          "internalType": "address",
          "name": "",
          "type": "address"
        }
      ],
      "name": "deployedTokenIndices",
      "outputs": [
        {
          "internalType": "uint256",
          "name": "",
          "type": "uint256"
        }
      ],
      "stateMutability": "view",
      "type": "function"
    },
    {
      "inputs": [
        {
          "internalType": "uint256",
          "name": "",
          "type": "uint256"
        }
      ],
      "name": "deployedTokens",
      "outputs": [
        {
          "internalType": "address",
          "name": "tokenAddress",
          "type": "address"
        },
        {
          "internalType": "address",
          "name": "ownerAddress",
          "type": "address"
        },
        {
          "internalType": "uint256",
          "name": "endTimestamp",
          "type": "uint256"
        }
      ],
      "stateMutability": "view",
      "type": "function"
    },
    {
      "inputs": [],
      "name": "duration",
      "outputs": [
        {
          "internalType": "uint256",
          "name": "",
          "type": "uint256"
        }
      ],
      "stateMutability": "view",
      "type": "function"
    },
    {
      "inputs": [
        {
          "internalType": "address",
          "name": "tokenAddress",
          "type": "address"
        }
      ],
      "name": "getTokenInfo",
      "outputs": [
        {
          "components": [
            {
              "internalType": "address",
              "name": "tokenAddress",
              "type": "address"
            },
            {
              "internalType": "address",
              "name": "ownerAddress",
              "type": "address"
            },
            {
              "internalType": "uint256",
              "name": "endTimestamp",
              "type": "uint256"
            }
          ],
          "internalType": "struct TempTokenFactoryV1.TokenInfo",
          "name": "",
          "type": "tuple"
        }
      ],
      "stateMutability": "view",
      "type": "function"
    },
    {
      "inputs": [],
      "name": "isPaused",
      "outputs": [
        {
          "internalType": "bool",
          "name": "",
          "type": "bool"
        }
      ],
      "stateMutability": "view",
      "type": "function"
    },
    {
      "inputs": [],
      "name": "numDeployedTokens",
      "outputs": [
        {
          "internalType": "uint256",
          "name": "",
          "type": "uint256"
        }
      ],
      "stateMutability": "view",
      "type": "function"
    },
    {
      "inputs": [],
      "name": "owner",
      "outputs": [
        {
          "internalType": "address",
          "name": "",
          "type": "address"
        }
      ],
      "stateMutability": "view",
      "type": "function"
    },
    {
      "inputs": [],
      "name": "renounceOwnership",
      "outputs": [],
      "stateMutability": "nonpayable",
      "type": "function"
    },
    {
      "inputs": [
        {
          "internalType": "uint256",
          "name": "_duration",
          "type": "uint256"
        }
      ],
      "name": "setDuration",
      "outputs": [],
      "stateMutability": "nonpayable",
      "type": "function"
    },
    {
      "inputs": [
        {
          "internalType": "address",
          "name": "_feeDestination",
          "type": "address"
        }
      ],
      "name": "setFeeDestination",
      "outputs": [],
      "stateMutability": "nonpayable",
      "type": "function"
    },
    {
      "inputs": [
        {
          "internalType": "bool",
          "name": "_isPaused",
          "type": "bool"
        }
      ],
      "name": "setPauseFactory",
      "outputs": [],
      "stateMutability": "nonpayable",
      "type": "function"
    },
    {
      "inputs": [
        {
          "internalType": "uint256",
          "name": "_feePercent",
          "type": "uint256"
        }
      ],
      "name": "setProtocolFeePercent",
      "outputs": [],
      "stateMutability": "nonpayable",
      "type": "function"
    },
    {
      "inputs": [
        {
          "internalType": "uint256",
          "name": "_feePercent",
          "type": "uint256"
        }
      ],
      "name": "setStreamerFeePercent",
      "outputs": [],
      "stateMutability": "nonpayable",
      "type": "function"
    },
    {
      "inputs": [
        {
          "internalType": "address",
          "name": "newOwner",
          "type": "address"
        }
      ],
      "name": "transferOwnership",
      "outputs": [],
      "stateMutability": "nonpayable",
      "type": "function"
    }
  ],
  "transactionHash": "0x5a2357d55e8c3b936a87f69f9813d485ddf02a87a6acc455f3cf882e7adb38d1",
  "args": [
    "0x4F3d3f2F895Db524AC3944BDd17fE632473bCa4a",
    "20000000000000000",
    "20000000000000000"
  ],
  "numDeployments": 2,
  "solcInputHash": "29386bb454609011c5e25bc8e2ad28e8",
  "bytecode": "0x60806040523480156200001157600080fd5b506040516200517e3803806200517e83398181016040528101906200003791906200029c565b620000576200004b6200012b60201b60201c565b6200013360201b60201c565b600073ffffffffffffffffffffffffffffffffffffffff168373ffffffffffffffffffffffffffffffffffffffff161415620000ca576040517f08c379a0000000000000000000000000000000000000000000000000000000008152600401620000c1906200037f565b60405180910390fd5b816004819055508060058190555082600660006101000a81548173ffffffffffffffffffffffffffffffffffffffff021916908373ffffffffffffffffffffffffffffffffffffffff160217905550610e10600781905550505050620003a1565b600033905090565b60008060009054906101000a900473ffffffffffffffffffffffffffffffffffffffff169050816000806101000a81548173ffffffffffffffffffffffffffffffffffffffff021916908373ffffffffffffffffffffffffffffffffffffffff1602179055508173ffffffffffffffffffffffffffffffffffffffff168173ffffffffffffffffffffffffffffffffffffffff167f8be0079c531659141344cd1fd0a4f28419497f9722a3daafe3b4186f6b6457e060405160405180910390a35050565b600080fd5b600073ffffffffffffffffffffffffffffffffffffffff82169050919050565b60006200022982620001fc565b9050919050565b6200023b816200021c565b81146200024757600080fd5b50565b6000815190506200025b8162000230565b92915050565b6000819050919050565b620002768162000261565b81146200028257600080fd5b50565b60008151905062000296816200026b565b92915050565b600080600060608486031215620002b857620002b7620001f7565b5b6000620002c8868287016200024a565b9350506020620002db8682870162000285565b9250506040620002ee8682870162000285565b9150509250925092565b600082825260208201905092915050565b7f44656661756c74206665652064657374696e6174696f6e2063616e6e6f74206260008201527f6520746865207a65726f20616464726573730000000000000000000000000000602082015250565b600062000367603283620002f8565b9150620003748262000309565b604082019050919050565b600060208201905081810360008301526200039a8162000358565b9050919050565b614dcd80620003b16000396000f3fe60806040523480156200001157600080fd5b5060043610620001305760003560e01c8063a498342111620000b1578063d7f20549116200007b578063d7f20549146200030f578063ec81aadb1462000331578063f2fde38b1462000369578063f6be71d11462000389578063fbe5323414620003a95762000130565b8063a49834211462000275578063b187bd261462000295578063bb5dfe1914620002b7578063bcc066fc14620002d95762000130565b8063715018a611620000ff578063715018a614620001cf5780637a31c18514620001db5780638c6186a314620001fb5780638da5cb5b146200021d57806396266d9c146200023f5762000130565b80630fb5a6b414620001355780631f69565f146200015757806344161783146200018d5780636e3eb6f414620001af575b600080fd5b6200013f620003c9565b6040516200014e919062000d73565b60405180910390f35b6200017560048036038101906200016f919062000e09565b620003cf565b60405162000184919062000ea5565b60405180910390f35b62000197620004f9565b604051620001a6919062000d73565b60405180910390f35b620001cd6004803603810190620001c7919062000eff565b620004ff565b005b620001d962000563565b005b620001f96004803603810190620001f3919062000f62565b6200057b565b005b62000205620005c8565b60405162000214919062000fa5565b60405180910390f35b62000227620005ee565b60405162000236919062000fa5565b60405180910390f35b6200025d600480360381019062000257919062000e09565b62000617565b6040516200026c919062000d73565b60405180910390f35b6200029360048036038101906200028d919062000f62565b6200062f565b005b6200029f6200067c565b604051620002ae919062000fd3565b60405180910390f35b620002c16200068f565b604051620002d0919062000d73565b60405180910390f35b620002f76004803603810190620002f1919062001152565b62000695565b60405162000306919062000fa5565b60405180910390f35b62000319620009d3565b60405162000328919062000d73565b60405180910390f35b6200034f600480360381019062000349919062000f62565b620009d9565b6040516200036093929190620011d7565b60405180910390f35b62000387600480360381019062000381919062000e09565b62000a43565b005b620003a76004803603810190620003a1919062000f62565b62000ace565b005b620003c76004803603810190620003c1919062000e09565b62000b1b565b005b60075481565b620003d962000cfd565b6000600260008473ffffffffffffffffffffffffffffffffffffffff1673ffffffffffffffffffffffffffffffffffffffff168152602001908152602001600020549050600360008281526020019081526020016000206040518060600160405290816000820160009054906101000a900473ffffffffffffffffffffffffffffffffffffffff1673ffffffffffffffffffffffffffffffffffffffff1673ffffffffffffffffffffffffffffffffffffffff1681526020016001820160009054906101000a900473ffffffffffffffffffffffffffffffffffffffff1673ffffffffffffffffffffffffffffffffffffffff1673ffffffffffffffffffffffffffffffffffffffff168152602001600282015481525050915050919050565b60045481565b6200050962000bac565b80600660146101000a81548160ff0219169083151502179055507fd119587be04d80080c64717a0dc158c674898c4fe140498ffd144e1f6645d8b9816001546040516200055892919062001214565b60405180910390a150565b6200056d62000bac565b62000579600062000c31565b565b6200058562000bac565b806005819055507f444c2ee6a42985e86e4d1c21435989ae523bae8ee02a11e8579bc4ac18b1d4ae81604051620005bd919062000d73565b60405180910390a150565b600660009054906101000a900473ffffffffffffffffffffffffffffffffffffffff1681565b60008060009054906101000a900473ffffffffffffffffffffffffffffffffffffffff16905090565b60026020528060005260406000206000915090505481565b6200063962000bac565b806004819055507fa318485d4b7a387f0695a0179248931f1d023e08844d98b4e9e34775324bceb58160405162000671919062000d73565b60405180910390a150565b600660149054906101000a900460ff1681565b60015481565b6000600660149054906101000a900460ff1615620006ea576040517f08c379a0000000000000000000000000000000000000000000000000000000008152600401620006e190620012a2565b60405180910390fd5b600060075442620006fc9190620012f3565b90506000848483600660009054906101000a900473ffffffffffffffffffffffffffffffffffffffff16600454600554306040516200073b9062000d4a565b6200074d9796959493929190620013d2565b604051809103906000f0801580156200076a573d6000803e3d6000fd5b509050600060016000815462000780906200145d565b919050819055905060405180606001604052808373ffffffffffffffffffffffffffffffffffffffff1681526020013373ffffffffffffffffffffffffffffffffffffffff168152602001848152506003600083815260200190815260200160002060008201518160000160006101000a81548173ffffffffffffffffffffffffffffffffffffffff021916908373ffffffffffffffffffffffffffffffffffffffff16021790555060208201518160010160006101000a81548173ffffffffffffffffffffffffffffffffffffffff021916908373ffffffffffffffffffffffffffffffffffffffff1602179055506040820151816002015590505080600260008473ffffffffffffffffffffffffffffffffffffffff1673ffffffffffffffffffffffffffffffffffffffff168152602001908152602001600020819055508173ffffffffffffffffffffffffffffffffffffffff1663f2fde38b336040518263ffffffff1660e01b8152600401620008fc919062000fa5565b600060405180830381600087803b1580156200091757600080fd5b505af11580156200092c573d6000803e3d6000fd5b505050503373ffffffffffffffffffffffffffffffffffffffff168273ffffffffffffffffffffffffffffffffffffffff167ff020135fbf769870a4420f64749fb2d32f0f2f5cf39beb8333f2cfa543fcd074888887600660009054906101000a900473ffffffffffffffffffffffffffffffffffffffff16600454600554604051620009bf96959493929190620014ab565b60405180910390a381935050505092915050565b60055481565b60036020528060005260406000206000915090508060000160009054906101000a900473ffffffffffffffffffffffffffffffffffffffff16908060010160009054906101000a900473ffffffffffffffffffffffffffffffffffffffff16908060020154905083565b62000a4d62000bac565b600073ffffffffffffffffffffffffffffffffffffffff168173ffffffffffffffffffffffffffffffffffffffff16141562000ac0576040517f08c379a000000000000000000000000000000000000000000000000000000000815260040162000ab7906200159c565b60405180910390fd5b62000acb8162000c31565b50565b62000ad862000bac565b806007819055507f234a8b70e70d5fc5ace24d19c8c988edfd5dc006d6f8356cab0273e2f084a9098160405162000b10919062000d73565b60405180910390a150565b62000b2562000bac565b80600660006101000a81548173ffffffffffffffffffffffffffffffffffffffff021916908373ffffffffffffffffffffffffffffffffffffffff1602179055508073ffffffffffffffffffffffffffffffffffffffff167f9ffcc7872e184f6db78bf00d137d6a7d52aa1546937286c01382063602bbcad660405160405180910390a250565b62000bb662000cf5565b73ffffffffffffffffffffffffffffffffffffffff1662000bd6620005ee565b73ffffffffffffffffffffffffffffffffffffffff161462000c2f576040517f08c379a000000000000000000000000000000000000000000000000000000000815260040162000c26906200160e565b60405180910390fd5b565b60008060009054906101000a900473ffffffffffffffffffffffffffffffffffffffff169050816000806101000a81548173ffffffffffffffffffffffffffffffffffffffff021916908373ffffffffffffffffffffffffffffffffffffffff1602179055508173ffffffffffffffffffffffffffffffffffffffff168173ffffffffffffffffffffffffffffffffffffffff167f8be0079c531659141344cd1fd0a4f28419497f9722a3daafe3b4186f6b6457e060405160405180910390a35050565b600033905090565b6040518060600160405280600073ffffffffffffffffffffffffffffffffffffffff168152602001600073ffffffffffffffffffffffffffffffffffffffff168152602001600081525090565b613767806200163183390190565b6000819050919050565b62000d6d8162000d58565b82525050565b600060208201905062000d8a600083018462000d62565b92915050565b6000604051905090565b600080fd5b600080fd5b600073ffffffffffffffffffffffffffffffffffffffff82169050919050565b600062000dd18262000da4565b9050919050565b62000de38162000dc4565b811462000def57600080fd5b50565b60008135905062000e038162000dd8565b92915050565b60006020828403121562000e225762000e2162000d9a565b5b600062000e328482850162000df2565b91505092915050565b62000e468162000dc4565b82525050565b62000e578162000d58565b82525050565b60608201600082015162000e75600085018262000e3b565b50602082015162000e8a602085018262000e3b565b50604082015162000e9f604085018262000e4c565b50505050565b600060608201905062000ebc600083018462000e5d565b92915050565b60008115159050919050565b62000ed98162000ec2565b811462000ee557600080fd5b50565b60008135905062000ef98162000ece565b92915050565b60006020828403121562000f185762000f1762000d9a565b5b600062000f288482850162000ee8565b91505092915050565b62000f3c8162000d58565b811462000f4857600080fd5b50565b60008135905062000f5c8162000f31565b92915050565b60006020828403121562000f7b5762000f7a62000d9a565b5b600062000f8b8482850162000f4b565b91505092915050565b62000f9f8162000dc4565b82525050565b600060208201905062000fbc600083018462000f94565b92915050565b62000fcd8162000ec2565b82525050565b600060208201905062000fea600083018462000fc2565b92915050565b600080fd5b600080fd5b6000601f19601f8301169050919050565b7f4e487b7100000000000000000000000000000000000000000000000000000000600052604160045260246000fd5b620010458262000ffa565b810181811067ffffffffffffffff821117156200106757620010666200100b565b5b80604052505050565b60006200107c62000d90565b90506200108a82826200103a565b919050565b600067ffffffffffffffff821115620010ad57620010ac6200100b565b5b620010b88262000ffa565b9050602081019050919050565b82818337600083830152505050565b6000620010eb620010e5846200108f565b62001070565b9050828152602081018484840111156200110a576200110962000ff5565b5b62001117848285620010c5565b509392505050565b600082601f83011262001137576200113662000ff0565b5b813562001149848260208601620010d4565b91505092915050565b600080604083850312156200116c576200116b62000d9a565b5b600083013567ffffffffffffffff8111156200118d576200118c62000d9f565b5b6200119b858286016200111f565b925050602083013567ffffffffffffffff811115620011bf57620011be62000d9f565b5b620011cd858286016200111f565b9150509250929050565b6000606082019050620011ee600083018662000f94565b620011fd602083018562000f94565b6200120c604083018462000d62565b949350505050565b60006040820190506200122b600083018562000fc2565b6200123a602083018462000d62565b9392505050565b600082825260208201905092915050565b7f466163746f727920697320706175736564000000000000000000000000000000600082015250565b60006200128a60118362001241565b9150620012978262001252565b602082019050919050565b60006020820190508181036000830152620012bd816200127b565b9050919050565b7f4e487b7100000000000000000000000000000000000000000000000000000000600052601160045260246000fd5b6000620013008262000d58565b91506200130d8362000d58565b9250827fffffffffffffffffffffffffffffffffffffffffffffffffffffffffffffffff03821115620013455762001344620012c4565b5b828201905092915050565b600081519050919050565b60005b838110156200137b5780820151818401526020810190506200135e565b838111156200138b576000848401525b50505050565b60006200139e8262001350565b620013aa818562001241565b9350620013bc8185602086016200135b565b620013c78162000ffa565b840191505092915050565b600060e0820190508181036000830152620013ee818a62001391565b9050818103602083015262001404818962001391565b905062001415604083018862000d62565b62001424606083018762000f94565b62001433608083018662000d62565b6200144260a083018562000d62565b6200145160c083018462000f94565b98975050505050505050565b60006200146a8262000d58565b91507fffffffffffffffffffffffffffffffffffffffffffffffffffffffffffffffff821415620014a0576200149f620012c4565b5b600182019050919050565b600060c0820190508181036000830152620014c7818962001391565b90508181036020830152620014dd818862001391565b9050620014ee604083018762000d62565b620014fd606083018662000f94565b6200150c608083018562000d62565b6200151b60a083018462000d62565b979650505050505050565b7f4f776e61626c653a206e6577206f776e657220697320746865207a65726f206160008201527f6464726573730000000000000000000000000000000000000000000000000000602082015250565b60006200158460268362001241565b9150620015918262001526565b604082019050919050565b60006020820190508181036000830152620015b78162001575565b9050919050565b7f4f776e61626c653a2063616c6c6572206973206e6f7420746865206f776e6572600082015250565b6000620015f660208362001241565b91506200160382620015be565b602082019050919050565b600060208201905081810360008301526200162981620015e7565b905091905056fe60806040523480156200001157600080fd5b506040516200376738038062003767833981810160405281019062000037919062000567565b86868160039080519060200190620000519291906200027a565b5080600490805190602001906200006a9291906200027a565b5050506200008d62000081620001ac60201b60201c565b620001b460201b60201c565b6001600681905550600073ffffffffffffffffffffffffffffffffffffffff168473ffffffffffffffffffffffffffffffffffffffff16141562000108576040517f08c379a0000000000000000000000000000000000000000000000000000000008152600401620000ff90620006df565b60405180910390fd5b84600b819055508260098190555081600a8190555083600860006101000a81548173ffffffffffffffffffffffffffffffffffffffff021916908373ffffffffffffffffffffffffffffffffffffffff16021790555080600760006101000a81548173ffffffffffffffffffffffffffffffffffffffff021916908373ffffffffffffffffffffffffffffffffffffffff1602179055505050505050505062000766565b600033905090565b6000600560009054906101000a900473ffffffffffffffffffffffffffffffffffffffff16905081600560006101000a81548173ffffffffffffffffffffffffffffffffffffffff021916908373ffffffffffffffffffffffffffffffffffffffff1602179055508173ffffffffffffffffffffffffffffffffffffffff168173ffffffffffffffffffffffffffffffffffffffff167f8be0079c531659141344cd1fd0a4f28419497f9722a3daafe3b4186f6b6457e060405160405180910390a35050565b828054620002889062000730565b90600052602060002090601f016020900481019282620002ac5760008555620002f8565b82601f10620002c757805160ff1916838001178555620002f8565b82800160010185558215620002f8579182015b82811115620002f7578251825591602001919060010190620002da565b5b5090506200030791906200030b565b5090565b5b80821115620003265760008160009055506001016200030c565b5090565b6000604051905090565b600080fd5b600080fd5b600080fd5b600080fd5b6000601f19601f8301169050919050565b7f4e487b7100000000000000000000000000000000000000000000000000000000600052604160045260246000fd5b620003938262000348565b810181811067ffffffffffffffff82111715620003b557620003b462000359565b5b80604052505050565b6000620003ca6200032a565b9050620003d8828262000388565b919050565b600067ffffffffffffffff821115620003fb57620003fa62000359565b5b620004068262000348565b9050602081019050919050565b60005b838110156200043357808201518184015260208101905062000416565b8381111562000443576000848401525b50505050565b6000620004606200045a84620003dd565b620003be565b9050828152602081018484840111156200047f576200047e62000343565b5b6200048c84828562000413565b509392505050565b600082601f830112620004ac57620004ab6200033e565b5b8151620004be84826020860162000449565b91505092915050565b6000819050919050565b620004dc81620004c7565b8114620004e857600080fd5b50565b600081519050620004fc81620004d1565b92915050565b600073ffffffffffffffffffffffffffffffffffffffff82169050919050565b60006200052f8262000502565b9050919050565b620005418162000522565b81146200054d57600080fd5b50565b600081519050620005618162000536565b92915050565b600080600080600080600060e0888a03121562000589576200058862000334565b5b600088015167ffffffffffffffff811115620005aa57620005a962000339565b5b620005b88a828b0162000494565b975050602088015167ffffffffffffffff811115620005dc57620005db62000339565b5b620005ea8a828b0162000494565b9650506040620005fd8a828b01620004eb565b9550506060620006108a828b0162000550565b9450506080620006238a828b01620004eb565b93505060a0620006368a828b01620004eb565b92505060c0620006498a828b0162000550565b91505092959891949750929550565b600082825260208201905092915050565b7f4665652064657374696e6174696f6e2063616e6e6f7420626520746865207a6560008201527f726f206164647265737300000000000000000000000000000000000000000000602082015250565b6000620006c7602a8362000658565b9150620006d48262000669565b604082019050919050565b60006020820190508181036000830152620006fa81620006b8565b9050919050565b7f4e487b7100000000000000000000000000000000000000000000000000000000600052602260045260246000fd5b600060028204905060018216806200074957607f821691505b6020821081141562000760576200075f62000701565b5b50919050565b612ff180620007766000396000f3fe6080604052600436106101c25760003560e01c8063715018a6116100f7578063a9059cbb11610095578063dd62ed3e11610064578063dd62ed3e14610687578063f2fde38b146106c4578063f46d9324146106ed578063fba7cc7914610718576101c2565b8063a9059cbb146105a5578063c5a1d5e2146105e2578063d6e6eb9f1461061f578063d7e894661461064a576101c2565b8063966dae0e116100d1578063966dae0e146104f6578063a0712d6814610521578063a457c2d71461053d578063a85adeab1461057a576101c2565b8063715018a6146104895780638da5cb5b146104a057806395d89b41146104cb576101c2565b8063313ce5671161016457806342966c681161013e57806342966c68146103bb5780634768e885146103e45780634ce7957c1461042157806370a082311461044c576101c2565b8063313ce5671461031657806338cb037a14610341578063395093511461037e576101c2565b8063147d0735116101a0578063147d07351461025a57806318160ddd1461027157806323b872dd1461029c57806327de8f27146102d9576101c2565b806306fdde03146101c7578063095ea7b3146101f257806312065fe01461022f575b600080fd5b3480156101d357600080fd5b506101dc610743565b6040516101e9919061215b565b60405180910390f35b3480156101fe57600080fd5b5061021960048036038101906102149190612216565b6107d5565b6040516102269190612271565b60405180910390f35b34801561023b57600080fd5b506102446107f8565b604051610251919061229b565b60405180910390f35b34801561026657600080fd5b5061026f610800565b005b34801561027d57600080fd5b506102866109aa565b604051610293919061229b565b60405180910390f35b3480156102a857600080fd5b506102c360048036038101906102be91906122b6565b6109b4565b6040516102d09190612271565b60405180910390f35b3480156102e557600080fd5b5061030060048036038101906102fb9190612309565b6109e3565b60405161030d919061229b565b60405180910390f35b34801561032257600080fd5b5061032b610a2c565b6040516103389190612352565b60405180910390f35b34801561034d57600080fd5b5061036860048036038101906103639190612309565b610a31565b604051610375919061229b565b60405180910390f35b34801561038a57600080fd5b506103a560048036038101906103a09190612216565b610ae8565b6040516103b29190612271565b60405180910390f35b3480156103c757600080fd5b506103e260048036038101906103dd9190612309565b610b1f565b005b3480156103f057600080fd5b5061040b60048036038101906104069190612309565b610ec6565b604051610418919061229b565b60405180910390f35b34801561042d57600080fd5b50610436610f16565b604051610443919061237c565b60405180910390f35b34801561045857600080fd5b50610473600480360381019061046e9190612397565b610f3c565b604051610480919061229b565b60405180910390f35b34801561049557600080fd5b5061049e610f84565b005b3480156104ac57600080fd5b506104b5610f98565b6040516104c2919061237c565b60405180910390f35b3480156104d757600080fd5b506104e0610fc2565b6040516104ed919061215b565b60405180910390f35b34801561050257600080fd5b5061050b611054565b604051610518919061237c565b60405180910390f35b61053b60048036038101906105369190612309565b61107a565b005b34801561054957600080fd5b50610564600480360381019061055f9190612216565b611420565b6040516105719190612271565b60405180910390f35b34801561058657600080fd5b5061058f611497565b60405161059c919061229b565b60405180910390f35b3480156105b157600080fd5b506105cc60048036038101906105c79190612216565b61149d565b6040516105d99190612271565b60405180910390f35b3480156105ee57600080fd5b5061060960048036038101906106049190612309565b6114c0565b604051610616919061229b565b60405180910390f35b34801561062b57600080fd5b506106346115b2565b604051610641919061229b565b60405180910390f35b34801561065657600080fd5b50610671600480360381019061066c9190612309565b6115b8565b60405161067e919061229b565b60405180910390f35b34801561069357600080fd5b506106ae60048036038101906106a991906123c4565b611601565b6040516106bb919061229b565b60405180910390f35b3480156106d057600080fd5b506106eb60048036038101906106e69190612397565b611688565b005b3480156106f957600080fd5b5061070261170c565b60405161070f919061229b565b60405180910390f35b34801561072457600080fd5b5061072d611712565b60405161073a9190612271565b60405180910390f35b60606003805461075290612433565b80601f016020809104026020016040519081016040528092919081815260200182805461077e90612433565b80156107cb5780601f106107a0576101008083540402835291602001916107cb565b820191906000526020600020905b8154815290600101906020018083116107ae57829003601f168201915b5050505050905090565b6000806107e061171e565b90506107ed818585611726565b600191505092915050565b600047905090565b6108086118f1565b600b5442101561084d576040517f08c379a0000000000000000000000000000000000000000000000000000000008152600401610844906124d7565b60405180910390fd5b61085561196f565b60004790506000811161089d576040517f08c379a000000000000000000000000000000000000000000000000000000000815260040161089490612543565b60405180910390fd5b60006108a7610f98565b73ffffffffffffffffffffffffffffffffffffffff16826040516108ca90612594565b60006040518083038185875af1925050503d8060008114610907576040519150601f19603f3d011682016040523d82523d6000602084013e61090c565b606091505b5050905080610950576040517f08c379a0000000000000000000000000000000000000000000000000000000008152600401610947906125f5565b60405180910390fd5b3373ffffffffffffffffffffffffffffffffffffffff167ff36f4d6622e16a536bbb049064af779cdd483a0b388d347d3752a65f1058bf5b83604051610996919061229b565b60405180910390a250506109a86119bf565b565b6000600254905090565b6000806109bf61171e565b90506109cc8582856119c9565b6109d7858585611a55565b60019150509392505050565b6000806109f66109f16109aa565b610ec6565b90506000610a1584610a066109aa565b610a109190612644565b610ec6565b90508181610a23919061269a565b92505050919050565b600090565b600080610a44610a3f6109aa565b610ec6565b90506000610a6384610a546109aa565b610a5e9190612644565b610ec6565b905060008282610a73919061269a565b90506000670de0b6b3a764000060095483610a8e91906126ce565b610a989190612757565b90506000670de0b6b3a7640000600a5484610ab391906126ce565b610abd9190612757565b90506000818385610ace9190612644565b610ad89190612644565b9050809650505050505050919050565b600080610af361171e565b9050610b14818585610b058589611601565b610b0f9190612644565b611726565b600191505092915050565b600b544210610b63576040517f08c379a0000000000000000000000000000000000000000000000000000000008152600401610b5a906127d4565b60405180910390fd5b610b6c33610f3c565b811115610bba57610b7c33610f3c565b816040517f59efbd20000000000000000000000000000000000000000000000000000000008152600401610bb19291906127f4565b60405180910390fd5b6000610bc5826115b8565b90506000670de0b6b3a764000060095483610be091906126ce565b610bea9190612757565b90506000670de0b6b3a7640000600a5484610c0591906126ce565b610c0f9190612757565b9050610c1b3385611ccd565b60003373ffffffffffffffffffffffffffffffffffffffff16828486610c41919061269a565b610c4b919061269a565b604051610c5790612594565b60006040518083038185875af1925050503d8060008114610c94576040519150601f19603f3d011682016040523d82523d6000602084013e610c99565b606091505b5050905080610cf75733828486610cb0919061269a565b610cba919061269a565b6040517f2c6a51e2000000000000000000000000000000000000000000000000000000008152600401610cee92919061281d565b60405180910390fd5b6000600860009054906101000a900473ffffffffffffffffffffffffffffffffffffffff1673ffffffffffffffffffffffffffffffffffffffff1684604051610d3f90612594565b60006040518083038185875af1925050503d8060008114610d7c576040519150601f19603f3d011682016040523d82523d6000602084013e610d81565b606091505b505090506000610d8f610f98565b73ffffffffffffffffffffffffffffffffffffffff1684604051610db290612594565b60006040518083038185875af1925050503d8060008114610def576040519150601f19603f3d011682016040523d82523d6000602084013e610df4565b606091505b50509050818015610e025750805b610e41576040517f08c379a0000000000000000000000000000000000000000000000000000000008152600401610e3890612892565b60405180910390fd5b610e496109aa565b610e51610f98565b73ffffffffffffffffffffffffffffffffffffffff163373ffffffffffffffffffffffffffffffffffffffff167f3e16d8cfffc726d59dd4696083a0c49bbb236e50396f01dbaff45a429e7bad128a600954600a54604051610eb5939291906128b2565b60405180910390a450505050505050565b600060066001836002610ed991906126ce565b610ee39190612644565b600184610ef09190612644565b84610efb91906126ce565b610f0591906126ce565b610f0f9190612757565b9050919050565b600860009054906101000a900473ffffffffffffffffffffffffffffffffffffffff1681565b60008060008373ffffffffffffffffffffffffffffffffffffffff1673ffffffffffffffffffffffffffffffffffffffff168152602001908152602001600020549050919050565b610f8c6118f1565b610f966000611e9b565b565b6000600560009054906101000a900473ffffffffffffffffffffffffffffffffffffffff16905090565b606060048054610fd190612433565b80601f0160208091040260200160405190810160405280929190818152602001828054610ffd90612433565b801561104a5780601f1061101f5761010080835404028352916020019161104a565b820191906000526020600020905b81548152906001019060200180831161102d57829003601f168201915b5050505050905090565b600760009054906101000a900473ffffffffffffffffffffffffffffffffffffffff1681565b600b5442106110be576040517f08c379a00000000000000000000000000000000000000000000000000000000081526004016110b5906127d4565b60405180910390fd5b60006110c9826109e3565b90506000670de0b6b3a7640000600954836110e491906126ce565b6110ee9190612757565b90506000670de0b6b3a7640000600a548461110991906126ce565b6111139190612757565b905060008183856111249190612644565b61112e9190612644565b9050803410156111775780346040517f7040b58c00000000000000000000000000000000000000000000000000000000815260040161116e9291906127f4565b60405180910390fd5b6111813386611f61565b803411156112515760003373ffffffffffffffffffffffffffffffffffffffff1682346111ae919061269a565b6040516111ba90612594565b60006040518083038185875af1925050503d80600081146111f7576040519150601f19603f3d011682016040523d82523d6000602084013e6111fc565b606091505b505090508061124f57338234611212919061269a565b6040517f2c6a51e200000000000000000000000000000000000000000000000000000000815260040161124692919061281d565b60405180910390fd5b505b6000600860009054906101000a900473ffffffffffffffffffffffffffffffffffffffff1673ffffffffffffffffffffffffffffffffffffffff168460405161129990612594565b60006040518083038185875af1925050503d80600081146112d6576040519150601f19603f3d011682016040523d82523d6000602084013e6112db565b606091505b5050905060006112e9610f98565b73ffffffffffffffffffffffffffffffffffffffff168460405161130c90612594565b60006040518083038185875af1925050503d8060008114611349576040519150601f19603f3d011682016040523d82523d6000602084013e61134e565b606091505b5050905081801561135c5750805b61139b576040517f08c379a000000000000000000000000000000000000000000000000000000000815260040161139290612892565b60405180910390fd5b6113a36109aa565b6113ab610f98565b73ffffffffffffffffffffffffffffffffffffffff163373ffffffffffffffffffffffffffffffffffffffff167f5860d9008a30f310a429551672216806f453f09e78d42235b44e85dc43a1df2a8a600954600a5460405161140f939291906128b2565b60405180910390a450505050505050565b60008061142b61171e565b905060006114398286611601565b90508381101561147e576040517f08c379a00000000000000000000000000000000000000000000000000000000081526004016114759061295b565b60405180910390fd5b61148b8286868403611726565b60019250505092915050565b600b5481565b6000806114a861171e565b90506114b5818585611a55565b600191505092915050565b60006114ca6109aa565b8211156114da57600090506115ad565b60006114ec6114e76109aa565b610ec6565b9050600061150b846114fc6109aa565b611506919061269a565b610ec6565b90506000818361151b919061269a565b90506000670de0b6b3a76400006009548361153691906126ce565b6115409190612757565b90506000670de0b6b3a7640000600a548461155b91906126ce565b6115659190612757565b905080826115739190612644565b831015611588576000955050505050506115ad565b6000818385611597919061269a565b6115a1919061269a565b90508096505050505050505b919050565b60095481565b6000806115cb6115c66109aa565b610ec6565b905060006115ea846115db6109aa565b6115e5919061269a565b610ec6565b905080826115f8919061269a565b92505050919050565b6000600160008473ffffffffffffffffffffffffffffffffffffffff1673ffffffffffffffffffffffffffffffffffffffff16815260200190815260200160002060008373ffffffffffffffffffffffffffffffffffffffff1673ffffffffffffffffffffffffffffffffffffffff16815260200190815260200160002054905092915050565b6116906118f1565b600073ffffffffffffffffffffffffffffffffffffffff168173ffffffffffffffffffffffffffffffffffffffff161415611700576040517f08c379a00000000000000000000000000000000000000000000000000000000081526004016116f7906129ed565b60405180910390fd5b61170981611e9b565b50565b600a5481565b6000600b544210905090565b600033905090565b600073ffffffffffffffffffffffffffffffffffffffff168373ffffffffffffffffffffffffffffffffffffffff161415611796576040517f08c379a000000000000000000000000000000000000000000000000000000000815260040161178d90612a7f565b60405180910390fd5b600073ffffffffffffffffffffffffffffffffffffffff168273ffffffffffffffffffffffffffffffffffffffff161415611806576040517f08c379a00000000000000000000000000000000000000000000000000000000081526004016117fd90612b11565b60405180910390fd5b80600160008573ffffffffffffffffffffffffffffffffffffffff1673ffffffffffffffffffffffffffffffffffffffff16815260200190815260200160002060008473ffffffffffffffffffffffffffffffffffffffff1673ffffffffffffffffffffffffffffffffffffffff168152602001908152602001600020819055508173ffffffffffffffffffffffffffffffffffffffff168373ffffffffffffffffffffffffffffffffffffffff167f8c5be1e5ebec7d5bd14f71427d1e84f3dd0314c0f7b2291e5b200ac8c7c3b925836040516118e4919061229b565b60405180910390a3505050565b6118f961171e565b73ffffffffffffffffffffffffffffffffffffffff16611917610f98565b73ffffffffffffffffffffffffffffffffffffffff161461196d576040517f08c379a000000000000000000000000000000000000000000000000000000000815260040161196490612b7d565b60405180910390fd5b565b600260065414156119b5576040517f08c379a00000000000000000000000000000000000000000000000000000000081526004016119ac90612be9565b60405180910390fd5b6002600681905550565b6001600681905550565b60006119d58484611601565b90507fffffffffffffffffffffffffffffffffffffffffffffffffffffffffffffffff8114611a4f5781811015611a41576040517f08c379a0000000000000000000000000000000000000000000000000000000008152600401611a3890612c55565b60405180910390fd5b611a4e8484848403611726565b5b50505050565b600073ffffffffffffffffffffffffffffffffffffffff168373ffffffffffffffffffffffffffffffffffffffff161415611ac5576040517f08c379a0000000000000000000000000000000000000000000000000000000008152600401611abc90612ce7565b60405180910390fd5b600073ffffffffffffffffffffffffffffffffffffffff168273ffffffffffffffffffffffffffffffffffffffff161415611b35576040517f08c379a0000000000000000000000000000000000000000000000000000000008152600401611b2c90612d79565b60405180910390fd5b611b408383836120b8565b60008060008573ffffffffffffffffffffffffffffffffffffffff1673ffffffffffffffffffffffffffffffffffffffff16815260200190815260200160002054905081811015611bc6576040517f08c379a0000000000000000000000000000000000000000000000000000000008152600401611bbd90612e0b565b60405180910390fd5b8181036000808673ffffffffffffffffffffffffffffffffffffffff1673ffffffffffffffffffffffffffffffffffffffff16815260200190815260200160002081905550816000808573ffffffffffffffffffffffffffffffffffffffff1673ffffffffffffffffffffffffffffffffffffffff168152602001908152602001600020600082825401925050819055508273ffffffffffffffffffffffffffffffffffffffff168473ffffffffffffffffffffffffffffffffffffffff167fddf252ad1be2c89b69c2b068fc378daa952ba7f163c4a11628f55a4df523b3ef84604051611cb4919061229b565b60405180910390a3611cc78484846120bd565b50505050565b600073ffffffffffffffffffffffffffffffffffffffff168273ffffffffffffffffffffffffffffffffffffffff161415611d3d576040517f08c379a0000000000000000000000000000000000000000000000000000000008152600401611d3490612e9d565b60405180910390fd5b611d49826000836120b8565b60008060008473ffffffffffffffffffffffffffffffffffffffff1673ffffffffffffffffffffffffffffffffffffffff16815260200190815260200160002054905081811015611dcf576040517f08c379a0000000000000000000000000000000000000000000000000000000008152600401611dc690612f2f565b60405180910390fd5b8181036000808573ffffffffffffffffffffffffffffffffffffffff1673ffffffffffffffffffffffffffffffffffffffff1681526020019081526020016000208190555081600260008282540392505081905550600073ffffffffffffffffffffffffffffffffffffffff168373ffffffffffffffffffffffffffffffffffffffff167fddf252ad1be2c89b69c2b068fc378daa952ba7f163c4a11628f55a4df523b3ef84604051611e82919061229b565b60405180910390a3611e96836000846120bd565b505050565b6000600560009054906101000a900473ffffffffffffffffffffffffffffffffffffffff16905081600560006101000a81548173ffffffffffffffffffffffffffffffffffffffff021916908373ffffffffffffffffffffffffffffffffffffffff1602179055508173ffffffffffffffffffffffffffffffffffffffff168173ffffffffffffffffffffffffffffffffffffffff167f8be0079c531659141344cd1fd0a4f28419497f9722a3daafe3b4186f6b6457e060405160405180910390a35050565b600073ffffffffffffffffffffffffffffffffffffffff168273ffffffffffffffffffffffffffffffffffffffff161415611fd1576040517f08c379a0000000000000000000000000000000000000000000000000000000008152600401611fc890612f9b565b60405180910390fd5b611fdd600083836120b8565b8060026000828254611fef9190612644565b92505081905550806000808473ffffffffffffffffffffffffffffffffffffffff1673ffffffffffffffffffffffffffffffffffffffff168152602001908152602001600020600082825401925050819055508173ffffffffffffffffffffffffffffffffffffffff16600073ffffffffffffffffffffffffffffffffffffffff167fddf252ad1be2c89b69c2b068fc378daa952ba7f163c4a11628f55a4df523b3ef836040516120a0919061229b565b60405180910390a36120b4600083836120bd565b5050565b505050565b505050565b600081519050919050565b600082825260208201905092915050565b60005b838110156120fc5780820151818401526020810190506120e1565b8381111561210b576000848401525b50505050565b6000601f19601f8301169050919050565b600061212d826120c2565b61213781856120cd565b93506121478185602086016120de565b61215081612111565b840191505092915050565b600060208201905081810360008301526121758184612122565b905092915050565b600080fd5b600073ffffffffffffffffffffffffffffffffffffffff82169050919050565b60006121ad82612182565b9050919050565b6121bd816121a2565b81146121c857600080fd5b50565b6000813590506121da816121b4565b92915050565b6000819050919050565b6121f3816121e0565b81146121fe57600080fd5b50565b600081359050612210816121ea565b92915050565b6000806040838503121561222d5761222c61217d565b5b600061223b858286016121cb565b925050602061224c85828601612201565b9150509250929050565b60008115159050919050565b61226b81612256565b82525050565b60006020820190506122866000830184612262565b92915050565b612295816121e0565b82525050565b60006020820190506122b0600083018461228c565b92915050565b6000806000606084860312156122cf576122ce61217d565b5b60006122dd868287016121cb565b93505060206122ee868287016121cb565b92505060406122ff86828701612201565b9150509250925092565b60006020828403121561231f5761231e61217d565b5b600061232d84828501612201565b91505092915050565b600060ff82169050919050565b61234c81612336565b82525050565b60006020820190506123676000830184612343565b92915050565b612376816121a2565b82525050565b6000602082019050612391600083018461236d565b92915050565b6000602082840312156123ad576123ac61217d565b5b60006123bb848285016121cb565b91505092915050565b600080604083850312156123db576123da61217d565b5b60006123e9858286016121cb565b92505060206123fa858286016121cb565b9150509250929050565b7f4e487b7100000000000000000000000000000000000000000000000000000000600052602260045260246000fd5b6000600282049050600182168061244b57607f821691505b6020821081141561245f5761245e612404565b5b50919050565b7f436f6e7472616374206973207374696c6c20696e20616374697665207068617360008201527f6500000000000000000000000000000000000000000000000000000000000000602082015250565b60006124c16021836120cd565b91506124cc82612465565b604082019050919050565b600060208201905081810360008301526124f0816124b4565b9050919050565b7f4e6f2066756e647320617661696c61626c6520746f20647261696e0000000000600082015250565b600061252d601b836120cd565b9150612538826124f7565b602082019050919050565b6000602082019050818103600083015261255c81612520565b9050919050565b600081905092915050565b50565b600061257e600083612563565b91506125898261256e565b600082019050919050565b600061259f82612571565b9150819050919050565b7f4661696c656420746f207472616e736665722066756e64730000000000000000600082015250565b60006125df6018836120cd565b91506125ea826125a9565b602082019050919050565b6000602082019050818103600083015261260e816125d2565b9050919050565b7f4e487b7100000000000000000000000000000000000000000000000000000000600052601160045260246000fd5b600061264f826121e0565b915061265a836121e0565b9250827fffffffffffffffffffffffffffffffffffffffffffffffffffffffffffffffff0382111561268f5761268e612615565b5b828201905092915050565b60006126a5826121e0565b91506126b0836121e0565b9250828210156126c3576126c2612615565b5b828203905092915050565b60006126d9826121e0565b91506126e4836121e0565b9250817fffffffffffffffffffffffffffffffffffffffffffffffffffffffffffffffff048311821515161561271d5761271c612615565b5b828202905092915050565b7f4e487b7100000000000000000000000000000000000000000000000000000000600052601260045260246000fd5b6000612762826121e0565b915061276d836121e0565b92508261277d5761277c612728565b5b828204905092915050565b7f4163746976652070686173652068617320656e64656400000000000000000000600082015250565b60006127be6016836120cd565b91506127c982612788565b602082019050919050565b600060208201905081810360008301526127ed816127b1565b9050919050565b6000604082019050612809600083018561228c565b612816602083018461228c565b9392505050565b6000604082019050612832600083018561236d565b61283f602083018461228c565b9392505050565b7f556e61626c6520746f2073656e642066756e6473000000000000000000000000600082015250565b600061287c6014836120cd565b915061288782612846565b602082019050919050565b600060208201905081810360008301526128ab8161286f565b9050919050565b60006060820190506128c7600083018661228c565b6128d4602083018561228c565b6128e1604083018461228c565b949350505050565b7f45524332303a2064656372656173656420616c6c6f77616e63652062656c6f7760008201527f207a65726f000000000000000000000000000000000000000000000000000000602082015250565b60006129456025836120cd565b9150612950826128e9565b604082019050919050565b6000602082019050818103600083015261297481612938565b9050919050565b7f4f776e61626c653a206e6577206f776e657220697320746865207a65726f206160008201527f6464726573730000000000000000000000000000000000000000000000000000602082015250565b60006129d76026836120cd565b91506129e28261297b565b604082019050919050565b60006020820190508181036000830152612a06816129ca565b9050919050565b7f45524332303a20617070726f76652066726f6d20746865207a65726f2061646460008201527f7265737300000000000000000000000000000000000000000000000000000000602082015250565b6000612a696024836120cd565b9150612a7482612a0d565b604082019050919050565b60006020820190508181036000830152612a9881612a5c565b9050919050565b7f45524332303a20617070726f766520746f20746865207a65726f20616464726560008201527f7373000000000000000000000000000000000000000000000000000000000000602082015250565b6000612afb6022836120cd565b9150612b0682612a9f565b604082019050919050565b60006020820190508181036000830152612b2a81612aee565b9050919050565b7f4f776e61626c653a2063616c6c6572206973206e6f7420746865206f776e6572600082015250565b6000612b676020836120cd565b9150612b7282612b31565b602082019050919050565b60006020820190508181036000830152612b9681612b5a565b9050919050565b7f5265656e7472616e637947756172643a207265656e7472616e742063616c6c00600082015250565b6000612bd3601f836120cd565b9150612bde82612b9d565b602082019050919050565b60006020820190508181036000830152612c0281612bc6565b9050919050565b7f45524332303a20696e73756666696369656e7420616c6c6f77616e6365000000600082015250565b6000612c3f601d836120cd565b9150612c4a82612c09565b602082019050919050565b60006020820190508181036000830152612c6e81612c32565b9050919050565b7f45524332303a207472616e736665722066726f6d20746865207a65726f20616460008201527f6472657373000000000000000000000000000000000000000000000000000000602082015250565b6000612cd16025836120cd565b9150612cdc82612c75565b604082019050919050565b60006020820190508181036000830152612d0081612cc4565b9050919050565b7f45524332303a207472616e7366657220746f20746865207a65726f206164647260008201527f6573730000000000000000000000000000000000000000000000000000000000602082015250565b6000612d636023836120cd565b9150612d6e82612d07565b604082019050919050565b60006020820190508181036000830152612d9281612d56565b9050919050565b7f45524332303a207472616e7366657220616d6f756e742065786365656473206260008201527f616c616e63650000000000000000000000000000000000000000000000000000602082015250565b6000612df56026836120cd565b9150612e0082612d99565b604082019050919050565b60006020820190508181036000830152612e2481612de8565b9050919050565b7f45524332303a206275726e2066726f6d20746865207a65726f2061646472657360008201527f7300000000000000000000000000000000000000000000000000000000000000602082015250565b6000612e876021836120cd565b9150612e9282612e2b565b604082019050919050565b60006020820190508181036000830152612eb681612e7a565b9050919050565b7f45524332303a206275726e20616d6f756e7420657863656564732062616c616e60008201527f6365000000000000000000000000000000000000000000000000000000000000602082015250565b6000612f196022836120cd565b9150612f2482612ebd565b604082019050919050565b60006020820190508181036000830152612f4881612f0c565b9050919050565b7f45524332303a206d696e7420746f20746865207a65726f206164647265737300600082015250565b6000612f85601f836120cd565b9150612f9082612f4f565b602082019050919050565b60006020820190508181036000830152612fb481612f78565b905091905056fea2646970667358221220175178af3fd762f5f0b249662ddd4239270dfbac5abe0d7f721860c41e896a3964736f6c63430008080033a2646970667358221220f9b9b020c987ecf8a5158e0bb131d1c6791b62fcfa4164637b82c5c57cf1e4ef64736f6c63430008080033",
  "devdoc": {
    "kind": "dev",
    "methods": {
      "owner()": {
        "details": "Returns the address of the current owner."
      },
      "renounceOwnership()": {
        "details": "Leaves the contract without owner. It will not be possible to call `onlyOwner` functions anymore. Can only be called by the current owner. NOTE: Renouncing ownership will leave the contract without an owner, thereby removing any functionality that is only available to the owner."
      },
      "transferOwnership(address)": {
        "details": "Transfers ownership of the contract to a new account (`newOwner`). Can only be called by the current owner."
      }
    },
    "stateVariables": {
      "defaultProtocolFeePercent": {
        "details": "defaultProtocolFeePercent is the default protocol fee percentage. ex: 2% = 2 * 10**16 = 20000000000000000.defaultStreamerFeePercent is the default streamer fee percentage. ex: 2% = 2 * 10**16 = 20000000000000000.defaultFeeDestination is the default fee destination address.isPaused is a boolean to pause the factory and its token creation function.duration is the default duration in seconds for the lifespan of a token."
      },
      "numDeployedTokens": {
        "details": "numDeployedTokens is the number of deployed tokens.deployedTokenIndices is a mapping of token addresses to their assigned index.deployedTokens is a mapping of token indices to TokenInfo structs."
      }
    },
    "version": 1
  },
  "userdoc": {
    "kind": "user",
    "methods": {},
    "version": 1
  },
  "storageLayout": {
    "storage": [
      {
        "astId": 7,
        "contract": "contracts/TempTokenFactoryV1.sol:TempTokenFactoryV1",
        "label": "_owner",
        "offset": 0,
        "slot": "0",
        "type": "t_address"
      },
      {
        "astId": 893,
        "contract": "contracts/TempTokenFactoryV1.sol:TempTokenFactoryV1",
        "label": "numDeployedTokens",
        "offset": 0,
        "slot": "1",
        "type": "t_uint256"
      },
      {
        "astId": 897,
        "contract": "contracts/TempTokenFactoryV1.sol:TempTokenFactoryV1",
        "label": "deployedTokenIndices",
        "offset": 0,
        "slot": "2",
        "type": "t_mapping(t_address,t_uint256)"
      },
      {
        "astId": 902,
        "contract": "contracts/TempTokenFactoryV1.sol:TempTokenFactoryV1",
        "label": "deployedTokens",
        "offset": 0,
        "slot": "3",
        "type": "t_mapping(t_uint256,t_struct(TokenInfo)890_storage)"
      },
      {
        "astId": 905,
        "contract": "contracts/TempTokenFactoryV1.sol:TempTokenFactoryV1",
        "label": "defaultProtocolFeePercent",
        "offset": 0,
        "slot": "4",
        "type": "t_uint256"
      },
      {
        "astId": 907,
        "contract": "contracts/TempTokenFactoryV1.sol:TempTokenFactoryV1",
        "label": "defaultStreamerFeePercent",
        "offset": 0,
        "slot": "5",
        "type": "t_uint256"
      },
      {
        "astId": 909,
        "contract": "contracts/TempTokenFactoryV1.sol:TempTokenFactoryV1",
        "label": "defaultFeeDestination",
        "offset": 0,
        "slot": "6",
        "type": "t_address"
      },
      {
        "astId": 911,
        "contract": "contracts/TempTokenFactoryV1.sol:TempTokenFactoryV1",
        "label": "isPaused",
        "offset": 20,
        "slot": "6",
        "type": "t_bool"
      },
      {
        "astId": 913,
        "contract": "contracts/TempTokenFactoryV1.sol:TempTokenFactoryV1",
        "label": "duration",
        "offset": 0,
        "slot": "7",
        "type": "t_uint256"
      }
    ],
    "types": {
      "t_address": {
        "encoding": "inplace",
        "label": "address",
        "numberOfBytes": "20"
      },
      "t_bool": {
        "encoding": "inplace",
        "label": "bool",
        "numberOfBytes": "1"
      },
      "t_mapping(t_address,t_uint256)": {
        "encoding": "mapping",
        "key": "t_address",
        "label": "mapping(address => uint256)",
        "numberOfBytes": "32",
        "value": "t_uint256"
      },
      "t_mapping(t_uint256,t_struct(TokenInfo)890_storage)": {
        "encoding": "mapping",
        "key": "t_uint256",
        "label": "mapping(uint256 => struct TempTokenFactoryV1.TokenInfo)",
        "numberOfBytes": "32",
        "value": "t_struct(TokenInfo)890_storage"
      },
      "t_struct(TokenInfo)890_storage": {
        "encoding": "inplace",
        "label": "struct TempTokenFactoryV1.TokenInfo",
        "members": [
          {
            "astId": 885,
            "contract": "contracts/TempTokenFactoryV1.sol:TempTokenFactoryV1",
            "label": "tokenAddress",
            "offset": 0,
            "slot": "0",
            "type": "t_address"
          },
          {
            "astId": 887,
            "contract": "contracts/TempTokenFactoryV1.sol:TempTokenFactoryV1",
            "label": "ownerAddress",
            "offset": 0,
            "slot": "1",
            "type": "t_address"
          },
          {
            "astId": 889,
            "contract": "contracts/TempTokenFactoryV1.sol:TempTokenFactoryV1",
            "label": "endTimestamp",
            "offset": 0,
            "slot": "2",
            "type": "t_uint256"
          }
        ],
        "numberOfBytes": "96"
      },
      "t_uint256": {
        "encoding": "inplace",
        "label": "uint256",
        "numberOfBytes": "32"
      }
    }
  }
}