{
  "_format": "hh-sol-artifact-1",
  "contractName": "NewsContract",
  "sourceName": "contracts/NewsContract.sol",
  "abi": [
    {
      "inputs": [
        {
          "internalType": "address",
          "name": "newsTokenAddress",
          "type": "address"
        }
      ],
      "stateMutability": "nonpayable",
      "type": "constructor"
    },
    {
      "anonymous": false,
      "inputs": [
        {
          "indexed": true,
          "internalType": "uint256",
          "name": "articleId",
          "type": "uint256"
        },
        {
          "indexed": true,
          "internalType": "address",
          "name": "author",
          "type": "address"
        }
      ],
      "name": "CreateArticle",
      "type": "event"
    },
    {
      "anonymous": false,
      "inputs": [
        {
          "indexed": true,
          "internalType": "address",
          "name": "previousOwner",
          "type": "address"
        },
        {
          "indexed": true,
          "internalType": "address",
          "name": "newOwner",
          "type": "address"
        }
      ],
      "name": "OwnershipTransferred",
      "type": "event"
    },
    {
      "anonymous": false,
      "inputs": [
        {
          "indexed": true,
          "internalType": "uint256",
          "name": "articleId",
          "type": "uint256"
        },
        {
          "indexed": true,
          "internalType": "uint256",
          "name": "amountToPayout",
          "type": "uint256"
        },
        {
          "indexed": true,
          "internalType": "uint256",
          "name": "score",
          "type": "uint256"
        }
      ],
      "name": "Payout",
      "type": "event"
    },
    {
      "anonymous": false,
      "inputs": [
        {
          "indexed": true,
          "internalType": "uint256",
          "name": "articleId",
          "type": "uint256"
        },
        {
          "indexed": true,
          "internalType": "uint256",
          "name": "score",
          "type": "uint256"
        }
      ],
      "name": "VoteSubmitted",
      "type": "event"
    },
    {
      "inputs": [
        {
          "internalType": "uint256",
          "name": "_articleId",
          "type": "uint256"
        },
        {
          "internalType": "uint256",
          "name": "_airdropScore",
          "type": "uint256"
        },
        {
          "internalType": "uint256",
          "name": "_airdropTokenAmount",
          "type": "uint256"
        }
      ],
      "name": "airdrop",
      "outputs": [],
      "stateMutability": "payable",
      "type": "function"
    },
    {
      "inputs": [
        {
          "internalType": "uint256",
          "name": "",
          "type": "uint256"
        }
      ],
      "name": "articles",
      "outputs": [
        {
          "internalType": "address payable",
          "name": "author",
          "type": "address"
        },
        {
          "internalType": "uint256",
          "name": "score",
          "type": "uint256"
        }
      ],
      "stateMutability": "view",
      "type": "function"
    },
    {
      "inputs": [],
      "name": "createArticle",
      "outputs": [],
      "stateMutability": "nonpayable",
      "type": "function"
    },
    {
      "inputs": [
        {
          "internalType": "uint256",
          "name": "_articleId",
          "type": "uint256"
        }
      ],
      "name": "getArticle",
      "outputs": [
        {
          "components": [
            {
              "internalType": "address payable",
              "name": "author",
              "type": "address"
            },
            {
              "internalType": "uint256",
              "name": "score",
              "type": "uint256"
            }
          ],
          "internalType": "struct Voting.Article",
          "name": "",
          "type": "tuple"
        }
      ],
      "stateMutability": "view",
      "type": "function"
    },
    {
      "inputs": [],
      "name": "owner",
      "outputs": [
        {
          "internalType": "address",
          "name": "",
          "type": "address"
        }
      ],
      "stateMutability": "view",
      "type": "function"
    },
    {
      "inputs": [
        {
          "internalType": "uint256",
          "name": "_articleId",
          "type": "uint256"
        }
      ],
      "name": "payout",
      "outputs": [],
      "stateMutability": "payable",
      "type": "function"
    },
    {
      "inputs": [],
      "name": "renounceOwnership",
      "outputs": [],
      "stateMutability": "nonpayable",
      "type": "function"
    },
    {
      "inputs": [],
      "name": "token",
      "outputs": [
        {
          "internalType": "contract IERC20",
          "name": "",
          "type": "address"
        }
      ],
      "stateMutability": "view",
      "type": "function"
    },
    {
      "inputs": [
        {
          "internalType": "address",
          "name": "newOwner",
          "type": "address"
        }
      ],
      "name": "transferOwnership",
      "outputs": [],
      "stateMutability": "nonpayable",
      "type": "function"
    },
    {
      "inputs": [
        {
          "internalType": "uint256",
          "name": "_articleId",
          "type": "uint256"
        },
        {
          "internalType": "bool",
          "name": "_isUpVote",
          "type": "bool"
        }
      ],
      "name": "vote",
      "outputs": [],
      "stateMutability": "payable",
      "type": "function"
    }
  ],
  "bytecode": "0x60806040523480156200001157600080fd5b506040516200149c3803806200149c83398181016040528101906200003791906200018a565b620000576200004b620000a760201b60201c565b620000af60201b60201c565b80600160006101000a81548173ffffffffffffffffffffffffffffffffffffffff021916908373ffffffffffffffffffffffffffffffffffffffff16021790555060006002819055505062000204565b600033905090565b60008060009054906101000a900473ffffffffffffffffffffffffffffffffffffffff169050816000806101000a81548173ffffffffffffffffffffffffffffffffffffffff021916908373ffffffffffffffffffffffffffffffffffffffff1602179055508173ffffffffffffffffffffffffffffffffffffffff168173ffffffffffffffffffffffffffffffffffffffff167f8be0079c531659141344cd1fd0a4f28419497f9722a3daafe3b4186f6b6457e060405160405180910390a35050565b6000815190506200018481620001ea565b92915050565b6000602082840312156200019d57600080fd5b6000620001ad8482850162000173565b91505092915050565b6000620001c382620001ca565b9050919050565b600073ffffffffffffffffffffffffffffffffffffffff82169050919050565b620001f581620001b6565b81146200020157600080fd5b50565b61128880620002146000396000f3fe6080604052600436106100915760003560e01c8063c9d27afe11610059578063c9d27afe14610148578063e115234314610164578063edcfafe614610180578063f2fde38b146101be578063fc0c546a146101e757610091565b8063241e2c3d14610096578063715018a6146100ad5780638c195122146100c45780638da5cb5b146100e0578063bd85d8671461010b575b600080fd5b3480156100a257600080fd5b506100ab610212565b005b3480156100b957600080fd5b506100c261032c565b005b6100de60048036038101906100d99190610d1a565b6103b4565b005b3480156100ec57600080fd5b506100f5610517565b6040516101029190610e47565b60405180910390f35b34801561011757600080fd5b50610132600480360381019061012d9190610c8c565b610540565b60405161013f9190610f7d565b60405180910390f35b610162600480360381019061015d9190610cde565b6105cd565b005b61017e60048036038101906101799190610c8c565b6107e0565b005b34801561018c57600080fd5b506101a760048036038101906101a29190610c8c565b610973565b6040516101b5929190610e62565b60405180910390f35b3480156101ca57600080fd5b506101e560048036038101906101e09190610c3a565b6109b7565b005b3480156101f357600080fd5b506101fc610aaf565b6040516102099190610f22565b60405180910390f35b600260008154809291906102259061111d565b9190505550610232610ba1565b33816000019073ffffffffffffffffffffffffffffffffffffffff16908173ffffffffffffffffffffffffffffffffffffffff168152505060008160200181815250508060036000600254815260200190815260200160002060008201518160000160006101000a81548173ffffffffffffffffffffffffffffffffffffffff021916908373ffffffffffffffffffffffffffffffffffffffff16021790555060208201518160010155905050806000015173ffffffffffffffffffffffffffffffffffffffff166002547fa91f3498f37a5316e3197825f0291a8bf358ec7f89c6cfb5df24809ecba6ad4160405160405180910390a350565b610334610ad5565b73ffffffffffffffffffffffffffffffffffffffff16610352610517565b73ffffffffffffffffffffffffffffffffffffffff16146103a8576040517f08c379a000000000000000000000000000000000000000000000000000000000815260040161039f90610f5d565b60405180910390fd5b6103b26000610add565b565b6103bc610ad5565b73ffffffffffffffffffffffffffffffffffffffff166103da610517565b73ffffffffffffffffffffffffffffffffffffffff1614610430576040517f08c379a000000000000000000000000000000000000000000000000000000000815260040161042790610f5d565b60405180910390fd5b600160009054906101000a900473ffffffffffffffffffffffffffffffffffffffff1673ffffffffffffffffffffffffffffffffffffffff166323b872dd3330846040518463ffffffff1660e01b815260040161048f93929190610ec2565b602060405180830381600087803b1580156104a957600080fd5b505af11580156104bd573d6000803e3d6000fd5b505050506040513d601f19601f820116820180604052508101906104e19190610c63565b5060006003600085815260200190815260200160002090508281600101546105099190610fa9565b816001018190555050505050565b60008060009054906101000a900473ffffffffffffffffffffffffffffffffffffffff16905090565b610548610ba1565b600360008381526020019081526020016000206040518060400160405290816000820160009054906101000a900473ffffffffffffffffffffffffffffffffffffffff1673ffffffffffffffffffffffffffffffffffffffff1673ffffffffffffffffffffffffffffffffffffffff1681526020016001820154815250509050919050565b670de0b6b3a7640000600160009054906101000a900473ffffffffffffffffffffffffffffffffffffffff1673ffffffffffffffffffffffffffffffffffffffff166370a08231336040518263ffffffff1660e01b81526004016106319190610e47565b60206040518083038186803b15801561064957600080fd5b505afa15801561065d573d6000803e3d6000fd5b505050506040513d601f19601f820116820180604052508101906106819190610cb5565b101561068c57600080fd5b600160009054906101000a900473ffffffffffffffffffffffffffffffffffffffff1673ffffffffffffffffffffffffffffffffffffffff166323b872dd3330670de0b6b3a76400006040518463ffffffff1660e01b81526004016106f393929190610e8b565b602060405180830381600087803b15801561070d57600080fd5b505af1158015610721573d6000803e3d6000fd5b505050506040513d601f19601f820116820180604052508101906107459190610c63565b506000600360008481526020019081526020016000209050811561078157600181600101546107749190610fa9565b81600101819055506107a9565b6000816001015411156107a8576001816001015461079f9190611059565b81600101819055505b5b8060010154837f1d4cdcaaff2fc01a95a07d98488ca526d20a79f9d50de8404981671338e66b1560405160405180910390a3505050565b6003600082815260200190815260200160002060000160009054906101000a900473ffffffffffffffffffffffffffffffffffffffff1673ffffffffffffffffffffffffffffffffffffffff163373ffffffffffffffffffffffffffffffffffffffff161461084e57600080fd5b60006003600083815260200190815260200160002090506000670de0b6b3a7640000826001015461087f9190610fff565b9050600160009054906101000a900473ffffffffffffffffffffffffffffffffffffffff1673ffffffffffffffffffffffffffffffffffffffff1663a9059cbb33836040518363ffffffff1660e01b81526004016108de929190610ef9565b602060405180830381600087803b1580156108f857600080fd5b505af115801561090c573d6000803e3d6000fd5b505050506040513d601f19601f820116820180604052508101906109309190610c63565b5060008260010181905550816001015481847fc8be76c1b18e6f688cdb6f785d69442c4f00222e1884d39e40e761aab9e0f29460405160405180910390a4505050565b60036020528060005260406000206000915090508060000160009054906101000a900473ffffffffffffffffffffffffffffffffffffffff16908060010154905082565b6109bf610ad5565b73ffffffffffffffffffffffffffffffffffffffff166109dd610517565b73ffffffffffffffffffffffffffffffffffffffff1614610a33576040517f08c379a0000000000000000000000000000000000000000000000000000000008152600401610a2a90610f5d565b60405180910390fd5b600073ffffffffffffffffffffffffffffffffffffffff168173ffffffffffffffffffffffffffffffffffffffff161415610aa3576040517f08c379a0000000000000000000000000000000000000000000000000000000008152600401610a9a90610f3d565b60405180910390fd5b610aac81610add565b50565b600160009054906101000a900473ffffffffffffffffffffffffffffffffffffffff1681565b600033905090565b60008060009054906101000a900473ffffffffffffffffffffffffffffffffffffffff169050816000806101000a81548173ffffffffffffffffffffffffffffffffffffffff021916908373ffffffffffffffffffffffffffffffffffffffff1602179055508173ffffffffffffffffffffffffffffffffffffffff168173ffffffffffffffffffffffffffffffffffffffff167f8be0079c531659141344cd1fd0a4f28419497f9722a3daafe3b4186f6b6457e060405160405180910390a35050565b6040518060400160405280600073ffffffffffffffffffffffffffffffffffffffff168152602001600081525090565b600081359050610be08161120d565b92915050565b600081359050610bf581611224565b92915050565b600081519050610c0a81611224565b92915050565b600081359050610c1f8161123b565b92915050565b600081519050610c348161123b565b92915050565b600060208284031215610c4c57600080fd5b6000610c5a84828501610bd1565b91505092915050565b600060208284031215610c7557600080fd5b6000610c8384828501610bfb565b91505092915050565b600060208284031215610c9e57600080fd5b6000610cac84828501610c10565b91505092915050565b600060208284031215610cc757600080fd5b6000610cd584828501610c25565b91505092915050565b60008060408385031215610cf157600080fd5b6000610cff85828601610c10565b9250506020610d1085828601610be6565b9150509250929050565b600080600060608486031215610d2f57600080fd5b6000610d3d86828701610c10565b9350506020610d4e86828701610c10565b9250506040610d5f86828701610c10565b9150509250925092565b610d728161109f565b82525050565b610d818161109f565b82525050565b610d908161108d565b82525050565b610d9f816110e7565b82525050565b610dae8161110b565b82525050565b6000610dc1602683610f98565b9150610dcc82611195565b604082019050919050565b6000610de4602083610f98565b9150610def826111e4565b602082019050919050565b604082016000820151610e106000850182610d69565b506020820151610e236020850182610e29565b50505050565b610e32816110dd565b82525050565b610e41816110dd565b82525050565b6000602082019050610e5c6000830184610d87565b92915050565b6000604082019050610e776000830185610d78565b610e846020830184610e38565b9392505050565b6000606082019050610ea06000830186610d87565b610ead6020830185610d87565b610eba6040830184610da5565b949350505050565b6000606082019050610ed76000830186610d87565b610ee46020830185610d87565b610ef16040830184610e38565b949350505050565b6000604082019050610f0e6000830185610d87565b610f1b6020830184610e38565b9392505050565b6000602082019050610f376000830184610d96565b92915050565b60006020820190508181036000830152610f5681610db4565b9050919050565b60006020820190508181036000830152610f7681610dd7565b9050919050565b6000604082019050610f926000830184610dfa565b92915050565b600082825260208201905092915050565b6000610fb4826110dd565b9150610fbf836110dd565b9250827fffffffffffffffffffffffffffffffffffffffffffffffffffffffffffffffff03821115610ff457610ff3611166565b5b828201905092915050565b600061100a826110dd565b9150611015836110dd565b9250817fffffffffffffffffffffffffffffffffffffffffffffffffffffffffffffffff048311821515161561104e5761104d611166565b5b828202905092915050565b6000611064826110dd565b915061106f836110dd565b92508282101561108257611081611166565b5b828203905092915050565b6000611098826110bd565b9050919050565b60006110aa826110bd565b9050919050565b60008115159050919050565b600073ffffffffffffffffffffffffffffffffffffffff82169050919050565b6000819050919050565b60006110f2826110f9565b9050919050565b6000611104826110bd565b9050919050565b6000611116826110dd565b9050919050565b6000611128826110dd565b91507fffffffffffffffffffffffffffffffffffffffffffffffffffffffffffffffff82141561115b5761115a611166565b5b600182019050919050565b7f4e487b7100000000000000000000000000000000000000000000000000000000600052601160045260246000fd5b7f4f776e61626c653a206e6577206f776e657220697320746865207a65726f206160008201527f6464726573730000000000000000000000000000000000000000000000000000602082015250565b7f4f776e61626c653a2063616c6c6572206973206e6f7420746865206f776e6572600082015250565b6112168161108d565b811461122157600080fd5b50565b61122d816110b1565b811461123857600080fd5b50565b611244816110dd565b811461124f57600080fd5b5056fea26469706673582212205209cb36f92b9c6034508e96b7551a5fc0790f4b2216fd775855cb877bb2d5b564736f6c63430008040033",
  "linkReferences": {},
  "deployedLinkReferences": {}
}