{
  "address": "0xbc82454027d2a12700adC2370148Ccb3BD759Cae",
  "abi": [
    {
      "inputs": [
        {
          "internalType": "address",
          "name": "_defaultProtocolFeeDestination",
          "type": "address"
        },
        {
          "internalType": "uint256",
          "name": "_defaultProtocolFeePercent",
          "type": "uint256"
        },
        {
          "internalType": "uint256",
          "name": "_defaultStreamerFeePercent",
          "type": "uint256"
        }
      ],
      "stateMutability": "nonpayable",
      "type": "constructor"
    },
    {
      "anonymous": false,
      "inputs": [
        {
          "indexed": false,
          "internalType": "uint256",
          "name": "maxDuration",
          "type": "uint256"
        }
      ],
      "name": "MaxDurationSet",
      "type": "event"
    },
    {
      "anonymous": false,
      "inputs": [
        {
          "indexed": true,
          "internalType": "address",
          "name": "previousOwner",
          "type": "address"
        },
        {
          "indexed": true,
          "internalType": "address",
          "name": "newOwner",
          "type": "address"
        }
      ],
      "name": "OwnershipTransferred",
      "type": "event"
    },
    {
      "anonymous": false,
      "inputs": [
        {
          "indexed": false,
          "internalType": "bool",
          "name": "isPaused",
          "type": "bool"
        },
        {
          "indexed": false,
          "internalType": "uint256",
          "name": "numDeployedTokens",
          "type": "uint256"
        }
      ],
      "name": "PauseFactorySet",
      "type": "event"
    },
    {
      "anonymous": false,
      "inputs": [
        {
          "indexed": true,
          "internalType": "address",
          "name": "protocolFeeDestination",
          "type": "address"
        }
      ],
      "name": "ProtocolFeeDestinationSet",
      "type": "event"
    },
    {
      "anonymous": false,
      "inputs": [
        {
          "indexed": false,
          "internalType": "uint256",
          "name": "feePercent",
          "type": "uint256"
        }
      ],
      "name": "ProtocolFeePercentSet",
      "type": "event"
    },
    {
      "anonymous": false,
      "inputs": [
        {
          "indexed": false,
          "internalType": "uint256",
          "name": "feePercent",
          "type": "uint256"
        }
      ],
      "name": "StreamerFeePercentSet",
      "type": "event"
    },
    {
      "anonymous": false,
      "inputs": [
        {
          "indexed": true,
          "internalType": "address",
          "name": "tokenAddress",
          "type": "address"
        },
        {
          "indexed": true,
          "internalType": "address",
          "name": "owner",
          "type": "address"
        },
        {
          "indexed": false,
          "internalType": "uint256",
          "name": "index",
          "type": "uint256"
        },
        {
          "indexed": false,
          "internalType": "string",
          "name": "name",
          "type": "string"
        },
        {
          "indexed": false,
          "internalType": "string",
          "name": "symbol",
          "type": "string"
        },
        {
          "indexed": false,
          "internalType": "uint256",
          "name": "endTimestamp",
          "type": "uint256"
        },
        {
          "indexed": false,
          "internalType": "address",
          "name": "protocolFeeDestination",
          "type": "address"
        },
        {
          "indexed": false,
          "internalType": "uint256",
          "name": "protocolFeePercent",
          "type": "uint256"
        },
        {
          "indexed": false,
          "internalType": "uint256",
          "name": "streamerFeePercent",
          "type": "uint256"
        }
      ],
      "name": "TempTokenCreated",
      "type": "event"
    },
    {
      "inputs": [
        {
          "internalType": "string",
          "name": "name",
          "type": "string"
        },
        {
          "internalType": "string",
          "name": "symbol",
          "type": "string"
        },
        {
          "internalType": "uint256",
          "name": "duration",
          "type": "uint256"
        }
      ],
      "name": "createTempToken",
      "outputs": [
        {
          "internalType": "address",
          "name": "",
          "type": "address"
        }
      ],
      "stateMutability": "nonpayable",
      "type": "function"
    },
    {
      "inputs": [],
      "name": "defaultProtocolFeeDestination",
      "outputs": [
        {
          "internalType": "address",
          "name": "",
          "type": "address"
        }
      ],
      "stateMutability": "view",
      "type": "function"
    },
    {
      "inputs": [],
      "name": "defaultProtocolFeePercent",
      "outputs": [
        {
          "internalType": "uint256",
          "name": "",
          "type": "uint256"
        }
      ],
      "stateMutability": "view",
      "type": "function"
    },
    {
      "inputs": [],
      "name": "defaultStreamerFeePercent",
      "outputs": [
        {
          "internalType": "uint256",
          "name": "",
          "type": "uint256"
        }
      ],
      "stateMutability": "view",
      "type": "function"
    },
    {
      "inputs": [
        {
          "internalType": "address",
          "name": "",
          "type": "address"
        }
      ],
      "name": "deployedTokenIndices",
      "outputs": [
        {
          "internalType": "uint256",
          "name": "",
          "type": "uint256"
        }
      ],
      "stateMutability": "view",
      "type": "function"
    },
    {
      "inputs": [
        {
          "internalType": "uint256",
          "name": "",
          "type": "uint256"
        }
      ],
      "name": "deployedTokens",
      "outputs": [
        {
          "internalType": "address",
          "name": "tokenAddress",
          "type": "address"
        },
        {
          "internalType": "address",
          "name": "ownerAddress",
          "type": "address"
        },
        {
          "internalType": "string",
          "name": "name",
          "type": "string"
        },
        {
          "internalType": "string",
          "name": "symbol",
          "type": "string"
        },
        {
          "internalType": "uint256",
          "name": "endTimestamp",
          "type": "uint256"
        },
        {
          "internalType": "address",
          "name": "protocolFeeDestination",
          "type": "address"
        },
        {
          "internalType": "uint256",
          "name": "protocolFeePercent",
          "type": "uint256"
        },
        {
          "internalType": "uint256",
          "name": "streamerFeePercent",
          "type": "uint256"
        }
      ],
      "stateMutability": "view",
      "type": "function"
    },
    {
      "inputs": [
        {
          "internalType": "address",
          "name": "tokenAddress",
          "type": "address"
        }
      ],
      "name": "getTokenInfo",
      "outputs": [
        {
          "components": [
            {
              "internalType": "address",
              "name": "tokenAddress",
              "type": "address"
            },
            {
              "internalType": "address",
              "name": "ownerAddress",
              "type": "address"
            },
            {
              "internalType": "string",
              "name": "name",
              "type": "string"
            },
            {
              "internalType": "string",
              "name": "symbol",
              "type": "string"
            },
            {
              "internalType": "uint256",
              "name": "endTimestamp",
              "type": "uint256"
            },
            {
              "internalType": "address",
              "name": "protocolFeeDestination",
              "type": "address"
            },
            {
              "internalType": "uint256",
              "name": "protocolFeePercent",
              "type": "uint256"
            },
            {
              "internalType": "uint256",
              "name": "streamerFeePercent",
              "type": "uint256"
            }
          ],
          "internalType": "struct TempTokenFactoryV1.TokenInfo",
          "name": "",
          "type": "tuple"
        }
      ],
      "stateMutability": "view",
      "type": "function"
    },
    {
      "inputs": [],
      "name": "isPaused",
      "outputs": [
        {
          "internalType": "bool",
          "name": "",
          "type": "bool"
        }
      ],
      "stateMutability": "view",
      "type": "function"
    },
    {
      "inputs": [],
      "name": "maxDuration",
      "outputs": [
        {
          "internalType": "uint256",
          "name": "",
          "type": "uint256"
        }
      ],
      "stateMutability": "view",
      "type": "function"
    },
    {
      "inputs": [],
      "name": "numDeployedTokens",
      "outputs": [
        {
          "internalType": "uint256",
          "name": "",
          "type": "uint256"
        }
      ],
      "stateMutability": "view",
      "type": "function"
    },
    {
      "inputs": [],
      "name": "owner",
      "outputs": [
        {
          "internalType": "address",
          "name": "",
          "type": "address"
        }
      ],
      "stateMutability": "view",
      "type": "function"
    },
    {
      "inputs": [],
      "name": "renounceOwnership",
      "outputs": [],
      "stateMutability": "nonpayable",
      "type": "function"
    },
    {
      "inputs": [
        {
          "internalType": "address",
          "name": "protocolFeeDestination",
          "type": "address"
        }
      ],
      "name": "setFeeDestination",
      "outputs": [],
      "stateMutability": "nonpayable",
      "type": "function"
    },
    {
      "inputs": [
        {
          "internalType": "uint256",
          "name": "_maxDuration",
          "type": "uint256"
        }
      ],
      "name": "setMaxDuration",
      "outputs": [],
      "stateMutability": "nonpayable",
      "type": "function"
    },
    {
      "inputs": [
        {
          "internalType": "bool",
          "name": "_isPaused",
          "type": "bool"
        }
      ],
      "name": "setPauseFactory",
      "outputs": [],
      "stateMutability": "nonpayable",
      "type": "function"
    },
    {
      "inputs": [
        {
          "internalType": "uint256",
          "name": "_feePercent",
          "type": "uint256"
        }
      ],
      "name": "setProtocolFeePercent",
      "outputs": [],
      "stateMutability": "nonpayable",
      "type": "function"
    },
    {
      "inputs": [
        {
          "internalType": "uint256",
          "name": "_feePercent",
          "type": "uint256"
        }
      ],
      "name": "setStreamerFeePercent",
      "outputs": [],
      "stateMutability": "nonpayable",
      "type": "function"
    },
    {
      "inputs": [
        {
          "internalType": "address",
          "name": "newOwner",
          "type": "address"
        }
      ],
      "name": "transferOwnership",
      "outputs": [],
      "stateMutability": "nonpayable",
      "type": "function"
    }
  ],
  "transactionHash": "0x1ee9df11e9de65a22007222ffc9e0a513472f708b73a028352840b88319ed106",
  "args": [
    "0x4F3d3f2F895Db524AC3944BDd17fE632473bCa4a",
    "20000000000000000",
    "20000000000000000"
  ],
  "numDeployments": 2,
  "solcInputHash": "5e15a2db418e4dd09e4c93fee76fdaff",
  "bytecode": "0x60806040523480156200001157600080fd5b50604051620058db380380620058db83398181016040528101906200003791906200029c565b620000576200004b6200012b60201b60201c565b6200013360201b60201c565b600073ffffffffffffffffffffffffffffffffffffffff168373ffffffffffffffffffffffffffffffffffffffff161415620000ca576040517f08c379a0000000000000000000000000000000000000000000000000000000008152600401620000c1906200037f565b60405180910390fd5b816004819055508060058190555082600660006101000a81548173ffffffffffffffffffffffffffffffffffffffff021916908373ffffffffffffffffffffffffffffffffffffffff160217905550610e10600781905550505050620003a1565b600033905090565b60008060009054906101000a900473ffffffffffffffffffffffffffffffffffffffff169050816000806101000a81548173ffffffffffffffffffffffffffffffffffffffff021916908373ffffffffffffffffffffffffffffffffffffffff1602179055508173ffffffffffffffffffffffffffffffffffffffff168173ffffffffffffffffffffffffffffffffffffffff167f8be0079c531659141344cd1fd0a4f28419497f9722a3daafe3b4186f6b6457e060405160405180910390a35050565b600080fd5b600073ffffffffffffffffffffffffffffffffffffffff82169050919050565b60006200022982620001fc565b9050919050565b6200023b816200021c565b81146200024757600080fd5b50565b6000815190506200025b8162000230565b92915050565b6000819050919050565b620002768162000261565b81146200028257600080fd5b50565b60008151905062000296816200026b565b92915050565b600080600060608486031215620002b857620002b7620001f7565b5b6000620002c8868287016200024a565b9350506020620002db8682870162000285565b9250506040620002ee8682870162000285565b9150509250925092565b600082825260208201905092915050565b7f44656661756c74206665652064657374696e6174696f6e2063616e6e6f74206260008201527f6520746865207a65726f20616464726573730000000000000000000000000000602082015250565b600062000367603283620002f8565b9150620003748262000309565b604082019050919050565b600060208201905081810360008301526200039a8162000358565b9050919050565b61552a80620003b16000396000f3fe60806040523480156200001157600080fd5b5060043610620001305760003560e01c8063a498342111620000b1578063d7f20549116200007b578063d7f20549146200030d578063ec81aadb146200032f578063edb40447146200036c578063f2fde38b146200038e578063fbe5323414620003ae5762000130565b8063a49834211462000289578063b187bd2614620002a9578063bb5dfe1914620002cb578063cf0f34c414620002ed5762000130565b8063715018a611620000ff578063715018a614620001cf5780637a31c18514620001db578063804e6f2314620001fb5780638da5cb5b146200023157806396266d9c14620002535762000130565b80631f69565f146200013557806344161783146200016b5780636db5c8fd146200018d5780636e3eb6f414620001af575b600080fd5b6200015360048036038101906200014d9190620012fa565b620003ce565b604051620001629190620014c3565b60405180910390f35b6200017562000697565b604051620001849190620014f8565b60405180910390f35b620001976200069d565b604051620001a69190620014f8565b60405180910390f35b620001cd6004803603810190620001c7919062001552565b620006a3565b005b620001d962000707565b005b620001f96004803603810190620001f39190620015b5565b6200071f565b005b62000219600480360381019062000213919062001738565b6200076c565b604051620002289190620017e3565b60405180910390f35b6200023b62000be7565b6040516200024a9190620017e3565b60405180910390f35b6200027160048036038101906200026b9190620012fa565b62000c10565b604051620002809190620014f8565b60405180910390f35b620002a76004803603810190620002a19190620015b5565b62000c28565b005b620002b362000c75565b604051620002c2919062001811565b60405180910390f35b620002d562000c88565b604051620002e49190620014f8565b60405180910390f35b6200030b6004803603810190620003059190620015b5565b62000c8e565b005b6200031762000cdb565b604051620003269190620014f8565b60405180910390f35b6200034d6004803603810190620003479190620015b5565b62000ce1565b6040516200036398979695949392919062001880565b60405180910390f35b6200037662000ea9565b604051620003859190620017e3565b60405180910390f35b620003ac6004803603810190620003a69190620012fa565b62000ecf565b005b620003cc6004803603810190620003c69190620012fa565b62000f5a565b005b620003d86200113c565b6000600260008473ffffffffffffffffffffffffffffffffffffffff1673ffffffffffffffffffffffffffffffffffffffff16815260200190815260200160002054905060036000828152602001908152602001600020604051806101000160405290816000820160009054906101000a900473ffffffffffffffffffffffffffffffffffffffff1673ffffffffffffffffffffffffffffffffffffffff1673ffffffffffffffffffffffffffffffffffffffff1681526020016001820160009054906101000a900473ffffffffffffffffffffffffffffffffffffffff1673ffffffffffffffffffffffffffffffffffffffff1673ffffffffffffffffffffffffffffffffffffffff168152602001600282018054620004f9906200194b565b80601f016020809104026020016040519081016040528092919081815260200182805462000527906200194b565b8015620005785780601f106200054c5761010080835404028352916020019162000578565b820191906000526020600020905b8154815290600101906020018083116200055a57829003601f168201915b5050505050815260200160038201805462000593906200194b565b80601f0160208091040260200160405190810160405280929190818152602001828054620005c1906200194b565b8015620006125780601f10620005e65761010080835404028352916020019162000612565b820191906000526020600020905b815481529060010190602001808311620005f457829003601f168201915b50505050508152602001600482015481526020016005820160009054906101000a900473ffffffffffffffffffffffffffffffffffffffff1673ffffffffffffffffffffffffffffffffffffffff1673ffffffffffffffffffffffffffffffffffffffff16815260200160068201548152602001600782015481525050915050919050565b60045481565b60075481565b620006ad62000feb565b80600660146101000a81548160ff0219169083151502179055507fd119587be04d80080c64717a0dc158c674898c4fe140498ffd144e1f6645d8b981600154604051620006fc92919062001981565b60405180910390a150565b6200071162000feb565b6200071d600062001070565b565b6200072962000feb565b806005819055507f444c2ee6a42985e86e4d1c21435989ae523bae8ee02a11e8579bc4ac18b1d4ae81604051620007619190620014f8565b60405180910390a150565b6000600660149054906101000a900460ff1615620007c1576040517f08c379a0000000000000000000000000000000000000000000000000000000008152600401620007b890620019fe565b60405180910390fd5b60075482111562000809576040517f08c379a0000000000000000000000000000000000000000000000000000000008152600401620008009062001a96565b60405180910390fd5b6000824262000819919062001ae7565b90506000858583600660009054906101000a900473ffffffffffffffffffffffffffffffffffffffff16600454600554306040516200085890620011c3565b6200086a979695949392919062001b44565b604051809103906000f08015801562000887573d6000803e3d6000fd5b50905060006001600081546200089d9062001bcf565b91905081905590506040518061010001604052808373ffffffffffffffffffffffffffffffffffffffff1681526020013373ffffffffffffffffffffffffffffffffffffffff168152602001888152602001878152602001848152602001600660009054906101000a900473ffffffffffffffffffffffffffffffffffffffff1673ffffffffffffffffffffffffffffffffffffffff16815260200160045481526020016005548152506003600083815260200190815260200160002060008201518160000160006101000a81548173ffffffffffffffffffffffffffffffffffffffff021916908373ffffffffffffffffffffffffffffffffffffffff16021790555060208201518160010160006101000a81548173ffffffffffffffffffffffffffffffffffffffff021916908373ffffffffffffffffffffffffffffffffffffffff160217905550604082015181600201908051906020019062000a06929190620011d1565b50606082015181600301908051906020019062000a25929190620011d1565b506080820151816004015560a08201518160050160006101000a81548173ffffffffffffffffffffffffffffffffffffffff021916908373ffffffffffffffffffffffffffffffffffffffff16021790555060c0820151816006015560e0820151816007015590505080600260008473ffffffffffffffffffffffffffffffffffffffff1673ffffffffffffffffffffffffffffffffffffffff168152602001908152602001600020819055508173ffffffffffffffffffffffffffffffffffffffff1663f2fde38b336040518263ffffffff1660e01b815260040162000b0d9190620017e3565b600060405180830381600087803b15801562000b2857600080fd5b505af115801562000b3d573d6000803e3d6000fd5b505050503373ffffffffffffffffffffffffffffffffffffffff168273ffffffffffffffffffffffffffffffffffffffff167f4cdd70d7aa60bcf2aa056215650bc0bb5c0018a2a6408dc58db9b208d7913e31838a8a88600660009054906101000a900473ffffffffffffffffffffffffffffffffffffffff1660045460055460405162000bd2979695949392919062001c1d565b60405180910390a38193505050509392505050565b60008060009054906101000a900473ffffffffffffffffffffffffffffffffffffffff16905090565b60026020528060005260406000206000915090505481565b62000c3262000feb565b806004819055507fa318485d4b7a387f0695a0179248931f1d023e08844d98b4e9e34775324bceb58160405162000c6a9190620014f8565b60405180910390a150565b600660149054906101000a900460ff1681565b60015481565b62000c9862000feb565b806007819055507fba0716ba1ee2ea8ecc4c64119b4537cdb42a99d82acf92af5b87607b8b5235528160405162000cd09190620014f8565b60405180910390a150565b60055481565b60036020528060005260406000206000915090508060000160009054906101000a900473ffffffffffffffffffffffffffffffffffffffff16908060010160009054906101000a900473ffffffffffffffffffffffffffffffffffffffff169080600201805462000d52906200194b565b80601f016020809104026020016040519081016040528092919081815260200182805462000d80906200194b565b801562000dd15780601f1062000da55761010080835404028352916020019162000dd1565b820191906000526020600020905b81548152906001019060200180831162000db357829003601f168201915b50505050509080600301805462000de8906200194b565b80601f016020809104026020016040519081016040528092919081815260200182805462000e16906200194b565b801562000e675780601f1062000e3b5761010080835404028352916020019162000e67565b820191906000526020600020905b81548152906001019060200180831162000e4957829003601f168201915b5050505050908060040154908060050160009054906101000a900473ffffffffffffffffffffffffffffffffffffffff16908060060154908060070154905088565b600660009054906101000a900473ffffffffffffffffffffffffffffffffffffffff1681565b62000ed962000feb565b600073ffffffffffffffffffffffffffffffffffffffff168173ffffffffffffffffffffffffffffffffffffffff16141562000f4c576040517f08c379a000000000000000000000000000000000000000000000000000000000815260040162000f439062001d1e565b60405180910390fd5b62000f578162001070565b50565b62000f6462000feb565b80600660006101000a81548173ffffffffffffffffffffffffffffffffffffffff021916908373ffffffffffffffffffffffffffffffffffffffff1602179055508073ffffffffffffffffffffffffffffffffffffffff167f262538484f9e0f43acdcef80a543c1aecfc0b210b993fd3d09bd77ee95b9d34460405160405180910390a250565b62000ff562001134565b73ffffffffffffffffffffffffffffffffffffffff166200101562000be7565b73ffffffffffffffffffffffffffffffffffffffff16146200106e576040517f08c379a0000000000000000000000000000000000000000000000000000000008152600401620010659062001d90565b60405180910390fd5b565b60008060009054906101000a900473ffffffffffffffffffffffffffffffffffffffff169050816000806101000a81548173ffffffffffffffffffffffffffffffffffffffff021916908373ffffffffffffffffffffffffffffffffffffffff1602179055508173ffffffffffffffffffffffffffffffffffffffff168173ffffffffffffffffffffffffffffffffffffffff167f8be0079c531659141344cd1fd0a4f28419497f9722a3daafe3b4186f6b6457e060405160405180910390a35050565b600033905090565b604051806101000160405280600073ffffffffffffffffffffffffffffffffffffffff168152602001600073ffffffffffffffffffffffffffffffffffffffff168152602001606081526020016060815260200160008152602001600073ffffffffffffffffffffffffffffffffffffffff16815260200160008152602001600081525090565b6137428062001db383390190565b828054620011df906200194b565b90600052602060002090601f0160209004810192826200120357600085556200124f565b82601f106200121e57805160ff19168380011785556200124f565b828001600101855582156200124f579182015b828111156200124e57825182559160200191906001019062001231565b5b5090506200125e919062001262565b5090565b5b808211156200127d57600081600090555060010162001263565b5090565b6000604051905090565b600080fd5b600080fd5b600073ffffffffffffffffffffffffffffffffffffffff82169050919050565b6000620012c28262001295565b9050919050565b620012d481620012b5565b8114620012e057600080fd5b50565b600081359050620012f481620012c9565b92915050565b6000602082840312156200131357620013126200128b565b5b60006200132384828501620012e3565b91505092915050565b6200133781620012b5565b82525050565b600081519050919050565b600082825260208201905092915050565b60005b83811015620013795780820151818401526020810190506200135c565b8381111562001389576000848401525b50505050565b6000601f19601f8301169050919050565b6000620013ad826200133d565b620013b9818562001348565b9350620013cb81856020860162001359565b620013d6816200138f565b840191505092915050565b6000819050919050565b620013f681620013e1565b82525050565b6000610100830160008301516200141760008601826200132c565b5060208301516200142c60208601826200132c565b5060408301518482036040860152620014468282620013a0565b91505060608301518482036060860152620014628282620013a0565b9150506080830151620014796080860182620013eb565b5060a08301516200148e60a08601826200132c565b5060c0830151620014a360c0860182620013eb565b5060e0830151620014b860e0860182620013eb565b508091505092915050565b60006020820190508181036000830152620014df8184620013fc565b905092915050565b620014f281620013e1565b82525050565b60006020820190506200150f6000830184620014e7565b92915050565b60008115159050919050565b6200152c8162001515565b81146200153857600080fd5b50565b6000813590506200154c8162001521565b92915050565b6000602082840312156200156b576200156a6200128b565b5b60006200157b848285016200153b565b91505092915050565b6200158f81620013e1565b81146200159b57600080fd5b50565b600081359050620015af8162001584565b92915050565b600060208284031215620015ce57620015cd6200128b565b5b6000620015de848285016200159e565b91505092915050565b600080fd5b600080fd5b7f4e487b7100000000000000000000000000000000000000000000000000000000600052604160045260246000fd5b6200162b826200138f565b810181811067ffffffffffffffff821117156200164d576200164c620015f1565b5b80604052505050565b60006200166262001281565b905062001670828262001620565b919050565b600067ffffffffffffffff821115620016935762001692620015f1565b5b6200169e826200138f565b9050602081019050919050565b82818337600083830152505050565b6000620016d1620016cb8462001675565b62001656565b905082815260208101848484011115620016f057620016ef620015ec565b5b620016fd848285620016ab565b509392505050565b600082601f8301126200171d576200171c620015e7565b5b81356200172f848260208601620016ba565b91505092915050565b6000806000606084860312156200175457620017536200128b565b5b600084013567ffffffffffffffff81111562001775576200177462001290565b5b620017838682870162001705565b935050602084013567ffffffffffffffff811115620017a757620017a662001290565b5b620017b58682870162001705565b9250506040620017c8868287016200159e565b9150509250925092565b620017dd81620012b5565b82525050565b6000602082019050620017fa6000830184620017d2565b92915050565b6200180b8162001515565b82525050565b600060208201905062001828600083018462001800565b92915050565b600082825260208201905092915050565b60006200184c826200133d565b6200185881856200182e565b93506200186a81856020860162001359565b62001875816200138f565b840191505092915050565b60006101008201905062001898600083018b620017d2565b620018a7602083018a620017d2565b8181036040830152620018bb81896200183f565b90508181036060830152620018d181886200183f565b9050620018e26080830187620014e7565b620018f160a0830186620017d2565b6200190060c0830185620014e7565b6200190f60e0830184620014e7565b9998505050505050505050565b7f4e487b7100000000000000000000000000000000000000000000000000000000600052602260045260246000fd5b600060028204905060018216806200196457607f821691505b602082108114156200197b576200197a6200191c565b5b50919050565b600060408201905062001998600083018562001800565b620019a76020830184620014e7565b9392505050565b7f466163746f727920697320706175736564000000000000000000000000000000600082015250565b6000620019e66011836200182e565b9150620019f382620019ae565b602082019050919050565b6000602082019050818103600083015262001a1981620019d7565b9050919050565b7f4475726174696f6e206973206c6f6e676572207468616e206d6178206475726160008201527f74696f6e00000000000000000000000000000000000000000000000000000000602082015250565b600062001a7e6024836200182e565b915062001a8b8262001a20565b604082019050919050565b6000602082019050818103600083015262001ab18162001a6f565b9050919050565b7f4e487b7100000000000000000000000000000000000000000000000000000000600052601160045260246000fd5b600062001af482620013e1565b915062001b0183620013e1565b9250827fffffffffffffffffffffffffffffffffffffffffffffffffffffffffffffffff0382111562001b395762001b3862001ab8565b5b828201905092915050565b600060e082019050818103600083015262001b60818a6200183f565b9050818103602083015262001b7681896200183f565b905062001b876040830188620014e7565b62001b966060830187620017d2565b62001ba56080830186620014e7565b62001bb460a0830185620014e7565b62001bc360c0830184620017d2565b98975050505050505050565b600062001bdc82620013e1565b91507fffffffffffffffffffffffffffffffffffffffffffffffffffffffffffffffff82141562001c125762001c1162001ab8565b5b600182019050919050565b600060e08201905062001c34600083018a620014e7565b818103602083015262001c4881896200183f565b9050818103604083015262001c5e81886200183f565b905062001c6f6060830187620014e7565b62001c7e6080830186620017d2565b62001c8d60a0830185620014e7565b62001c9c60c0830184620014e7565b98975050505050505050565b7f4f776e61626c653a206e6577206f776e657220697320746865207a65726f206160008201527f6464726573730000000000000000000000000000000000000000000000000000602082015250565b600062001d066026836200182e565b915062001d138262001ca8565b604082019050919050565b6000602082019050818103600083015262001d398162001cf7565b9050919050565b7f4f776e61626c653a2063616c6c6572206973206e6f7420746865206f776e6572600082015250565b600062001d786020836200182e565b915062001d858262001d40565b602082019050919050565b6000602082019050818103600083015262001dab8162001d69565b905091905056fe60806040523480156200001157600080fd5b506040516200374238038062003742833981810160405281019062000037919062000567565b86868160039080519060200190620000519291906200027a565b5080600490805190602001906200006a9291906200027a565b5050506200008d62000081620001ac60201b60201c565b620001b460201b60201c565b6001600681905550600073ffffffffffffffffffffffffffffffffffffffff168473ffffffffffffffffffffffffffffffffffffffff16141562000108576040517f08c379a0000000000000000000000000000000000000000000000000000000008152600401620000ff90620006df565b60405180910390fd5b84600b819055508260098190555081600a8190555083600860006101000a81548173ffffffffffffffffffffffffffffffffffffffff021916908373ffffffffffffffffffffffffffffffffffffffff16021790555080600760006101000a81548173ffffffffffffffffffffffffffffffffffffffff021916908373ffffffffffffffffffffffffffffffffffffffff1602179055505050505050505062000766565b600033905090565b6000600560009054906101000a900473ffffffffffffffffffffffffffffffffffffffff16905081600560006101000a81548173ffffffffffffffffffffffffffffffffffffffff021916908373ffffffffffffffffffffffffffffffffffffffff1602179055508173ffffffffffffffffffffffffffffffffffffffff168173ffffffffffffffffffffffffffffffffffffffff167f8be0079c531659141344cd1fd0a4f28419497f9722a3daafe3b4186f6b6457e060405160405180910390a35050565b828054620002889062000730565b90600052602060002090601f016020900481019282620002ac5760008555620002f8565b82601f10620002c757805160ff1916838001178555620002f8565b82800160010185558215620002f8579182015b82811115620002f7578251825591602001919060010190620002da565b5b5090506200030791906200030b565b5090565b5b80821115620003265760008160009055506001016200030c565b5090565b6000604051905090565b600080fd5b600080fd5b600080fd5b600080fd5b6000601f19601f8301169050919050565b7f4e487b7100000000000000000000000000000000000000000000000000000000600052604160045260246000fd5b620003938262000348565b810181811067ffffffffffffffff82111715620003b557620003b462000359565b5b80604052505050565b6000620003ca6200032a565b9050620003d8828262000388565b919050565b600067ffffffffffffffff821115620003fb57620003fa62000359565b5b620004068262000348565b9050602081019050919050565b60005b838110156200043357808201518184015260208101905062000416565b8381111562000443576000848401525b50505050565b6000620004606200045a84620003dd565b620003be565b9050828152602081018484840111156200047f576200047e62000343565b5b6200048c84828562000413565b509392505050565b600082601f830112620004ac57620004ab6200033e565b5b8151620004be84826020860162000449565b91505092915050565b6000819050919050565b620004dc81620004c7565b8114620004e857600080fd5b50565b600081519050620004fc81620004d1565b92915050565b600073ffffffffffffffffffffffffffffffffffffffff82169050919050565b60006200052f8262000502565b9050919050565b620005418162000522565b81146200054d57600080fd5b50565b600081519050620005618162000536565b92915050565b600080600080600080600060e0888a03121562000589576200058862000334565b5b600088015167ffffffffffffffff811115620005aa57620005a962000339565b5b620005b88a828b0162000494565b975050602088015167ffffffffffffffff811115620005dc57620005db62000339565b5b620005ea8a828b0162000494565b9650506040620005fd8a828b01620004eb565b9550506060620006108a828b0162000550565b9450506080620006238a828b01620004eb565b93505060a0620006368a828b01620004eb565b92505060c0620006498a828b0162000550565b91505092959891949750929550565b600082825260208201905092915050565b7f4665652064657374696e6174696f6e2063616e6e6f7420626520746865207a6560008201527f726f206164647265737300000000000000000000000000000000000000000000602082015250565b6000620006c7602a8362000658565b9150620006d48262000669565b604082019050919050565b60006020820190508181036000830152620006fa81620006b8565b9050919050565b7f4e487b7100000000000000000000000000000000000000000000000000000000600052602260045260246000fd5b600060028204905060018216806200074957607f821691505b6020821081141562000760576200075f62000701565b5b50919050565b612fcc80620007766000396000f3fe6080604052600436106101c25760003560e01c80638da5cb5b116100f7578063c5a1d5e211610095578063df61130411610064578063df611304146106ad578063f2fde38b146106c4578063f46d9324146106ed578063fba7cc7914610718576101c2565b8063c5a1d5e2146105cb578063d6e6eb9f14610608578063d7e8946614610633578063dd62ed3e14610670576101c2565b8063a0712d68116100d1578063a0712d681461050a578063a457c2d714610526578063a85adeab14610563578063a9059cbb1461058e576101c2565b80638da5cb5b1461048957806395d89b41146104b4578063966dae0e146104df576101c2565b806338cb037a116101645780634768e8851161013e5780634768e885146103cd5780634ce7957c1461040a57806370a0823114610435578063715018a614610472576101c2565b806338cb037a1461032a578063395093511461036757806342966c68146103a4576101c2565b806318160ddd116101a057806318160ddd1461025a57806323b872dd1461028557806327de8f27146102c2578063313ce567146102ff576101c2565b806306fdde03146101c7578063095ea7b3146101f257806312065fe01461022f575b600080fd5b3480156101d357600080fd5b506101dc610743565b6040516101e9919061215c565b60405180910390f35b3480156101fe57600080fd5b5061021960048036038101906102149190612217565b6107d5565b6040516102269190612272565b60405180910390f35b34801561023b57600080fd5b506102446107f8565b604051610251919061229c565b60405180910390f35b34801561026657600080fd5b5061026f610800565b60405161027c919061229c565b60405180910390f35b34801561029157600080fd5b506102ac60048036038101906102a791906122b7565b61080a565b6040516102b99190612272565b60405180910390f35b3480156102ce57600080fd5b506102e960048036038101906102e4919061230a565b610839565b6040516102f6919061229c565b60405180910390f35b34801561030b57600080fd5b50610314610882565b6040516103219190612353565b60405180910390f35b34801561033657600080fd5b50610351600480360381019061034c919061230a565b610887565b60405161035e919061229c565b60405180910390f35b34801561037357600080fd5b5061038e60048036038101906103899190612217565b61093e565b60405161039b9190612272565b60405180910390f35b3480156103b057600080fd5b506103cb60048036038101906103c6919061230a565b610975565b005b3480156103d957600080fd5b506103f460048036038101906103ef919061230a565b610d1d565b604051610401919061229c565b60405180910390f35b34801561041657600080fd5b5061041f610d6d565b60405161042c919061237d565b60405180910390f35b34801561044157600080fd5b5061045c60048036038101906104579190612398565b610d93565b604051610469919061229c565b60405180910390f35b34801561047e57600080fd5b50610487610ddb565b005b34801561049557600080fd5b5061049e610def565b6040516104ab919061237d565b60405180910390f35b3480156104c057600080fd5b506104c9610e19565b6040516104d6919061215c565b60405180910390f35b3480156104eb57600080fd5b506104f4610eab565b604051610501919061237d565b60405180910390f35b610524600480360381019061051f919061230a565b610ed1565b005b34801561053257600080fd5b5061054d60048036038101906105489190612217565b611278565b60405161055a9190612272565b60405180910390f35b34801561056f57600080fd5b506105786112ef565b604051610585919061229c565b60405180910390f35b34801561059a57600080fd5b506105b560048036038101906105b09190612217565b6112f5565b6040516105c29190612272565b60405180910390f35b3480156105d757600080fd5b506105f260048036038101906105ed919061230a565b611318565b6040516105ff919061229c565b60405180910390f35b34801561061457600080fd5b5061061d61140a565b60405161062a919061229c565b60405180910390f35b34801561063f57600080fd5b5061065a6004803603810190610655919061230a565b611410565b604051610667919061229c565b60405180910390f35b34801561067c57600080fd5b50610697600480360381019061069291906123c5565b611459565b6040516106a4919061229c565b60405180910390f35b3480156106b957600080fd5b506106c26114e0565b005b3480156106d057600080fd5b506106eb60048036038101906106e69190612398565b611689565b005b3480156106f957600080fd5b5061070261170d565b60405161070f919061229c565b60405180910390f35b34801561072457600080fd5b5061072d611713565b60405161073a9190612272565b60405180910390f35b60606003805461075290612434565b80601f016020809104026020016040519081016040528092919081815260200182805461077e90612434565b80156107cb5780601f106107a0576101008083540402835291602001916107cb565b820191906000526020600020905b8154815290600101906020018083116107ae57829003601f168201915b5050505050905090565b6000806107e061171f565b90506107ed818585611727565b600191505092915050565b600047905090565b6000600254905090565b60008061081561171f565b90506108228582856118f2565b61082d85858561197e565b60019150509392505050565b60008061084c610847610800565b610d1d565b9050600061086b8461085c610800565b6108669190612495565b610d1d565b9050818161087991906124eb565b92505050919050565b600090565b60008061089a610895610800565b610d1d565b905060006108b9846108aa610800565b6108b49190612495565b610d1d565b9050600082826108c991906124eb565b90506000670de0b6b3a7640000600954836108e4919061251f565b6108ee91906125a8565b90506000670de0b6b3a7640000600a5484610909919061251f565b61091391906125a8565b905060008183856109249190612495565b61092e9190612495565b9050809650505050505050919050565b60008061094961171f565b905061096a81858561095b8589611459565b6109659190612495565b611727565b600191505092915050565b600b544211156109ba576040517f08c379a00000000000000000000000000000000000000000000000000000000081526004016109b190612625565b60405180910390fd5b6109c333610d93565b811115610a11576109d333610d93565b816040517f59efbd20000000000000000000000000000000000000000000000000000000008152600401610a08929190612645565b60405180910390fd5b6000610a1c82611410565b90506000670de0b6b3a764000060095483610a37919061251f565b610a4191906125a8565b90506000670de0b6b3a7640000600a5484610a5c919061251f565b610a6691906125a8565b9050610a723385611bf6565b60003373ffffffffffffffffffffffffffffffffffffffff16828486610a9891906124eb565b610aa291906124eb565b604051610aae9061269f565b60006040518083038185875af1925050503d8060008114610aeb576040519150601f19603f3d011682016040523d82523d6000602084013e610af0565b606091505b5050905080610b4e5733828486610b0791906124eb565b610b1191906124eb565b6040517f2c6a51e2000000000000000000000000000000000000000000000000000000008152600401610b459291906126b4565b60405180910390fd5b6000600860009054906101000a900473ffffffffffffffffffffffffffffffffffffffff1673ffffffffffffffffffffffffffffffffffffffff1684604051610b969061269f565b60006040518083038185875af1925050503d8060008114610bd3576040519150601f19603f3d011682016040523d82523d6000602084013e610bd8565b606091505b505090506000610be6610def565b73ffffffffffffffffffffffffffffffffffffffff1684604051610c099061269f565b60006040518083038185875af1925050503d8060008114610c46576040519150601f19603f3d011682016040523d82523d6000602084013e610c4b565b606091505b50509050818015610c595750805b610c98576040517f08c379a0000000000000000000000000000000000000000000000000000000008152600401610c8f90612729565b60405180910390fd5b610ca0610800565b610ca8610def565b73ffffffffffffffffffffffffffffffffffffffff163373ffffffffffffffffffffffffffffffffffffffff167f3e16d8cfffc726d59dd4696083a0c49bbb236e50396f01dbaff45a429e7bad128a600954600a54604051610d0c93929190612749565b60405180910390a450505050505050565b600060066001836002610d30919061251f565b610d3a9190612495565b600184610d479190612495565b84610d52919061251f565b610d5c919061251f565b610d6691906125a8565b9050919050565b600860009054906101000a900473ffffffffffffffffffffffffffffffffffffffff1681565b60008060008373ffffffffffffffffffffffffffffffffffffffff1673ffffffffffffffffffffffffffffffffffffffff168152602001908152602001600020549050919050565b610de3611dc4565b610ded6000611e42565b565b6000600560009054906101000a900473ffffffffffffffffffffffffffffffffffffffff16905090565b606060048054610e2890612434565b80601f0160208091040260200160405190810160405280929190818152602001828054610e5490612434565b8015610ea15780601f10610e7657610100808354040283529160200191610ea1565b820191906000526020600020905b815481529060010190602001808311610e8457829003601f168201915b5050505050905090565b600760009054906101000a900473ffffffffffffffffffffffffffffffffffffffff1681565b600b54421115610f16576040517f08c379a0000000000000000000000000000000000000000000000000000000008152600401610f0d90612625565b60405180910390fd5b6000610f2182610839565b90506000670de0b6b3a764000060095483610f3c919061251f565b610f4691906125a8565b90506000670de0b6b3a7640000600a5484610f61919061251f565b610f6b91906125a8565b90506000818385610f7c9190612495565b610f869190612495565b905080341015610fcf5780346040517f7040b58c000000000000000000000000000000000000000000000000000000008152600401610fc6929190612645565b60405180910390fd5b610fd93386611f08565b803411156110a95760003373ffffffffffffffffffffffffffffffffffffffff16823461100691906124eb565b6040516110129061269f565b60006040518083038185875af1925050503d806000811461104f576040519150601f19603f3d011682016040523d82523d6000602084013e611054565b606091505b50509050806110a75733823461106a91906124eb565b6040517f2c6a51e200000000000000000000000000000000000000000000000000000000815260040161109e9291906126b4565b60405180910390fd5b505b6000600860009054906101000a900473ffffffffffffffffffffffffffffffffffffffff1673ffffffffffffffffffffffffffffffffffffffff16846040516110f19061269f565b60006040518083038185875af1925050503d806000811461112e576040519150601f19603f3d011682016040523d82523d6000602084013e611133565b606091505b505090506000611141610def565b73ffffffffffffffffffffffffffffffffffffffff16846040516111649061269f565b60006040518083038185875af1925050503d80600081146111a1576040519150601f19603f3d011682016040523d82523d6000602084013e6111a6565b606091505b505090508180156111b45750805b6111f3576040517f08c379a00000000000000000000000000000000000000000000000000000000081526004016111ea90612729565b60405180910390fd5b6111fb610800565b611203610def565b73ffffffffffffffffffffffffffffffffffffffff163373ffffffffffffffffffffffffffffffffffffffff167f5860d9008a30f310a429551672216806f453f09e78d42235b44e85dc43a1df2a8a600954600a5460405161126793929190612749565b60405180910390a450505050505050565b60008061128361171f565b905060006112918286611459565b9050838110156112d6576040517f08c379a00000000000000000000000000000000000000000000000000000000081526004016112cd906127f2565b60405180910390fd5b6112e38286868403611727565b60019250505092915050565b600b5481565b60008061130061171f565b905061130d81858561197e565b600191505092915050565b6000611322610800565b8211156113325760009050611405565b600061134461133f610800565b610d1d565b9050600061136384611354610800565b61135e91906124eb565b610d1d565b90506000818361137391906124eb565b90506000670de0b6b3a76400006009548361138e919061251f565b61139891906125a8565b90506000670de0b6b3a7640000600a54846113b3919061251f565b6113bd91906125a8565b905080826113cb9190612495565b8310156113e057600095505050505050611405565b60008183856113ef91906124eb565b6113f991906124eb565b90508096505050505050505b919050565b60095481565b60008061142361141e610800565b610d1d565b9050600061144284611433610800565b61143d91906124eb565b610d1d565b9050808261145091906124eb565b92505050919050565b6000600160008473ffffffffffffffffffffffffffffffffffffffff1673ffffffffffffffffffffffffffffffffffffffff16815260200190815260200160002060008373ffffffffffffffffffffffffffffffffffffffff1673ffffffffffffffffffffffffffffffffffffffff16815260200190815260200160002054905092915050565b6114e8611dc4565b600b54421161152c576040517f08c379a00000000000000000000000000000000000000000000000000000000081526004016115239061285e565b60405180910390fd5b61153461205f565b60004790506000811161157c576040517f08c379a0000000000000000000000000000000000000000000000000000000008152600401611573906128ca565b60405180910390fd5b6000611586610def565b73ffffffffffffffffffffffffffffffffffffffff16826040516115a99061269f565b60006040518083038185875af1925050503d80600081146115e6576040519150601f19603f3d011682016040523d82523d6000602084013e6115eb565b606091505b505090508061162f576040517f08c379a000000000000000000000000000000000000000000000000000000000815260040161162690612936565b60405180910390fd5b3373ffffffffffffffffffffffffffffffffffffffff167fad3973620ba61efcb8e56f7f58d8e27b342ede7c4b73456e6cf23f9870f04ae183604051611675919061229c565b60405180910390a250506116876120af565b565b611691611dc4565b600073ffffffffffffffffffffffffffffffffffffffff168173ffffffffffffffffffffffffffffffffffffffff161415611701576040517f08c379a00000000000000000000000000000000000000000000000000000000081526004016116f8906129c8565b60405180910390fd5b61170a81611e42565b50565b600a5481565b6000600b544210905090565b600033905090565b600073ffffffffffffffffffffffffffffffffffffffff168373ffffffffffffffffffffffffffffffffffffffff161415611797576040517f08c379a000000000000000000000000000000000000000000000000000000000815260040161178e90612a5a565b60405180910390fd5b600073ffffffffffffffffffffffffffffffffffffffff168273ffffffffffffffffffffffffffffffffffffffff161415611807576040517f08c379a00000000000000000000000000000000000000000000000000000000081526004016117fe90612aec565b60405180910390fd5b80600160008573ffffffffffffffffffffffffffffffffffffffff1673ffffffffffffffffffffffffffffffffffffffff16815260200190815260200160002060008473ffffffffffffffffffffffffffffffffffffffff1673ffffffffffffffffffffffffffffffffffffffff168152602001908152602001600020819055508173ffffffffffffffffffffffffffffffffffffffff168373ffffffffffffffffffffffffffffffffffffffff167f8c5be1e5ebec7d5bd14f71427d1e84f3dd0314c0f7b2291e5b200ac8c7c3b925836040516118e5919061229c565b60405180910390a3505050565b60006118fe8484611459565b90507fffffffffffffffffffffffffffffffffffffffffffffffffffffffffffffffff8114611978578181101561196a576040517f08c379a000000000000000000000000000000000000000000000000000000000815260040161196190612b58565b60405180910390fd5b6119778484848403611727565b5b50505050565b600073ffffffffffffffffffffffffffffffffffffffff168373ffffffffffffffffffffffffffffffffffffffff1614156119ee576040517f08c379a00000000000000000000000000000000000000000000000000000000081526004016119e590612bea565b60405180910390fd5b600073ffffffffffffffffffffffffffffffffffffffff168273ffffffffffffffffffffffffffffffffffffffff161415611a5e576040517f08c379a0000000000000000000000000000000000000000000000000000000008152600401611a5590612c7c565b60405180910390fd5b611a698383836120b9565b60008060008573ffffffffffffffffffffffffffffffffffffffff1673ffffffffffffffffffffffffffffffffffffffff16815260200190815260200160002054905081811015611aef576040517f08c379a0000000000000000000000000000000000000000000000000000000008152600401611ae690612d0e565b60405180910390fd5b8181036000808673ffffffffffffffffffffffffffffffffffffffff1673ffffffffffffffffffffffffffffffffffffffff16815260200190815260200160002081905550816000808573ffffffffffffffffffffffffffffffffffffffff1673ffffffffffffffffffffffffffffffffffffffff168152602001908152602001600020600082825401925050819055508273ffffffffffffffffffffffffffffffffffffffff168473ffffffffffffffffffffffffffffffffffffffff167fddf252ad1be2c89b69c2b068fc378daa952ba7f163c4a11628f55a4df523b3ef84604051611bdd919061229c565b60405180910390a3611bf08484846120be565b50505050565b600073ffffffffffffffffffffffffffffffffffffffff168273ffffffffffffffffffffffffffffffffffffffff161415611c66576040517f08c379a0000000000000000000000000000000000000000000000000000000008152600401611c5d90612da0565b60405180910390fd5b611c72826000836120b9565b60008060008473ffffffffffffffffffffffffffffffffffffffff1673ffffffffffffffffffffffffffffffffffffffff16815260200190815260200160002054905081811015611cf8576040517f08c379a0000000000000000000000000000000000000000000000000000000008152600401611cef90612e32565b60405180910390fd5b8181036000808573ffffffffffffffffffffffffffffffffffffffff1673ffffffffffffffffffffffffffffffffffffffff1681526020019081526020016000208190555081600260008282540392505081905550600073ffffffffffffffffffffffffffffffffffffffff168373ffffffffffffffffffffffffffffffffffffffff167fddf252ad1be2c89b69c2b068fc378daa952ba7f163c4a11628f55a4df523b3ef84604051611dab919061229c565b60405180910390a3611dbf836000846120be565b505050565b611dcc61171f565b73ffffffffffffffffffffffffffffffffffffffff16611dea610def565b73ffffffffffffffffffffffffffffffffffffffff1614611e40576040517f08c379a0000000000000000000000000000000000000000000000000000000008152600401611e3790612e9e565b60405180910390fd5b565b6000600560009054906101000a900473ffffffffffffffffffffffffffffffffffffffff16905081600560006101000a81548173ffffffffffffffffffffffffffffffffffffffff021916908373ffffffffffffffffffffffffffffffffffffffff1602179055508173ffffffffffffffffffffffffffffffffffffffff168173ffffffffffffffffffffffffffffffffffffffff167f8be0079c531659141344cd1fd0a4f28419497f9722a3daafe3b4186f6b6457e060405160405180910390a35050565b600073ffffffffffffffffffffffffffffffffffffffff168273ffffffffffffffffffffffffffffffffffffffff161415611f78576040517f08c379a0000000000000000000000000000000000000000000000000000000008152600401611f6f90612f0a565b60405180910390fd5b611f84600083836120b9565b8060026000828254611f969190612495565b92505081905550806000808473ffffffffffffffffffffffffffffffffffffffff1673ffffffffffffffffffffffffffffffffffffffff168152602001908152602001600020600082825401925050819055508173ffffffffffffffffffffffffffffffffffffffff16600073ffffffffffffffffffffffffffffffffffffffff167fddf252ad1be2c89b69c2b068fc378daa952ba7f163c4a11628f55a4df523b3ef83604051612047919061229c565b60405180910390a361205b600083836120be565b5050565b600260065414156120a5576040517f08c379a000000000000000000000000000000000000000000000000000000000815260040161209c90612f76565b60405180910390fd5b6002600681905550565b6001600681905550565b505050565b505050565b600081519050919050565b600082825260208201905092915050565b60005b838110156120fd5780820151818401526020810190506120e2565b8381111561210c576000848401525b50505050565b6000601f19601f8301169050919050565b600061212e826120c3565b61213881856120ce565b93506121488185602086016120df565b61215181612112565b840191505092915050565b600060208201905081810360008301526121768184612123565b905092915050565b600080fd5b600073ffffffffffffffffffffffffffffffffffffffff82169050919050565b60006121ae82612183565b9050919050565b6121be816121a3565b81146121c957600080fd5b50565b6000813590506121db816121b5565b92915050565b6000819050919050565b6121f4816121e1565b81146121ff57600080fd5b50565b600081359050612211816121eb565b92915050565b6000806040838503121561222e5761222d61217e565b5b600061223c858286016121cc565b925050602061224d85828601612202565b9150509250929050565b60008115159050919050565b61226c81612257565b82525050565b60006020820190506122876000830184612263565b92915050565b612296816121e1565b82525050565b60006020820190506122b1600083018461228d565b92915050565b6000806000606084860312156122d0576122cf61217e565b5b60006122de868287016121cc565b93505060206122ef868287016121cc565b925050604061230086828701612202565b9150509250925092565b6000602082840312156123205761231f61217e565b5b600061232e84828501612202565b91505092915050565b600060ff82169050919050565b61234d81612337565b82525050565b60006020820190506123686000830184612344565b92915050565b612377816121a3565b82525050565b6000602082019050612392600083018461236e565b92915050565b6000602082840312156123ae576123ad61217e565b5b60006123bc848285016121cc565b91505092915050565b600080604083850312156123dc576123db61217e565b5b60006123ea858286016121cc565b92505060206123fb858286016121cc565b9150509250929050565b7f4e487b7100000000000000000000000000000000000000000000000000000000600052602260045260246000fd5b6000600282049050600182168061244c57607f821691505b602082108114156124605761245f612405565b5b50919050565b7f4e487b7100000000000000000000000000000000000000000000000000000000600052601160045260246000fd5b60006124a0826121e1565b91506124ab836121e1565b9250827fffffffffffffffffffffffffffffffffffffffffffffffffffffffffffffffff038211156124e0576124df612466565b5b828201905092915050565b60006124f6826121e1565b9150612501836121e1565b92508282101561251457612513612466565b5b828203905092915050565b600061252a826121e1565b9150612535836121e1565b9250817fffffffffffffffffffffffffffffffffffffffffffffffffffffffffffffffff048311821515161561256e5761256d612466565b5b828202905092915050565b7f4e487b7100000000000000000000000000000000000000000000000000000000600052601260045260246000fd5b60006125b3826121e1565b91506125be836121e1565b9250826125ce576125cd612579565b5b828204905092915050565b7f4163746976652070686173652068617320656e64656400000000000000000000600082015250565b600061260f6016836120ce565b915061261a826125d9565b602082019050919050565b6000602082019050818103600083015261263e81612602565b9050919050565b600060408201905061265a600083018561228d565b612667602083018461228d565b9392505050565b600081905092915050565b50565b600061268960008361266e565b915061269482612679565b600082019050919050565b60006126aa8261267c565b9150819050919050565b60006040820190506126c9600083018561236e565b6126d6602083018461228d565b9392505050565b7f556e61626c6520746f2073656e642066756e6473000000000000000000000000600082015250565b60006127136014836120ce565b915061271e826126dd565b602082019050919050565b6000602082019050818103600083015261274281612706565b9050919050565b600060608201905061275e600083018661228d565b61276b602083018561228d565b612778604083018461228d565b949350505050565b7f45524332303a2064656372656173656420616c6c6f77616e63652062656c6f7760008201527f207a65726f000000000000000000000000000000000000000000000000000000602082015250565b60006127dc6025836120ce565b91506127e782612780565b604082019050919050565b6000602082019050818103600083015261280b816127cf565b9050919050565b7f41637469766520706861736520686173206e6f7420656e646564000000000000600082015250565b6000612848601a836120ce565b915061285382612812565b602082019050919050565b600060208201905081810360008301526128778161283b565b9050919050565b7f4e6f2066756e647320617661696c61626c6520746f20647261696e0000000000600082015250565b60006128b4601b836120ce565b91506128bf8261287e565b602082019050919050565b600060208201905081810360008301526128e3816128a7565b9050919050565b7f4661696c656420746f207472616e736665722066756e64730000000000000000600082015250565b60006129206018836120ce565b915061292b826128ea565b602082019050919050565b6000602082019050818103600083015261294f81612913565b9050919050565b7f4f776e61626c653a206e6577206f776e657220697320746865207a65726f206160008201527f6464726573730000000000000000000000000000000000000000000000000000602082015250565b60006129b26026836120ce565b91506129bd82612956565b604082019050919050565b600060208201905081810360008301526129e1816129a5565b9050919050565b7f45524332303a20617070726f76652066726f6d20746865207a65726f2061646460008201527f7265737300000000000000000000000000000000000000000000000000000000602082015250565b6000612a446024836120ce565b9150612a4f826129e8565b604082019050919050565b60006020820190508181036000830152612a7381612a37565b9050919050565b7f45524332303a20617070726f766520746f20746865207a65726f20616464726560008201527f7373000000000000000000000000000000000000000000000000000000000000602082015250565b6000612ad66022836120ce565b9150612ae182612a7a565b604082019050919050565b60006020820190508181036000830152612b0581612ac9565b9050919050565b7f45524332303a20696e73756666696369656e7420616c6c6f77616e6365000000600082015250565b6000612b42601d836120ce565b9150612b4d82612b0c565b602082019050919050565b60006020820190508181036000830152612b7181612b35565b9050919050565b7f45524332303a207472616e736665722066726f6d20746865207a65726f20616460008201527f6472657373000000000000000000000000000000000000000000000000000000602082015250565b6000612bd46025836120ce565b9150612bdf82612b78565b604082019050919050565b60006020820190508181036000830152612c0381612bc7565b9050919050565b7f45524332303a207472616e7366657220746f20746865207a65726f206164647260008201527f6573730000000000000000000000000000000000000000000000000000000000602082015250565b6000612c666023836120ce565b9150612c7182612c0a565b604082019050919050565b60006020820190508181036000830152612c9581612c59565b9050919050565b7f45524332303a207472616e7366657220616d6f756e742065786365656473206260008201527f616c616e63650000000000000000000000000000000000000000000000000000602082015250565b6000612cf86026836120ce565b9150612d0382612c9c565b604082019050919050565b60006020820190508181036000830152612d2781612ceb565b9050919050565b7f45524332303a206275726e2066726f6d20746865207a65726f2061646472657360008201527f7300000000000000000000000000000000000000000000000000000000000000602082015250565b6000612d8a6021836120ce565b9150612d9582612d2e565b604082019050919050565b60006020820190508181036000830152612db981612d7d565b9050919050565b7f45524332303a206275726e20616d6f756e7420657863656564732062616c616e60008201527f6365000000000000000000000000000000000000000000000000000000000000602082015250565b6000612e1c6022836120ce565b9150612e2782612dc0565b604082019050919050565b60006020820190508181036000830152612e4b81612e0f565b9050919050565b7f4f776e61626c653a2063616c6c6572206973206e6f7420746865206f776e6572600082015250565b6000612e886020836120ce565b9150612e9382612e52565b602082019050919050565b60006020820190508181036000830152612eb781612e7b565b9050919050565b7f45524332303a206d696e7420746f20746865207a65726f206164647265737300600082015250565b6000612ef4601f836120ce565b9150612eff82612ebe565b602082019050919050565b60006020820190508181036000830152612f2381612ee7565b9050919050565b7f5265656e7472616e637947756172643a207265656e7472616e742063616c6c00600082015250565b6000612f60601f836120ce565b9150612f6b82612f2a565b602082019050919050565b60006020820190508181036000830152612f8f81612f53565b905091905056fea26469706673582212201ada2db29a58213da2d2159af37c19c979c9e3d237c73adc229c07aa227af45064736f6c63430008080033a2646970667358221220eebeddb4d2383de09e4f6beaccb15165f948d1a18f8c7323843a4d51cf29b60d64736f6c63430008080033",
  "devdoc": {
    "kind": "dev",
    "methods": {
      "createTempToken(string,string,uint256)": {
        "details": "createTempToken is a function to create a new TempToken.name is the name of the token.symbol is the symbol of the token.duration is the duration in seconds for the lifespan of the TempToken.The function returns the address of the new TempToken."
      },
      "getTokenInfo(address)": {
        "details": "getTokenInfo is a function to get the TokenInfo struct of a deployed token.tokenAddress is the address of the deployed token.The function returns the TokenInfo struct of the deployed token."
      },
      "owner()": {
        "details": "Returns the address of the current owner."
      },
      "renounceOwnership()": {
        "details": "Leaves the contract without owner. It will not be possible to call `onlyOwner` functions anymore. Can only be called by the current owner. NOTE: Renouncing ownership will leave the contract without an owner, thereby removing any functionality that is only available to the owner."
      },
      "setFeeDestination(address)": {
        "details": "The following functions are used to set the default protocol fee destination, protocol fee percentage, streamer fee percentage, pause the factory, and set the max duration.These functions are only callable by the owner of the factory."
      },
      "transferOwnership(address)": {
        "details": "Transfers ownership of the contract to a new account (`newOwner`). Can only be called by the current owner."
      }
    },
    "stateVariables": {
      "defaultProtocolFeePercent": {
        "details": "defaultProtocolFeePercent is the default protocol fee percentage. ex: 2% = 2 * 10**16 = 20000000000000000.defaultStreamerFeePercent is the default streamer fee percentage. ex: 2% = 2 * 10**16 = 20000000000000000.defaultProtocolFeeDestination is the default protocol fee destination address.isPaused is a boolean to pause the token creation function.maxDuration is the max duration in seconds for the lifespan of the TempToken."
      },
      "numDeployedTokens": {
        "details": "numDeployedTokens is the number of deployed tokens.deployedTokenIndices is a mapping of token addresses to their assigned index.deployedTokens is a mapping of token indices to TokenInfo structs."
      }
    },
    "version": 1
  },
  "userdoc": {
    "kind": "user",
    "methods": {},
    "version": 1
  },
  "storageLayout": {
    "storage": [
      {
        "astId": 7,
        "contract": "contracts/TempTokenFactoryV1.sol:TempTokenFactoryV1",
        "label": "_owner",
        "offset": 0,
        "slot": "0",
        "type": "t_address"
      },
      {
        "astId": 903,
        "contract": "contracts/TempTokenFactoryV1.sol:TempTokenFactoryV1",
        "label": "numDeployedTokens",
        "offset": 0,
        "slot": "1",
        "type": "t_uint256"
      },
      {
        "astId": 907,
        "contract": "contracts/TempTokenFactoryV1.sol:TempTokenFactoryV1",
        "label": "deployedTokenIndices",
        "offset": 0,
        "slot": "2",
        "type": "t_mapping(t_address,t_uint256)"
      },
      {
        "astId": 912,
        "contract": "contracts/TempTokenFactoryV1.sol:TempTokenFactoryV1",
        "label": "deployedTokens",
        "offset": 0,
        "slot": "3",
        "type": "t_mapping(t_uint256,t_struct(TokenInfo)900_storage)"
      },
      {
        "astId": 915,
        "contract": "contracts/TempTokenFactoryV1.sol:TempTokenFactoryV1",
        "label": "defaultProtocolFeePercent",
        "offset": 0,
        "slot": "4",
        "type": "t_uint256"
      },
      {
        "astId": 917,
        "contract": "contracts/TempTokenFactoryV1.sol:TempTokenFactoryV1",
        "label": "defaultStreamerFeePercent",
        "offset": 0,
        "slot": "5",
        "type": "t_uint256"
      },
      {
        "astId": 919,
        "contract": "contracts/TempTokenFactoryV1.sol:TempTokenFactoryV1",
        "label": "defaultProtocolFeeDestination",
        "offset": 0,
        "slot": "6",
        "type": "t_address"
      },
      {
        "astId": 921,
        "contract": "contracts/TempTokenFactoryV1.sol:TempTokenFactoryV1",
        "label": "isPaused",
        "offset": 20,
        "slot": "6",
        "type": "t_bool"
      },
      {
        "astId": 923,
        "contract": "contracts/TempTokenFactoryV1.sol:TempTokenFactoryV1",
        "label": "maxDuration",
        "offset": 0,
        "slot": "7",
        "type": "t_uint256"
      }
    ],
    "types": {
      "t_address": {
        "encoding": "inplace",
        "label": "address",
        "numberOfBytes": "20"
      },
      "t_bool": {
        "encoding": "inplace",
        "label": "bool",
        "numberOfBytes": "1"
      },
      "t_mapping(t_address,t_uint256)": {
        "encoding": "mapping",
        "key": "t_address",
        "label": "mapping(address => uint256)",
        "numberOfBytes": "32",
        "value": "t_uint256"
      },
      "t_mapping(t_uint256,t_struct(TokenInfo)900_storage)": {
        "encoding": "mapping",
        "key": "t_uint256",
        "label": "mapping(uint256 => struct TempTokenFactoryV1.TokenInfo)",
        "numberOfBytes": "32",
        "value": "t_struct(TokenInfo)900_storage"
      },
      "t_string_storage": {
        "encoding": "bytes",
        "label": "string",
        "numberOfBytes": "32"
      },
      "t_struct(TokenInfo)900_storage": {
        "encoding": "inplace",
        "label": "struct TempTokenFactoryV1.TokenInfo",
        "members": [
          {
            "astId": 885,
            "contract": "contracts/TempTokenFactoryV1.sol:TempTokenFactoryV1",
            "label": "tokenAddress",
            "offset": 0,
            "slot": "0",
            "type": "t_address"
          },
          {
            "astId": 887,
            "contract": "contracts/TempTokenFactoryV1.sol:TempTokenFactoryV1",
            "label": "ownerAddress",
            "offset": 0,
            "slot": "1",
            "type": "t_address"
          },
          {
            "astId": 889,
            "contract": "contracts/TempTokenFactoryV1.sol:TempTokenFactoryV1",
            "label": "name",
            "offset": 0,
            "slot": "2",
            "type": "t_string_storage"
          },
          {
            "astId": 891,
            "contract": "contracts/TempTokenFactoryV1.sol:TempTokenFactoryV1",
            "label": "symbol",
            "offset": 0,
            "slot": "3",
            "type": "t_string_storage"
          },
          {
            "astId": 893,
            "contract": "contracts/TempTokenFactoryV1.sol:TempTokenFactoryV1",
            "label": "endTimestamp",
            "offset": 0,
            "slot": "4",
            "type": "t_uint256"
          },
          {
            "astId": 895,
            "contract": "contracts/TempTokenFactoryV1.sol:TempTokenFactoryV1",
            "label": "protocolFeeDestination",
            "offset": 0,
            "slot": "5",
            "type": "t_address"
          },
          {
            "astId": 897,
            "contract": "contracts/TempTokenFactoryV1.sol:TempTokenFactoryV1",
            "label": "protocolFeePercent",
            "offset": 0,
            "slot": "6",
            "type": "t_uint256"
          },
          {
            "astId": 899,
            "contract": "contracts/TempTokenFactoryV1.sol:TempTokenFactoryV1",
            "label": "streamerFeePercent",
            "offset": 0,
            "slot": "7",
            "type": "t_uint256"
          }
        ],
        "numberOfBytes": "256"
      },
      "t_uint256": {
        "encoding": "inplace",
        "label": "uint256",
        "numberOfBytes": "32"
      }
    }
  }
}