{
  "address": "0xe0D437E10D133E753d214f811046808b8067B51F",
  "abi": [
    {
      "inputs": [
        {
          "internalType": "address",
          "name": "_defaultProtocolFeeDestination",
          "type": "address"
        },
        {
          "internalType": "uint256",
          "name": "_defaultProtocolFeePercent",
          "type": "uint256"
        },
        {
          "internalType": "uint256",
          "name": "_defaultStreamerFeePercent",
          "type": "uint256"
        },
        {
          "internalType": "uint256",
          "name": "_totalSupplyThreshold",
          "type": "uint256"
        }
      ],
      "stateMutability": "nonpayable",
      "type": "constructor"
    },
    {
      "anonymous": false,
      "inputs": [
        {
          "indexed": false,
          "internalType": "uint256",
          "name": "additionalDuration",
          "type": "uint256"
        },
        {
          "indexed": false,
          "internalType": "address[]",
          "name": "tokenAddresses",
          "type": "address[]"
        }
      ],
      "name": "EndTimestampIncreased",
      "type": "event"
    },
    {
      "anonymous": false,
      "inputs": [
        {
          "indexed": false,
          "internalType": "uint256",
          "name": "maxDuration",
          "type": "uint256"
        }
      ],
      "name": "MaxDurationSet",
      "type": "event"
    },
    {
      "anonymous": false,
      "inputs": [
        {
          "indexed": true,
          "internalType": "address",
          "name": "previousOwner",
          "type": "address"
        },
        {
          "indexed": true,
          "internalType": "address",
          "name": "newOwner",
          "type": "address"
        }
      ],
      "name": "OwnershipTransferred",
      "type": "event"
    },
    {
      "anonymous": false,
      "inputs": [
        {
          "indexed": false,
          "internalType": "bool",
          "name": "isPaused",
          "type": "bool"
        },
        {
          "indexed": false,
          "internalType": "uint256",
          "name": "numDeployedTokens",
          "type": "uint256"
        }
      ],
      "name": "PauseFactorySet",
      "type": "event"
    },
    {
      "anonymous": false,
      "inputs": [
        {
          "indexed": true,
          "internalType": "address",
          "name": "protocolFeeDestination",
          "type": "address"
        }
      ],
      "name": "ProtocolFeeDestinationSet",
      "type": "event"
    },
    {
      "anonymous": false,
      "inputs": [
        {
          "indexed": false,
          "internalType": "uint256",
          "name": "feePercent",
          "type": "uint256"
        }
      ],
      "name": "ProtocolFeePercentSet",
      "type": "event"
    },
    {
      "anonymous": false,
      "inputs": [
        {
          "indexed": false,
          "internalType": "uint256",
          "name": "feePercent",
          "type": "uint256"
        }
      ],
      "name": "StreamerFeePercentSet",
      "type": "event"
    },
    {
      "anonymous": false,
      "inputs": [
        {
          "indexed": true,
          "internalType": "address",
          "name": "tokenAddress",
          "type": "address"
        },
        {
          "indexed": true,
          "internalType": "address",
          "name": "owner",
          "type": "address"
        },
        {
          "indexed": false,
          "internalType": "string",
          "name": "name",
          "type": "string"
        },
        {
          "indexed": false,
          "internalType": "string",
          "name": "symbol",
          "type": "string"
        },
        {
          "indexed": false,
          "internalType": "uint256",
          "name": "endTimestamp",
          "type": "uint256"
        },
        {
          "indexed": false,
          "internalType": "address",
          "name": "protocolFeeDestination",
          "type": "address"
        },
        {
          "indexed": false,
          "internalType": "uint256",
          "name": "protocolFeePercent",
          "type": "uint256"
        },
        {
          "indexed": false,
          "internalType": "uint256",
          "name": "streamerFeePercent",
          "type": "uint256"
        },
        {
          "indexed": false,
          "internalType": "uint256",
          "name": "totalSupplyThreshold",
          "type": "uint256"
        }
      ],
      "name": "TempTokenCreated",
      "type": "event"
    },
    {
      "anonymous": false,
      "inputs": [
        {
          "indexed": false,
          "internalType": "uint256",
          "name": "totalSupplyThreshold",
          "type": "uint256"
        },
        {
          "indexed": false,
          "internalType": "address[]",
          "name": "tokenAddresses",
          "type": "address[]"
        }
      ],
      "name": "TotalSupplyThresholdSet",
      "type": "event"
    },
    {
      "inputs": [
        {
          "internalType": "address",
          "name": "",
          "type": "address"
        }
      ],
      "name": "admins",
      "outputs": [
        {
          "internalType": "bool",
          "name": "",
          "type": "bool"
        }
      ],
      "stateMutability": "view",
      "type": "function"
    },
    {
      "inputs": [
        {
          "internalType": "string",
          "name": "name",
          "type": "string"
        },
        {
          "internalType": "string",
          "name": "symbol",
          "type": "string"
        },
        {
          "internalType": "uint256",
          "name": "duration",
          "type": "uint256"
        }
      ],
      "name": "createTempToken",
      "outputs": [
        {
          "internalType": "address",
          "name": "",
          "type": "address"
        }
      ],
      "stateMutability": "nonpayable",
      "type": "function"
    },
    {
      "inputs": [],
      "name": "defaultProtocolFeeDestination",
      "outputs": [
        {
          "internalType": "address",
          "name": "",
          "type": "address"
        }
      ],
      "stateMutability": "view",
      "type": "function"
    },
    {
      "inputs": [],
      "name": "defaultProtocolFeePercent",
      "outputs": [
        {
          "internalType": "uint256",
          "name": "",
          "type": "uint256"
        }
      ],
      "stateMutability": "view",
      "type": "function"
    },
    {
      "inputs": [],
      "name": "defaultStreamerFeePercent",
      "outputs": [
        {
          "internalType": "uint256",
          "name": "",
          "type": "uint256"
        }
      ],
      "stateMutability": "view",
      "type": "function"
    },
    {
      "inputs": [
        {
          "internalType": "address",
          "name": "",
          "type": "address"
        }
      ],
      "name": "deployedTokenIndices",
      "outputs": [
        {
          "internalType": "uint256",
          "name": "",
          "type": "uint256"
        }
      ],
      "stateMutability": "view",
      "type": "function"
    },
    {
      "inputs": [
        {
          "internalType": "uint256",
          "name": "",
          "type": "uint256"
        }
      ],
      "name": "deployedTokens",
      "outputs": [
        {
          "internalType": "address",
          "name": "tokenAddress",
          "type": "address"
        },
        {
          "internalType": "address",
          "name": "ownerAddress",
          "type": "address"
        },
        {
          "internalType": "string",
          "name": "name",
          "type": "string"
        },
        {
          "internalType": "string",
          "name": "symbol",
          "type": "string"
        },
        {
          "internalType": "uint256",
          "name": "endTimestamp",
          "type": "uint256"
        },
        {
          "internalType": "address",
          "name": "protocolFeeDestination",
          "type": "address"
        },
        {
          "internalType": "uint256",
          "name": "protocolFeePercent",
          "type": "uint256"
        },
        {
          "internalType": "uint256",
          "name": "streamerFeePercent",
          "type": "uint256"
        }
      ],
      "stateMutability": "view",
      "type": "function"
    },
    {
      "inputs": [
        {
          "internalType": "address",
          "name": "tokenAddress",
          "type": "address"
        }
      ],
      "name": "getTokenInfo",
      "outputs": [
        {
          "components": [
            {
              "internalType": "address",
              "name": "tokenAddress",
              "type": "address"
            },
            {
              "internalType": "address",
              "name": "ownerAddress",
              "type": "address"
            },
            {
              "internalType": "string",
              "name": "name",
              "type": "string"
            },
            {
              "internalType": "string",
              "name": "symbol",
              "type": "string"
            },
            {
              "internalType": "uint256",
              "name": "endTimestamp",
              "type": "uint256"
            },
            {
              "internalType": "address",
              "name": "protocolFeeDestination",
              "type": "address"
            },
            {
              "internalType": "uint256",
              "name": "protocolFeePercent",
              "type": "uint256"
            },
            {
              "internalType": "uint256",
              "name": "streamerFeePercent",
              "type": "uint256"
            }
          ],
          "internalType": "struct TempTokenFactoryV1.TokenInfo",
          "name": "",
          "type": "tuple"
        }
      ],
      "stateMutability": "view",
      "type": "function"
    },
    {
      "inputs": [
        {
          "internalType": "uint256",
          "name": "_additionalDurationInSeconds",
          "type": "uint256"
        },
        {
          "internalType": "address[]",
          "name": "_tokenAddresses",
          "type": "address[]"
        }
      ],
      "name": "increaseEndTimestampForTokens",
      "outputs": [],
      "stateMutability": "nonpayable",
      "type": "function"
    },
    {
      "inputs": [],
      "name": "isPaused",
      "outputs": [
        {
          "internalType": "bool",
          "name": "",
          "type": "bool"
        }
      ],
      "stateMutability": "view",
      "type": "function"
    },
    {
      "inputs": [],
      "name": "maxDuration",
      "outputs": [
        {
          "internalType": "uint256",
          "name": "",
          "type": "uint256"
        }
      ],
      "stateMutability": "view",
      "type": "function"
    },
    {
      "inputs": [],
      "name": "numDeployedTokens",
      "outputs": [
        {
          "internalType": "uint256",
          "name": "",
          "type": "uint256"
        }
      ],
      "stateMutability": "view",
      "type": "function"
    },
    {
      "inputs": [],
      "name": "owner",
      "outputs": [
        {
          "internalType": "address",
          "name": "",
          "type": "address"
        }
      ],
      "stateMutability": "view",
      "type": "function"
    },
    {
      "inputs": [],
      "name": "renounceOwnership",
      "outputs": [],
      "stateMutability": "nonpayable",
      "type": "function"
    },
    {
      "inputs": [
        {
          "internalType": "address",
          "name": "_address",
          "type": "address"
        },
        {
          "internalType": "bool",
          "name": "_onlyAdmin",
          "type": "bool"
        }
      ],
      "name": "setAdmin",
      "outputs": [],
      "stateMutability": "nonpayable",
      "type": "function"
    },
    {
      "inputs": [
        {
          "internalType": "address",
          "name": "protocolFeeDestination",
          "type": "address"
        }
      ],
      "name": "setFeeDestination",
      "outputs": [],
      "stateMutability": "nonpayable",
      "type": "function"
    },
    {
      "inputs": [
        {
          "internalType": "uint256",
          "name": "_maxDuration",
          "type": "uint256"
        }
      ],
      "name": "setMaxDuration",
      "outputs": [],
      "stateMutability": "nonpayable",
      "type": "function"
    },
    {
      "inputs": [
        {
          "internalType": "bool",
          "name": "_isPaused",
          "type": "bool"
        }
      ],
      "name": "setPauseFactory",
      "outputs": [],
      "stateMutability": "nonpayable",
      "type": "function"
    },
    {
      "inputs": [
        {
          "internalType": "uint256",
          "name": "_feePercent",
          "type": "uint256"
        }
      ],
      "name": "setProtocolFeePercent",
      "outputs": [],
      "stateMutability": "nonpayable",
      "type": "function"
    },
    {
      "inputs": [
        {
          "internalType": "uint256",
          "name": "_feePercent",
          "type": "uint256"
        }
      ],
      "name": "setStreamerFeePercent",
      "outputs": [],
      "stateMutability": "nonpayable",
      "type": "function"
    },
    {
      "inputs": [
        {
          "internalType": "uint256",
          "name": "_totalSupplyThreshold",
          "type": "uint256"
        },
        {
          "internalType": "address[]",
          "name": "_tokenAddresses",
          "type": "address[]"
        }
      ],
      "name": "setTotalSupplyThresholdForTokens",
      "outputs": [],
      "stateMutability": "nonpayable",
      "type": "function"
    },
    {
      "inputs": [],
      "name": "totalSupplyThreshold",
      "outputs": [
        {
          "internalType": "uint256",
          "name": "",
          "type": "uint256"
        }
      ],
      "stateMutability": "view",
      "type": "function"
    },
    {
      "inputs": [
        {
          "internalType": "address",
          "name": "newOwner",
          "type": "address"
        }
      ],
      "name": "transferOwnership",
      "outputs": [],
      "stateMutability": "nonpayable",
      "type": "function"
    }
  ],
  "transactionHash": "0xce4a0f0f2bcc8fd65273235e2a1a89ffbacddcebe2fcb41c25215cad0234671c",
  "args": [
    "0x4F3d3f2F895Db524AC3944BDd17fE632473bCa4a",
    "20000000000000000",
    "20000000000000000",
    20000000
  ],
  "numDeployments": 3,
  "solcInputHash": "7424891d3454d551c7abb727dcef61cb",
  "bytecode": "0x608060405234801561001057600080fd5b5060405162003b7d38038062003b7d8339810160408190526100319161012b565b61003a336100db565b6001600160a01b0384166100a35760405162461bcd60e51b815260206004820152602660248201527f44656661756c74206665652064657374696e6174696f6e2063616e6e6f74206260448201526565207a65726f60d01b606482015260840160405180910390fd5b600592909255600655600780546001600160a01b0319166001600160a01b039390931692909217909155600955610e10600855610176565b600080546001600160a01b038381166001600160a01b0319831681178455604051919092169283917f8be0079c531659141344cd1fd0a4f28419497f9722a3daafe3b4186f6b6457e09190a35050565b6000806000806080858703121561014157600080fd5b84516001600160a01b038116811461015857600080fd5b60208601516040870151606090970151919890975090945092505050565b6139f780620001866000396000f3fe60806040523480156200001157600080fd5b5060043610620001695760003560e01c8063804e6f2311620000d3578063cf0f34c41162000086578063cf0f34c4146200031b578063d7f205491462000332578063ec81aadb146200033c578063edb404471462000369578063f2fde38b146200037d578063fbe53234146200039457600080fd5b8063804e6f2314620002805780638da5cb5b14620002b057806396266d9c14620002c2578063a498342114620002e5578063b187bd2614620002fc578063bb5dfe19146200031157600080fd5b80634b0bddd2116200012c5780634b0bddd2146200021d5780636837922514620002345780636db5c8fd146200023e5780636e3eb6f41462000248578063715018a6146200025f5780637a31c185146200026957600080fd5b80631f69565f146200016e57806320b1f08d146200019d5780632944998114620001b6578063429b62e514620001cd578063441617831462000204575b600080fd5b620001856200017f3660046200135e565b620003ab565b604051620001949190620013d3565b60405180910390f35b620001b4620001ae36600462001488565b620005c3565b005b620001b4620001c736600462001488565b62000712565b620001f3620001de3660046200135e565b60046020526000908152604090205460ff1681565b604051901515815260200162000194565b6200020e60055481565b60405190815260200162000194565b620001b46200022e3660046200151d565b62000845565b6200020e60095481565b6200020e60085481565b620001b46200025936600462001555565b620008c9565b620001b46200097a565b620001b46200027a36600462001573565b62000992565b620002976200029136600462001638565b62000a15565b6040516001600160a01b03909116815260200162000194565b6000546001600160a01b031662000297565b6200020e620002d33660046200135e565b60026020526000908152604090205481565b620001b4620002f636600462001573565b62000d8f565b600754620001f390600160a01b900460ff1681565b6200020e60015481565b620001b46200032c36600462001573565b62000e12565b6200020e60065481565b620003536200034d36600462001573565b62000ee7565b60405162000194989796959493929190620016ac565b60075462000297906001600160a01b031681565b620001b46200038e3660046200135e565b62001060565b620001b4620003a53660046200135e565b620010df565b6200040f60405180610100016040528060006001600160a01b0316815260200160006001600160a01b0316815260200160608152602001606081526020016000815260200160006001600160a01b0316815260200160008152602001600081525090565b6001600160a01b03808316600090815260026020818152604080842054845260038252928390208351610100810185528154861681526001820154909516918501919091529081018054919284019162000469906200171b565b80601f016020809104026020016040519081016040528092919081815260200182805462000497906200171b565b8015620004e85780601f10620004bc57610100808354040283529160200191620004e8565b820191906000526020600020905b815481529060010190602001808311620004ca57829003601f168201915b5050505050815260200160038201805462000503906200171b565b80601f016020809104026020016040519081016040528092919081815260200182805462000531906200171b565b8015620005825780601f10620005565761010080835404028352916020019162000582565b820191906000526020600020905b8154815290600101906020018083116200056457829003601f168201915b50505091835250506004820154602082015260058201546001600160a01b031660408201526006820154606082015260079091015460809091015292915050565b6000546001600160a01b0316331480620005f157503360009081526004602052604090205460ff1615156001145b620006195760405162461bcd60e51b8152600401620006109062001758565b60405180910390fd5b60005b81811015620006c9578282828181106200063a576200063a62001799565b90506020020160208101906200065191906200135e565b6001600160a01b0316637714671b856040518263ffffffff1660e01b81526004016200067f91815260200190565b600060405180830381600087803b1580156200069a57600080fd5b505af1158015620006af573d6000803e3d6000fd5b505050508080620006c090620017c5565b9150506200061c565b5060098390556040517fba50fef91fe4f83a77efbd62bf0be7308571a4a711d2a0989d382d72ab0034f8906200070590859085908590620017e3565b60405180910390a1505050565b6000546001600160a01b03163314806200074057503360009081526004602052604090205460ff1615156001145b6200075f5760405162461bcd60e51b8152600401620006109062001758565b60005b818110156200080f5782828281811062000780576200078062001799565b90506020020160208101906200079791906200135e565b6001600160a01b031663291d2ffd856040518263ffffffff1660e01b8152600401620007c591815260200190565b600060405180830381600087803b158015620007e057600080fd5b505af1158015620007f5573d6000803e3d6000fd5b5050505080806200080690620017c5565b91505062000762565b507f62639b012d2278198f76e7026930e0e000b57bb6f7233f3902db776b65430cf78383836040516200070593929190620017e3565b6200084f620011e1565b6001600160a01b0382166200089e5760405162461bcd60e51b815260206004820152601460248201527341646d696e2063616e6e6f74206265207a65726f60601b604482015260640162000610565b6001600160a01b03919091166000908152600460205260409020805460ff1916911515919091179055565b6000546001600160a01b0316331480620008f757503360009081526004602052604090205460ff1615156001145b620009165760405162461bcd60e51b8152600401620006109062001758565b60078054821515600160a01b0260ff60a01b199091161790556001546040517fd119587be04d80080c64717a0dc158c674898c4fe140498ffd144e1f6645d8b9916200096f918491909115158252602082015260400190565b60405180910390a150565b62000984620011e1565b6200099060006200123d565b565b6000546001600160a01b0316331480620009c057503360009081526004602052604090205460ff1615156001145b620009df5760405162461bcd60e51b8152600401620006109062001758565b60068190556040518181527f444c2ee6a42985e86e4d1c21435989ae523bae8ee02a11e8579bc4ac18b1d4ae906020016200096f565b600754600090600160a01b900460ff161562000a685760405162461bcd60e51b8152602060048201526011602482015270119858dd1bdc9e481a5cc81c185d5cd959607a1b604482015260640162000610565b60085482111562000ac85760405162461bcd60e51b8152602060048201526024808201527f4475726174696f6e206973206c6f6e676572207468616e206d617820647572616044820152633a34b7b760e11b606482015260840162000610565b6000821162000b115760405162461bcd60e51b815260206004820152601460248201527304475726174696f6e2063616e6e6f7420626520360641b604482015260640162000610565b600062000b1f83426200183d565b90506000858583600760009054906101000a90046001600160a01b03166005546006546009543060405162000b54906200128d565b62000b6798979695949392919062001858565b604051809103906000f08015801562000b84573d6000803e3d6000fd5b509050600060016000815462000b9a90620017c5565b918290555060408051610100810182526001600160a01b0380861682523360208084019182528385018d8152606085018d9052608085018a9052600754841660a086015260055460c086015260065460e086015260008781526003835295909520845181549085166001600160a01b031991821617825592516001820180549190951693169290921790925592518051949550919362000c4192600285019201906200129b565b506060820151805162000c5f9160038401916020909101906200129b565b50608082015160048281019190915560a08301516005830180546001600160a01b0319166001600160a01b0392831617905560c0840151600684015560e090930151600790920191909155908316600081815260026020526040908190208490555163f2fde38b60e01b815233928101929092529063f2fde38b90602401600060405180830381600087803b15801562000cf857600080fd5b505af115801562000d0d573d6000803e3d6000fd5b50505050336001600160a01b0316826001600160a01b03167fb88d78963e0fd27cafe2a8eb5b1a1ec5160ba4eba112e93e585a94101108beed898987600760009054906101000a90046001600160a01b031660055460065460095460405162000d7d9796959493929190620018c2565b60405180910390a35095945050505050565b6000546001600160a01b031633148062000dbd57503360009081526004602052604090205460ff1615156001145b62000ddc5760405162461bcd60e51b8152600401620006109062001758565b60058190556040518181527fa318485d4b7a387f0695a0179248931f1d023e08844d98b4e9e34775324bceb5906020016200096f565b6000546001600160a01b031633148062000e4057503360009081526004602052604090205460ff1615156001145b62000e5f5760405162461bcd60e51b8152600401620006109062001758565b6000811162000eb15760405162461bcd60e51b815260206004820152601860248201527f4d6178206475726174696f6e2063616e6e6f7420626520300000000000000000604482015260640162000610565b60088190556040518181527fba0716ba1ee2ea8ecc4c64119b4537cdb42a99d82acf92af5b87607b8b523552906020016200096f565b6003602052600090815260409020805460018201546002830180546001600160a01b0393841694929093169262000f1e906200171b565b80601f016020809104026020016040519081016040528092919081815260200182805462000f4c906200171b565b801562000f9d5780601f1062000f715761010080835404028352916020019162000f9d565b820191906000526020600020905b81548152906001019060200180831162000f7f57829003601f168201915b50505050509080600301805462000fb4906200171b565b80601f016020809104026020016040519081016040528092919081815260200182805462000fe2906200171b565b8015620010335780601f10620010075761010080835404028352916020019162001033565b820191906000526020600020905b8154815290600101906020018083116200101557829003601f168201915b50505050600483015460058401546006850154600790950154939491936001600160a01b03909116925088565b6200106a620011e1565b6001600160a01b038116620010d15760405162461bcd60e51b815260206004820152602660248201527f4f776e61626c653a206e6577206f776e657220697320746865207a65726f206160448201526564647265737360d01b606482015260840162000610565b620010dc816200123d565b50565b6000546001600160a01b03163314806200110d57503360009081526004602052604090205460ff1615156001145b6200112c5760405162461bcd60e51b8152600401620006109062001758565b6001600160a01b038116620011975760405162461bcd60e51b815260206004820152602a60248201527f4665652064657374696e6174696f6e2063616e6e6f7420626520746865207a65604482015269726f206164647265737360b01b606482015260840162000610565b600780546001600160a01b0319166001600160a01b0383169081179091556040517f262538484f9e0f43acdcef80a543c1aecfc0b210b993fd3d09bd77ee95b9d34490600090a250565b6000546001600160a01b03163314620009905760405162461bcd60e51b815260206004820181905260248201527f4f776e61626c653a2063616c6c6572206973206e6f7420746865206f776e6572604482015260640162000610565b600080546001600160a01b038381166001600160a01b0319831681178455604051919092169283917f8be0079c531659141344cd1fd0a4f28419497f9722a3daafe3b4186f6b6457e09190a35050565b6120a2806200192083390190565b828054620012a9906200171b565b90600052602060002090601f016020900481019282620012cd576000855562001318565b82601f10620012e857805160ff191683800117855562001318565b8280016001018555821562001318579182015b8281111562001318578251825591602001919060010190620012fb565b50620013269291506200132a565b5090565b5b808211156200132657600081556001016200132b565b80356001600160a01b03811681146200135957600080fd5b919050565b6000602082840312156200137157600080fd5b6200137c8262001341565b9392505050565b6000815180845260005b81811015620013ab576020818501810151868301820152016200138d565b81811115620013be576000602083870101525b50601f01601f19169290920160200192915050565b602080825282516001600160a01b0316828201528201516000906200140360408401826001600160a01b03169052565b5060408301516101008060608501526200142261012085018362001383565b91506060850151601f1985840301608086015262001441838262001383565b925050608085015160a085015260a08501516200146960c08601826001600160a01b03169052565b5060c085015160e085015260e085015181850152508091505092915050565b6000806000604084860312156200149e57600080fd5b83359250602084013567ffffffffffffffff80821115620014be57600080fd5b818601915086601f830112620014d357600080fd5b813581811115620014e357600080fd5b8760208260051b8501011115620014f957600080fd5b6020830194508093505050509250925092565b803580151581146200135957600080fd5b600080604083850312156200153157600080fd5b6200153c8362001341565b91506200154c602084016200150c565b90509250929050565b6000602082840312156200156857600080fd5b6200137c826200150c565b6000602082840312156200158657600080fd5b5035919050565b634e487b7160e01b600052604160045260246000fd5b600082601f830112620015b557600080fd5b813567ffffffffffffffff80821115620015d357620015d36200158d565b604051601f8301601f19908116603f01168101908282118183101715620015fe57620015fe6200158d565b816040528381528660208588010111156200161857600080fd5b836020870160208301376000602085830101528094505050505092915050565b6000806000606084860312156200164e57600080fd5b833567ffffffffffffffff808211156200166757600080fd5b6200167587838801620015a3565b945060208601359150808211156200168c57600080fd5b506200169b86828701620015a3565b925050604084013590509250925092565b6001600160a01b038981168252888116602083015261010060408301819052600091620016dc8483018b62001383565b91508382036060850152620016f2828a62001383565b60808501989098529590951660a08301525060c081019290925260e09091015250949350505050565b600181811c908216806200173057607f821691505b602082108114156200175257634e487b7160e01b600052602260045260246000fd5b50919050565b60208082526021908201527f43616c6c6572206973206e656974686572206f776e6572206e6f722061646d696040820152603760f91b606082015260800190565b634e487b7160e01b600052603260045260246000fd5b634e487b7160e01b600052601160045260246000fd5b6000600019821415620017dc57620017dc620017af565b5060010190565b83815260406020808301829052908201839052600090849060608401835b8681101562001831576001600160a01b036200181d8562001341565b168252928201929082019060010162001801565b50979650505050505050565b60008219821115620018535762001853620017af565b500190565b60006101008083526200186e8184018c62001383565b9050828103602084015262001884818b62001383565b604084019990995250506001600160a01b039586166060820152608081019490945260a084019290925260c083015290911660e09091015292915050565b60e081526000620018d760e083018a62001383565b8281036020840152620018eb818a62001383565b604084019890985250506001600160a01b03949094166060850152608084019290925260a083015260c0909101529291505056fe60806040523480156200001157600080fd5b50604051620020a2380380620020a283398101604081905262000034916200032c565b8751889088906200004d9060039060208501906200019c565b508051620000639060049060208401906200019c565b505050620000806200007a6200014660201b60201c565b6200014a565b60016006556001600160a01b038516620000f35760405162461bcd60e51b815260206004820152602a60248201527f4665652064657374696e6174696f6e2063616e6e6f7420626520746865207a65604482015269726f206164647265737360b01b606482015260840160405180910390fd5b600b95909555600992909255600a55600880546001600160a01b039384166001600160a01b031991821617909155600c91909155600780549290931691161790555050600d805460ff191690556200041f565b3390565b600580546001600160a01b038381166001600160a01b0319831681179093556040519116919082907f8be0079c531659141344cd1fd0a4f28419497f9722a3daafe3b4186f6b6457e090600090a35050565b828054620001aa90620003e2565b90600052602060002090601f016020900481019282620001ce576000855562000219565b82601f10620001e957805160ff191683800117855562000219565b8280016001018555821562000219579182015b8281111562000219578251825591602001919060010190620001fc565b50620002279291506200022b565b5090565b5b808211156200022757600081556001016200022c565b634e487b7160e01b600052604160045260246000fd5b600082601f8301126200026a57600080fd5b81516001600160401b038082111562000287576200028762000242565b604051601f8301601f19908116603f01168101908282118183101715620002b257620002b262000242565b81604052838152602092508683858801011115620002cf57600080fd5b600091505b83821015620002f35785820183015181830184015290820190620002d4565b83821115620003055760008385830101525b9695505050505050565b80516001600160a01b03811681146200032757600080fd5b919050565b600080600080600080600080610100898b0312156200034a57600080fd5b88516001600160401b03808211156200036257600080fd5b620003708c838d0162000258565b995060208b01519150808211156200038757600080fd5b50620003968b828c0162000258565b97505060408901519550620003ae60608a016200030f565b94506080890151935060a0890151925060c08901519150620003d360e08a016200030f565b90509295985092959890939650565b600181811c90821680620003f757607f821691505b602082108114156200041957634e487b7160e01b600052602260045260246000fd5b50919050565b611c73806200042f6000396000f3fe6080604052600436106101ee5760003560e01c80637714671b1161010d578063c5a1d5e2116100a0578063df6113041161006f578063df61130414610569578063f2fde38b1461057e578063f46d93241461059e578063f9a948d7146105b4578063fba7cc79146105ce57600080fd5b8063c5a1d5e2146104f3578063d6e6eb9f14610513578063d7e8946614610529578063dd62ed3e1461054957600080fd5b8063a0712d68116100dc578063a0712d681461048a578063a457c2d71461049d578063a85adeab146104bd578063a9059cbb146104d357600080fd5b80637714671b146104175780638da5cb5b1461043757806395d89b4114610455578063966dae0e1461046a57600080fd5b806338cb037a116101855780634ce7957c116101545780634ce7957c1461037e57806368379225146103b657806370a08231146103cc578063715018a61461040257600080fd5b806338cb037a146102fe578063395093511461031e57806342966c681461033e5780634768e8851461035e57600080fd5b806323b872dd116101c157806323b872dd1461028057806327de8f27146102a0578063291d2ffd146102c0578063313ce567146102e257600080fd5b806306fdde03146101f3578063095ea7b31461021e57806312065fe01461024e57806318160ddd1461026b575b600080fd5b3480156101ff57600080fd5b506102086105e5565b6040516102159190611a37565b60405180910390f35b34801561022a57600080fd5b5061023e610239366004611aa8565b610677565b6040519015158152602001610215565b34801561025a57600080fd5b50475b604051908152602001610215565b34801561027757600080fd5b5060025461025d565b34801561028c57600080fd5b5061023e61029b366004611ad2565b61068f565b3480156102ac57600080fd5b5061025d6102bb366004611b0e565b6106b3565b3480156102cc57600080fd5b506102e06102db366004611b0e565b6106f1565b005b3480156102ee57600080fd5b5060405160008152602001610215565b34801561030a57600080fd5b5061025d610319366004611b0e565b6107ae565b34801561032a57600080fd5b5061023e610339366004611aa8565b61084b565b34801561034a57600080fd5b506102e0610359366004611b0e565b61086d565b34801561036a57600080fd5b5061025d610379366004611b0e565b610b73565b34801561038a57600080fd5b5060085461039e906001600160a01b031681565b6040516001600160a01b039091168152602001610215565b3480156103c257600080fd5b5061025d600c5481565b3480156103d857600080fd5b5061025d6103e7366004611b27565b6001600160a01b031660009081526020819052604090205490565b34801561040e57600080fd5b506102e0610bbc565b34801561042357600080fd5b506102e0610432366004611b0e565b610bd0565b34801561044357600080fd5b506005546001600160a01b031661039e565b34801561046157600080fd5b50610208610c56565b34801561047657600080fd5b5060075461039e906001600160a01b031681565b6102e0610498366004611b0e565b610c65565b3480156104a957600080fd5b5061023e6104b8366004611aa8565b610fa8565b3480156104c957600080fd5b5061025d600b5481565b3480156104df57600080fd5b5061023e6104ee366004611aa8565b611023565b3480156104ff57600080fd5b5061025d61050e366004611b0e565b611031565b34801561051f57600080fd5b5061025d60095481565b34801561053557600080fd5b5061025d610544366004611b0e565b611103565b34801561055557600080fd5b5061025d610564366004611b49565b61112f565b34801561057557600080fd5b506102e061115a565b34801561058a57600080fd5b506102e0610599366004611b27565b61138c565b3480156105aa57600080fd5b5061025d600a5481565b3480156105c057600080fd5b50600d5461023e9060ff1681565b3480156105da57600080fd5b50600b54421061023e565b6060600380546105f490611b7c565b80601f016020809104026020016040519081016040528092919081815260200182805461062090611b7c565b801561066d5780601f106106425761010080835404028352916020019161066d565b820191906000526020600020905b81548152906001019060200180831161065057829003601f168201915b5050505050905090565b600033610685818585611405565b5060019392505050565b60003361069d85828561152a565b6106a88585856115a4565b506001949350505050565b6000806106c261037960025490565b905060006106dd846106d360025490565b6103799190611bcd565b90506106e98282611be5565b949350505050565b6007546001600160a01b031633146107685760405162461bcd60e51b815260206004820152602f60248201527f4f6e6c792074686520666163746f72792063616e20696e63726561736520746860448201526e06520656e642074696d657374616d7608c1b60648201526084015b60405180910390fd5b80600b600082825461077a9190611bcd565b9091555050600b546040517fbbf34b21e43b230b77c4e6cd9cc1f8bcc836530b8f641edcae36f304d53d166790600090a250565b6000806107bd61037960025490565b905060006107ce846106d360025490565b905060006107dc8383611be5565b90506000670de0b6b3a7640000600954836107f79190611bfc565b6108019190611c1b565b90506000670de0b6b3a7640000600a548461081c9190611bfc565b6108269190611c1b565b90506000816108358486611bcd565b61083f9190611bcd565b98975050505050505050565b60003361068581858561085e838361112f565b6108689190611bcd565b611405565b600b544211156108b85760405162461bcd60e51b81526020600482015260166024820152751058dd1a5d99481c1a185cd9481a185cc8195b99195960521b604482015260640161075f565b3360009081526020819052604090205481111561090357336000908152602081905260409020546040516302cf7de960e51b815260048101919091526024810182905260440161075f565b600061090e82611103565b90506000670de0b6b3a7640000600954836109299190611bfc565b6109339190611c1b565b90506000670de0b6b3a7640000600a548461094e9190611bfc565b6109589190611c1b565b90506109643385611748565b600033826109728587611be5565b61097c9190611be5565b604051600081818185875af1925050503d80600081146109b8576040519150601f19603f3d011682016040523d82523d6000602084013e6109bd565b606091505b5050905080610a065733826109d28587611be5565b6109dc9190611be5565b60405163163528f160e11b81526001600160a01b039092166004830152602482015260440161075f565b6008546040516000916001600160a01b03169085908381818185875af1925050503d8060008114610a53576040519150601f19603f3d011682016040523d82523d6000602084013e610a58565b606091505b505090506000610a706005546001600160a01b031690565b6001600160a01b03168460405160006040518083038185875af1925050503d8060008114610aba576040519150601f19603f3d011682016040523d82523d6000602084013e610abf565b606091505b50509050818015610acd5750805b610b105760405162461bcd60e51b8152602060048201526014602482015273556e61626c6520746f2073656e642066756e647360601b604482015260640161075f565b600254600554600954600a54604080518c815260208101939093528201526001600160a01b039091169033907f3e16d8cfffc726d59dd4696083a0c49bbb236e50396f01dbaff45a429e7bad12906060015b60405180910390a450505050505050565b60006006610b82836002611bfc565b610b8d906001611bcd565b610b98846001611bcd565b610ba29085611bfc565b610bac9190611bfc565b610bb69190611c1b565b92915050565b610bc4611872565b610bce60006118cc565b565b6007546001600160a01b03163314610c3c5760405162461bcd60e51b815260206004820152602960248201527f4f6e6c792074686520666163746f72792063616e2075706461746520746865206044820152681d1a1c995cda1bdb1960ba1b606482015260840161075f565b600c54811115610c5157600d805460ff191690555b600c55565b6060600480546105f490611b7c565b600b54421115610cb05760405162461bcd60e51b81526020600482015260166024820152751058dd1a5d99481c1a185cd9481a185cc8195b99195960521b604482015260640161075f565b6000610cbb826106b3565b90506000670de0b6b3a764000060095483610cd69190611bfc565b610ce09190611c1b565b90506000670de0b6b3a7640000600a5484610cfb9190611bfc565b610d059190611c1b565b9050600081610d148486611bcd565b610d1e9190611bcd565b905080341015610d4a57604051631c102d6360e21b81526004810182905234602482015260440161075f565b610d54338661191e565b600c5460025410158015610d6b5750600d5460ff16155b15610dc45762015f90600b6000828254610d859190611bcd565b9091555050600d805460ff19166001179055600b546040517fbbf34b21e43b230b77c4e6cd9cc1f8bcc836530b8f641edcae36f304d53d166790600090a25b80341115610e3057600033610dd98334611be5565b604051600081818185875af1925050503d8060008114610e15576040519150601f19603f3d011682016040523d82523d6000602084013e610e1a565b606091505b5050905080610e2e57336109dc8334611be5565b505b6008546040516000916001600160a01b03169085908381818185875af1925050503d8060008114610e7d576040519150601f19603f3d011682016040523d82523d6000602084013e610e82565b606091505b505090506000610e9a6005546001600160a01b031690565b6001600160a01b03168460405160006040518083038185875af1925050503d8060008114610ee4576040519150601f19603f3d011682016040523d82523d6000602084013e610ee9565b606091505b50509050818015610ef75750805b610f3a5760405162461bcd60e51b8152602060048201526014602482015273556e61626c6520746f2073656e642066756e647360601b604482015260640161075f565b600254600554600954600a54600b54600d54604080518e81526020810195909552840192909252606083015260ff16151560808201526001600160a01b039091169033907f518ca22755bebdd1cb054248e06d4783406c94e70a9427610728c37d517c3a329060a001610b62565b60003381610fb6828661112f565b9050838110156110165760405162461bcd60e51b815260206004820152602560248201527f45524332303a2064656372656173656420616c6c6f77616e63652062656c6f77604482015264207a65726f60d81b606482015260840161075f565b6106a88286868403611405565b6000336106858185856115a4565b600061103c60025490565b82111561104b57506000919050565b600061105961037960025490565b905060006110748461106a60025490565b6103799190611be5565b905060006110828284611be5565b90506000670de0b6b3a76400006009548361109d9190611bfc565b6110a79190611c1b565b90506000670de0b6b3a7640000600a54846110c29190611bfc565b6110cc9190611c1b565b90506110d88183611bcd565b8310156110ec575060009695505050505050565b6000816110f98486611be5565b61083f9190611be5565b60008061111261037960025490565b905060006111238461106a60025490565b90506106e98183611be5565b6001600160a01b03918216600090815260016020908152604080832093909416825291909152205490565b611162611872565b600b5442116111b35760405162461bcd60e51b815260206004820152601a60248201527f41637469766520706861736520686173206e6f7420656e646564000000000000604482015260640161075f565b6111bb6119dd565b47806112095760405162461bcd60e51b815260206004820152601a60248201527f4e6f2066756e647320617661696c61626c6520746f2073656e64000000000000604482015260640161075f565b6000670de0b6b3a7640000600954836112229190611bfc565b61122c9190611c1b565b905060006112426005546001600160a01b031690565b6001600160a01b03166112558385611be5565b604051600081818185875af1925050503d8060008114611291576040519150601f19603f3d011682016040523d82523d6000602084013e611296565b606091505b50506008546040519192506000916001600160a01b039091169084908381818185875af1925050503d80600081146112ea576040519150601f19603f3d011682016040523d82523d6000602084013e6112ef565b606091505b505090508180156112fd5750805b6113495760405162461bcd60e51b815260206004820152601860248201527f4661696c656420746f207472616e736665722066756e64730000000000000000604482015260640161075f565b60405184815233907fad3973620ba61efcb8e56f7f58d8e27b342ede7c4b73456e6cf23f9870f04ae19060200160405180910390a250505050610bce6001600655565b611394611872565b6001600160a01b0381166113f95760405162461bcd60e51b815260206004820152602660248201527f4f776e61626c653a206e6577206f776e657220697320746865207a65726f206160448201526564647265737360d01b606482015260840161075f565b611402816118cc565b50565b6001600160a01b0383166114675760405162461bcd60e51b8152602060048201526024808201527f45524332303a20617070726f76652066726f6d20746865207a65726f206164646044820152637265737360e01b606482015260840161075f565b6001600160a01b0382166114c85760405162461bcd60e51b815260206004820152602260248201527f45524332303a20617070726f766520746f20746865207a65726f206164647265604482015261737360f01b606482015260840161075f565b6001600160a01b0383811660008181526001602090815260408083209487168084529482529182902085905590518481527f8c5be1e5ebec7d5bd14f71427d1e84f3dd0314c0f7b2291e5b200ac8c7c3b92591015b60405180910390a3505050565b6000611536848461112f565b9050600019811461159e57818110156115915760405162461bcd60e51b815260206004820152601d60248201527f45524332303a20696e73756666696369656e7420616c6c6f77616e6365000000604482015260640161075f565b61159e8484848403611405565b50505050565b6001600160a01b0383166116085760405162461bcd60e51b815260206004820152602560248201527f45524332303a207472616e736665722066726f6d20746865207a65726f206164604482015264647265737360d81b606482015260840161075f565b6001600160a01b03821661166a5760405162461bcd60e51b815260206004820152602360248201527f45524332303a207472616e7366657220746f20746865207a65726f206164647260448201526265737360e81b606482015260840161075f565b6001600160a01b038316600090815260208190526040902054818110156116e25760405162461bcd60e51b815260206004820152602660248201527f45524332303a207472616e7366657220616d6f756e7420657863656564732062604482015265616c616e636560d01b606482015260840161075f565b6001600160a01b03848116600081815260208181526040808320878703905593871680835291849020805487019055925185815290927fddf252ad1be2c89b69c2b068fc378daa952ba7f163c4a11628f55a4df523b3ef910160405180910390a361159e565b6001600160a01b0382166117a85760405162461bcd60e51b815260206004820152602160248201527f45524332303a206275726e2066726f6d20746865207a65726f206164647265736044820152607360f81b606482015260840161075f565b6001600160a01b0382166000908152602081905260409020548181101561181c5760405162461bcd60e51b815260206004820152602260248201527f45524332303a206275726e20616d6f756e7420657863656564732062616c616e604482015261636560f01b606482015260840161075f565b6001600160a01b0383166000818152602081815260408083208686039055600280548790039055518581529192917fddf252ad1be2c89b69c2b068fc378daa952ba7f163c4a11628f55a4df523b3ef910161151d565b6005546001600160a01b03163314610bce5760405162461bcd60e51b815260206004820181905260248201527f4f776e61626c653a2063616c6c6572206973206e6f7420746865206f776e6572604482015260640161075f565b600580546001600160a01b038381166001600160a01b0319831681179093556040519116919082907f8be0079c531659141344cd1fd0a4f28419497f9722a3daafe3b4186f6b6457e090600090a35050565b6001600160a01b0382166119745760405162461bcd60e51b815260206004820152601f60248201527f45524332303a206d696e7420746f20746865207a65726f206164647265737300604482015260640161075f565b80600260008282546119869190611bcd565b90915550506001600160a01b038216600081815260208181526040808320805486019055518481527fddf252ad1be2c89b69c2b068fc378daa952ba7f163c4a11628f55a4df523b3ef910160405180910390a35050565b60026006541415611a305760405162461bcd60e51b815260206004820152601f60248201527f5265656e7472616e637947756172643a207265656e7472616e742063616c6c00604482015260640161075f565b6002600655565b600060208083528351808285015260005b81811015611a6457858101830151858201604001528201611a48565b81811115611a76576000604083870101525b50601f01601f1916929092016040019392505050565b80356001600160a01b0381168114611aa357600080fd5b919050565b60008060408385031215611abb57600080fd5b611ac483611a8c565b946020939093013593505050565b600080600060608486031215611ae757600080fd5b611af084611a8c565b9250611afe60208501611a8c565b9150604084013590509250925092565b600060208284031215611b2057600080fd5b5035919050565b600060208284031215611b3957600080fd5b611b4282611a8c565b9392505050565b60008060408385031215611b5c57600080fd5b611b6583611a8c565b9150611b7360208401611a8c565b90509250929050565b600181811c90821680611b9057607f821691505b60208210811415611bb157634e487b7160e01b600052602260045260246000fd5b50919050565b634e487b7160e01b600052601160045260246000fd5b60008219821115611be057611be0611bb7565b500190565b600082821015611bf757611bf7611bb7565b500390565b6000816000190483118215151615611c1657611c16611bb7565b500290565b600082611c3857634e487b7160e01b600052601260045260246000fd5b50049056fea264697066735822122046fd1aaf0f1c51c6c10f9088cdb47a03e27722e89cb1eb31b0205bcf6f85e9b264736f6c63430008080033a2646970667358221220a1b24cdc67d157ce2a75cc07de4b8a517c424a0a132c92614ded00520f6e720b64736f6c63430008080033",
  "devdoc": {
    "kind": "dev",
    "methods": {
      "createTempToken(string,string,uint256)": {
        "details": "createTempToken is a function to create a new TempToken.name is the name of the token.symbol is the symbol of the token.duration is the duration in seconds for the lifespan of the TempToken.The function returns the address of the new TempToken."
      },
      "getTokenInfo(address)": {
        "details": "getTokenInfo is a function to get the TokenInfo struct of a deployed token.tokenAddress is the address of the deployed token.The function returns the TokenInfo struct of the deployed token."
      },
      "owner()": {
        "details": "Returns the address of the current owner."
      },
      "renounceOwnership()": {
        "details": "Leaves the contract without owner. It will not be possible to call `onlyOwner` functions anymore. Can only be called by the current owner. NOTE: Renouncing ownership will leave the contract without an owner, thereby removing any functionality that is only available to the owner."
      },
      "setFeeDestination(address)": {
        "details": "The following functions are used to set the default protocol fee destination,  protocol fee percentage, streamer fee percentage, pause the factory, set total supply threshold, and set the max duration.These functions are only callable by the owner of the factory."
      },
      "setTotalSupplyThresholdForTokens(uint256,address[])": {
        "details": "The following functions are used to set the total supply threshold for tokens,  increase the end timestamp for tokens, set the max duration, and pause the factory.These functions are only callable by the owner or an admin of the factory."
      },
      "transferOwnership(address)": {
        "details": "Transfers ownership of the contract to a new account (`newOwner`). Can only be called by the current owner."
      }
    },
    "stateVariables": {
      "admins": {
        "details": "admins is a mapping of addresses to a boolean value. If the boolean value is true, the address is an admin. If the boolean value is false, the address is not an admin."
      },
      "defaultProtocolFeePercent": {
        "details": "defaultProtocolFeePercent is the default protocol fee percentage. ex: 2% = 2 * 10**16 = 20000000000000000.defaultStreamerFeePercent is the default streamer fee percentage. ex: 2% = 2 * 10**16 = 20000000000000000.defaultProtocolFeeDestination is the default protocol fee destination address.isPaused is a boolean to pause the token creation function.maxDuration is the max duration in seconds for the lifespan of the TempToken.totalSupplyThreshold is the total supply needed for the token to convert from a TempToken into a normal, permanent token.  This total supply will be adjusted by us depending on various factors. The goal of each TempToken is to have hit this threshold by the time the duration has expired. IT'S A GAME."
      },
      "numDeployedTokens": {
        "details": "numDeployedTokens is the number of deployed tokens.deployedTokenIndices is a mapping of token addresses to their assigned index.deployedTokens is a mapping of token indices to TokenInfo structs."
      }
    },
    "version": 1
  },
  "userdoc": {
    "kind": "user",
    "methods": {},
    "version": 1
  },
  "storageLayout": {
    "storage": [
      {
        "astId": 7,
        "contract": "contracts/TempTokenFactoryV1.sol:TempTokenFactoryV1",
        "label": "_owner",
        "offset": 0,
        "slot": "0",
        "type": "t_address"
      },
      {
        "astId": 3961,
        "contract": "contracts/TempTokenFactoryV1.sol:TempTokenFactoryV1",
        "label": "numDeployedTokens",
        "offset": 0,
        "slot": "1",
        "type": "t_uint256"
      },
      {
        "astId": 3965,
        "contract": "contracts/TempTokenFactoryV1.sol:TempTokenFactoryV1",
        "label": "deployedTokenIndices",
        "offset": 0,
        "slot": "2",
        "type": "t_mapping(t_address,t_uint256)"
      },
      {
        "astId": 3970,
        "contract": "contracts/TempTokenFactoryV1.sol:TempTokenFactoryV1",
        "label": "deployedTokens",
        "offset": 0,
        "slot": "3",
        "type": "t_mapping(t_uint256,t_struct(TokenInfo)3958_storage)"
      },
      {
        "astId": 3975,
        "contract": "contracts/TempTokenFactoryV1.sol:TempTokenFactoryV1",
        "label": "admins",
        "offset": 0,
        "slot": "4",
        "type": "t_mapping(t_address,t_bool)"
      },
      {
        "astId": 3978,
        "contract": "contracts/TempTokenFactoryV1.sol:TempTokenFactoryV1",
        "label": "defaultProtocolFeePercent",
        "offset": 0,
        "slot": "5",
        "type": "t_uint256"
      },
      {
        "astId": 3980,
        "contract": "contracts/TempTokenFactoryV1.sol:TempTokenFactoryV1",
        "label": "defaultStreamerFeePercent",
        "offset": 0,
        "slot": "6",
        "type": "t_uint256"
      },
      {
        "astId": 3982,
        "contract": "contracts/TempTokenFactoryV1.sol:TempTokenFactoryV1",
        "label": "defaultProtocolFeeDestination",
        "offset": 0,
        "slot": "7",
        "type": "t_address"
      },
      {
        "astId": 3984,
        "contract": "contracts/TempTokenFactoryV1.sol:TempTokenFactoryV1",
        "label": "isPaused",
        "offset": 20,
        "slot": "7",
        "type": "t_bool"
      },
      {
        "astId": 3986,
        "contract": "contracts/TempTokenFactoryV1.sol:TempTokenFactoryV1",
        "label": "maxDuration",
        "offset": 0,
        "slot": "8",
        "type": "t_uint256"
      },
      {
        "astId": 3988,
        "contract": "contracts/TempTokenFactoryV1.sol:TempTokenFactoryV1",
        "label": "totalSupplyThreshold",
        "offset": 0,
        "slot": "9",
        "type": "t_uint256"
      }
    ],
    "types": {
      "t_address": {
        "encoding": "inplace",
        "label": "address",
        "numberOfBytes": "20"
      },
      "t_bool": {
        "encoding": "inplace",
        "label": "bool",
        "numberOfBytes": "1"
      },
      "t_mapping(t_address,t_bool)": {
        "encoding": "mapping",
        "key": "t_address",
        "label": "mapping(address => bool)",
        "numberOfBytes": "32",
        "value": "t_bool"
      },
      "t_mapping(t_address,t_uint256)": {
        "encoding": "mapping",
        "key": "t_address",
        "label": "mapping(address => uint256)",
        "numberOfBytes": "32",
        "value": "t_uint256"
      },
      "t_mapping(t_uint256,t_struct(TokenInfo)3958_storage)": {
        "encoding": "mapping",
        "key": "t_uint256",
        "label": "mapping(uint256 => struct TempTokenFactoryV1.TokenInfo)",
        "numberOfBytes": "32",
        "value": "t_struct(TokenInfo)3958_storage"
      },
      "t_string_storage": {
        "encoding": "bytes",
        "label": "string",
        "numberOfBytes": "32"
      },
      "t_struct(TokenInfo)3958_storage": {
        "encoding": "inplace",
        "label": "struct TempTokenFactoryV1.TokenInfo",
        "members": [
          {
            "astId": 3943,
            "contract": "contracts/TempTokenFactoryV1.sol:TempTokenFactoryV1",
            "label": "tokenAddress",
            "offset": 0,
            "slot": "0",
            "type": "t_address"
          },
          {
            "astId": 3945,
            "contract": "contracts/TempTokenFactoryV1.sol:TempTokenFactoryV1",
            "label": "ownerAddress",
            "offset": 0,
            "slot": "1",
            "type": "t_address"
          },
          {
            "astId": 3947,
            "contract": "contracts/TempTokenFactoryV1.sol:TempTokenFactoryV1",
            "label": "name",
            "offset": 0,
            "slot": "2",
            "type": "t_string_storage"
          },
          {
            "astId": 3949,
            "contract": "contracts/TempTokenFactoryV1.sol:TempTokenFactoryV1",
            "label": "symbol",
            "offset": 0,
            "slot": "3",
            "type": "t_string_storage"
          },
          {
            "astId": 3951,
            "contract": "contracts/TempTokenFactoryV1.sol:TempTokenFactoryV1",
            "label": "endTimestamp",
            "offset": 0,
            "slot": "4",
            "type": "t_uint256"
          },
          {
            "astId": 3953,
            "contract": "contracts/TempTokenFactoryV1.sol:TempTokenFactoryV1",
            "label": "protocolFeeDestination",
            "offset": 0,
            "slot": "5",
            "type": "t_address"
          },
          {
            "astId": 3955,
            "contract": "contracts/TempTokenFactoryV1.sol:TempTokenFactoryV1",
            "label": "protocolFeePercent",
            "offset": 0,
            "slot": "6",
            "type": "t_uint256"
          },
          {
            "astId": 3957,
            "contract": "contracts/TempTokenFactoryV1.sol:TempTokenFactoryV1",
            "label": "streamerFeePercent",
            "offset": 0,
            "slot": "7",
            "type": "t_uint256"
          }
        ],
        "numberOfBytes": "256"
      },
      "t_uint256": {
        "encoding": "inplace",
        "label": "uint256",
        "numberOfBytes": "32"
      }
    }
  }
}