{
  "address": "0xf2DA37B5C8c5742834bDcF320757d2CC3F655691",
  "abi": [
    {
      "inputs": [],
      "stateMutability": "nonpayable",
      "type": "constructor"
    },
    {
      "anonymous": false,
      "inputs": [
        {
          "indexed": true,
          "internalType": "address",
          "name": "previousOwner",
          "type": "address"
        },
        {
          "indexed": true,
          "internalType": "address",
          "name": "newOwner",
          "type": "address"
        }
      ],
      "name": "OwnershipTransferred",
      "type": "event"
    },
    {
      "anonymous": false,
      "inputs": [
        {
          "components": [
            {
              "internalType": "address",
              "name": "initiator",
              "type": "address"
            },
            {
              "internalType": "address",
              "name": "opponent",
              "type": "address"
            },
            {
              "internalType": "uint256",
              "name": "wagerAmount",
              "type": "uint256"
            },
            {
              "internalType": "uint256",
              "name": "expirationTime",
              "type": "uint256"
            },
            {
              "internalType": "bool",
              "name": "isWinnerPicked",
              "type": "bool"
            },
            {
              "internalType": "address",
              "name": "winner",
              "type": "address"
            }
          ],
          "indexed": false,
          "internalType": "struct UnlonelySideBetsV1.SideBet",
          "name": "sideBet",
          "type": "tuple"
        }
      ],
      "name": "SideBetAccepted",
      "type": "event"
    },
    {
      "anonymous": false,
      "inputs": [
        {
          "components": [
            {
              "internalType": "address",
              "name": "initiator",
              "type": "address"
            },
            {
              "internalType": "address",
              "name": "opponent",
              "type": "address"
            },
            {
              "internalType": "uint256",
              "name": "wagerAmount",
              "type": "uint256"
            },
            {
              "internalType": "uint256",
              "name": "expirationTime",
              "type": "uint256"
            },
            {
              "internalType": "bool",
              "name": "isWinnerPicked",
              "type": "bool"
            },
            {
              "internalType": "address",
              "name": "winner",
              "type": "address"
            }
          ],
          "indexed": false,
          "internalType": "struct UnlonelySideBetsV1.SideBet",
          "name": "sideBet",
          "type": "tuple"
        }
      ],
      "name": "SideBetClosed",
      "type": "event"
    },
    {
      "anonymous": false,
      "inputs": [
        {
          "components": [
            {
              "internalType": "address",
              "name": "initiator",
              "type": "address"
            },
            {
              "internalType": "address",
              "name": "opponent",
              "type": "address"
            },
            {
              "internalType": "uint256",
              "name": "wagerAmount",
              "type": "uint256"
            },
            {
              "internalType": "uint256",
              "name": "expirationTime",
              "type": "uint256"
            },
            {
              "internalType": "bool",
              "name": "isWinnerPicked",
              "type": "bool"
            },
            {
              "internalType": "address",
              "name": "winner",
              "type": "address"
            }
          ],
          "indexed": false,
          "internalType": "struct UnlonelySideBetsV1.SideBet",
          "name": "sideBet",
          "type": "tuple"
        }
      ],
      "name": "SideBetOpened",
      "type": "event"
    },
    {
      "anonymous": false,
      "inputs": [
        {
          "indexed": false,
          "internalType": "bytes32",
          "name": "eventByte",
          "type": "bytes32"
        },
        {
          "indexed": false,
          "internalType": "address",
          "name": "winner",
          "type": "address"
        }
      ],
      "name": "WinnerPicked",
      "type": "event"
    },
    {
      "inputs": [
        {
          "internalType": "address",
          "name": "eventAddress",
          "type": "address"
        },
        {
          "internalType": "uint256",
          "name": "eventId",
          "type": "uint256"
        },
        {
          "internalType": "enum UnlonelySideBetsV1.EventType",
          "name": "eventType",
          "type": "uint8"
        }
      ],
      "name": "acceptSideBet",
      "outputs": [],
      "stateMutability": "payable",
      "type": "function"
    },
    {
      "inputs": [
        {
          "internalType": "address",
          "name": "eventAddress",
          "type": "address"
        },
        {
          "internalType": "uint256",
          "name": "eventId",
          "type": "uint256"
        },
        {
          "internalType": "enum UnlonelySideBetsV1.EventType",
          "name": "eventType",
          "type": "uint8"
        }
      ],
      "name": "closeSideBet",
      "outputs": [],
      "stateMutability": "nonpayable",
      "type": "function"
    },
    {
      "inputs": [
        {
          "internalType": "address",
          "name": "eventAddress",
          "type": "address"
        },
        {
          "internalType": "uint256",
          "name": "eventId",
          "type": "uint256"
        },
        {
          "internalType": "enum UnlonelySideBetsV1.EventType",
          "name": "eventType",
          "type": "uint8"
        }
      ],
      "name": "generateKey",
      "outputs": [
        {
          "internalType": "bytes32",
          "name": "",
          "type": "bytes32"
        }
      ],
      "stateMutability": "pure",
      "type": "function"
    },
    {
      "inputs": [
        {
          "internalType": "address",
          "name": "eventAddress",
          "type": "address"
        },
        {
          "internalType": "uint256",
          "name": "eventId",
          "type": "uint256"
        },
        {
          "internalType": "enum UnlonelySideBetsV1.EventType",
          "name": "eventType",
          "type": "uint8"
        }
      ],
      "name": "getExistingWager",
      "outputs": [
        {
          "internalType": "uint256",
          "name": "",
          "type": "uint256"
        }
      ],
      "stateMutability": "view",
      "type": "function"
    },
    {
      "inputs": [
        {
          "internalType": "address",
          "name": "eventAddress",
          "type": "address"
        },
        {
          "internalType": "uint256",
          "name": "eventId",
          "type": "uint256"
        },
        {
          "internalType": "enum UnlonelySideBetsV1.EventType",
          "name": "eventType",
          "type": "uint8"
        }
      ],
      "name": "getExistingWagerAfterFee",
      "outputs": [
        {
          "internalType": "uint256",
          "name": "",
          "type": "uint256"
        }
      ],
      "stateMutability": "view",
      "type": "function"
    },
    {
      "inputs": [
        {
          "internalType": "uint256",
          "name": "wagerAmount",
          "type": "uint256"
        }
      ],
      "name": "getOpeningWagerAfterFee",
      "outputs": [
        {
          "internalType": "uint256",
          "name": "",
          "type": "uint256"
        }
      ],
      "stateMutability": "view",
      "type": "function"
    },
    {
      "inputs": [
        {
          "internalType": "address",
          "name": "eventAddress",
          "type": "address"
        },
        {
          "internalType": "uint256",
          "name": "eventId",
          "type": "uint256"
        },
        {
          "internalType": "enum UnlonelySideBetsV1.EventType",
          "name": "eventType",
          "type": "uint8"
        }
      ],
      "name": "isSideBetAvailable",
      "outputs": [
        {
          "internalType": "bool",
          "name": "",
          "type": "bool"
        }
      ],
      "stateMutability": "view",
      "type": "function"
    },
    {
      "inputs": [
        {
          "internalType": "address",
          "name": "",
          "type": "address"
        }
      ],
      "name": "isVerifier",
      "outputs": [
        {
          "internalType": "bool",
          "name": "",
          "type": "bool"
        }
      ],
      "stateMutability": "view",
      "type": "function"
    },
    {
      "inputs": [
        {
          "internalType": "address",
          "name": "eventAddress",
          "type": "address"
        },
        {
          "internalType": "uint256",
          "name": "eventId",
          "type": "uint256"
        },
        {
          "internalType": "enum UnlonelySideBetsV1.EventType",
          "name": "eventType",
          "type": "uint8"
        },
        {
          "internalType": "uint256",
          "name": "wagerAmount",
          "type": "uint256"
        },
        {
          "internalType": "uint256",
          "name": "expirationTime",
          "type": "uint256"
        }
      ],
      "name": "openSideBet",
      "outputs": [],
      "stateMutability": "payable",
      "type": "function"
    },
    {
      "inputs": [],
      "name": "owner",
      "outputs": [
        {
          "internalType": "address",
          "name": "",
          "type": "address"
        }
      ],
      "stateMutability": "view",
      "type": "function"
    },
    {
      "inputs": [
        {
          "internalType": "address",
          "name": "eventAddress",
          "type": "address"
        },
        {
          "internalType": "uint256",
          "name": "eventId",
          "type": "uint256"
        },
        {
          "internalType": "enum UnlonelySideBetsV1.EventType",
          "name": "eventType",
          "type": "uint8"
        },
        {
          "internalType": "address",
          "name": "winnerAddress",
          "type": "address"
        }
      ],
      "name": "pickWinner",
      "outputs": [],
      "stateMutability": "nonpayable",
      "type": "function"
    },
    {
      "inputs": [],
      "name": "protocolFeeDestination",
      "outputs": [
        {
          "internalType": "address",
          "name": "",
          "type": "address"
        }
      ],
      "stateMutability": "view",
      "type": "function"
    },
    {
      "inputs": [],
      "name": "protocolFeePercent",
      "outputs": [
        {
          "internalType": "uint256",
          "name": "",
          "type": "uint256"
        }
      ],
      "stateMutability": "view",
      "type": "function"
    },
    {
      "inputs": [],
      "name": "renounceOwnership",
      "outputs": [],
      "stateMutability": "nonpayable",
      "type": "function"
    },
    {
      "inputs": [
        {
          "internalType": "address",
          "name": "_feeDestination",
          "type": "address"
        }
      ],
      "name": "setFeeDestination",
      "outputs": [],
      "stateMutability": "nonpayable",
      "type": "function"
    },
    {
      "inputs": [
        {
          "internalType": "uint256",
          "name": "_feePercent",
          "type": "uint256"
        }
      ],
      "name": "setProtocolFeePercent",
      "outputs": [],
      "stateMutability": "nonpayable",
      "type": "function"
    },
    {
      "inputs": [
        {
          "internalType": "uint256",
          "name": "_feePercent",
          "type": "uint256"
        }
      ],
      "name": "setSubjectFeePercent",
      "outputs": [],
      "stateMutability": "nonpayable",
      "type": "function"
    },
    {
      "inputs": [
        {
          "internalType": "address",
          "name": "verifier",
          "type": "address"
        },
        {
          "internalType": "bool",
          "name": "value",
          "type": "bool"
        }
      ],
      "name": "setVerifier",
      "outputs": [],
      "stateMutability": "nonpayable",
      "type": "function"
    },
    {
      "inputs": [
        {
          "internalType": "bytes32",
          "name": "",
          "type": "bytes32"
        }
      ],
      "name": "sideBets",
      "outputs": [
        {
          "internalType": "address",
          "name": "initiator",
          "type": "address"
        },
        {
          "internalType": "address",
          "name": "opponent",
          "type": "address"
        },
        {
          "internalType": "uint256",
          "name": "wagerAmount",
          "type": "uint256"
        },
        {
          "internalType": "uint256",
          "name": "expirationTime",
          "type": "uint256"
        },
        {
          "internalType": "bool",
          "name": "isWinnerPicked",
          "type": "bool"
        },
        {
          "internalType": "address",
          "name": "winner",
          "type": "address"
        }
      ],
      "stateMutability": "view",
      "type": "function"
    },
    {
      "inputs": [],
      "name": "subjectFeePercent",
      "outputs": [
        {
          "internalType": "uint256",
          "name": "",
          "type": "uint256"
        }
      ],
      "stateMutability": "view",
      "type": "function"
    },
    {
      "inputs": [
        {
          "internalType": "address",
          "name": "newOwner",
          "type": "address"
        }
      ],
      "name": "transferOwnership",
      "outputs": [],
      "stateMutability": "nonpayable",
      "type": "function"
    }
  ],
  "transactionHash": "0x324306ffa57600fd15a35fd1c12f7ff650660c0393f75bfe2a11f03a8fb87094",
  "args": [],
  "numDeployments": 3,
  "solcInputHash": "56c4a22c91ea2b4fd8363f4c9a2bc2b1",
  "bytecode": "0x60806040523480156200001157600080fd5b506200003262000026620000b360201b60201c565b620000bb60201b60201c565b600180819055506001600660003373ffffffffffffffffffffffffffffffffffffffff1673ffffffffffffffffffffffffffffffffffffffff16815260200190815260200160002060006101000a81548160ff02191690831515021790555066b1a2bc2ec5000060038190555066b1a2bc2ec500006004819055506200017f565b600033905090565b60008060009054906101000a900473ffffffffffffffffffffffffffffffffffffffff169050816000806101000a81548173ffffffffffffffffffffffffffffffffffffffff021916908373ffffffffffffffffffffffffffffffffffffffff1602179055508173ffffffffffffffffffffffffffffffffffffffff168173ffffffffffffffffffffffffffffffffffffffff167f8be0079c531659141344cd1fd0a4f28419497f9722a3daafe3b4186f6b6457e060405160405180910390a35050565b61316b806200018f6000396000f3fe60806040526004361061012a5760003560e01c80638da5cb5b116100ab578063cff059131161006f578063cff05913146103c0578063d07b7bb514610402578063d6e6eb9f1461043f578063ebe2fd681461046a578063f2fde38b146104a7578063fbe53234146104d05761012a565b80638da5cb5b146102f157806391b0e3051461031c578063a498342114610345578063ac9b56711461036e578063c9e18c5b146103975761012a565b806333105218116100f2578063331052181461022d5780634ce7957c1461026a5780635a8a764e146102955780636c4d3626146102be578063715018a6146102da5761012a565b80630d7345191461012f5780631e0420161461016c57806324dc441d146101a957806330d06aca146101d45780633122883f14610211575b600080fd5b34801561013b57600080fd5b5061015660048036038101906101519190612016565b6104f9565b6040516101639190612082565b60405180910390f35b34801561017857600080fd5b50610193600480360381019061018e919061209d565b6105dc565b6040516101a091906120d9565b60405180910390f35b3480156101b557600080fd5b506101be610647565b6040516101cb91906120d9565b60405180910390f35b3480156101e057600080fd5b506101fb60048036038101906101f69190612016565b61064d565b60405161020891906120d9565b60405180910390f35b61022b600480360381019061022691906120f4565b610684565b005b34801561023957600080fd5b50610254600480360381019061024f919061216f565b610c6b565b60405161026191906121b7565b60405180910390f35b34801561027657600080fd5b5061027f610c8b565b60405161028c91906121e1565b60405180910390f35b3480156102a157600080fd5b506102bc60048036038101906102b7919061209d565b610cb1565b005b6102d860048036038101906102d39190612016565b610cc3565b005b3480156102e657600080fd5b506102ef61120c565b005b3480156102fd57600080fd5b50610306611220565b60405161031391906121e1565b60405180910390f35b34801561032857600080fd5b50610343600480360381019061033e91906121fc565b611249565b005b34801561035157600080fd5b5061036c6004803603810190610367919061209d565b61162d565b005b34801561037a57600080fd5b506103956004803603810190610390919061228f565b61163f565b005b3480156103a357600080fd5b506103be60048036038101906103b99190612016565b6116a2565b005b3480156103cc57600080fd5b506103e760048036038101906103e291906122fb565b611afc565b6040516103f996959493929190612328565b60405180910390f35b34801561040e57600080fd5b5061042960048036038101906104249190612016565b611ba5565b60405161043691906120d9565b60405180910390f35b34801561044b57600080fd5b50610454611c3e565b60405161046191906120d9565b60405180910390f35b34801561047657600080fd5b50610491600480360381019061048c9190612016565b611c44565b60405161049e91906121b7565b60405180910390f35b3480156104b357600080fd5b506104ce60048036038101906104c9919061216f565b611ce5565b005b3480156104dc57600080fd5b506104f760048036038101906104f2919061216f565b611d69565b005b60008160028081111561050f5761050e612389565b5b81600281111561052257610521612389565b5b14610562576040517f08c379a000000000000000000000000000000000000000000000000000000000815260040161055990612415565b60405180910390fd5b6298968084106105a7576040517f08c379a000000000000000000000000000000000000000000000000000000000815260040161059e90612481565b60405180910390fd5b8484846040516020016105bc93929190612579565b604051602081830303815290604052805190602001209150509392505050565b600080670de0b6b3a7640000600354846105f691906125e5565b610600919061266e565b90506000670de0b6b3a76400006004548561061b91906125e5565b610625919061266e565b9050808285610634919061269f565b61063e919061269f565b92505050919050565b60045481565b60008061065b8585856104f9565b905060006005600083815260200190815260200160002060020154905080925050509392505050565b8260028081111561069857610697612389565b5b8160028111156106ab576106aa612389565b5b146106eb576040517f08c379a00000000000000000000000000000000000000000000000000000000081526004016106e290612415565b60405180910390fd5b6106f3611db5565b60006107008787876104f9565b9050600073ffffffffffffffffffffffffffffffffffffffff166005600083815260200190815260200160002060000160009054906101000a900473ffffffffffffffffffffffffffffffffffffffff1673ffffffffffffffffffffffffffffffffffffffff16146107a7576040517f08c379a000000000000000000000000000000000000000000000000000000000815260040161079e90612741565b60405180910390fd5b6000670de0b6b3a7640000600354866107c091906125e5565b6107ca919061266e565b90506000670de0b6b3a7640000600454876107e591906125e5565b6107ef919061266e565b90508082876107fe919061269f565b610808919061269f565b34101561084a576040517f08c379a0000000000000000000000000000000000000000000000000000000008152600401610841906127ad565b60405180910390fd5b808287610857919061269f565b610861919061269f565b3411156109375760003373ffffffffffffffffffffffffffffffffffffffff1682848961088e919061269f565b610898919061269f565b346108a391906127cd565b6040516108af90612832565b60006040518083038185875af1925050503d80600081146108ec576040519150601f19603f3d011682016040523d82523d6000602084013e6108f1565b606091505b5050905080610935576040517f08c379a000000000000000000000000000000000000000000000000000000000815260040161092c90612893565b60405180910390fd5b505b6040518060c001604052803373ffffffffffffffffffffffffffffffffffffffff168152602001600073ffffffffffffffffffffffffffffffffffffffff168152602001878152602001868152602001600015158152602001600073ffffffffffffffffffffffffffffffffffffffff168152506005600085815260200190815260200160002060008201518160000160006101000a81548173ffffffffffffffffffffffffffffffffffffffff021916908373ffffffffffffffffffffffffffffffffffffffff16021790555060208201518160010160006101000a81548173ffffffffffffffffffffffffffffffffffffffff021916908373ffffffffffffffffffffffffffffffffffffffff160217905550604082015181600201556060820151816003015560808201518160040160006101000a81548160ff02191690831515021790555060a08201518160040160016101000a81548173ffffffffffffffffffffffffffffffffffffffff021916908373ffffffffffffffffffffffffffffffffffffffff1602179055509050507f8813bf2c16e5ca64abac3d50052f2afd42009222e1383bb6c02f44626b24043960056000858152602001908152602001600020604051610b0b9190612a51565b60405180910390a16000600260009054906101000a900473ffffffffffffffffffffffffffffffffffffffff1673ffffffffffffffffffffffffffffffffffffffff1683604051610b5b90612832565b60006040518083038185875af1925050503d8060008114610b98576040519150601f19603f3d011682016040523d82523d6000602084013e610b9d565b606091505b5050905060008a73ffffffffffffffffffffffffffffffffffffffff1683604051610bc790612832565b60006040518083038185875af1925050503d8060008114610c04576040519150601f19603f3d011682016040523d82523d6000602084013e610c09565b606091505b50509050818015610c175750805b610c56576040517f08c379a0000000000000000000000000000000000000000000000000000000008152600401610c4d90612ab8565b60405180910390fd5b5050505050610c63611e05565b505050505050565b60066020528060005260406000206000915054906101000a900460ff1681565b600260009054906101000a900473ffffffffffffffffffffffffffffffffffffffff1681565b610cb9611e0e565b8060048190555050565b6000610cd08484846104f9565b9050600073ffffffffffffffffffffffffffffffffffffffff166005600083815260200190815260200160002060000160009054906101000a900473ffffffffffffffffffffffffffffffffffffffff1673ffffffffffffffffffffffffffffffffffffffff161415610d78576040517f08c379a0000000000000000000000000000000000000000000000000000000008152600401610d6f90612b24565b60405180910390fd5b600073ffffffffffffffffffffffffffffffffffffffff166005600083815260200190815260200160002060010160009054906101000a900473ffffffffffffffffffffffffffffffffffffffff1673ffffffffffffffffffffffffffffffffffffffff1614610e1d576040517f08c379a0000000000000000000000000000000000000000000000000000000008152600401610e1490612b90565b60405180910390fd5b42600560008381526020019081526020016000206003015411610e75576040517f08c379a0000000000000000000000000000000000000000000000000000000008152600401610e6c90612bfc565b60405180910390fd5b6000600560008381526020019081526020016000206002015490506000670de0b6b3a764000060035483610ea991906125e5565b610eb3919061266e565b90506000670de0b6b3a764000060045484610ece91906125e5565b610ed8919061266e565b9050808284610ee7919061269f565b610ef1919061269f565b341015610f33576040517f08c379a0000000000000000000000000000000000000000000000000000000008152600401610f2a906127ad565b60405180910390fd5b808284610f40919061269f565b610f4a919061269f565b3411156110205760003373ffffffffffffffffffffffffffffffffffffffff16828486610f77919061269f565b610f81919061269f565b34610f8c91906127cd565b604051610f9890612832565b60006040518083038185875af1925050503d8060008114610fd5576040519150601f19603f3d011682016040523d82523d6000602084013e610fda565b606091505b505090508061101e576040517f08c379a000000000000000000000000000000000000000000000000000000000815260040161101590612893565b60405180910390fd5b505b336005600086815260200190815260200160002060010160006101000a81548173ffffffffffffffffffffffffffffffffffffffff021916908373ffffffffffffffffffffffffffffffffffffffff1602179055507f987ccf2f7dac9340d88bf3963583113689bede57fb576dd64945a834d22218b3600560008681526020019081526020016000206040516110b69190612a51565b60405180910390a16000600260009054906101000a900473ffffffffffffffffffffffffffffffffffffffff1673ffffffffffffffffffffffffffffffffffffffff168360405161110690612832565b60006040518083038185875af1925050503d8060008114611143576040519150601f19603f3d011682016040523d82523d6000602084013e611148565b606091505b5050905060008873ffffffffffffffffffffffffffffffffffffffff168360405161117290612832565b60006040518083038185875af1925050503d80600081146111af576040519150601f19603f3d011682016040523d82523d6000602084013e6111b4565b606091505b505090508180156111c25750805b611201576040517f08c379a00000000000000000000000000000000000000000000000000000000081526004016111f890612ab8565b60405180910390fd5b505050505050505050565b611214611e0e565b61121e6000611e8c565b565b60008060009054906101000a900473ffffffffffffffffffffffffffffffffffffffff16905090565b600660003373ffffffffffffffffffffffffffffffffffffffff1673ffffffffffffffffffffffffffffffffffffffff16815260200190815260200160002060009054906101000a900460ff166112d5576040517f08c379a00000000000000000000000000000000000000000000000000000000081526004016112cc90612c68565b60405180910390fd5b60006112e28585856104f9565b9050600073ffffffffffffffffffffffffffffffffffffffff166005600083815260200190815260200160002060000160009054906101000a900473ffffffffffffffffffffffffffffffffffffffff1673ffffffffffffffffffffffffffffffffffffffff16141561138a576040517f08c379a000000000000000000000000000000000000000000000000000000000815260040161138190612b24565b60405180910390fd5b600073ffffffffffffffffffffffffffffffffffffffff166005600083815260200190815260200160002060010160009054906101000a900473ffffffffffffffffffffffffffffffffffffffff1673ffffffffffffffffffffffffffffffffffffffff161415611430576040517f08c379a000000000000000000000000000000000000000000000000000000000815260040161142790612cd4565b60405180910390fd5b6005600082815260200190815260200160002060040160009054906101000a900460ff1615611494576040517f08c379a000000000000000000000000000000000000000000000000000000000815260040161148b90612d40565b60405180910390fd5b816005600083815260200190815260200160002060040160016101000a81548173ffffffffffffffffffffffffffffffffffffffff021916908373ffffffffffffffffffffffffffffffffffffffff16021790555060016005600083815260200190815260200160002060040160006101000a81548160ff0219169083151502179055507fa040cb2ae02f8481afd8b1fc99a4b3e821369ec0e897306ea64fca8b79713d598183604051611549929190612d60565b60405180910390a160006002600560008481526020019081526020016000206002015461157691906125e5565b905060008373ffffffffffffffffffffffffffffffffffffffff168260405161159e90612832565b60006040518083038185875af1925050503d80600081146115db576040519150601f19603f3d011682016040523d82523d6000602084013e6115e0565b606091505b5050905080611624576040517f08c379a000000000000000000000000000000000000000000000000000000000815260040161161b90612dd5565b60405180910390fd5b50505050505050565b611635611e0e565b8060038190555050565b611647611e0e565b80600660008473ffffffffffffffffffffffffffffffffffffffff1673ffffffffffffffffffffffffffffffffffffffff16815260200190815260200160002060006101000a81548160ff0219169083151502179055505050565b60006116af8484846104f9565b9050600073ffffffffffffffffffffffffffffffffffffffff166005600083815260200190815260200160002060000160009054906101000a900473ffffffffffffffffffffffffffffffffffffffff1673ffffffffffffffffffffffffffffffffffffffff161415611757576040517f08c379a000000000000000000000000000000000000000000000000000000000815260040161174e90612b24565b60405180910390fd5b3373ffffffffffffffffffffffffffffffffffffffff166005600083815260200190815260200160002060000160009054906101000a900473ffffffffffffffffffffffffffffffffffffffff1673ffffffffffffffffffffffffffffffffffffffff16146117fb576040517f08c379a00000000000000000000000000000000000000000000000000000000081526004016117f290612e67565b60405180910390fd5b6005600082815260200190815260200160002060030154421015611854576040517f08c379a000000000000000000000000000000000000000000000000000000000815260040161184b90612ed3565b60405180910390fd5b600073ffffffffffffffffffffffffffffffffffffffff166005600083815260200190815260200160002060010160009054906101000a900473ffffffffffffffffffffffffffffffffffffffff1673ffffffffffffffffffffffffffffffffffffffff16146118f9576040517f08c379a00000000000000000000000000000000000000000000000000000000081526004016118f090612f3f565b60405180910390fd5b60006005600083815260200190815260200160002060020154905060006005600084815260200190815260200160002060000160009054906101000a900473ffffffffffffffffffffffffffffffffffffffff16905060056000848152602001908152602001600020600080820160006101000a81549073ffffffffffffffffffffffffffffffffffffffff02191690556001820160006101000a81549073ffffffffffffffffffffffffffffffffffffffff0219169055600282016000905560038201600090556004820160006101000a81549060ff02191690556004820160016101000a81549073ffffffffffffffffffffffffffffffffffffffff0219169055505060008173ffffffffffffffffffffffffffffffffffffffff1683604051611a2490612832565b60006040518083038185875af1925050503d8060008114611a61576040519150601f19603f3d011682016040523d82523d6000602084013e611a66565b606091505b5050905080611aaa576040517f08c379a0000000000000000000000000000000000000000000000000000000008152600401611aa190612fab565b60405180910390fd5b7f4fcaa0e17090ed261738d12776397ddc5587fe6f4509d935a4d74d6a56a51d7560056000868152602001908152602001600020604051611aeb9190612a51565b60405180910390a150505050505050565b60056020528060005260406000206000915090508060000160009054906101000a900473ffffffffffffffffffffffffffffffffffffffff16908060010160009054906101000a900473ffffffffffffffffffffffffffffffffffffffff16908060020154908060030154908060040160009054906101000a900460ff16908060040160019054906101000a900473ffffffffffffffffffffffffffffffffffffffff16905086565b600080611bb38585856104f9565b90506000600560008381526020019081526020016000206002015490506000670de0b6b3a764000060035483611be991906125e5565b611bf3919061266e565b90506000670de0b6b3a764000060045484611c0e91906125e5565b611c18919061266e565b9050808284611c27919061269f565b611c31919061269f565b9450505050509392505050565b60035481565b600080611c528585856104f9565b9050426005600083815260200190815260200160002060030154118015611cdb5750600073ffffffffffffffffffffffffffffffffffffffff166005600083815260200190815260200160002060010160009054906101000a900473ffffffffffffffffffffffffffffffffffffffff1673ffffffffffffffffffffffffffffffffffffffff16145b9150509392505050565b611ced611e0e565b600073ffffffffffffffffffffffffffffffffffffffff168173ffffffffffffffffffffffffffffffffffffffff161415611d5d576040517f08c379a0000000000000000000000000000000000000000000000000000000008152600401611d549061303d565b60405180910390fd5b611d6681611e8c565b50565b611d71611e0e565b80600260006101000a81548173ffffffffffffffffffffffffffffffffffffffff021916908373ffffffffffffffffffffffffffffffffffffffff16021790555050565b60026001541415611dfb576040517f08c379a0000000000000000000000000000000000000000000000000000000008152600401611df2906130a9565b60405180910390fd5b6002600181905550565b60018081905550565b611e16611f50565b73ffffffffffffffffffffffffffffffffffffffff16611e34611220565b73ffffffffffffffffffffffffffffffffffffffff1614611e8a576040517f08c379a0000000000000000000000000000000000000000000000000000000008152600401611e8190613115565b60405180910390fd5b565b60008060009054906101000a900473ffffffffffffffffffffffffffffffffffffffff169050816000806101000a81548173ffffffffffffffffffffffffffffffffffffffff021916908373ffffffffffffffffffffffffffffffffffffffff1602179055508173ffffffffffffffffffffffffffffffffffffffff168173ffffffffffffffffffffffffffffffffffffffff167f8be0079c531659141344cd1fd0a4f28419497f9722a3daafe3b4186f6b6457e060405160405180910390a35050565b600033905090565b600080fd5b600073ffffffffffffffffffffffffffffffffffffffff82169050919050565b6000611f8882611f5d565b9050919050565b611f9881611f7d565b8114611fa357600080fd5b50565b600081359050611fb581611f8f565b92915050565b6000819050919050565b611fce81611fbb565b8114611fd957600080fd5b50565b600081359050611feb81611fc5565b92915050565b60038110611ffe57600080fd5b50565b60008135905061201081611ff1565b92915050565b60008060006060848603121561202f5761202e611f58565b5b600061203d86828701611fa6565b935050602061204e86828701611fdc565b925050604061205f86828701612001565b9150509250925092565b6000819050919050565b61207c81612069565b82525050565b60006020820190506120976000830184612073565b92915050565b6000602082840312156120b3576120b2611f58565b5b60006120c184828501611fdc565b91505092915050565b6120d381611fbb565b82525050565b60006020820190506120ee60008301846120ca565b92915050565b600080600080600060a086880312156121105761210f611f58565b5b600061211e88828901611fa6565b955050602061212f88828901611fdc565b945050604061214088828901612001565b935050606061215188828901611fdc565b925050608061216288828901611fdc565b9150509295509295909350565b60006020828403121561218557612184611f58565b5b600061219384828501611fa6565b91505092915050565b60008115159050919050565b6121b18161219c565b82525050565b60006020820190506121cc60008301846121a8565b92915050565b6121db81611f7d565b82525050565b60006020820190506121f660008301846121d2565b92915050565b6000806000806080858703121561221657612215611f58565b5b600061222487828801611fa6565b945050602061223587828801611fdc565b935050604061224687828801612001565b925050606061225787828801611fa6565b91505092959194509250565b61226c8161219c565b811461227757600080fd5b50565b60008135905061228981612263565b92915050565b600080604083850312156122a6576122a5611f58565b5b60006122b485828601611fa6565b92505060206122c58582860161227a565b9150509250929050565b6122d881612069565b81146122e357600080fd5b50565b6000813590506122f5816122cf565b92915050565b60006020828403121561231157612310611f58565b5b600061231f848285016122e6565b91505092915050565b600060c08201905061233d60008301896121d2565b61234a60208301886121d2565b61235760408301876120ca565b61236460608301866120ca565b61237160808301856121a8565b61237e60a08301846121d2565b979650505050505050565b7f4e487b7100000000000000000000000000000000000000000000000000000000600052602160045260246000fd5b600082825260208201905092915050565b7f496e76616c6964206576656e7420747970650000000000000000000000000000600082015250565b60006123ff6012836123b8565b915061240a826123c9565b602082019050919050565b6000602082019050818103600083015261242e816123f2565b9050919050565b7f4944206d757374206265206c657373207468616e203130206d696c6c696f6e00600082015250565b600061246b601f836123b8565b915061247682612435565b602082019050919050565b6000602082019050818103600083015261249a8161245e565b9050919050565b60008160601b9050919050565b60006124b9826124a1565b9050919050565b60006124cb826124ae565b9050919050565b6124e36124de82611f7d565b6124c0565b82525050565b6000819050919050565b6125046124ff82611fbb565b6124e9565b82525050565b6003811061251b5761251a612389565b5b50565b600081905061252c8261250a565b919050565b600061253c8261251e565b9050919050565b60008160f81b9050919050565b600061255b82612543565b9050919050565b61257361256e82612531565b612550565b82525050565b600061258582866124d2565b60148201915061259582856124f3565b6020820191506125a58284612562565b600182019150819050949350505050565b7f4e487b7100000000000000000000000000000000000000000000000000000000600052601160045260246000fd5b60006125f082611fbb565b91506125fb83611fbb565b9250817fffffffffffffffffffffffffffffffffffffffffffffffffffffffffffffffff0483118215151615612634576126336125b6565b5b828202905092915050565b7f4e487b7100000000000000000000000000000000000000000000000000000000600052601260045260246000fd5b600061267982611fbb565b915061268483611fbb565b9250826126945761269361263f565b5b828204905092915050565b60006126aa82611fbb565b91506126b583611fbb565b9250827fffffffffffffffffffffffffffffffffffffffffffffffffffffffffffffffff038211156126ea576126e96125b6565b5b828201905092915050565b7f5369646562657420616c72656164792063726561746564000000000000000000600082015250565b600061272b6017836123b8565b9150612736826126f5565b602082019050919050565b6000602082019050818103600083015261275a8161271e565b9050919050565b7f496e73756666696369656e74207061796d656e74000000000000000000000000600082015250565b60006127976014836123b8565b91506127a282612761565b602082019050919050565b600060208201905081810360008301526127c68161278a565b9050919050565b60006127d882611fbb565b91506127e383611fbb565b9250828210156127f6576127f56125b6565b5b828203905092915050565b600081905092915050565b50565b600061281c600083612801565b91506128278261280c565b600082019050919050565b600061283d8261280f565b9150819050919050565b7f556e61626c6520746f2073656e64206c6566746f7665722066756e6473000000600082015250565b600061287d601d836123b8565b915061288882612847565b602082019050919050565b600060208201905081810360008301526128ac81612870565b9050919050565b60008160001c9050919050565b600073ffffffffffffffffffffffffffffffffffffffff82169050919050565b60006128f36128ee836128b3565b6128c0565b9050919050565b61290381611f7d565b82525050565b6000819050919050565b6000612926612921836128b3565b612909565b9050919050565b61293681611fbb565b82525050565b600060ff82169050919050565b600061295c612957836128b3565b61293c565b9050919050565b61296c8161219c565b82525050565b60008160081c9050919050565b600061299261298d83612972565b6128c0565b9050919050565b60c0820160008083015490506129ae816128e0565b6129bb60008601826128fa565b50600183015490506129cc816128e0565b6129d960208601826128fa565b50600283015490506129ea81612913565b6129f7604086018261292d565b5060038301549050612a0881612913565b612a15606086018261292d565b5060048301549050612a2681612949565b612a336080860182612963565b50612a3d8161297f565b612a4a60a08601826128fa565b5050505050565b600060c082019050612a666000830184612999565b92915050565b7f556e61626c6520746f2073656e642066756e6473000000000000000000000000600082015250565b6000612aa26014836123b8565b9150612aad82612a6c565b602082019050919050565b60006020820190508181036000830152612ad181612a95565b9050919050565b7f5369646562657420646f6573206e6f7420657869737400000000000000000000600082015250565b6000612b0e6016836123b8565b9150612b1982612ad8565b602082019050919050565b60006020820190508181036000830152612b3d81612b01565b9050919050565b7f5369646562657420616c72656164792074616b656e0000000000000000000000600082015250565b6000612b7a6015836123b8565b9150612b8582612b44565b602082019050919050565b60006020820190508181036000830152612ba981612b6d565b9050919050565b7f5369646562657420657870697265640000000000000000000000000000000000600082015250565b6000612be6600f836123b8565b9150612bf182612bb0565b602082019050919050565b60006020820190508181036000830152612c1581612bd9565b9050919050565b7f43616c6c6572206973206e6f7420612076657269666965720000000000000000600082015250565b6000612c526018836123b8565b9150612c5d82612c1c565b602082019050919050565b60006020820190508181036000830152612c8181612c45565b9050919050565b7f53696465626574206e6f74207965742061636365707465640000000000000000600082015250565b6000612cbe6018836123b8565b9150612cc982612c88565b602082019050919050565b60006020820190508181036000830152612ced81612cb1565b9050919050565b7f57696e6e657220616c7265616479207069636b65640000000000000000000000600082015250565b6000612d2a6015836123b8565b9150612d3582612cf4565b602082019050919050565b60006020820190508181036000830152612d5981612d1d565b9050919050565b6000604082019050612d756000830185612073565b612d8260208301846121d2565b9392505050565b7f4661696c656420746f207472616e736665722077696e6e696e67730000000000600082015250565b6000612dbf601b836123b8565b9150612dca82612d89565b602082019050919050565b60006020820190508181036000830152612dee81612db2565b9050919050565b7f4f6e6c7920696e69746961746f722063616e20636c6f7365207468652073696460008201527f6562657400000000000000000000000000000000000000000000000000000000602082015250565b6000612e516024836123b8565b9150612e5c82612df5565b604082019050919050565b60006020820190508181036000830152612e8081612e44565b9050919050565b7f53696465626574206e6f74207965742065787069726564000000000000000000600082015250565b6000612ebd6017836123b8565b9150612ec882612e87565b602082019050919050565b60006020820190508181036000830152612eec81612eb0565b9050919050565b7f5369646562657420616c72656164792061636365707465640000000000000000600082015250565b6000612f296018836123b8565b9150612f3482612ef3565b602082019050919050565b60006020820190508181036000830152612f5881612f1c565b9050919050565b7f526566756e64206661696c656400000000000000000000000000000000000000600082015250565b6000612f95600d836123b8565b9150612fa082612f5f565b602082019050919050565b60006020820190508181036000830152612fc481612f88565b9050919050565b7f4f776e61626c653a206e6577206f776e657220697320746865207a65726f206160008201527f6464726573730000000000000000000000000000000000000000000000000000602082015250565b60006130276026836123b8565b915061303282612fcb565b604082019050919050565b600060208201905081810360008301526130568161301a565b9050919050565b7f5265656e7472616e637947756172643a207265656e7472616e742063616c6c00600082015250565b6000613093601f836123b8565b915061309e8261305d565b602082019050919050565b600060208201905081810360008301526130c281613086565b9050919050565b7f4f776e61626c653a2063616c6c6572206973206e6f7420746865206f776e6572600082015250565b60006130ff6020836123b8565b915061310a826130c9565b602082019050919050565b6000602082019050818103600083015261312e816130f2565b905091905056fea264697066735822122079387bf66b87b6b50915dc391a5af1e9fe28b8bc76b3005db5ee760b1aa07da364736f6c63430008080033",
  "devdoc": {
    "kind": "dev",
    "methods": {
      "owner()": {
        "details": "Returns the address of the current owner."
      },
      "renounceOwnership()": {
        "details": "Leaves the contract without owner. It will not be possible to call `onlyOwner` functions anymore. Can only be called by the current owner. NOTE: Renouncing ownership will leave the contract without an owner, thereby removing any functionality that is only available to the owner."
      },
      "transferOwnership(address)": {
        "details": "Transfers ownership of the contract to a new account (`newOwner`). Can only be called by the current owner."
      }
    },
    "version": 1
  },
  "userdoc": {
    "kind": "user",
    "methods": {},
    "version": 1
  },
  "storageLayout": {
    "storage": [
      {
        "astId": 79,
        "contract": "contracts/UnlonelySideBetsV1.sol:UnlonelySideBetsV1",
        "label": "_owner",
        "offset": 0,
        "slot": "0",
        "type": "t_address"
      },
      {
        "astId": 10,
        "contract": "contracts/UnlonelySideBetsV1.sol:UnlonelySideBetsV1",
        "label": "_status",
        "offset": 0,
        "slot": "1",
        "type": "t_uint256"
      },
      {
        "astId": 190,
        "contract": "contracts/UnlonelySideBetsV1.sol:UnlonelySideBetsV1",
        "label": "protocolFeeDestination",
        "offset": 0,
        "slot": "2",
        "type": "t_address"
      },
      {
        "astId": 192,
        "contract": "contracts/UnlonelySideBetsV1.sol:UnlonelySideBetsV1",
        "label": "protocolFeePercent",
        "offset": 0,
        "slot": "3",
        "type": "t_uint256"
      },
      {
        "astId": 194,
        "contract": "contracts/UnlonelySideBetsV1.sol:UnlonelySideBetsV1",
        "label": "subjectFeePercent",
        "offset": 0,
        "slot": "4",
        "type": "t_uint256"
      },
      {
        "astId": 233,
        "contract": "contracts/UnlonelySideBetsV1.sol:UnlonelySideBetsV1",
        "label": "sideBets",
        "offset": 0,
        "slot": "5",
        "type": "t_mapping(t_bytes32,t_struct(SideBet)207_storage)"
      },
      {
        "astId": 237,
        "contract": "contracts/UnlonelySideBetsV1.sol:UnlonelySideBetsV1",
        "label": "isVerifier",
        "offset": 0,
        "slot": "6",
        "type": "t_mapping(t_address,t_bool)"
      }
    ],
    "types": {
      "t_address": {
        "encoding": "inplace",
        "label": "address",
        "numberOfBytes": "20"
      },
      "t_bool": {
        "encoding": "inplace",
        "label": "bool",
        "numberOfBytes": "1"
      },
      "t_bytes32": {
        "encoding": "inplace",
        "label": "bytes32",
        "numberOfBytes": "32"
      },
      "t_mapping(t_address,t_bool)": {
        "encoding": "mapping",
        "key": "t_address",
        "label": "mapping(address => bool)",
        "numberOfBytes": "32",
        "value": "t_bool"
      },
      "t_mapping(t_bytes32,t_struct(SideBet)207_storage)": {
        "encoding": "mapping",
        "key": "t_bytes32",
        "label": "mapping(bytes32 => struct UnlonelySideBetsV1.SideBet)",
        "numberOfBytes": "32",
        "value": "t_struct(SideBet)207_storage"
      },
      "t_struct(SideBet)207_storage": {
        "encoding": "inplace",
        "label": "struct UnlonelySideBetsV1.SideBet",
        "members": [
          {
            "astId": 196,
            "contract": "contracts/UnlonelySideBetsV1.sol:UnlonelySideBetsV1",
            "label": "initiator",
            "offset": 0,
            "slot": "0",
            "type": "t_address"
          },
          {
            "astId": 198,
            "contract": "contracts/UnlonelySideBetsV1.sol:UnlonelySideBetsV1",
            "label": "opponent",
            "offset": 0,
            "slot": "1",
            "type": "t_address"
          },
          {
            "astId": 200,
            "contract": "contracts/UnlonelySideBetsV1.sol:UnlonelySideBetsV1",
            "label": "wagerAmount",
            "offset": 0,
            "slot": "2",
            "type": "t_uint256"
          },
          {
            "astId": 202,
            "contract": "contracts/UnlonelySideBetsV1.sol:UnlonelySideBetsV1",
            "label": "expirationTime",
            "offset": 0,
            "slot": "3",
            "type": "t_uint256"
          },
          {
            "astId": 204,
            "contract": "contracts/UnlonelySideBetsV1.sol:UnlonelySideBetsV1",
            "label": "isWinnerPicked",
            "offset": 0,
            "slot": "4",
            "type": "t_bool"
          },
          {
            "astId": 206,
            "contract": "contracts/UnlonelySideBetsV1.sol:UnlonelySideBetsV1",
            "label": "winner",
            "offset": 1,
            "slot": "4",
            "type": "t_address"
          }
        ],
        "numberOfBytes": "160"
      },
      "t_uint256": {
        "encoding": "inplace",
        "label": "uint256",
        "numberOfBytes": "32"
      }
    }
  }
}