{
  "address": "0x994005256A268953C0620e8983DcB9900c097914",
  "abi": [
    {
      "inputs": [
        {
          "internalType": "string",
          "name": "name",
          "type": "string"
        },
        {
          "internalType": "string",
          "name": "symbol",
          "type": "string"
        }
      ],
      "stateMutability": "nonpayable",
      "type": "constructor"
    },
    {
      "inputs": [
        {
          "internalType": "uint256",
          "name": "maximumAmount",
          "type": "uint256"
        },
        {
          "internalType": "uint256",
          "name": "amount",
          "type": "uint256"
        }
      ],
      "name": "BurnAmountTooHigh",
      "type": "error"
    },
    {
      "inputs": [
        {
          "internalType": "address",
          "name": "to",
          "type": "address"
        },
        {
          "internalType": "uint256",
          "name": "value",
          "type": "uint256"
        }
      ],
      "name": "EtherTransferFailed",
      "type": "error"
    },
    {
      "inputs": [
        {
          "internalType": "uint256",
          "name": "minimumValue",
          "type": "uint256"
        },
        {
          "internalType": "uint256",
          "name": "value",
          "type": "uint256"
        }
      ],
      "name": "InsufficientValue",
      "type": "error"
    },
    {
      "anonymous": false,
      "inputs": [
        {
          "indexed": true,
          "internalType": "address",
          "name": "owner",
          "type": "address"
        },
        {
          "indexed": true,
          "internalType": "address",
          "name": "spender",
          "type": "address"
        },
        {
          "indexed": false,
          "internalType": "uint256",
          "name": "value",
          "type": "uint256"
        }
      ],
      "name": "Approval",
      "type": "event"
    },
    {
      "anonymous": false,
      "inputs": [
        {
          "indexed": true,
          "internalType": "address",
          "name": "burner",
          "type": "address"
        },
        {
          "indexed": false,
          "internalType": "uint256",
          "name": "amount",
          "type": "uint256"
        },
        {
          "indexed": true,
          "internalType": "address",
          "name": "streamerAddress",
          "type": "address"
        },
        {
          "indexed": true,
          "internalType": "uint256",
          "name": "totalSupply",
          "type": "uint256"
        }
      ],
      "name": "Burn",
      "type": "event"
    },
    {
      "anonymous": false,
      "inputs": [
        {
          "indexed": true,
          "internalType": "address",
          "name": "minter",
          "type": "address"
        },
        {
          "indexed": false,
          "internalType": "uint256",
          "name": "amount",
          "type": "uint256"
        },
        {
          "indexed": true,
          "internalType": "address",
          "name": "streamerAddress",
          "type": "address"
        },
        {
          "indexed": true,
          "internalType": "uint256",
          "name": "totalSupply",
          "type": "uint256"
        }
      ],
      "name": "Mint",
      "type": "event"
    },
    {
      "anonymous": false,
      "inputs": [
        {
          "indexed": true,
          "internalType": "address",
          "name": "previousOwner",
          "type": "address"
        },
        {
          "indexed": true,
          "internalType": "address",
          "name": "newOwner",
          "type": "address"
        }
      ],
      "name": "OwnershipTransferred",
      "type": "event"
    },
    {
      "anonymous": false,
      "inputs": [
        {
          "indexed": true,
          "internalType": "address",
          "name": "from",
          "type": "address"
        },
        {
          "indexed": true,
          "internalType": "address",
          "name": "to",
          "type": "address"
        },
        {
          "indexed": false,
          "internalType": "uint256",
          "name": "value",
          "type": "uint256"
        }
      ],
      "name": "Transfer",
      "type": "event"
    },
    {
      "inputs": [
        {
          "internalType": "address",
          "name": "owner",
          "type": "address"
        },
        {
          "internalType": "address",
          "name": "spender",
          "type": "address"
        }
      ],
      "name": "allowance",
      "outputs": [
        {
          "internalType": "uint256",
          "name": "",
          "type": "uint256"
        }
      ],
      "stateMutability": "view",
      "type": "function"
    },
    {
      "inputs": [
        {
          "internalType": "address",
          "name": "spender",
          "type": "address"
        },
        {
          "internalType": "uint256",
          "name": "amount",
          "type": "uint256"
        }
      ],
      "name": "approve",
      "outputs": [
        {
          "internalType": "bool",
          "name": "",
          "type": "bool"
        }
      ],
      "stateMutability": "nonpayable",
      "type": "function"
    },
    {
      "inputs": [
        {
          "internalType": "address",
          "name": "account",
          "type": "address"
        }
      ],
      "name": "balanceOf",
      "outputs": [
        {
          "internalType": "uint256",
          "name": "",
          "type": "uint256"
        }
      ],
      "stateMutability": "view",
      "type": "function"
    },
    {
      "inputs": [
        {
          "internalType": "uint256",
          "name": "_amount",
          "type": "uint256"
        },
        {
          "internalType": "address",
          "name": "_streamerAddress",
          "type": "address"
        }
      ],
      "name": "burn",
      "outputs": [],
      "stateMutability": "nonpayable",
      "type": "function"
    },
    {
      "inputs": [
        {
          "internalType": "uint256",
          "name": "_amount",
          "type": "uint256"
        }
      ],
      "name": "burnProceeds",
      "outputs": [
        {
          "internalType": "uint256",
          "name": "",
          "type": "uint256"
        }
      ],
      "stateMutability": "view",
      "type": "function"
    },
    {
      "inputs": [
        {
          "internalType": "uint256",
          "name": "_amount",
          "type": "uint256"
        }
      ],
      "name": "burnProceedsAfterFees",
      "outputs": [
        {
          "internalType": "uint256",
          "name": "",
          "type": "uint256"
        }
      ],
      "stateMutability": "view",
      "type": "function"
    },
    {
      "inputs": [],
      "name": "decimals",
      "outputs": [
        {
          "internalType": "uint8",
          "name": "",
          "type": "uint8"
        }
      ],
      "stateMutability": "pure",
      "type": "function"
    },
    {
      "inputs": [
        {
          "internalType": "address",
          "name": "spender",
          "type": "address"
        },
        {
          "internalType": "uint256",
          "name": "subtractedValue",
          "type": "uint256"
        }
      ],
      "name": "decreaseAllowance",
      "outputs": [
        {
          "internalType": "bool",
          "name": "",
          "type": "bool"
        }
      ],
      "stateMutability": "nonpayable",
      "type": "function"
    },
    {
      "inputs": [
        {
          "internalType": "address",
          "name": "spender",
          "type": "address"
        },
        {
          "internalType": "uint256",
          "name": "addedValue",
          "type": "uint256"
        }
      ],
      "name": "increaseAllowance",
      "outputs": [
        {
          "internalType": "bool",
          "name": "",
          "type": "bool"
        }
      ],
      "stateMutability": "nonpayable",
      "type": "function"
    },
    {
      "inputs": [
        {
          "internalType": "uint256",
          "name": "_amount",
          "type": "uint256"
        },
        {
          "internalType": "address",
          "name": "_streamerAddress",
          "type": "address"
        }
      ],
      "name": "mint",
      "outputs": [],
      "stateMutability": "payable",
      "type": "function"
    },
    {
      "inputs": [
        {
          "internalType": "uint256",
          "name": "_amount",
          "type": "uint256"
        }
      ],
      "name": "mintCost",
      "outputs": [
        {
          "internalType": "uint256",
          "name": "",
          "type": "uint256"
        }
      ],
      "stateMutability": "view",
      "type": "function"
    },
    {
      "inputs": [
        {
          "internalType": "uint256",
          "name": "_amount",
          "type": "uint256"
        }
      ],
      "name": "mintCostAfterFees",
      "outputs": [
        {
          "internalType": "uint256",
          "name": "",
          "type": "uint256"
        }
      ],
      "stateMutability": "view",
      "type": "function"
    },
    {
      "inputs": [],
      "name": "name",
      "outputs": [
        {
          "internalType": "string",
          "name": "",
          "type": "string"
        }
      ],
      "stateMutability": "view",
      "type": "function"
    },
    {
      "inputs": [],
      "name": "owner",
      "outputs": [
        {
          "internalType": "address",
          "name": "",
          "type": "address"
        }
      ],
      "stateMutability": "view",
      "type": "function"
    },
    {
      "inputs": [],
      "name": "protocolFeeDestination",
      "outputs": [
        {
          "internalType": "address",
          "name": "",
          "type": "address"
        }
      ],
      "stateMutability": "view",
      "type": "function"
    },
    {
      "inputs": [],
      "name": "protocolFeePercent",
      "outputs": [
        {
          "internalType": "uint256",
          "name": "",
          "type": "uint256"
        }
      ],
      "stateMutability": "view",
      "type": "function"
    },
    {
      "inputs": [],
      "name": "renounceOwnership",
      "outputs": [],
      "stateMutability": "nonpayable",
      "type": "function"
    },
    {
      "inputs": [
        {
          "internalType": "address",
          "name": "_feeDestination",
          "type": "address"
        }
      ],
      "name": "setFeeDestination",
      "outputs": [],
      "stateMutability": "nonpayable",
      "type": "function"
    },
    {
      "inputs": [
        {
          "internalType": "uint256",
          "name": "_feePercent",
          "type": "uint256"
        }
      ],
      "name": "setProtocolFeePercent",
      "outputs": [],
      "stateMutability": "nonpayable",
      "type": "function"
    },
    {
      "inputs": [
        {
          "internalType": "uint256",
          "name": "_feePercent",
          "type": "uint256"
        }
      ],
      "name": "setStreamerFeePercent",
      "outputs": [],
      "stateMutability": "nonpayable",
      "type": "function"
    },
    {
      "inputs": [],
      "name": "streamerFeePercent",
      "outputs": [
        {
          "internalType": "uint256",
          "name": "",
          "type": "uint256"
        }
      ],
      "stateMutability": "view",
      "type": "function"
    },
    {
      "inputs": [],
      "name": "symbol",
      "outputs": [
        {
          "internalType": "string",
          "name": "",
          "type": "string"
        }
      ],
      "stateMutability": "view",
      "type": "function"
    },
    {
      "inputs": [],
      "name": "totalSupply",
      "outputs": [
        {
          "internalType": "uint256",
          "name": "",
          "type": "uint256"
        }
      ],
      "stateMutability": "view",
      "type": "function"
    },
    {
      "inputs": [
        {
          "internalType": "address",
          "name": "to",
          "type": "address"
        },
        {
          "internalType": "uint256",
          "name": "amount",
          "type": "uint256"
        }
      ],
      "name": "transfer",
      "outputs": [
        {
          "internalType": "bool",
          "name": "",
          "type": "bool"
        }
      ],
      "stateMutability": "nonpayable",
      "type": "function"
    },
    {
      "inputs": [
        {
          "internalType": "address",
          "name": "from",
          "type": "address"
        },
        {
          "internalType": "address",
          "name": "to",
          "type": "address"
        },
        {
          "internalType": "uint256",
          "name": "amount",
          "type": "uint256"
        }
      ],
      "name": "transferFrom",
      "outputs": [
        {
          "internalType": "bool",
          "name": "",
          "type": "bool"
        }
      ],
      "stateMutability": "nonpayable",
      "type": "function"
    },
    {
      "inputs": [
        {
          "internalType": "address",
          "name": "newOwner",
          "type": "address"
        }
      ],
      "name": "transferOwnership",
      "outputs": [],
      "stateMutability": "nonpayable",
      "type": "function"
    }
  ],
  "transactionHash": "0x01560dd9d47bec19b3c91f712bdd746f0c210ad1a0fc5ba7807308e22823f77a",
  "args": [
    "Vibes",
    "VIBES"
  ],
  "numDeployments": 1,
  "solcInputHash": "dbc6e0ddbb1b2753f00bd593bdcb81ba",
  "bytecode": "0x60806040523480156200001157600080fd5b506040516200321f3803806200321f8339818101604052810190620000379190620003cc565b81818160039080519060200190620000519291906200017f565b5080600490805190602001906200006a9291906200017f565b5050506200008d62000081620000b160201b60201c565b620000b960201b60201c565b66470de4df82000060078190555066470de4df8200006008819055505050620004b6565b600033905090565b6000600560009054906101000a900473ffffffffffffffffffffffffffffffffffffffff16905081600560006101000a81548173ffffffffffffffffffffffffffffffffffffffff021916908373ffffffffffffffffffffffffffffffffffffffff1602179055508173ffffffffffffffffffffffffffffffffffffffff168173ffffffffffffffffffffffffffffffffffffffff167f8be0079c531659141344cd1fd0a4f28419497f9722a3daafe3b4186f6b6457e060405160405180910390a35050565b8280546200018d9062000480565b90600052602060002090601f016020900481019282620001b15760008555620001fd565b82601f10620001cc57805160ff1916838001178555620001fd565b82800160010185558215620001fd579182015b82811115620001fc578251825591602001919060010190620001df565b5b5090506200020c919062000210565b5090565b5b808211156200022b57600081600090555060010162000211565b5090565b6000604051905090565b600080fd5b600080fd5b600080fd5b600080fd5b6000601f19601f8301169050919050565b7f4e487b7100000000000000000000000000000000000000000000000000000000600052604160045260246000fd5b62000298826200024d565b810181811067ffffffffffffffff82111715620002ba57620002b96200025e565b5b80604052505050565b6000620002cf6200022f565b9050620002dd82826200028d565b919050565b600067ffffffffffffffff8211156200030057620002ff6200025e565b5b6200030b826200024d565b9050602081019050919050565b60005b83811015620003385780820151818401526020810190506200031b565b8381111562000348576000848401525b50505050565b6000620003656200035f84620002e2565b620002c3565b90508281526020810184848401111562000384576200038362000248565b5b6200039184828562000318565b509392505050565b600082601f830112620003b157620003b062000243565b5b8151620003c38482602086016200034e565b91505092915050565b60008060408385031215620003e657620003e562000239565b5b600083015167ffffffffffffffff8111156200040757620004066200023e565b5b620004158582860162000399565b925050602083015167ffffffffffffffff8111156200043957620004386200023e565b5b620004478582860162000399565b9150509250929050565b7f4e487b7100000000000000000000000000000000000000000000000000000000600052602260045260246000fd5b600060028204905060018216806200049957607f821691505b60208210811415620004b057620004af62000451565b5b50919050565b612d5980620004c66000396000f3fe6080604052600436106101815760003560e01c806394bf804d116100d1578063d6e6eb9f1161008a578063f2fde38b11610064578063f2fde38b146105d7578063f46d932414610600578063fbe532341461062b578063fcd3533c1461065457610181565b8063d6e6eb9f14610532578063d7e894661461055d578063dd62ed3e1461059a57610181565b806394bf804d1461040b57806395d89b4114610427578063a457c2d714610452578063a49834211461048f578063a9059cbb146104b8578063c5a1d5e2146104f557610181565b806338cb037a1161013e57806370a082311161011857806370a0823114610363578063715018a6146103a05780637a31c185146103b75780638da5cb5b146103e057610181565b806338cb037a146102be57806339509351146102fb5780634ce7957c1461033857610181565b806306fdde0314610186578063095ea7b3146101b157806318160ddd146101ee57806323b872dd1461021957806327de8f2714610256578063313ce56714610293575b600080fd5b34801561019257600080fd5b5061019b61067d565b6040516101a89190611fd8565b60405180910390f35b3480156101bd57600080fd5b506101d860048036038101906101d39190612093565b61070f565b6040516101e591906120ee565b60405180910390f35b3480156101fa57600080fd5b50610203610732565b6040516102109190612118565b60405180910390f35b34801561022557600080fd5b50610240600480360381019061023b9190612133565b61073c565b60405161024d91906120ee565b60405180910390f35b34801561026257600080fd5b5061027d60048036038101906102789190612186565b61076b565b60405161028a9190612118565b60405180910390f35b34801561029f57600080fd5b506102a86107b4565b6040516102b591906121cf565b60405180910390f35b3480156102ca57600080fd5b506102e560048036038101906102e09190612186565b6107b9565b6040516102f29190612118565b60405180910390f35b34801561030757600080fd5b50610322600480360381019061031d9190612093565b610870565b60405161032f91906120ee565b60405180910390f35b34801561034457600080fd5b5061034d6108a7565b60405161035a91906121f9565b60405180910390f35b34801561036f57600080fd5b5061038a60048036038101906103859190612214565b6108cd565b6040516103979190612118565b60405180910390f35b3480156103ac57600080fd5b506103b5610915565b005b3480156103c357600080fd5b506103de60048036038101906103d99190612186565b610929565b005b3480156103ec57600080fd5b506103f561093b565b60405161040291906121f9565b60405180910390f35b61042560048036038101906104209190612241565b610965565b005b34801561043357600080fd5b5061043c610db4565b6040516104499190611fd8565b60405180910390f35b34801561045e57600080fd5b5061047960048036038101906104749190612093565b610e46565b60405161048691906120ee565b60405180910390f35b34801561049b57600080fd5b506104b660048036038101906104b19190612186565b610ebd565b005b3480156104c457600080fd5b506104df60048036038101906104da9190612093565b610ecf565b6040516104ec91906120ee565b60405180910390f35b34801561050157600080fd5b5061051c60048036038101906105179190612186565b610ef2565b6040516105299190612118565b60405180910390f35b34801561053e57600080fd5b50610547610fa9565b6040516105549190612118565b60405180910390f35b34801561056957600080fd5b50610584600480360381019061057f9190612186565b610faf565b6040516105919190612118565b60405180910390f35b3480156105a657600080fd5b506105c160048036038101906105bc9190612281565b610ff8565b6040516105ce9190612118565b60405180910390f35b3480156105e357600080fd5b506105fe60048036038101906105f99190612214565b61107f565b005b34801561060c57600080fd5b50610615611103565b6040516106229190612118565b60405180910390f35b34801561063757600080fd5b50610652600480360381019061064d9190612214565b611109565b005b34801561066057600080fd5b5061067b60048036038101906106769190612241565b611155565b005b60606003805461068c906122f0565b80601f01602080910402602001604051908101604052809291908181526020018280546106b8906122f0565b80156107055780601f106106da57610100808354040283529160200191610705565b820191906000526020600020905b8154815290600101906020018083116106e857829003601f168201915b5050505050905090565b60008061071a6115a5565b90506107278185856115ad565b600191505092915050565b6000600254905090565b6000806107476115a5565b9050610754858285611778565b61075f858585611804565b60019150509392505050565b60008061077e610779610732565b611a7c565b9050600061079d8461078e610732565b6107989190612351565b611a7c565b905081816107ab91906123a7565b92505050919050565b600090565b6000806107cc6107c7610732565b611a7c565b905060006107eb846107dc610732565b6107e69190612351565b611a7c565b9050600082826107fb91906123a7565b90506000670de0b6b3a76400006007548361081691906123db565b6108209190612464565b90506000670de0b6b3a76400006008548461083b91906123db565b6108459190612464565b905060008183856108569190612351565b6108609190612351565b9050809650505050505050919050565b60008061087b6115a5565b905061089c81858561088d8589610ff8565b6108979190612351565b6115ad565b600191505092915050565b600660009054906101000a900473ffffffffffffffffffffffffffffffffffffffff1681565b60008060008373ffffffffffffffffffffffffffffffffffffffff1673ffffffffffffffffffffffffffffffffffffffff168152602001908152602001600020549050919050565b61091d611acc565b6109276000611b4a565b565b610931611acc565b8060088190555050565b6000600560009054906101000a900473ffffffffffffffffffffffffffffffffffffffff16905090565b600073ffffffffffffffffffffffffffffffffffffffff16600660009054906101000a900473ffffffffffffffffffffffffffffffffffffffff1673ffffffffffffffffffffffffffffffffffffffff1614156109f7576040517f08c379a00000000000000000000000000000000000000000000000000000000081526004016109ee90612507565b60405180910390fd5b600073ffffffffffffffffffffffffffffffffffffffff168173ffffffffffffffffffffffffffffffffffffffff161415610a67576040517f08c379a0000000000000000000000000000000000000000000000000000000008152600401610a5e90612599565b60405180910390fd5b6000610a728361076b565b90506000670de0b6b3a764000060075483610a8d91906123db565b610a979190612464565b90506000670de0b6b3a764000060085484610ab291906123db565b610abc9190612464565b90506000818385610acd9190612351565b610ad79190612351565b905080341015610b205780346040517f7040b58c000000000000000000000000000000000000000000000000000000008152600401610b179291906125b9565b60405180910390fd5b610b2a3387611c10565b80341115610bfa5760003373ffffffffffffffffffffffffffffffffffffffff168234610b5791906123a7565b604051610b6390612613565b60006040518083038185875af1925050503d8060008114610ba0576040519150601f19603f3d011682016040523d82523d6000602084013e610ba5565b606091505b5050905080610bf857338234610bbb91906123a7565b6040517f2c6a51e2000000000000000000000000000000000000000000000000000000008152600401610bef929190612628565b60405180910390fd5b505b6000600660009054906101000a900473ffffffffffffffffffffffffffffffffffffffff1673ffffffffffffffffffffffffffffffffffffffff1684604051610c4290612613565b60006040518083038185875af1925050503d8060008114610c7f576040519150601f19603f3d011682016040523d82523d6000602084013e610c84565b606091505b5050905060008673ffffffffffffffffffffffffffffffffffffffff1684604051610cae90612613565b60006040518083038185875af1925050503d8060008114610ceb576040519150601f19603f3d011682016040523d82523d6000602084013e610cf0565b606091505b50509050818015610cfe5750805b610d3d576040517f08c379a0000000000000000000000000000000000000000000000000000000008152600401610d349061269d565b60405180910390fd5b610d45610732565b8773ffffffffffffffffffffffffffffffffffffffff163373ffffffffffffffffffffffffffffffffffffffff167ff3f9b81b1aa7af42b83e33d01a22621ecf67d5ebeb4587a4d63e3737276076818b604051610da29190612118565b60405180910390a45050505050505050565b606060048054610dc3906122f0565b80601f0160208091040260200160405190810160405280929190818152602001828054610def906122f0565b8015610e3c5780601f10610e1157610100808354040283529160200191610e3c565b820191906000526020600020905b815481529060010190602001808311610e1f57829003601f168201915b5050505050905090565b600080610e516115a5565b90506000610e5f8286610ff8565b905083811015610ea4576040517f08c379a0000000000000000000000000000000000000000000000000000000008152600401610e9b9061272f565b60405180910390fd5b610eb182868684036115ad565b60019250505092915050565b610ec5611acc565b8060078190555050565b600080610eda6115a5565b9050610ee7818585611804565b600191505092915050565b600080610f05610f00610732565b611a7c565b90506000610f2484610f15610732565b610f1f91906123a7565b611a7c565b905060008183610f3491906123a7565b90506000670de0b6b3a764000060075483610f4f91906123db565b610f599190612464565b90506000670de0b6b3a764000060085484610f7491906123db565b610f7e9190612464565b90506000818385610f8f91906123a7565b610f9991906123a7565b9050809650505050505050919050565b60075481565b600080610fc2610fbd610732565b611a7c565b90506000610fe184610fd2610732565b610fdc91906123a7565b611a7c565b90508082610fef91906123a7565b92505050919050565b6000600160008473ffffffffffffffffffffffffffffffffffffffff1673ffffffffffffffffffffffffffffffffffffffff16815260200190815260200160002060008373ffffffffffffffffffffffffffffffffffffffff1673ffffffffffffffffffffffffffffffffffffffff16815260200190815260200160002054905092915050565b611087611acc565b600073ffffffffffffffffffffffffffffffffffffffff168173ffffffffffffffffffffffffffffffffffffffff1614156110f7576040517f08c379a00000000000000000000000000000000000000000000000000000000081526004016110ee906127c1565b60405180910390fd5b61110081611b4a565b50565b60085481565b611111611acc565b80600660006101000a81548173ffffffffffffffffffffffffffffffffffffffff021916908373ffffffffffffffffffffffffffffffffffffffff16021790555050565b600073ffffffffffffffffffffffffffffffffffffffff16600660009054906101000a900473ffffffffffffffffffffffffffffffffffffffff1673ffffffffffffffffffffffffffffffffffffffff1614156111e7576040517f08c379a00000000000000000000000000000000000000000000000000000000081526004016111de90612507565b60405180910390fd5b600073ffffffffffffffffffffffffffffffffffffffff168173ffffffffffffffffffffffffffffffffffffffff161415611257576040517f08c379a000000000000000000000000000000000000000000000000000000000815260040161124e90612599565b60405180910390fd5b611260336108cd565b8211156112ae57611270336108cd565b826040517f59efbd200000000000000000000000000000000000000000000000000000000081526004016112a59291906125b9565b60405180910390fd5b60006112b983610faf565b90506000670de0b6b3a7640000600754836112d491906123db565b6112de9190612464565b90506000670de0b6b3a7640000600854846112f991906123db565b6113039190612464565b905061130f3386611d67565b60003373ffffffffffffffffffffffffffffffffffffffff1682848661133591906123a7565b61133f91906123a7565b60405161134b90612613565b60006040518083038185875af1925050503d8060008114611388576040519150601f19603f3d011682016040523d82523d6000602084013e61138d565b606091505b50509050806113eb57338284866113a491906123a7565b6113ae91906123a7565b6040517f2c6a51e20000000000000000000000000000000000000000000000000000000081526004016113e2929190612628565b60405180910390fd5b6000600660009054906101000a900473ffffffffffffffffffffffffffffffffffffffff1673ffffffffffffffffffffffffffffffffffffffff168460405161143390612613565b60006040518083038185875af1925050503d8060008114611470576040519150601f19603f3d011682016040523d82523d6000602084013e611475565b606091505b5050905060008673ffffffffffffffffffffffffffffffffffffffff168460405161149f90612613565b60006040518083038185875af1925050503d80600081146114dc576040519150601f19603f3d011682016040523d82523d6000602084013e6114e1565b606091505b505090508180156114ef5750805b61152e576040517f08c379a00000000000000000000000000000000000000000000000000000000081526004016115259061269d565b60405180910390fd5b611536610732565b8773ffffffffffffffffffffffffffffffffffffffff163373ffffffffffffffffffffffffffffffffffffffff167f9eaa2feeb3b37bf70a72e15de2e6e61b6f2060b2fb40839961c26bbc238dd2028b6040516115939190612118565b60405180910390a45050505050505050565b600033905090565b600073ffffffffffffffffffffffffffffffffffffffff168373ffffffffffffffffffffffffffffffffffffffff16141561161d576040517f08c379a000000000000000000000000000000000000000000000000000000000815260040161161490612853565b60405180910390fd5b600073ffffffffffffffffffffffffffffffffffffffff168273ffffffffffffffffffffffffffffffffffffffff16141561168d576040517f08c379a0000000000000000000000000000000000000000000000000000000008152600401611684906128e5565b60405180910390fd5b80600160008573ffffffffffffffffffffffffffffffffffffffff1673ffffffffffffffffffffffffffffffffffffffff16815260200190815260200160002060008473ffffffffffffffffffffffffffffffffffffffff1673ffffffffffffffffffffffffffffffffffffffff168152602001908152602001600020819055508173ffffffffffffffffffffffffffffffffffffffff168373ffffffffffffffffffffffffffffffffffffffff167f8c5be1e5ebec7d5bd14f71427d1e84f3dd0314c0f7b2291e5b200ac8c7c3b9258360405161176b9190612118565b60405180910390a3505050565b60006117848484610ff8565b90507fffffffffffffffffffffffffffffffffffffffffffffffffffffffffffffffff81146117fe57818110156117f0576040517f08c379a00000000000000000000000000000000000000000000000000000000081526004016117e790612951565b60405180910390fd5b6117fd84848484036115ad565b5b50505050565b600073ffffffffffffffffffffffffffffffffffffffff168373ffffffffffffffffffffffffffffffffffffffff161415611874576040517f08c379a000000000000000000000000000000000000000000000000000000000815260040161186b906129e3565b60405180910390fd5b600073ffffffffffffffffffffffffffffffffffffffff168273ffffffffffffffffffffffffffffffffffffffff1614156118e4576040517f08c379a00000000000000000000000000000000000000000000000000000000081526004016118db90612a75565b60405180910390fd5b6118ef838383611f35565b60008060008573ffffffffffffffffffffffffffffffffffffffff1673ffffffffffffffffffffffffffffffffffffffff16815260200190815260200160002054905081811015611975576040517f08c379a000000000000000000000000000000000000000000000000000000000815260040161196c90612b07565b60405180910390fd5b8181036000808673ffffffffffffffffffffffffffffffffffffffff1673ffffffffffffffffffffffffffffffffffffffff16815260200190815260200160002081905550816000808573ffffffffffffffffffffffffffffffffffffffff1673ffffffffffffffffffffffffffffffffffffffff168152602001908152602001600020600082825401925050819055508273ffffffffffffffffffffffffffffffffffffffff168473ffffffffffffffffffffffffffffffffffffffff167fddf252ad1be2c89b69c2b068fc378daa952ba7f163c4a11628f55a4df523b3ef84604051611a639190612118565b60405180910390a3611a76848484611f3a565b50505050565b600060066001836002611a8f91906123db565b611a999190612351565b600184611aa69190612351565b84611ab191906123db565b611abb91906123db565b611ac59190612464565b9050919050565b611ad46115a5565b73ffffffffffffffffffffffffffffffffffffffff16611af261093b565b73ffffffffffffffffffffffffffffffffffffffff1614611b48576040517f08c379a0000000000000000000000000000000000000000000000000000000008152600401611b3f90612b73565b60405180910390fd5b565b6000600560009054906101000a900473ffffffffffffffffffffffffffffffffffffffff16905081600560006101000a81548173ffffffffffffffffffffffffffffffffffffffff021916908373ffffffffffffffffffffffffffffffffffffffff1602179055508173ffffffffffffffffffffffffffffffffffffffff168173ffffffffffffffffffffffffffffffffffffffff167f8be0079c531659141344cd1fd0a4f28419497f9722a3daafe3b4186f6b6457e060405160405180910390a35050565b600073ffffffffffffffffffffffffffffffffffffffff168273ffffffffffffffffffffffffffffffffffffffff161415611c80576040517f08c379a0000000000000000000000000000000000000000000000000000000008152600401611c7790612bdf565b60405180910390fd5b611c8c60008383611f35565b8060026000828254611c9e9190612351565b92505081905550806000808473ffffffffffffffffffffffffffffffffffffffff1673ffffffffffffffffffffffffffffffffffffffff168152602001908152602001600020600082825401925050819055508173ffffffffffffffffffffffffffffffffffffffff16600073ffffffffffffffffffffffffffffffffffffffff167fddf252ad1be2c89b69c2b068fc378daa952ba7f163c4a11628f55a4df523b3ef83604051611d4f9190612118565b60405180910390a3611d6360008383611f3a565b5050565b600073ffffffffffffffffffffffffffffffffffffffff168273ffffffffffffffffffffffffffffffffffffffff161415611dd7576040517f08c379a0000000000000000000000000000000000000000000000000000000008152600401611dce90612c71565b60405180910390fd5b611de382600083611f35565b60008060008473ffffffffffffffffffffffffffffffffffffffff1673ffffffffffffffffffffffffffffffffffffffff16815260200190815260200160002054905081811015611e69576040517f08c379a0000000000000000000000000000000000000000000000000000000008152600401611e6090612d03565b60405180910390fd5b8181036000808573ffffffffffffffffffffffffffffffffffffffff1673ffffffffffffffffffffffffffffffffffffffff1681526020019081526020016000208190555081600260008282540392505081905550600073ffffffffffffffffffffffffffffffffffffffff168373ffffffffffffffffffffffffffffffffffffffff167fddf252ad1be2c89b69c2b068fc378daa952ba7f163c4a11628f55a4df523b3ef84604051611f1c9190612118565b60405180910390a3611f3083600084611f3a565b505050565b505050565b505050565b600081519050919050565b600082825260208201905092915050565b60005b83811015611f79578082015181840152602081019050611f5e565b83811115611f88576000848401525b50505050565b6000601f19601f8301169050919050565b6000611faa82611f3f565b611fb48185611f4a565b9350611fc4818560208601611f5b565b611fcd81611f8e565b840191505092915050565b60006020820190508181036000830152611ff28184611f9f565b905092915050565b600080fd5b600073ffffffffffffffffffffffffffffffffffffffff82169050919050565b600061202a82611fff565b9050919050565b61203a8161201f565b811461204557600080fd5b50565b60008135905061205781612031565b92915050565b6000819050919050565b6120708161205d565b811461207b57600080fd5b50565b60008135905061208d81612067565b92915050565b600080604083850312156120aa576120a9611ffa565b5b60006120b885828601612048565b92505060206120c98582860161207e565b9150509250929050565b60008115159050919050565b6120e8816120d3565b82525050565b600060208201905061210360008301846120df565b92915050565b6121128161205d565b82525050565b600060208201905061212d6000830184612109565b92915050565b60008060006060848603121561214c5761214b611ffa565b5b600061215a86828701612048565b935050602061216b86828701612048565b925050604061217c8682870161207e565b9150509250925092565b60006020828403121561219c5761219b611ffa565b5b60006121aa8482850161207e565b91505092915050565b600060ff82169050919050565b6121c9816121b3565b82525050565b60006020820190506121e460008301846121c0565b92915050565b6121f38161201f565b82525050565b600060208201905061220e60008301846121ea565b92915050565b60006020828403121561222a57612229611ffa565b5b600061223884828501612048565b91505092915050565b6000806040838503121561225857612257611ffa565b5b60006122668582860161207e565b925050602061227785828601612048565b9150509250929050565b6000806040838503121561229857612297611ffa565b5b60006122a685828601612048565b92505060206122b785828601612048565b9150509250929050565b7f4e487b7100000000000000000000000000000000000000000000000000000000600052602260045260246000fd5b6000600282049050600182168061230857607f821691505b6020821081141561231c5761231b6122c1565b5b50919050565b7f4e487b7100000000000000000000000000000000000000000000000000000000600052601160045260246000fd5b600061235c8261205d565b91506123678361205d565b9250827fffffffffffffffffffffffffffffffffffffffffffffffffffffffffffffffff0382111561239c5761239b612322565b5b828201905092915050565b60006123b28261205d565b91506123bd8361205d565b9250828210156123d0576123cf612322565b5b828203905092915050565b60006123e68261205d565b91506123f18361205d565b9250817fffffffffffffffffffffffffffffffffffffffffffffffffffffffffffffffff048311821515161561242a57612429612322565b5b828202905092915050565b7f4e487b7100000000000000000000000000000000000000000000000000000000600052601260045260246000fd5b600061246f8261205d565b915061247a8361205d565b92508261248a57612489612435565b5b828204905092915050565b7f70726f746f636f6c46656544657374696e6174696f6e20697320746865207a6560008201527f726f206164647265737300000000000000000000000000000000000000000000602082015250565b60006124f1602a83611f4a565b91506124fc82612495565b604082019050919050565b60006020820190508181036000830152612520816124e4565b9050919050565b7f5f73747265616d6572416464726573732069732061207a65726f20616464726560008201527f7373000000000000000000000000000000000000000000000000000000000000602082015250565b6000612583602283611f4a565b915061258e82612527565b604082019050919050565b600060208201905081810360008301526125b281612576565b9050919050565b60006040820190506125ce6000830185612109565b6125db6020830184612109565b9392505050565b600081905092915050565b50565b60006125fd6000836125e2565b9150612608826125ed565b600082019050919050565b600061261e826125f0565b9150819050919050565b600060408201905061263d60008301856121ea565b61264a6020830184612109565b9392505050565b7f556e61626c6520746f2073656e642066756e6473000000000000000000000000600082015250565b6000612687601483611f4a565b915061269282612651565b602082019050919050565b600060208201905081810360008301526126b68161267a565b9050919050565b7f45524332303a2064656372656173656420616c6c6f77616e63652062656c6f7760008201527f207a65726f000000000000000000000000000000000000000000000000000000602082015250565b6000612719602583611f4a565b9150612724826126bd565b604082019050919050565b600060208201905081810360008301526127488161270c565b9050919050565b7f4f776e61626c653a206e6577206f776e657220697320746865207a65726f206160008201527f6464726573730000000000000000000000000000000000000000000000000000602082015250565b60006127ab602683611f4a565b91506127b68261274f565b604082019050919050565b600060208201905081810360008301526127da8161279e565b9050919050565b7f45524332303a20617070726f76652066726f6d20746865207a65726f2061646460008201527f7265737300000000000000000000000000000000000000000000000000000000602082015250565b600061283d602483611f4a565b9150612848826127e1565b604082019050919050565b6000602082019050818103600083015261286c81612830565b9050919050565b7f45524332303a20617070726f766520746f20746865207a65726f20616464726560008201527f7373000000000000000000000000000000000000000000000000000000000000602082015250565b60006128cf602283611f4a565b91506128da82612873565b604082019050919050565b600060208201905081810360008301526128fe816128c2565b9050919050565b7f45524332303a20696e73756666696369656e7420616c6c6f77616e6365000000600082015250565b600061293b601d83611f4a565b915061294682612905565b602082019050919050565b6000602082019050818103600083015261296a8161292e565b9050919050565b7f45524332303a207472616e736665722066726f6d20746865207a65726f20616460008201527f6472657373000000000000000000000000000000000000000000000000000000602082015250565b60006129cd602583611f4a565b91506129d882612971565b604082019050919050565b600060208201905081810360008301526129fc816129c0565b9050919050565b7f45524332303a207472616e7366657220746f20746865207a65726f206164647260008201527f6573730000000000000000000000000000000000000000000000000000000000602082015250565b6000612a5f602383611f4a565b9150612a6a82612a03565b604082019050919050565b60006020820190508181036000830152612a8e81612a52565b9050919050565b7f45524332303a207472616e7366657220616d6f756e742065786365656473206260008201527f616c616e63650000000000000000000000000000000000000000000000000000602082015250565b6000612af1602683611f4a565b9150612afc82612a95565b604082019050919050565b60006020820190508181036000830152612b2081612ae4565b9050919050565b7f4f776e61626c653a2063616c6c6572206973206e6f7420746865206f776e6572600082015250565b6000612b5d602083611f4a565b9150612b6882612b27565b602082019050919050565b60006020820190508181036000830152612b8c81612b50565b9050919050565b7f45524332303a206d696e7420746f20746865207a65726f206164647265737300600082015250565b6000612bc9601f83611f4a565b9150612bd482612b93565b602082019050919050565b60006020820190508181036000830152612bf881612bbc565b9050919050565b7f45524332303a206275726e2066726f6d20746865207a65726f2061646472657360008201527f7300000000000000000000000000000000000000000000000000000000000000602082015250565b6000612c5b602183611f4a565b9150612c6682612bff565b604082019050919050565b60006020820190508181036000830152612c8a81612c4e565b9050919050565b7f45524332303a206275726e20616d6f756e7420657863656564732062616c616e60008201527f6365000000000000000000000000000000000000000000000000000000000000602082015250565b6000612ced602283611f4a565b9150612cf882612c91565b604082019050919050565b60006020820190508181036000830152612d1c81612ce0565b905091905056fea2646970667358221220a2ee5753c4ae169ff7817cbb7d5b602a21de5c17e141fb2b84ad117ee64eb1de64736f6c63430008080033",
  "devdoc": {
    "kind": "dev",
    "methods": {
      "allowance(address,address)": {
        "details": "See {IERC20-allowance}."
      },
      "approve(address,uint256)": {
        "details": "See {IERC20-approve}. NOTE: If `amount` is the maximum `uint256`, the allowance is not updated on `transferFrom`. This is semantically equivalent to an infinite approval. Requirements: - `spender` cannot be the zero address."
      },
      "balanceOf(address)": {
        "details": "See {IERC20-balanceOf}."
      },
      "decimals()": {
        "details": "Returns the number of decimals used to get its user representation. For example, if `decimals` equals `2`, a balance of `505` tokens should be displayed to a user as `5.05` (`505 / 10 ** 2`). Tokens usually opt for a value of 18, imitating the relationship between Ether and Wei. This is the value {ERC20} uses, unless this function is overridden; NOTE: This information is only used for _display_ purposes: it in no way affects any of the arithmetic of the contract, including {IERC20-balanceOf} and {IERC20-transfer}."
      },
      "decreaseAllowance(address,uint256)": {
        "details": "Atomically decreases the allowance granted to `spender` by the caller. This is an alternative to {approve} that can be used as a mitigation for problems described in {IERC20-approve}. Emits an {Approval} event indicating the updated allowance. Requirements: - `spender` cannot be the zero address. - `spender` must have allowance for the caller of at least `subtractedValue`."
      },
      "increaseAllowance(address,uint256)": {
        "details": "Atomically increases the allowance granted to `spender` by the caller. This is an alternative to {approve} that can be used as a mitigation for problems described in {IERC20-approve}. Emits an {Approval} event indicating the updated allowance. Requirements: - `spender` cannot be the zero address."
      },
      "name()": {
        "details": "Returns the name of the token."
      },
      "owner()": {
        "details": "Returns the address of the current owner."
      },
      "renounceOwnership()": {
        "details": "Leaves the contract without owner. It will not be possible to call `onlyOwner` functions anymore. Can only be called by the current owner. NOTE: Renouncing ownership will leave the contract without an owner, thereby removing any functionality that is only available to the owner."
      },
      "symbol()": {
        "details": "Returns the symbol of the token, usually a shorter version of the name."
      },
      "totalSupply()": {
        "details": "See {IERC20-totalSupply}."
      },
      "transfer(address,uint256)": {
        "details": "See {IERC20-transfer}. Requirements: - `to` cannot be the zero address. - the caller must have a balance of at least `amount`."
      },
      "transferFrom(address,address,uint256)": {
        "details": "See {IERC20-transferFrom}. Emits an {Approval} event indicating the updated allowance. This is not required by the EIP. See the note at the beginning of {ERC20}. NOTE: Does not update the allowance if the current allowance is the maximum `uint256`. Requirements: - `from` and `to` cannot be the zero address. - `from` must have a balance of at least `amount`. - the caller must have allowance for ``from``'s tokens of at least `amount`."
      },
      "transferOwnership(address)": {
        "details": "Transfers ownership of the contract to a new account (`newOwner`). Can only be called by the current owner."
      }
    },
    "version": 1
  },
  "userdoc": {
    "kind": "user",
    "methods": {},
    "version": 1
  },
  "storageLayout": {
    "storage": [
      {
        "astId": 128,
        "contract": "contracts/VibesTokenV1.sol:VibesTokenV1",
        "label": "_balances",
        "offset": 0,
        "slot": "0",
        "type": "t_mapping(t_address,t_uint256)"
      },
      {
        "astId": 134,
        "contract": "contracts/VibesTokenV1.sol:VibesTokenV1",
        "label": "_allowances",
        "offset": 0,
        "slot": "1",
        "type": "t_mapping(t_address,t_mapping(t_address,t_uint256))"
      },
      {
        "astId": 136,
        "contract": "contracts/VibesTokenV1.sol:VibesTokenV1",
        "label": "_totalSupply",
        "offset": 0,
        "slot": "2",
        "type": "t_uint256"
      },
      {
        "astId": 138,
        "contract": "contracts/VibesTokenV1.sol:VibesTokenV1",
        "label": "_name",
        "offset": 0,
        "slot": "3",
        "type": "t_string_storage"
      },
      {
        "astId": 140,
        "contract": "contracts/VibesTokenV1.sol:VibesTokenV1",
        "label": "_symbol",
        "offset": 0,
        "slot": "4",
        "type": "t_string_storage"
      },
      {
        "astId": 7,
        "contract": "contracts/VibesTokenV1.sol:VibesTokenV1",
        "label": "_owner",
        "offset": 0,
        "slot": "5",
        "type": "t_address"
      },
      {
        "astId": 834,
        "contract": "contracts/VibesTokenV1.sol:VibesTokenV1",
        "label": "protocolFeeDestination",
        "offset": 0,
        "slot": "6",
        "type": "t_address"
      },
      {
        "astId": 836,
        "contract": "contracts/VibesTokenV1.sol:VibesTokenV1",
        "label": "protocolFeePercent",
        "offset": 0,
        "slot": "7",
        "type": "t_uint256"
      },
      {
        "astId": 838,
        "contract": "contracts/VibesTokenV1.sol:VibesTokenV1",
        "label": "streamerFeePercent",
        "offset": 0,
        "slot": "8",
        "type": "t_uint256"
      }
    ],
    "types": {
      "t_address": {
        "encoding": "inplace",
        "label": "address",
        "numberOfBytes": "20"
      },
      "t_mapping(t_address,t_mapping(t_address,t_uint256))": {
        "encoding": "mapping",
        "key": "t_address",
        "label": "mapping(address => mapping(address => uint256))",
        "numberOfBytes": "32",
        "value": "t_mapping(t_address,t_uint256)"
      },
      "t_mapping(t_address,t_uint256)": {
        "encoding": "mapping",
        "key": "t_address",
        "label": "mapping(address => uint256)",
        "numberOfBytes": "32",
        "value": "t_uint256"
      },
      "t_string_storage": {
        "encoding": "bytes",
        "label": "string",
        "numberOfBytes": "32"
      },
      "t_uint256": {
        "encoding": "inplace",
        "label": "uint256",
        "numberOfBytes": "32"
      }
    }
  }
}